:100000000C9420010C9448010C9448010C94480174
:100010000C9448010C9448010C9448010C9448013C
:100020000C9448010C9448010C9448010C94CA06A5
:100030000C9439070C9448010C9448010C94480125
:100040000C9448010C9448010C9448010C9448010C
:100050000C9448010C944A090C9448010C944801F2
:100060000C9448010C9448010C9448010C944801EC
:100070000C94480100000000000000000000000097
:10008000000000002A002B002800000000000000F3
:100090000000000000000000000000000000000060
:1000A0000000000000000000000000000000000050
:1000B000000000002C001E02340220022102220255
:1000C000240234002602270225022E0236002D00CB
:1000D0003700380027001E001F00200021002200EA
:1000E00023002400250026003302330036022E00B0
:1000F000370238021F020402050206020702080244
:1001000009020A020B020C020D020E020F0210027B
:10011000110212021302140215021602170218022B
:1001200019021A021B021C021D022F0031003000AE
:1001300023022D0235000400050006000700080018
:1001400009000A000B000C000D000E000F0010004B
:1001500011001200130014001500160017001800FB
:1001600019001A001B001C001D002F023102300272
:1001700035020000080B0002020200000904000022
:100180000102020000052400100105240101010400
:10019000240206052406000107058103100040091A
:1001A000040100020A000000070502021000000717
:1001B0000583021000000403090412010002EF028B
:1001C000014041234C480001010203014172647562
:1001D000696E6F204C4C4300486F6F644C6F6164D4
:1001E00065723220313675320005010906A101859C
:1001F00002050719E029E715002501750195088119
:1002000002050C95017508150026FF00190029FF4D
:100210008100050795067508150026E700190029D5
:10022000E78100C0050C0901A1018504150026FF26
:100230000319002AFF03950475108100C00094097A
:1002400011241FBECFEFD2E0DEBFCDBF11E0A0E092
:10025000B1E0E4EBF6E102C005900D92A636B107DD
:10026000D9F721E0A6E6B1E001C01D92A13FB20797
:10027000E1F711E0C0E2D1E004C02197FE010E9445
:10028000520BCF31D107C9F70E94300A0C94580B9A
:100290000C940000FC0180919E01882311F13FB76E
:1002A000F89482E08093E9002091F200822F90E0A0
:1002B0001816190614F481E090E0882339F05C9850
:1002C00044E640939D014091F1004083222339F0A0
:1002D0002091F200211103C02BE62093E8003FBFDC
:1002E00008958FEF9FEF08954091970150919801E5
:1002F000209195013091960142175307B4F49091E3
:10030000E8009570E1F39091E80092FD19C08093A8
:10031000F100809197019091980101968F73992730
:10032000892B19F48EEF8093E800809197019091CA
:1003300098010196909398018093970181E0089528
:1003400080E00895EF92FF920F931F93CF93DF9376
:10035000F82E192FE62E042F81E0860F880F0E94B9
:10036000740183E00E947401CF2DD12FEC0EFD2E7D
:10037000F11CCE15DF05B9F007FF13C0FE01849113
:100380000E947401182F80E00E947401812321963D
:100390008111EFCFDF91CF911F910F91FF90EF90DF
:1003A00008958881EDCF81E0F5CFDF92EF92FF9243
:1003B0000F931F93CF93DF93D82E8A01EB017B011C
:1003C000E40EF51ECE15DF0559F0D7FE12C0FE0172
:1003D00084910E94740121968111F4CF0FEF1FEFD9
:1003E000C801DF91CF911F910F91FF90EF90DF90A7
:1003F00008958881EECF2FB7F89487708093E90035
:100400009091E800892F807295FF04C09091F200CE
:1004100080E1891B2FBF0895615030F02091F100D9
:10042000FC0120830196F8CF5C9884E680939D01BF
:100430000895AF92BF92CF92DF92EF92FF920F9307
:100440001F93CF93DF936C017B018B01040F151F6A
:10045000EB015E01AE18BF08C017D10759F06991D2
:10046000D601ED91FC910190F081E02DC601099536
:10047000892B79F7C501DF91CF911F910F91FF90E3
:10048000EF90DF90CF90BF90AF90089580918D0155
:1004900081110DC082E08093890184E080938A01FC
:1004A00010928C0110928B0181E080938D0189E87C
:1004B00091E008950F931F93CF93DF931F92CDB7D1
:1004C000DEB782E0898342E450E064E771E080E8CF
:1004D0000E94D5010E944602DC0112960D911C91EA
:1004E0000115110589F0D801ED91FC910280F3818D
:1004F000E02DBE016F5F7F4FC801099597FD04C0D5
:10050000F80100851185ECCF89810F90DF91CF91A3
:100510001F910F910895CF93DF931F92CDB7DEB750
:100520006983DC01ED91FC910280F381E02D41E0D3
:1005300050E0BE016F5F7F4F09950F90DF91CF9123
:10054000089583E08093E9008091F200882319F0F8
:100550008AE38093E800089583E00E94FB0190E025
:100560000895CF93DF931F92CDB7DEB7FC0184854A
:10057000958597FD08C02FEF3FEF358724870F90B3
:10058000DF91CF910895CE0101960E944A01019713
:1005900019F4898190E0F3CF8FEF9FEFF0CF0F93A5
:1005A0001F93CF93DF931F92CDB7DEB78C01FC0171
:1005B0008485958597FF0BC0CE0101960E944A0164
:1005C000019771F4898190E0F80195878487F8019B
:1005D000848595850F90DF91CF911F910F9108959C
:1005E0008FEF9FEFF1CFFC018485958597FD0BC0C0
:1005F0009FB7F89482E08093E9008091F2009FBF5A
:1006000090E0019608959FB7F89482E08093E90006
:100610008091F2009FBF90E008953FB7F8948091D9
:10062000840190918501A0918601B091870126B542
:10063000A89B05C02F3F19F00196A11DB11D3FBF1A
:10064000BA2FA92F982F8827BC01CD01620F711DE9
:10065000811D911D42E0660F771F881F991F4A95E3
:10066000D1F708958F929F92AF92BF92CF92DF926F
:10067000EF92FF924B015C010E940D036B017C0124
:100680000E940D036C197D098E099F09683E734015
:1006900081059105A8F321E0821A9108A108B1080B
:1006A00088EEC80E83E0D81EE11CF11C8114910471
:1006B000A104B10429F7FF90EF90DF90CF90BF9095
:1006C000AF909F908F9008957F928F929F92AF925C
:1006D000BF92CF92DF92EF92FF920F931F93CF932F
:1006E000DF93C82E8B017A0180919E01811110C089
:1006F0008FEF9FEFDF91CF911F910F91FF90EF90C0
:10070000DF90CF90BF90AF909F908F907F90089593
:1007100080919B0180FF05C08091E0008260809302
:10072000E000CE2DDF2DD12C8AEFB82E8C2D8770D6
:10073000982E8C2D8072882E8C2D8074782E9AE3C2
:10074000A92E209719F4DD2009F452C08C2D0E94A7
:10075000FB0181110AC0BA94BB2051F261E070E044
:1007600080E090E00E943203ECCF8C171D0611F060
:100770000CF08C2F9FB7F8949092E9002091E8003C
:1007800025FD02C09FBFDDCF282F30E0C21BD30B59
:10079000882029F08150A0F01092F100FBCFF801E1
:1007A000C7FC0AC0815050F041914093F100FACF4C
:1007B00044914093F10031968150D0F7020F131FFE
:1007C000DD2021F0A092E800D12CDCCF8091E80060
:1007D00085FD07C0A092E800DD24D394209791F214
:1007E000F3CF209779F6772069F2A092E800CACF7C
:1007F0005D9884E680939C01C7017CCFCF93DF9303
:10080000EC0180911001882331F083E00E946403A1
:100810001816190634F081E090E09B838A8380E00B
:1008200090E0DF91CF910895CF93DF93DC0190E2C8
:10083000960F9830B0F414968C91149721E030E024
:1008400001C0220F9A95EAF7442341F0282B149611
:100850002C9381E090E0DF91CF910895209528239B
:10086000F6CFFD0136964423D1F0CD010C96EF0171
:100870002991621771F3C817D907D1F790E080E08A
:100880002191211105C0A80FB91F16966C93E1CFD5
:10089000019686309105A1F790E080E0DCCF90E0F2
:1008A00080E02191621305C0A80FB91F16961C9213
:1008B000D0CF019686309105A1F7EECFCF92DF928F
:1008C000FF920F931F93CF93DF938C01F42EE62FAB
:1008D000F0E0EE0FFF1FEC58FF4FC590D490D80109
:1008E000ED91FC910484F585E02D6C2DC8010995EE
:1008F000EC01892B11F4F11070C0D0FE0CC0D801AE
:10090000ED91FC910484F585E02D4F2D60EEC8013A
:100910000995C82BD92BD1FE0CC0D801ED91FC91C3
:100920000484F585E02D4F2D61EEC8010995C82B93
:10093000D92BD2FE0CC0D801ED91FC910484F58531
:10094000E02D4F2D62EEC8010995C82BD92BD3FE9F
:100950000CC0D801ED91FC910484F585E02D4F2D5C
:1009600063EEC8010995C82BD92BD4FE0CC0D80161
:10097000ED91FC910484F585E02D4F2D64EEC801C6
:100980000995C82BD92BD5FE0CC0D801ED91FC914F
:100990000484F585E02D4F2D65EEC8010995C82B1F
:1009A000D92BD6FE0CC0D801ED91FC910484F585BD
:1009B000E02D4F2D66EEC8010995C82BD92BD7FE27
:1009C0000CC0D801ED91FC910484F585E02D4F2DEC
:1009D00067EEC8010995C82BD92BCE01DF91CF91C5
:1009E0001F910F91FF90DF90CF900895FF920F938A
:1009F0001F93CF93DF93EC01F62E41E00E945E043B
:100A00008C01892BA9F0E881F9810284F385E02D1E
:100A1000CE01099540E06F2DCE010E945E04892B26
:100A200039F0E881F9810284F385E02DCE01099542
:100A3000C801DF91CF911F910F91FF900895089504
:100A400090E080E00895DC01FB0112962C91129752
:100A5000848195812817190641F491818081813A1A
:100A600031F49D7F81E0913009F080E0089581327A
:100A7000E1F79B3029F482811F968C9381E00895E1
:100A80009A3099F7828150968C93F8CFAF92BF92AB
:100A9000CF92DF92EF92FF920F931F93CF93DF934A
:100AA0001F92CDB7DEB77C0169836A01590141E02D
:100AB00050E0BE016F5F7F4FFC0183810E946403A1
:100AC0008C0197FD0BC0F7018381A501B6018064FD
:100AD0000E946403080F191F97FD8C01C8010F9035
:100AE000DF91CF911F910F91FF90EF90DF90CF900A
:100AF000BF90AF900895DC01FB0188E4808389E416
:100B0000818384E482831D969C911D979F709F5BD7
:100B100093831D968D919C9124E0969587952A95B7
:100B2000E1F78F708F5B848385E00895EF92FF92E9
:100B30000F931F93CF93DF93FB012081213871F531
:100B40002381223259F5DC0112964C9124813581A2
:100B50004217130619F5EC010B851C85F12CE12CCD
:100B60000115110589F0F801448155816281738175
:100B700080E80E94D5018F3F980749F0E80EF91EE2
:100B8000D8010D911C91ECCF81E08F87C701DF91D7
:100B9000CF911F910F91FF90EF90089590E080E02A
:100BA000F6CFCF93DF93CDB7DEB769970FB6F89442
:100BB000DEBF0FBECDBFFC01DB018C918F5F8C933C
:100BC0009E012D5F3F4F8DE0D9011D928A95E9F777
:100BD00029E0298384E08A8391E09D8383E08E83EA
:100BE0002A8721E22B879C879D879F8722E2288B7B
:100BF00027E02B8B25E02C8B8E8B20E130E0388F8B
:100C00002F8B998F82818B8395858685998B8A8B93
:100C1000838180688D8B49E150E0BE016F5F7F4F1B
:100C200080E00E94D50169960FB6F894DEBF0FBE32
:100C3000CDBFDF91CF910895CF93DF93809177015E
:100C4000811167C081E080936A0180936B0120E786
:100C500031E030936D0120936C0110926F0110927E
:100C60006E0125E131E03093670120936601109217
:100C700072011092710110927401109273018093AD
:100C800075018093760181EC809370010E94460289
:100C9000FC01818190916A01482F490F5527551F0A
:100CA000463051059CF5A281B381109709F526E6DF
:100CB00031E033832283208120936801809369018E
:100CC00080916B01820F808320916C01A22FB091E3
:100CD0006D018A2F821B8917C8F481813D91C82F2D
:100CE000D0E0C050DF4F38838F5F8183F2CFD901CE
:100CF00018962D913C91199721153105C1F726E6DB
:100D000031E019963C932E931897D5CF81E08093CC
:100D1000770186E691E0DF91CF910895CF93DF933D
:100D2000EC010E941C06AE014C5F5F4F28E030E0F2
:100D300062E0DF91CF910C9446050F931F93CF9300
:100D4000DF93EB018A010E941C069801AE0164E06A
:100D5000DF91CF911F910F910C944605FC019C01EE
:100D6000285F3F4F90E080E044814111019614825A
:100D70003196E217F307C1F70895FC0101900020B6
:100D8000E9F73197AF01481B590BBC018FE991E09E
:100D90000C94FE031F920F920FB60F9211248F93A3
:100DA0009F938091E1009091E100937F9093E10007
:100DB00083FF0FC01092E90091E09093EB00109236
:100DC000EC0092E39093ED0010929E0198E09093D6
:100DD000F00082FF22C093E09093E9009091F2002E
:100DE000992319F09AE39093E80090919C0199233C
:100DF00041F090919C01915090939C01911101C000
:100E00005D9A90919D01992341F090919D0191509F
:100E100090939D01911101C05C9A84FF18C080914C
:100E2000E2008E7E81608093E2008091E1008F7EFF
:100E30008093E10080919B018E7E806180939B0175
:100E40009F918F910F900FBE0F901F90189580FF6C
:100E5000F7CF8091E2008E7E80618093E2008091E6
:100E6000E1008E7E8093E10080919B018E7E816007
:100E7000E5CF1F920F920FB60F921124CF92DF92FF
:100E8000EF92FF920F931F932F933F934F935F9394
:100E90006F937F938F939F93AF93BF93EF93FF9342
:100EA000CF93DF93CDB7DEB76C97DEBFCDBF109287
:100EB000E9008091E80083FF25C068E0CE014596F7
:100EC0000E940C0282EF8093E8008D8987FF39C071
:100ED0009091E80090FFFCCF982F907609F034C1F4
:100EE0009E894F89588D2F89F88C911131C0803897
:100EF00061F580919A018093F1001092F1008EEFDC
:100F00008093E8006C960FB6F894DEBF0FBECDBF9D
:100F1000DF91CF91FF91EF91BF91AF919F918F9111
:100F20007F916F915F914F913F912F911F910F9101
:100F3000FF90EF90DF90CF900F900FBE0F901F901B
:100F400018959EEF9093E800C7CF1092F100D5CF8F
:100F5000913059F48111D3CF4130510581F6809100
:100F60009A018D7F80939A01CACF933049F4811101
:100F7000C6CF4130510519F680919A018260F2CFB7
:100F8000953041F48091E80080FFFCCF20682093E9
:100F9000E300B5CF963009F0A9C00B8D1C8D22E07F
:100FA0001092E9001092980110929701F2122EC04F
:100FB00010929601109295010E945A021F8299E0A8
:100FC0009983FA8291E09E8390EA98879AEF9987B5
:100FD0002091970130919801275F3F4F3C832B83ED
:100FE0008D831092E900109298011092970110934E
:100FF00096010093950149E050E0BE016F5F7F4F7D
:1010000080E00E94D5010E945A0279CF1093960188
:10101000009395010E944602DC0112960D911C91ED
:101020000115110509F430C1D801ED91FC9104803E
:10103000F581E02DBE016B5E7F4FC80109950097D9
:1010400009F01DC1F80100851185EACFF3E0FF1218
:101050000EC08F89882309F440C0823061F440E8D3
:1010600060E188ED91E00E94A201811148CF81E208
:101070008093EB0047CF813029F440E86BE08CECA3
:1010800091E0F1CF833099F70E944602DC0112967D
:10109000ED90FC908E010F5F1F4F6801E114F10489
:1010A00079F0D701ED91FC910680F781E02DB80130
:1010B000C7010995080F111DF701E084F184EECFF7
:1010C000D8011C92F60101900020E9F73197BF0189
:1010D0006C197D0940E0C601C6CF66EB71E0FB01EB
:1010E000449150E080E80E94D50109CF973009F47F
:1010F000BECF983021F481E08093F10000CF993089
:1011000009F0FDCE837009F0B2CFE1E0F1E081E0BB
:1011100031E092E12191222371F08093E900309334
:10112000EB00DF0111972C912093EC009093ED00E0
:101130008F5F853079F78EE78093EA001092EA009E
:101140008F8980939E01DBCE8B8D9C8D1092E90060
:1011500010929801109297019093960180939501B7
:10116000898D811171C08E899D89913A49F48132AE
:1011700009F07DCF47E050E069E071E080E0B3CF57
:10118000913209F074CF833269F48F89988DB0E081
:10119000A0E08093050190930601A0930701B0930E
:1011A0000801ADCE803269F48091E80082FFFCCF67
:1011B00067E089E091E00E940C028BEF8093E800E9
:1011C0009ECE823209F09BCE8F8980931001809150
:1011D000090190910A01A0910B01B0910C01803B93
:1011E0009440A105B105C9F48091100180FD15C09E
:1011F00087E797E79093FF028093FE02809160005B
:101200008093990188E19BE00FB6F894A8958093AC
:1012100060000FBE9093600072CE8091FE029091AC
:10122000FF028737974709F06ACEA8958091600042
:101230008861809360008091990180936000109292
:10124000FF021092FE025BCE0E944602DC01129663
:101250000D911C910115110509F409CFD801ED91EB
:10126000FC910190F081E02DBE016B5E7F4FC801C3
:101270000995811144CEF80100851185EBCF181630
:1012800019060CF43CCEF3CEF1E0FF12DFCE6AEB90
:1012900071E025CF1F920F920FB60F9211242F935A
:1012A0003F938F939F93AF93BF93809180019091D1
:1012B0008101A0918201B091830130917F0123E0EF
:1012C000230F2D3758F50196A11DB11D20937F01E5
:1012D0008093800190938101A0938201B093830158
:1012E0008091840190918501A0918601B091870140
:1012F0000196A11DB11D8093840190938501A09357
:101300008601B0938701BF91AF919F918F913F91DB
:101310002F910F900FBE0F901F90189526E8230F66
:101320000296A11DB11DD2CF1092A2011092A1016F
:1013300088EE93E0A0E0B0E08093A3019093A40135
:10134000A093A501B093A60181E291E09093A00142
:1013500080939F018FEF9FEF9093AC018093AB013F
:101360001092D0011092CF0183E391E09093CE01CF
:101370008093CD018091C501811113C01092C001ED
:101380001092BF0189EE91E09093C2018093C10158
:101390008BE390E09093C4018093C30181E080933C
:1013A000C5010E941C06FC01A385B485109709F0B5
:1013B00042C08FEB91E09487838785859685209145
:1013C000C3013091C401820F931F9687858785E4FE
:1013D00091E09093E8018093E7018091DF01811112
:1013E00013C01092DA011092D90184E292E0909336
:1013F000DC018093DB0189E190E09093DE01809332
:10140000DD0181E08093DF010E941C06FC01A385C1
:10141000B4851097D9F489ED91E094878387858509
:1014200096852091DD013091DE01820F931F968712
:1014300085870895DC018D919C9111970097D1F7D4
:101440008FEB91E08D939C93B8CFDC018D919C91B3
:1014500011970097D1F789ED91E08D939C93DFCFA1
:10146000CF93DF93CDB7DEB7A1970FB6F894DEBF69
:101470000FBECDBF789484B5826084BD84B5816091
:1014800084BD85B5826085BD85B5816085BD80914F
:101490006E00816080936E001092810080918100C7
:1014A00082608093810080918100816080938100BF
:1014B0008091800081608093800010929E01109244
:1014C0009A0110929B0180EA8093D80089B58460CC
:1014D00089BD89B5826089BD09B400FEFDCF61E098
:1014E00070E080E090E00E9432038091D8008F7D10
:1014F0008093D8008091E000887F8093E000809105
:10150000E1008E7E8093E1008DE08093E2008AB15D
:1015100080638AB98FEF9FEF9093AC018093AB010A
:1015200087E491E00E94BD068DE591E00E94BD0632
:1015300060ED77E080E090E00E9432035AE0C52E33
:10154000D12CE12CF12C6AE0462E512C612C712C0F
:1015500019A2460157018E010F5D1F4FC501B4014D
:10156000A30192010E94300B605DF80162938F012C
:10157000FAE08F169104A104B10409F453C00115D7
:10158000110519F0C8010E94BD068DE591E00E9489
:10159000BD0664EF71E080E090E00E94320381E0DC
:1015A000C81AD108E108F10899F600EE10E030E021
:1015B000E32E30E0F32EDD24D39480918801811155
:1015C0003AC0E9EEF1E090E080E02191319101969E
:1015D000232B69F5880F991FFC01E951FE4F1183F8
:1015E000008348E050E069EE71E087EE91E00E94F0
:1015F0009D06E7EEF1E082819381803E910511F432
:1016000013821282329681E0EF3EF807A1F748E09C
:1016100050E069EE71E087EE91E00E949D06D09265
:101620008801CBCF812C912C5401839497CF8430A7
:10163000910559F6D6CF80E691E00E94BD068DE572
:1016400091E00E94BD066CE271E080E090E00E94B3
:101650003203E114F10409F4B0CF0E940000ADCFD1
:10166000A1E21A2EAA1BBB1BFD010DC0AA1FBB1FA6
:10167000EE1FFF1FA217B307E407F50720F0A21B18
:10168000B30BE40BF50B661F771F881F991F1A9485
:1016900069F760957095809590959B01AC01BD01AF
:1016A000CF010895EE0FFF1F0590F491E02D0994EE
:0416B000F894FFCFDC
:1016B40000C1808100FFFFFFFF00E1000000000087
:1016C40000000000002305D10596057B05000000FD
:1016D400008B02FE03AC02A102F302B102CF0200AE
:1016E400000000F604190220051F05AE068E06143C
:1016F40004000000009D0653797374656D207769BA
:101704006C6C20696E697420696E3A20000D0A00C1
:06171400646F6E65210008
:00000001FF
