:100000000C9420010C9448010C9448010C94480174
:100010000C9448010C9448010C9448010C9448013C
:100020000C9448010C9448010C9448010C944F071F
:100030000C94BE070C9448010C9448010C944801A0
:100040000C9448010C9448010C9448010C9448010C
:100050000C9448010C94CF090C9448010C9448016D
:100060000C9448010C9448010C9448010C944801EC
:100070000C94480100000000000000000000000097
:10008000000000002A002B002800000000000000F3
:100090000000000000000000000000000000000060
:1000A0000000000000000000000000000000000050
:1000B000000000002C001E02340220022102220255
:1000C000240234002602270225022E0236002D00CB
:1000D0003700380027001E001F00200021002200EA
:1000E00023002400250026003302330036022E00B0
:1000F000370238021F020402050206020702080244
:1001000009020A020B020C020D020E020F0210027B
:10011000110212021302140215021602170218022B
:1001200019021A021B021C021D022F0031003000AE
:1001300023022D0235000400050006000700080018
:1001400009000A000B000C000D000E000F0010004B
:1001500011001200130014001500160017001800FB
:1001600019001A001B001C001D002F023102300272
:1001700035020000080B0002020200000904000022
:100180000102020000052400100105240101010400
:10019000240206052406000107058103100040091A
:1001A000040100020A000000070502021000000717
:1001B0000583021000000403090412010002EF028B
:1001C000014041234C480001010203014172647562
:1001D000696E6F204C4C4300486F6F644C6F6164D4
:1001E00065723220313675320005010906A101859C
:1001F00002050719E029E715002501750195088119
:1002000002050C95017508150026FF00190029FF4D
:100210008100050795067508150026E700190029D5
:10022000E78100C0050C0901A1018504150026FF26
:100230000319002AFF03950475108100C000190AF4
:1002400011241FBECFEFD2E0DEBFCDBF11E0A0E092
:10025000B1E0E8EBF7E102C005900D92A03BB107D9
:10026000D9F722E0A0EBB1E001C01D92AB33B20799
:10027000E1F711E0C0E2D1E004C02197FE010E9445
:10028000D40BCF31D107C9F70E94B50A0C94DA0B11
:100290000C940000FC018091E801882311F13FB724
:1002A000F89482E08093E9002091F200822F90E0A0
:1002B0001816190614F481E090E0882339F05C9850
:1002C00044E64093E7014091F1004083222339F056
:1002D0002091F200211103C02BE62093E8003FBFDC
:1002E00008958FEF9FEF08954091E1015091E20151
:1002F0002091DF013091E00142175307B4F490914F
:10030000E8009570E1F39091E80092FD19C08093A8
:10031000F1008091E1019091E20101968F7399279C
:10032000892B19F48EEF8093E8008091E101909180
:10033000E20101969093E2018093E10181E008954A
:1003400080E00895EF92FF920F931F93CF93DF9376
:10035000F82E192FE62E042F81E0860F880F0E94B9
:10036000740183E00E947401CF2DD12FEC0EFD2E7D
:10037000F11CCE15DF05B9F007FF13C0FE01849113
:100380000E947401182F80E00E947401812321963D
:100390008111EFCFDF91CF911F910F91FF90EF90DF
:1003A00008958881EDCF81E0F5CFDF92EF92FF9243
:1003B0000F931F93CF93DF93D82E8A01EB017B011C
:1003C000E40EF51ECE15DF0559F0D7FE12C0FE0172
:1003D00084910E94740121968111F4CF0FEF1FEFD9
:1003E000C801DF91CF911F910F91FF90EF90DF90A7
:1003F00008958881EECF2FB7F89487708093E90035
:100400009091E800892F807295FF04C09091F200CE
:1004100080E1891B2FBF0895615030F02091F100D9
:10042000FC0120830196F8CF5C9884E68093E70175
:100430000895AF92BF92CF92DF92EF92FF920F9307
:100440001F93CF93DF936C017B018B01040F151F6A
:10045000EB015E01AE18BF08C017D10759F06991D2
:10046000D601ED91FC910190F081E02DC601099536
:10047000892B79F7C501DF91CF911F910F91FF90E3
:10048000EF90DF90CF90BF90AF9008958091D7010B
:1004900081110DC082E08093D30184E08093D40168
:1004A0001092D6011092D50181E08093D70183ED9F
:1004B00091E008950F931F93CF93DF931F92CDB7D1
:1004C000DEB782E0898342E450E064E771E080E8CF
:1004D0000E94D5010E944602DC0112960D911C91EA
:1004E0000115110589F0D801ED91FC910280F3818D
:1004F000E02DBE016F5F7F4FC801099597FD04C0D5
:10050000F80100851185ECCF89810F90DF91CF91A3
:100510001F910F910895CF93DF931F92CDB7DEB750
:100520006983DC01ED91FC910280F381E02D41E0D3
:1005300050E0BE016F5F7F4F09950F90DF91CF9123
:10054000089583E08093E9008091F200882319F0F8
:100550008AE38093E800089583E00E94FB0190E025
:100560000895CF93DF931F92CDB7DEB7FC0184854A
:10057000958597FD08C02FEF3FEF358724870F90B3
:10058000DF91CF910895CE0101960E944A01019713
:1005900019F4898190E0F3CF8FEF9FEFF0CF0F93A5
:1005A0001F93CF93DF931F92CDB7DEB78C01FC0171
:1005B0008485958597FF0BC0CE0101960E944A0164
:1005C000019771F4898190E0F80195878487F8019B
:1005D000848595850F90DF91CF911F910F9108959C
:1005E0008FEF9FEFF1CFFC018485958597FD0BC0C0
:1005F0009FB7F89482E08093E9008091F2009FBF5A
:1006000090E0019608959FB7F89482E08093E90006
:100610008091F2009FBF90E008953FB7F8948091D9
:10062000CE019091CF01A091D001B091D10126B51A
:10063000A89B05C02F3F19F00196A11DB11D3FBF1A
:10064000BA2FA92F982F8827BC01CD01620F711DE9
:10065000811D911D42E0660F771F881F991F4A95E3
:10066000D1F708958F929F92AF92BF92CF92DF926F
:10067000EF92FF924B015C010E940D036B017C0124
:100680000E940D036C197D098E099F09683E734015
:1006900081059105A8F321E0821A9108A108B1080B
:1006A00088EEC80E83E0D81EE11CF11C8114910471
:1006B000A104B10429F7FF90EF90DF90CF90BF9095
:1006C000AF909F908F9008957F928F929F92AF925C
:1006D000BF92CF92DF92EF92FF920F931F93CF932F
:1006E000DF93C82E8B017A018091E801811110C03F
:1006F0008FEF9FEFDF91CF911F910F91FF90EF90C0
:10070000DF90CF90BF90AF909F908F907F90089593
:100710008091E50180FF05C08091E00082608093B8
:10072000E000CE2DDF2DD12C8AEFB82E8C2D8770D6
:10073000982E8C2D8072882E8C2D8074782E9AE3C2
:10074000A92E209719F4DD2009F452C08C2D0E94A7
:10075000FB0181110AC0BA94BB2051F261E070E044
:1007600080E090E00E943203ECCF8C171D0611F060
:100770000CF08C2F9FB7F8949092E9002091E8003C
:1007800025FD02C09FBFDDCF282F30E0C21BD30B59
:10079000882029F08150A0F01092F100FBCFF801E1
:1007A000C7FC0AC0815050F041914093F100FACF4C
:1007B00044914093F10031968150D0F7020F131FFE
:1007C000DD2021F0A092E800D12CDCCF8091E80060
:1007D00085FD07C0A092E800DD24D394209791F214
:1007E000F3CF209779F6772069F2A092E800CACF7C
:1007F0005D9884E68093E601C7017CCFCF93DF93B9
:10080000EC0180911001882331F083E00E946403A1
:100810001816190634F081E090E09B838A8380E00B
:1008200090E0DF91CF910895CF93DF93DC0190E2C8
:10083000960F9830B0F414968C91149721E030E024
:1008400001C0220F9A95EAF7442341F0282B149611
:100850002C9381E090E0DF91CF910895209528239B
:10086000F6CFFD0136964423D1F0CD010C96EF0171
:100870002991621771F3C817D907D1F790E080E08A
:100880002191211105C0A80FB91F16966C93E1CFD5
:10089000019686309105A1F790E080E0DCCF90E0F2
:1008A00080E02191621305C0A80FB91F16961C9213
:1008B000D0CF019686309105A1F7EECFCF92DF928F
:1008C000FF920F931F93CF93DF938C01F42EE62FAB
:1008D000F0E0EE0FFF1FEC58FF4FC590D490D80109
:1008E000ED91FC910484F585E02D6C2DC8010995EE
:1008F000EC01892B11F4F11070C0D0FE0CC0D801AE
:10090000ED91FC910484F585E02D4F2D60EEC8013A
:100910000995C82BD92BD1FE0CC0D801ED91FC91C3
:100920000484F585E02D4F2D61EEC8010995C82B93
:10093000D92BD2FE0CC0D801ED91FC910484F58531
:10094000E02D4F2D62EEC8010995C82BD92BD3FE9F
:100950000CC0D801ED91FC910484F585E02D4F2D5C
:1009600063EEC8010995C82BD92BD4FE0CC0D80161
:10097000ED91FC910484F585E02D4F2D64EEC801C6
:100980000995C82BD92BD5FE0CC0D801ED91FC914F
:100990000484F585E02D4F2D65EEC8010995C82B1F
:1009A000D92BD6FE0CC0D801ED91FC910484F585BD
:1009B000E02D4F2D66EEC8010995C82BD92BD7FE27
:1009C0000CC0D801ED91FC910484F585E02D4F2DEC
:1009D00067EEC8010995C82BD92BCE01DF91CF91C5
:1009E0001F910F91FF90DF90CF900895FF920F938A
:1009F0001F93CF93DF93EC01F62E41E00E945E043B
:100A00008C01892BA9F0E881F9810284F385E02D1E
:100A1000CE01099540E06F2DCE010E945E04892B26
:100A200039F0E881F9810284F385E02DCE01099542
:100A3000C801DF91CF911F910F91FF900895089504
:100A400090E080E00895DC01FB0112962C91129752
:100A5000848195812817190641F491818081813A1A
:100A600031F49D7F81E0913009F080E0089581327A
:100A7000E1F79B3029F482811F968C9381E00895E1
:100A80009A3099F7828150968C93F8CFAF92BF92AB
:100A9000CF92DF92EF92FF920F931F93CF93DF934A
:100AA0001F92CDB7DEB77C0169836A01590141E02D
:100AB00050E0BE016F5F7F4FFC0183810E946403A1
:100AC0008C0197FD0BC0F7018381A501B6018064FD
:100AD0000E946403080F191F97FD8C01C8010F9035
:100AE000DF91CF911F910F91FF90EF90DF90CF900A
:100AF000BF90AF900895DC01FB0188E4808389E416
:100B0000818384E482831D969C911D979F709F5BD7
:100B100093831D968D919C9124E0969587952A95B7
:100B2000E1F78F708F5B848385E00895EF92FF92E9
:100B30000F931F93CF93DF93FB012081213871F531
:100B40002381223259F5DC0112964C9124813581A2
:100B50004217130619F5EC010B851C85F12CE12CCD
:100B60000115110589F0F801448155816281738175
:100B700080E80E94D5018F3F980749F0E80EF91EE2
:100B8000D8010D911C91ECCF81E08F87C701DF91D7
:100B9000CF911F910F91FF90EF90089590E080E02A
:100BA000F6CFCF93DF93CDB7DEB769970FB6F89442
:100BB000DEBF0FBECDBFFC01DB018C918F5F8C933C
:100BC0009E012D5F3F4F8DE0D9011D928A95E9F777
:100BD00029E0298384E08A8391E09D8383E08E83EA
:100BE0002A8721E22B879C879D879F8722E2288B7B
:100BF00027E02B8B25E02C8B8E8B20E130E0388F8B
:100C00002F8B998F82818B8395858685998B8A8B93
:100C1000838180688D8B49E150E0BE016F5F7F4F1B
:100C200080E00E94D50169960FB6F894DEBF0FBE32
:100C3000CDBFDF91CF910895CF93DF938091C10114
:100C4000811167C081E08093B4018093B5012AEBE4
:100C500031E03093B7012093B6011092B9011092A0
:100C6000B80125E131E03093B1012093B001109239
:100C7000BC011092BB011092BE011092BD01809385
:100C8000BF018093C00181EC8093BA010E944602AB
:100C9000FC0181819091B401482F490F5527551FC0
:100CA000463051059CF5A281B381109709F520EBE0
:100CB00031E03383228320812093B2018093B301FA
:100CC0008091B501820F80832091B601A22FB0914F
:100CD000B7018A2F821B8917C8F481813D91C82FE3
:100CE000D0E0C050DF4F38838F5F8183F2CFD901CE
:100CF00018962D913C91199721153105C1F720EBDC
:100D000031E019963C932E931897D5CF81E08093CC
:100D1000C10180EB91E0DF91CF910895CF93DF93F4
:100D2000EC010E941C06AE014C5F5F4F28E030E0F2
:100D300062E0DF91CF910C9446050F931F93CF9300
:100D4000DF93EB018A010E941C069801AE0164E06A
:100D5000DF91CF911F910F910C944605E3E3F2E0F0
:100D600030E020E0419151912F5F3F4F452B79F4C6
:100D7000220F331FF901EF5CFD4F9183808348E020
:100D800050E063E372E081E392E00C949D0624302E
:100D9000310541F7F4CFE1E3F2E0228133812817F6
:100DA000390711F413821282329622E0E933F207F6
:100DB000A1F748E050E063E372E081E392E00C9435
:100DC0009D06FC019C01285F3F4F90E080E044813C
:100DD0004111019614823196E217F307C1F7089585
:100DE000FC0101900020E9F73197AF01481B590B36
:100DF000BC0189EE91E00C94FE038F929F92AF921A
:100E0000BF920F931F93CF93DF93CDB7DEB7A19718
:100E10000FB6F894DEBF0FBECDBF19A2423008F462
:100E20004AE08E010F5D1F4F842E912CB12CA12C16
:100E3000A50194010E94B20BE62FB901CA01EA3064
:100E4000F4F4E05DD801EE938D01232B242B252BA8
:100E500079F790E080E0109719F0CD010E94F0063C
:100E6000A1960FB6F894DEBF0FBECDBFDF91CF9134
:100E70001F910F91BF90AF909F908F900895E95C64
:100E8000E1CFCF93DF930E94F006EC0187E491E07D
:100E90000E94F0068C0F9D1FDF91CF9108951F9245
:100EA0000F920FB60F9211248F939F938091E100C0
:100EB0009091E100937F9093E10083FF0FC0109227
:100EC000E90091E09093EB001092EC0092E3909394
:100ED000ED001092E80198E09093F00082FF22C0AC
:100EE00093E09093E9009091F200992319F09AE32E
:100EF0009093E8009091E601992341F09091E601EA
:100F000091509093E601911101C05D9A9091E70193
:100F1000992341F09091E70191509093E70191114D
:100F200001C05C9A84FF18C08091E2008E7E8160CF
:100F30008093E2008091E1008F7E8093E1008091B8
:100F4000E5018E7E80618093E5019F918F910F90E6
:100F50000FBE0F901F90189580FFF7CF8091E20091
:100F60008E7E80618093E2008091E1008E7E80938E
:100F7000E1008091E5018E7E8160E5CF1F920F92A6
:100F80000FB60F921124CF92DF92EF92FF920F9340
:100F90001F932F933F934F935F936F937F938F9301
:100FA0009F93AF93BF93EF93FF93CF93DF93CDB70F
:100FB000DEB76C97DEBFCDBF1092E9008091E800EC
:100FC00083FF25C068E0CE0145960E940C0282EFA7
:100FD0008093E8008D8987FF39C09091E80090FFE9
:100FE000FCCF982F907609F034C19E894F89588D97
:100FF0002F89F88C911131C0803861F58091E4011E
:101000008093F1001092F1008EEF8093E8006C96CF
:101010000FB6F894DEBF0FBECDBFDF91CF91FF9129
:10102000EF91BF91AF919F918F917F916F915F9160
:101030004F913F912F911F910F91FF90EF90DF9073
:10104000CF900F900FBE0F901F9018959EEF90932A
:10105000E800C7CF1092F100D5CF913059F481113B
:10106000D3CF4130510581F68091E4018D7F80938B
:10107000E401CACF933049F48111C6CF4130510504
:1010800019F68091E4018260F2CF953041F48091AD
:10109000E80080FFFCCF20682093E300B5CF9630B6
:1010A00009F0A9C00B8D1C8D22E01092E90010926E
:1010B000E2011092E101F2122EC01092E0011092B2
:1010C000DF010E945A021F8299E09983FA8291E01F
:1010D0009E8390EA98879AEF99872091E101309159
:1010E000E201275F3F4F3C832B838D831092E90001
:1010F0001092E2011092E1011093E0010093DF01F0
:1011000049E050E0BE016F5F7F4F80E00E94D50153
:101110000E945A0279CF1093E0010093DF010E94F0
:101120004602DC0112960D911C910115110509F47E
:1011300030C1D801ED91FC910480F581E02DBE0114
:101140006B5E7F4FC8010995009709F01DC1F8013A
:1011500000851185EACFF3E0FF120EC08F89882346
:1011600009F440C0823061F440E860E188ED91E02C
:101170000E94A201811148CF81E28093EB0047CF0A
:10118000813029F440E86BE08CEC91E0F1CF8330C2
:1011900099F70E944602DC011296ED90FC908E01B8
:1011A0000F5F1F4F6801E114F10479F0D701ED9151
:1011B000FC910680F781E02DB801C7010995080F61
:1011C000111DF701E084F184EECFD8011C92F601E5
:1011D00001900020E9F73197BF016C197D0940E0CB
:1011E000C601C6CF66EB71E0FB01449150E080E898
:1011F0000E94D50109CF973009F4BECF983021F471
:1012000081E08093F10000CF993009F0FDCE83702A
:1012100009F0B2CFE1E0F1E081E031E092E121912B
:10122000222371F08093E9003093EB00DF011197E6
:101230002C912093EC009093ED008F5F853079F72F
:101240008EE78093EA001092EA008F898093E8018C
:10125000DBCE8B8D9C8D1092E9001092E2011092F2
:10126000E1019093E0018093DF01898D811171C0CC
:101270008E899D89913A49F4813209F07DCF47E00A
:1012800050E069E071E080E0B3CF913209F074CFB3
:10129000833269F48F89988DB0E0A0E080930501D6
:1012A00090930601A0930701B0930801ADCE803260
:1012B00069F48091E80082FFFCCF67E089E091E06B
:1012C0000E940C028BEF8093E8009ECE823209F0E0
:1012D0009BCE8F89809310018091090190910A0122
:1012E000A0910B01B0910C01803B9440A105B10588
:1012F000C9F48091100180FD15C087E797E79093AE
:10130000FF028093FE02809160008093E30188E1F8
:101310009BE00FB6F894A895809360000FBE909361
:10132000600072CE8091FE029091FF02873797474E
:1013300009F06ACEA8958091600088618093600072
:101340008091E301809360001092FF021092FE02F0
:101350005BCE0E944602DC0112960D911C91011594
:10136000110509F409CFD801ED91FC910190F081AC
:10137000E02DBE016B5E7F4FC8010995811144CEFF
:10138000F80100851185EBCF181619060CF43CCE38
:10139000F3CEF1E0FF12DFCE6AEB71E025CF1F92B2
:1013A0000F920FB60F9211242F933F938F939F9319
:1013B000AF93BF938091CA019091CB01A091CC01D2
:1013C000B091CD013091C90123E0230F2D3758F59D
:1013D0000196A11DB11D2093C9018093CA0190936C
:1013E000CB01A093CC01B093CD018091CE0190911F
:1013F000CF01A091D001B091D1010196A11DB11DE5
:101400008093CE019093CF01A093D001B093D101EE
:10141000BF91AF919F918F913F912F910F900FBEF0
:101420000F901F90189526E8230F0296A11DB11D5D
:10143000D2CF1092EC011092EB0188EE93E0A0E085
:10144000B0E08093ED019093EE01A093EF01B09393
:10145000F00181E291E09093EA018093E9018FEF3E
:101460009FEF9093F6018093F50110921A0210926B
:10147000190283E391E09093180280931702809100
:101480000F02811113C010920A021092090289EE14
:1014900091E090930C0280930B028BE390E0909389
:1014A0000E0280930D0281E080930F020E941C06C1
:1014B000FC01A385B485109709F042C089E092E051
:1014C000948783878585968520910D0230910E0241
:1014D000820F931F9687858785E491E0909332026F
:1014E0008093310280912902811113C0109224024D
:1014F0001092230284E292E09093260280932502C8
:1015000089E190E0909328028093270281E0809304
:1015100029020E941C06FC01A385B4851097D9F40A
:1015200083E292E0948783878585968520912702C0
:1015300030912802820F931F968785870895DC01DA
:101540008D919C9111970097D1F789E092E08D934E
:101550009C93B8CFDC018D919C9111970097D1F7A6
:1015600083E292E08D939C93DFCF789484B5826080
:1015700084BD84B5816084BD85B5826085BD85B537
:10158000816085BD80916E00816080936E001092B5
:101590008100809181008260809381008091810030
:1015A00081608093810080918000816080938000C1
:1015B0001092E8011092E4011092E50180EA809314
:1015C000D80089B5846089BD89B5826089BD09B4B8
:1015D00000FEFDCF61E070E080E090E00E94320309
:1015E0008091D8008F7D8093D8008091E000887F23
:1015F0008093E0008091E1008E7E8093E1008DE099
:101600008093E2008AB180638AB98FEF9FEF909355
:10161000F6018093F5018AE491E00E94410760EDB4
:1016200077E080E090E00E9432038AE0C82ED12C5F
:10163000E12CF12C4AE0C701B6010E94FD0687E4C7
:1016400091E00E94F00668EC70E080E090E00E947B
:10165000320381E0C81AD108E108F10859F7E3E341
:10166000F2E088E0DF011D928A95E9F748E050E05A
:10167000BF0181E392E00E949D0687E192E00E9413
:10168000E10687E192E00E948E0680E691E00E94EA
:1016900041071092D20187E791E00E944107C5E619
:1016A000D0E08AEE90E00E94AE068AEE90E00E94C2
:1016B000CB066AE070E080E090E00E943203219760
:1016C00081F78EE891E00E944107C091D201C436B3
:1016D00090F489EE90E00E94AE0689EE90E00E94C0
:1016E000CB06CE5FC093D2016AE070E080E090E06C
:1016F0000E943203EACFC091D201C53690F08AEE43
:1017000090E00E94AE068AEE90E00E94CB06C250A6
:10171000C093D2016AE070E080E090E00E94320362
:10172000EACF87E192E00E94E106892B21F087E170
:1017300092E00E948E06C0E0D0E04AE060E070E0F7
:10174000CB010E94FD0687E491E00E94F00664E66A
:1017500070E080E090E00E943203209771F30E94D5
:101760000000EBCFA1E21A2EAA1BBB1BFD010DC08E
:10177000AA1FBB1FEE1FFF1FA217B307E407F50741
:1017800020F0A21BB30BE40BF50B661F771F881F1D
:10179000991F1A9469F760957095809590959B01B3
:1017A000AC01BD01CF010895EE0FFF1F0590F4912C
:0817B000E02D0994F894FFCF2D
:1017B80000C1808100FFFFFFFF00E1000000000082
:1017C80000000000002305D10596057B05000000F8
:1017D800008B02FE03AC02A102F302B102CF0200A9
:1017E800000000F604190220051F05E1068E061404
:1017F80004000000009D060D0A0053797374656D9E
:101808002077696C6C20696E697420696E3A2000D3
:101818004368616E67696E672064656661756C749C
:101828002076616C7565005A65726F696E67207302
:10183800797374656D20766F6C756D652E005365D0
:101848007474696E672073797374656D20766F6C34
:10185800756D6520746F2064656661756C742E0003
:103000007EC00000D9C00000D7C00000D5C00000BD
:10301000D3C00000D1C00000CFC00000CDC0000070
:10302000CBC00000C9C00000C7C000003CC3000006
:10303000C3C00000C1C00000BFC00000BDC0000090
:10304000BBC00000B9C00000B7C00000B5C00000A0
:10305000B3C00000B1C00000AFC0000019C4000040
:1030600004C40000A9C00000A7C00000A5C0000063
:10307000A3C0000009023E000201008032090400E2
:1030800000010202010005240010010424020205CF
:1030900024060001070582030800FF09040100025D
:1030A0000A00000007050402200001070583024012
:1030B0000001120110010200000841234300050233
:1030C00001020001200348006F006F0064004C0003
:1030D0006F0061006400650072003200200055003E
:1030E0006E006F00000012034E00690063006F0065
:1030F00048006F006F0064000000040309041124FD
:103100001FBECFEFD2E0DEBFCDBF2091FF021092F5
:10311000FF02909180021092800284B714BE0FB615
:10312000F894A89530916000386130936000109257
:1031300060000FBE5D9A5C9AE0E0F0E0459154912A
:103140004F3F5F4F21F181FF18C0273701F19737BB
:10315000F1F087E78093FF02809380028FEF9EE972
:1031600024E2815090402040E1F700C0000010921E
:10317000FF0210928002F2D00AC080FF02C0EED09F
:1031800006C083FF04C0273711F09737C1F712E05C
:10319000A2E8B2E0EAE7FFE302C005900D92A2398F
:1031A000B107D9F722E0A2E9B2E001C01D92A33A2B
:1031B000B207E1F776D3DFC623CF80919A0287FF6B
:1031C0000FC08091E80082FD04C08BB58111F9CF5A
:1031D00010C08091E8008B770AC08BB5882349F036
:1031E0008091E80080FFF9CF8091E8008E7780938E
:1031F000E80008958F708093E900EBEEF0E08081A5
:1032000081608083EDEEF0E010826093EC004083FB
:103210008091EE00881F8827881F0895CF935B9ABE
:103220001092C9001092C8001092CA001EBA1092E3
:103230009902109298021ABC209183023091840264
:1032400040918502509186022115310541055105B5
:1032500019F4109297024FC0211581EE38074105ED
:10326000510521F481E08093970245C082E080936C
:10327000970280918802813021F0823021F4C0E2EF
:1032800003C0C0E301C0C0E080918702823009F42E
:10329000C86080918902873031F0883031F0863003
:1032A00029F4C26003C0C46001C0C660DA01C9016C
:1032B000B695A79597958795BC01CD0160587B473A
:1032C000814E9F4F36D62150310920FD04C0211573
:1032D00080E1380720F03695279580E001C082E034
:1032E0003093CD002093CC00C093CA008093C800D7
:1032F00088E98093C9005B98CF91089593E09093FB
:10330000E9009BB5992391F09091E80090FFF9CFE7
:103310008093F10081E0860D8F3310F4682E0895BC
:10332000612C8091E8008E778093E800089584E016
:103330008093E9008091E80085FD0DC08091E80050
:103340008B778093E8008BB5882339F08091E80073
:1033500082FFF9CFEFCF8091F1000895E0E0F0E037
:1033600009947F928F929F92AF92BF92CF92DF92F9
:10337000EF92FF920F931F93CF93DF93612CD7DFD0
:10338000D82F853419F41092820207C088E88D0F77
:10339000823010F0D43521F4CADF8DE0AFDF5CC19C
:1033A000D035D9F3DC34C9F3D43721F484E4A6DF73
:1033B00080E0F4CFD13611F489E5F0CFD134D1F4E7
:1033C000B6DFC82FB4DF2C2F30E0322F2227330F87
:1033D00090E0880F991F822B932B092E000CAA0BCB
:1033E000BB0B8093930290939402A0939502B093A9
:1033F0009602D3CFD03711F483E5D0CFD33551F433
:10340000CAE8D2E001E912E0899178DF0C171D07C4
:10341000D9F722C1D63521F481E370DF80E3BECF36
:10342000D33731F489E86ADF84E968DF8EE1B6CF0B
:10343000D536B9F4E0E0F0E083E095E08093570002
:10344000E89507B600FCFDCF90935700E89507B6C6
:1034500000FCFDCFE058FF4FE11520E3F20771F7C4
:103460009CCFDC3651F463DF809599E0E1E0F0E039
:10347000082E90935700E89590CFD23719F4E1E0E9
:10348000F0E00EC0D63419F4E0E0F0E009C0DE341C
:1034900019F4E3E0F0E004C0D13539F4E2E0F0E003
:1034A00089E080935700849179CFD23631F489E551
:1034B00025DF80E023DF80E871CFD23419F0D736E2
:1034C00009F0C7C034DF082F32DFC82F30DF182FD4
:1034D0008BEB810F823010F08FE360CF8C2F90E068
:1034E000902BD73609F042C021E120935700E89590
:1034F000EC01B12C01E0209709F4AEC0C09093021A
:10350000D0909402E0909502F09096021634B9F4AF
:10351000EB2DF0E0EC29FD298491F0DEBB2069F071
:1035200042E0C40ED11CE11CF11CC0929302D09267
:103530009402E0929502F0929602B02615C0D7014F
:10354000C601B695A79597958795DDD4D7DE52E04D
:10355000C50ED11CE11CF11CC0929302D0929402C2
:10356000E0929502F09296022197C5CF8090930247
:1035700090909402A0909502B0909602163441F477
:1035800023E0F40120935700E89507B600FCFDCF37
:10359000712C00E0EC01209709F44FC0163449F576
:1035A000002311F1C0909302D0909402E090950214
:1035B000F0909602BCDE272D30E0A901582B21E0C7
:1035C000F6010A0120935700E895112442E0C40E49
:1035D000D11CE11CF11CC0929302D0929402E092A3
:1035E0009502F092960202C0A2DE782E51E00527E5
:1035F00022C09DDE682F8091930290919402A09149
:103600009502B0919602B695A7959795879583D424
:103610008091930290919402A0919502B0919602AC
:103620000296A11DB11D8093930290939402A093E2
:103630009502B09396022197AECF163409F0ADCE25
:1036400085E0F40180935700E89507B600FCFDCFB4
:10365000A4CEDB3109F040CF662079F083E080937F
:10366000E9008BB5882389F08091E80080FFF9CFCD
:103670008091E8008E778093E80084E08093E900F1
:103680008091E8008B778093E800DF91CF911F91C4
:103690000F91FF90EF90DF90CF90BF90AF909F90F1
:1036A0008F907F9008951F920F920FB60F92112462
:1036B0002F933F934F935F936F937F938F939F933A
:1036C000AF93BF93EF93FF938091E10080FF15C00C
:1036D0008091E20080FF11C08091E2008E7F809394
:1036E000E2008091E20080618093E2008091D80046
:1036F00080628093D80019BC1BBC8091E10084FFDC
:103700002DC08091E20084FF29C084E089BD86E05D
:1037100089BD09B400FEFDCF8091D8008F7D8093D4
:10372000D8008091E1008F7E8093E1008091E200DB
:103730008F7E8093E2008091E20081608093E200BE
:103740008091A202882311F084E007C08091E300F9
:1037500087FD02C081E001C083E08BBD8091E10064
:1037600083FF20C08091E20083FF1CC08091E100B4
:10377000877F8093E10082E08BBD1092A20280914E
:10378000E1008E7F8093E1008091E2008E7F809344
:10379000E2008091E20080618093E20042E060E01C
:1037A00080E028DDFF91EF91BF91AF919F918F91C4
:1037B0007F916F915F914F913F912F910F900FBE2D
:1037C0000F901F90189507B600FCFDCFF999FECF1A
:1037D000809599E0E1E0F0E0082E90935700E8959D
:1037E0000895E1E0F0E089E0809357008491089526
:1037F00029E0FC01209357008491089521E2FC0107
:10380000209357008491089507B600FCFDCFF999E5
:10381000FECF21E0FB010A0120935700E895112417
:10382000089507B600FCFDCFF999FECF25E0FB0116
:1038300020935700E89507B600FCFDCF81E1809307
:103840005700E895089507B600FCFDCFF999FECF23
:1038500023E0FB0120935700E89507B600FCFDCF5D
:1038600081E180935700E89508952F01EEB3F2E0CF
:1038700031903092CE00EEBBF798F2012EB230902C
:10388000990223101895E8E9E093C900F201189510
:103890003090CE002F01EAB5F1E03192EABDF2019D
:1038A0001895CF93DF9300D01F92CDB7DEB790E08D
:1038B00080E80FB6F89480936100909361000FBE8A
:1038C00091E095BF82E085BF809163008E7F8093F9
:1038D0006300909392021092E2001092E1008091B6
:1038E000D8008F778093D8008091D800806880932B
:1038F000D8008091D8008F7D8093D80084E089BD66
:1039000086E089BD09B400FEFDCF1BBC1092A20267
:1039100042E060E080E06EDC8091E1008E7F809389
:10392000E1008091E20081608093E2008091E200FA
:1039300088608093E2008091E0008E7F8093E000B9
:1039400084E085BD8AB1886B8AB95F9A5A9A789467
:1039500022EAE22E22E0F22E36EE832E30E3932E80
:103960004AEFC42E40E3D42EA12CB12C01E010E08C
:103970002BB529831092E9008091E80083FF1AC2D9
:10398000EAE9F2E08091F1008193EE16FF06D1F7AB
:1039900080919A02982F9F77913209F0A8C0909158
:1039A0009B02913209F057C0813A09F0A0C0809182
:1039B000E800877F8093E8008091A0029091A102A7
:1039C0008730910510F087E090E040E0E3E8F2E016
:1039D000009759F12BB52223C1F12530B1F1209187
:1039E000E80023FD32C02091E80022FD2AC020918A
:1039F000E80020FFEDCF2091F20030E0009751F079
:103A00002830310538F441914093F10001972F5F40
:103A10003F4FF4CF41E02830310509F040E02091DC
:103A2000E8002E772093E800D3CF4111D3CF09C00F
:103A30008BB5882351F0853041F08091E80083FDFB
:103A400004C08091E80082FFF3CF8091E8008B777B
:103A50008093E8004CC09032C9F5813209F047C02C
:103A60008091E800877F8093E800E3E8F2E087E058
:103A7000882311F19BB5992311F1953001F19091B3
:103A8000E80093FD1CC09091E80092FFF1CF909167
:103A9000F200992329F09091F10091938150B9F7A8
:103AA0009091E8009B779093E800E2CF853039F061
:103AB0008091E80080FD03C08BB58111F7CF809124
:103AC000E8008E778093E800A9DB11C0923279F488
:103AD000813269F48091E800877F8093E8006DDB94
:103AE00080919C0280FF02C05F9801C05F9A809124
:103AF000E80083FF51C180919A0290919B0295301A
:103B000009F467C030F4913059F168F0933041F115
:103B100043C1983009F408C1993009F414C19630B2
:103B200009F03AC178C0803881F0823809F034C198
:103B300080919E028F708093E9008091EB0085FB5D
:103B4000882780F91092E90001C080E09091E80098
:103B5000977F9093E8008093F1001092F100EFC0FE
:103B6000282F2D7F09F018C1823009F015C18091EE
:103B70009C02811125C080919E028F7009F40CC1B6
:103B80008093E9002091EB0020FF1AC0933021F4CC
:103B90008091EB00806212C09091EB009061909355
:103BA000EB00F80102C0EE0FFF1F8A95E2F7E093E9
:103BB000EA001092EA008091EB0088608093EB00AD
:103BC0001092E9008091E800877F8093E800F5DAA1
:103BD000E3C08111E1C090919C029F77792E809182
:103BE000E3008078892B8093E3008091E800877F51
:103BF0008093E800E2DA8091E80080FFFCCF8091BA
:103C0000E30080688093E300711002C082E001C08D
:103C100083E08BBDC1C08058823008F0BDC0809168
:103C20009C02F0919D02FA831B822A813B81223003
:103C3000310541F02330310551F02130310509F0D3
:103C4000ABC05CC12EE330E0E4E7F0E31BC08111C0
:103C500006C0F601249130E0EAEFF0E30FC08130B6
:103C600031F4F401249130E0E6EEF0E307C0823055
:103C700009F092C0E4ECF0E3249130E02115310525
:103C800009F48AC08091E800877F8093E8008091E2
:103C9000A0029091A1022817390708F4C90140E059
:103CA000009761F12BB52223C9F12530B9F120919C
:103CB000E80023FD33C02091E80022FD2BC02091B5
:103CC000E80020FFEDCF2091F20030E0009759F09E
:103CD0002830310540F444914093F100319601972A
:103CE0002F5F3F4FF3CF41E02830310509F040E02E
:103CF0002091E8002E772093E800D2CF4111D2CF57
:103D000009C08BB5882351F0853041F08091E800DF
:103D100083FD04C08091E80082FFF3CF8091E8002A
:103D20008B778093E80038C08038B1F58091E80047
:103D3000877F8093E8008091A2028093F1008091B8
:103D4000E8008E7742CF811127C080919C0290912C
:103D50009D029927029704F58091E800877F809360
:103D6000E80070909C027092A20227DA711006C0DF
:103D70008091E30087FD02C081E001C084E08BBD3B
:103D800042E061EC82E036DA46E361E883E032DA71
:103D900042E260E884E02EDA8091E80083FF0AC006
:103DA0008091E800877F8093E8008091EB0080623B
:103DB0008093EB008BB5843081F02981243009F0A9
:103DC000D7CD109283021092840210928502109235
:103DD000860224DA5D9A5C9AC7CD90918202911195
:103DE00016C08FE99FE00197F1F700C000008091B5
:103DF000E00081608093E0009CE088E10FB6F894D9
:103E0000A895809360000FBE90936000FFCF8093D1
:103E1000E9008091E80082FF0AC09091F2009111C0
:103E200007C08091E8008B778093E80001C090E0A4
:103E300080919702813029F4992309F44DC091DAD9
:103E40004BC0823009F048C0809199022EB3821B8A
:103E500080958F779923B1F08917A0F0F2E0E09177
:103E600099028091F1008193EF779150D1F7809181
:103E7000E8008B778093E800E093990288EB8093C9
:103E8000C90002C08F3719F05C9893E0A92E8AB55B
:103E900090919802891B01F1A89902C08F33C8F054
:103EA00093E09093E9009091E80090FF12C08F3367
:103EB00008F08FE3E0919802F1E091919093F10086
:103EC0008150D1F78091E8008E778093E800E093ED
:103ED00098025D9883E0B82EA89B4ACD91E095BBEF
:103EE000BB2021F0BA94B11001C05D9AAA2009F458
:103EF0003FCDAA94A1103CCD5C9A3ACD22E130E0AE
:103F0000E2EBF0E3BFCEF999FECF92BD81BDF89A06
:103F1000992780B50895262FF999FECF1FBA92BD33
:103F200081BD20BD0FB6F894FA9AF99A0FBE01969A
:103F30000895A1E21A2EAA1BBB1BFD010DC0AA1FEA
:103F4000BB1FEE1FFF1FA217B307E407F50720F002
:103F5000A21BB30BE40BF50B661F771F881F991F7D
:103F60001A9469F760957095809590959B01AC01C6
:0A3F7000BD01CF010895F894FFCFC2
:103F7A000100000000000008484C322E302E3500A7
:103FA00052CC3FCC31CC2ACC23CC1BCC0CCC0895AA
:083FB000089508950895089595
:103FE000DFCFDFCFDFCFDFCFDFCFDFCFDFCFDFCF61
:083FF000DFCFDFCFDFCFDFCF11
:083FF8000030000000DFFBDCDB
:0400000300003000C9
:00000001FF