:100000000C9401090C9429090C9429090C942909D0
:100010000C9429090C9429090C9429090C94290998
:100020000C9429090C9429090C94D61D0C94451E96
:100030000C9429090C9429090C9429090C94290978
:100040000C9429090C9429090C9429090C94290968
:100050000C9429090C9429090C9429090C947720F3
:100060000C9429090C9429090C9429090C94290948
:100070000C9429090C9429090C9429090C94290938
:100080000C9429090C9429090C9429090C94290928
:100090000C9429090C9429090C9429090C94290918
:1000A0000C9429090C9429090C942909EAE0000010
:1000B00000003AB80000C44244C049249064484457
:1000C00060000F84210F80000894514210000894B2
:1000D000214880000092AAAAAA4400000894514234
:1000E0000000252949C044E44460001D060B80033C
:1000F0004920001D29384200392972100019294968
:10010000800039294A400000FC9292929200AAA8ED
:1001100084254E52404124948AA88439294A4000BB
:100120001D29384C24E4444000192F41C0109D295A
:1001300049C000192849808439294B80001C274B6D
:10014000C088000000000003E02295100000C924D0
:10015000B088444220D24930F82108420F808A25D5
:10016000082082008A250852288088CA554AA5524C
:10017000A888008A28A25142008A28A28A2700F86B
:10018000820820820072281C0A2700F228BC9228CC
:1001900080790A1428531B00F228BC820800790ACF
:1001A0001428509E008B2CAA9A688082C6C6AAAAE0
:1001B000AA9200820820820F808A2928D2288010E3
:1001C00084214980AAA88A28BE8A2880309204E81F
:1001D000490C00F421C84200FA083E820F80E24830
:1001E000A28A4E00722820822700F228BE8A2F00A1
:1001F0007228A2FA28803E1049AA9AA5268819F8E2
:1002000072208C2002000418264000000F80F800A5
:10021000000099060800080A08087228A27827003A
:1002200072289C8A2700F82108210400720F228A74
:100230002700790F220A270010C524F841007220F8
:100240008C0A2700722084210F8026A22220722887
:10025000A28A270022444880000800003E000000D7
:10026000000A00823E208000A4A00000421112403B
:1002700024888420A8003090C309515D0044A4A8BC
:10028000541A2A440021CA3E2AA708514F94F9451E
:1002900000AAA00000AA880000AC00040400B0007E
:1002A000060600B600040400BA00030300BD000403
:1002B0000400C100060600C700060600CD000606C1
:1002C00000D300080800DB00060600E10005050079
:1002D000E600040400EA00050500EF00030300F255
:1002E00000050500F700050500FC000505000101FB
:1002F00005050006010808000E01020200100105B4
:100300000500150103030018010202001A0105058A
:10031000001F010505002401040400280105050053
:100320002D01050500320105050037010505003CDA
:1003300001050500410103030044010505004901D1
:100340000505004E0103030051010404005501039B
:10035000030058010606005E010606006401060659
:10036000006A01090900730106060079010606000A
:100370007F0106060085010606008B010606009136
:100380000107070098010606009E01070700A50166
:10039000060600AB01080800B301060600B9010615
:1003A0000600BF01050500C401020200C6010606E1
:1003B00000CC01070700D301050500D8010606009F
:1003C000DE01060600E401060600EA01060600F06A
:1003D00001060600F6010A0A0000020606000602EF
:1003E0000505000B020606001102050500160202B3
:1003F000020018020202001A020606002002060687
:100400000026020606002C0206060032020606003E
:1004100038020606003E0206060044020606004AAE
:10042000020404004E0206060054020404005802AE
:100430000202005A02060600600202020062020680
:10044000060068020404006C020404007002040444
:1004500000740202020076020707007D020808000D
:1004600085020606008B0206060091020404009530
:1004700002020200970202020064A4C00000000011
:1004800000003AB8000000008444244480492492CB
:1004900040244484442000003E10843E00000000BC
:1004A000228A289E09C000003650853600000000D0
:1004B0002AAAAA940000000022514508000000006A
:1004C000228A289E00000211E42106000000003E5E
:1004D00083E0BE000000003E8A0820000000001EED
:1004E0008A289E082000003C8A28BC820000001C4C
:1004F0008A289C000000003C8A28A2000000003EE0
:10050000AAAAAA000003820820823E000002082650
:10051000A389220000020E22222C040C444E000269
:10052000083C8A28A2000000001E8A289E09C003F9
:1005300091C4211C000000001C8BE81E000000205C
:100540009E8A289E000000001C8A089C0000020869
:100550003C8A28BC000000003C0BE8BE000088007C
:10056000000000000000000003F0008522000000F1
:100570000000C92492C004208410821000D24924B3
:10058000C003E08421083E000002251C20820800F0
:100590000002251C21C52200000228A2AAAA94005C
:1005A0000002289451420800000228A28A289C00D8
:1005B0000003E208208208000001C8A070289C0007
:1005C0000003C8A2F228A2000001C8A28A2A9C083F
:1005D0000003C8A2F20820000001C8A28A289C00DB
:1005E00000022CB2AA69A20000022DAAAA28A20029
:1005F0000002082082083E0000022928C289220049
:10060000000020820A289C000003E20820823E00AD
:10061000000228A2FA28A2000001C8A09A289C0083
:100620000003E820F20820000003E820F2083E0062
:100630000003C8A28A28BC000001C8A082089C0050
:100640000003C8A2F228BC000001C8A28BE8A200E7
:100650000001C8AEAAE81E000001C8821080080090
:10066000000410411110000000003E03E0000000F3
:100670000088882082000000041250028A0001C80D
:10068000A278209C000001C8A272289C000003E010
:1006900082108208000001C820F2289C000003E8B4
:1006A0003C08289C000000431493E104000001C8AA
:1006B0008230289C000001C88210843E000001386E
:1006C00042108E000001C8A6AB289C0000008442A6
:1006D00021108000000A00000000F8000000000067
:1006E000001250000208F882000000008F9CF88081
:1006F00000000089249280524924402A000001C948
:100700002842A91A0000032B142146A6000021CA82
:10071000A870AA9C2000014F94F9400000000AAA8A
:100720000000002AA20000000000000000000000FD
:10073000000000000C2489124300000000000000AB
:100740000000C04081020406102040810218000110
:1007500008421084210842108000308102040860A1
:1007600020408102040600000000F8210821083E14
:10077000000000000000008282444428281010106D
:10078000202000000000824428101028448200002D
:1007900000000000000088A2255154551542208811
:1007A000000000000000000082824444282810104D
:1007B00000000000000000828282828282867A002D
:1007C000000000108FA108421070000000000072AD
:1007D000281810289C00000000000B6210842100E3
:1007E0000000000000003E4282828282463A0202FD
:1007F0000200000000B8C48282828284F880808077
:1008000000000000384482828282443800000000E8
:10081000000000BCC282828282828200000000004E
:100820000000000059866444444444444444444421
:1008300000000000002AAAAA000102040892286011
:10084000A12224200000000020E222222222C0084F
:10085000AAAA0000808080BCC2828282828282003A
:100860000000000000003E4282828282463A02443A
:100870003801D08F2108421080000000000003885A
:10088000A17E810111C0000000000202023E4282EE
:10089000828282463A0000000000000388A0408166
:1008A0000111C000000000808080B8C48282828272
:1008B00084F80000000000000388811E450A33A070
:1008C0000000001010080000000000000000000000
:1008D000000000000000000000000000000000FF19
:1008E00000000000C048120844080000000000009A
:1008F0000000000007842108421084210BC004205E
:10090000842084208420840007A1084210842108C8
:1009100043C00000FE0204081010204080FE0000CA
:10092000000000824444282810101010100000001D
:100930000000824444281010284444820000000033
:1009400000000820A1424511144451122428A0A2FD
:10095000830604100000000000000000828244446E
:100960004428282810100000000000205028140AF5
:10097000050281409087800000000000FF101010E9
:1009800010101010101000000000007C8280807099
:100990000C0202827C00000000003E1088442211FC
:1009A000F08842209020000000000001C18C41200E
:1009B000280A028090463070040100380000F88454
:1009C000828284F880808080000000000001C18C59
:1009D0004120280A0280904630700000000000008C
:1009E00030582A150A45128942A0D0600000000044
:1009F000000C1B06A2A8A94A5288A2280A020000DD
:100A0000000000020408102040810207E0000000FE
:100A1000000082848890A0E090888482000000001A
:100A200007820820820820BC00000000E4444444FF
:100A30004E00000000205028140BFD028140A05001
:100A4000200000000000078C240402011E81209871
:100A500043C00000000003F408103F40810204007E
:100A60000000000000FE808080FE80808080FE000C
:100A7000000000000FC20C8120280A0280A0483329
:100A8000F0000000000000078C2404020100802018
:100A90001843C00000000000F8848484F884828237
:100AA00084F800000000001028282828447C448294
:100AB0008200000000000003E060840223CA22528A
:100AC0001290948493F880030007C000000001E4B2
:100AD000204086102000810000000000000000007F
:100AE000400C00C00C0C0C040000000000000000D2
:100AF000000000000007F800001FE00000000000F8
:100B000000000000000001018181801801801000B8
:100B10000000000000000210000008422000000059
:100B20000210000008400000000038448282423E6B
:100B30000204087000000000007C8282827C8282B5
:100B400082827C00000000007E0204040408081079
:100B5000102000000000001C604080F88482824465
:100B60003800000000007E4040407C020202423C0F
:100B70000000000000040C14244484FE040404005B
:100B8000000000003C4202021C020202423C000043
:100B90000000003C42020204081020407E000000D9
:100BA00000000838080808080808083E000000008F
:100BB00000384482828282828244380000000042EF
:100BC000210884221088400000000000004400003A
:100BD000000000001E0000000000000000000022D5
:100BE0002400000000000008020081FC08020080D0
:100BF00000000000000010925438549210000000D1
:100C00000000000004104208421084422200004408
:100C10004221084210420820092400000000000080
:100C20001E10884441C9248A42218F200000000000
:100C300000000384112044811404570EA20288127C
:100C40002048821C0000000000000008083C4A48C0
:100C5000483C0A0A4A3C0808000000009024120F91
:100C6000E120487F090240900000000001249248E2
:100C70000000000000000000004444444044000024
:100C800000790405070080040608008804040500B4
:100C90008D04030400910404050096040608009ED8
:100CA00004060800A604060800AE04060800B60400
:100CB000060800BE04060800C604050700CD0406A9
:100CC0000800D504060800DD04060800E50406084F
:100CD00000ED04060800F504060800FD04060800FF
:100CE00005050608000D0506080015050405001A8F
:100CF000050405001F0506080027050608002F0546
:100D000005070036050608003E05060800460506EC
:100D100008004E0506080056050608005E05030497
:100D20000062050608006A05060800720503040053
:100D300076050507007D0503040081050608008986
:100D40000506080091050608009905060800A1059A
:100D5000060800A905060800B105060800B9050641
:100D60000800C105060800C905060800D1050608E7
:100D700000D905060800E105060800E90506080097
:100D8000F105060800F90506080001060608000935
:100D900006060800110606080019060608002106C6
:100DA000060800290606080031060608003906066E
:100DB0000800410606080049060608005106060814
:100DC00000590606080061060507006806060800C7
:100DD000700605070077060304007B060203007E09
:100DE0000606080086060608008E06060800960617
:100DF0000608009E06060800A606060800AE0606BF
:100E00000800B606060800BE06050700C506060867
:100E100000CD06050700D406020300D70606080029
:100E2000DF06030400E306060800EB06060800F3ED
:100E300006030400F706030400FB06020300FE0697
:100E400006080006070608000E0706080016070633
:100E500008001E07040500230702030026070608F2
:100E6000002E070A13004107070E004F07050A006E
:100E70005907070E006707060C007307080F00826A
:100E800007080F0091070A1300A407080F00B30713
:100E9000080F00C207050A00CC07060C00D807059A
:100EA0000A00E207080F00F107080F000008080F0A
:100EB000000F08080F001E080C1700350802040078
:100EC0003908070E0047080408004F0802040053C1
:100ED00008080F006208080F007108050A007B0867
:100EE000070E008908080F009808070E00A60808DA
:100EF0000F00B508070E00C308080F00D208080F3E
:100F000000E1080A1300F408050A00FE08050A00BB
:100F10000809050A001209080F002109080F00300E
:100F200009080F003F090E1B005A09080F00690944
:100F30000911007A09080F008909080F00980909AA
:100F40001100A9090A1300BC09080F00CB090A13F4
:100F500000DE09091100EF090A1300020A070E005A
:100F6000100A080F001F0A060C002B0A04080033A1
:100F70000A091100440A091100550A070E00630A04
:100F8000080F00720A0A1300850A091100960A0860
:100F90000F00A50A080F00B40A0D1900CD0A070EAC
:100FA00000DB0A0A1300EE0A0A1300010B0A130001
:100FB000140B050A001E0B050A00280B080F00374A
:100FC0000B080F00460B080F00550B080F00640BB1
:100FD000080F00730B080F00820B080F00910B081D
:100FE0000F00A00B080F00AF0B080F00BE0B050A87
:100FF00000C80B040800D00B050A00DA0B04080037
:10100000E20B0A1300F50B080F00040C050A000E92
:101010000C050A00180C0306001E0C0911002F0C09
:101020000E1B004A0C080F00590C0A13006C0C062A
:101030000C00780C040800800C040100FFFFFFFF87
:10104000FFFCFFFFFFC3FFFFFC0FFFC1E03FFE06F9
:1010500000FFF81803FFE0600FFF81803FFE0600ED
:10106000FFF81803FFE0600FFF81807FFE06023F5C
:101070008818087C206030E18180610E0600C0780D
:10108000180383F0700E0FFFF0301FFFF1843FFF55
:10109000EC387FFFE1F0FFFF8FE0FFFFFFFFFFFC79
:1010A000FFFFFFC3FFFFFC0FCFC1E03F1E0600FEA6
:1010B0003818033CE0600E7181803CE60600F19830
:1010C0001806E660601999818066660601B998186D
:1010D00003C660600F39818039E60600CF381803F7
:1010E000F8F0700FC7FFF03F3FFFF0FFFFFFE3FF97
:1010F000FFFFFFFFFFFFFFFC0000000200090F00E1
:1011000000030401000C00000000000000000000CB
:1011100000000000000000080B00020202000009AD
:101120000400000102020000052400100105240152
:1011300001010424020605240600010705810310AD
:10114000004009040100020A0000000705020240F5
:101150000000070583024000000403090412010097
:1011600002EF0201404123368000010102030141E8
:10117000726475696E6F204C4C43004172647569EE
:101180006E6F204C656F6E6172646F00000000002E
:10119000250028002B002E00310000000000240054
:1011A00027002A002D003000040404040403040571
:1011B00002020202040302020202060606060606F4
:1011C00004040202020404040802011040804010DA
:1011D000204080408008020401804020100201105D
:1011E000801020404020050C0901A1018504150054
:1011F00026FF0319002AFF03950475108100C00023
:10120000F42011241FBECFEFDAE0DEBFCDBF15E022
:10121000A0E0B1E0E8EAF2E502C005900D92AC333F
:10122000B107D9F729E0ACE3B5E001C01D92AD31BB
:10123000B207E1F719E0C1E0D9E004C02197FE014F
:101240000E944C29C030D107C9F70E9406220C9495
:1012500052290C94000090E0FC01E953FE4E2491C9
:1012600088559E4EFC018491882399F090E0880F68
:10127000991FFC01E656FE4EA591B491FC01E4577E
:10128000FE4E859194918FB7F894EC91E22BEC93FC
:101290008FBF0895CF93DF93FC0181819091BA07AE
:1012A000482F490F5527551F483051059CF5A281FD
:1012B000B381109709F526EB37E033832283208131
:1012C0002093B8078093B9078091BB07820F808372
:1012D0002091BC07A22FB091BD078A2F821B8917CE
:1012E000E8F481813D91C82FD0E0C05FDE4F3883A4
:1012F0008F5F8183F2CFD90118962D913C91199778
:1013000021153105C1F726EB37E019963C932E9352
:101310001897D5CF80E0DF91CF91089581E0FBCF82
:10132000FC0180916305882311F13FB7F89482E0B6
:101330008093E9002091F200822F90E018161906A0
:1013400014F481E090E0882339F0289844E6409333
:1013500062054091F1004083222339F02091F20090
:10136000211103C02BE62093E8003FBF08958FEFC3
:101370009FEF089540915C0550915D0520915A05BD
:1013800030915B0542175307B4F49091E8009570D3
:10139000E1F39091E80092FD19C08093F1008091F3
:1013A0005C0590915D0501968F739927892B19F43F
:1013B0008EEF8093E80080915C0590915D05019629
:1013C00090935D0580935C0581E0089580E0089529
:1013D000DF92EF92FF920F931F93CF93DF93D82E5C
:1013E0008A01EB017B01E40EF51ECE15DF0559F0F5
:1013F000D7FE12C0FE0184910E94BA092196811184
:10140000F4CF0FEF1FEFC801DF91CF911F910F9124
:10141000FF90EF90DF9008958881EECF2FB7F8947A
:1014200087708093E9009091E800892F807295FF82
:1014300004C09091F20080E4891B2FBF0895615091
:1014400030F02091F100FC0120830196F8CF28981C
:1014500084E6809362050895AF92BF92CF92DF92A7
:10146000EF92FF920F931F93CF93DF936C017B0159
:101470008B01040F151FEB015E01AE18BF08C017EA
:10148000D10759F06991D601ED91FC910190F0815D
:10149000E02DC6010995892B79F7C501DF91CF9120
:1014A0001F910F91FF90EF90DF90CF90BF90AF9082
:1014B00008958091520581110DC082E080934E0500
:1014C00084E080934F05109251051092500581E001
:1014D000809352058EE495E008950F931F93CF9368
:1014E000DF931F92CDB7DEB782E0898342E450E0FC
:1014F00067E171E180E80E94E8090E94590ADC0175
:1015000012960D911C910115110589F0D801ED91EC
:10151000FC910280F381E02DBE016F5F7F4FC80117
:10152000099597FD04C0F80100851185ECCF8981EC
:101530000F90DF91CF911F910F910895CF93DF937B
:101540001F92CDB7DEB76983DC01ED91FC9102807B
:10155000F381E02D41E050E0BE016F5F7F4F0995C0
:101560000F90DF91CF91089583E08093E9008091FF
:10157000F200882319F08AE38093E800089583E05D
:101580000E940E0A90E00895CF93DF931F92CDB78B
:10159000DEB7FC018485958597FD08C02FEF3FEFEE
:1015A000358724870F90DF91CF910895CE01019662
:1015B0000E949009019719F4898190E0F3CF8FEF91
:1015C0009FEFF0CF0F931F93CF93DF931F92CDB771
:1015D000DEB78C01FC018485958597FF0BC0CE0199
:1015E00001960E949009019771F4898190E0F801B9
:1015F00095878487F801848595850F90DF91CF9139
:101600001F910F9108958FEF9FEFF1CFFC0184851B
:10161000958597FD0BC09FB7F89482E08093E90011
:101620008091F2009FBF90E0019608959FB7F894D3
:1016300082E08093E9008091F2009FBF90E00895DE
:10164000282F30E0F901E850FF4E9491F901E95359
:10165000FE4E849128553E4EF9012491222309F42F
:1016600030C09923E9F091509F30D0F4E92FF0E099
:10167000E45CF44F0C944C296A0B6E0B4B0B620B21
:10168000660B500B500B500B710B770B7B0B7F0BCA
:10169000850B500B890B909180009F779093800071
:1016A000E22FF0E0EE0FFF1FE457FE4EA591B4913C
:1016B0009FB7F894EC91611132C080958E238C9382
:1016C0009FBF0895909180009F7DE8CF909180000A
:1016D000977FE4CF94B59F7794BDE2CF94B59F7D7B
:1016E000FBCF909190009F7790939000D9CF9091ED
:1016F00090009F7DF9CF90919000977FF5CF9091CA
:10170000C0009F779093C000CBCF9091C0009F7D89
:10171000F9CF9091C200977F9093C200C1CF8E2BDA
:10172000CECF3FB7F89480914A0590914B05A09198
:101730004C05B0914D0526B5A89B05C02F3F19F06B
:101740000196A11DB11D3FBFBA2FA92F982F882741
:10175000BC01CD01620F711D811D911D42E0660F1C
:10176000771F881F991F4A95D1F708958F929F92EE
:10177000AF92BF92CF92DF92EF92FF924B015C014A
:101780000E94910B6B017C010E94910B6C197D09E9
:101790008E099F09683E734081059105A8F321E0F9
:1017A000821A9108A108B10888EEC80E83E0D81EFD
:1017B000E11CF11C81149104A104B10429F7FF90EC
:1017C000EF90DF90CF90BF90AF909F908F90089553
:1017D0007F928F929F92AF92BF92CF92DF92EF92C1
:1017E000FF920F931F93CF93DF93C82E8B017A0143
:1017F00080916305811110C08FEF9FEFDF91CF9132
:101800001F910F91FF90EF90DF90CF90BF90AF901E
:101810009F908F907F9008958091600580FF05C014
:101820008091E00082608093E000CE2DDF2DD12CEE
:101830008AEFB82E8C2D8770982E8C2D8072882E72
:101840008C2D8074782E9AE3A92E209719F4DD2030
:1018500009F452C08C2D0E940E0A81110AC0BA945C
:10186000BB2051F261E070E080E090E00E94B60B96
:10187000ECCF8C171D0611F00CF08C2F9FB7F8944D
:101880009092E9002091E80025FD02C09FBFDDCFC6
:10189000282F30E0C21BD30B882029F08150A0F004
:1018A0001092F100FBCFF801C7FC0AC0815050F044
:1018B00041914093F100FACF44914093F100319669
:1018C0008150D0F7020F131FDD2021F0A092E80015
:1018D000D12CDCCF8091E80085FD07C0A092E80004
:1018E000DD24D394209791F2F3CF209779F67720D7
:1018F00069F2A092E800CACF5D9884E68093610502
:10190000C7017CCFCF93DF93EC0180910F01882337
:1019100031F083E00E94E80B1816190634F081E0DC
:1019200090E09B838A8380E090E0DF91CF910895DF
:101930002FB7F8946091460570914705809148054E
:10194000909149052FBF0895DC01FB0112962C915F
:101950001297848195812817190641F4918180811D
:10196000813A31F49D7F81E0913009F080E0089563
:101970008132E1F79B3029F482811F968C9381E0BC
:1019800008959A3099F7828150968C93F8CFDC01B4
:10199000FB0188E4808389E4818384E482831D964B
:1019A0009C911D979F709F5B93831D968D919C9139
:1019B00024E0969587952A95E1F78F708F5B848355
:1019C00085E00895EF92FF920F931F93CF93DF93DB
:1019D000FB012081213871F52381223259F5DC0188
:1019E00012964C91248135814217130619F5EC01AA
:1019F0000B851C85F12CE12C0115110589F0F801EE
:101A0000448155816281738180E80E94E8098F3F9B
:101A1000980749F0E80EF91ED8010D911C91ECCF02
:101A200081E08F87C701DF91CF911F910F91FF90C8
:101A3000EF90089590E080E0F6CFCF93DF93CDB79D
:101A4000DEB769970FB6F894DEBF0FBECDBFFC01BD
:101A5000DB018C918F5F8C939E012D5F3F4F8DE05A
:101A6000D9011D928A95E9F729E0298384E08A83C8
:101A700091E09D8383E08E832A8721E22B879C87D8
:101A80009D879F8722E2288B27E02B8B25E02C8BDC
:101A90008E8B20E430E0388F2F8B998F82818B835F
:101AA00095858685998B8A8B838180688D8B49E1AA
:101AB00050E0BE016F5F7F4F80E00E94E8096996A9
:101AC0000FB6F894DEBF0FBECDBFDF91CF91089562
:101AD000CF92DF92EF92FF921F93CF93DF931F92EB
:101AE000CDB7DEB77B016A018091C70781112AC09B
:101AF00011E01093BA071093BB0780EC97E0909326
:101B0000BD078093BC071092BF071092BE0786EBFB
:101B100094E09093B7078093B6071092C207109293
:101B2000C1071092C4071092C3071093C507109302
:101B3000C60781EC8093C0070E94590A0E944A0997
:101B40001093C70784E0898341E050E0BE016F5FD6
:101B50007F4F8091B9070E94E80B97FD07C08091E5
:101B6000B907A601B70180640E94E80B0F90DF91CE
:101B7000CF911F91FF90EF90DF90CF9008958EBD91
:101B800000000DB407FEFDCF8EB508958FEF0C94C5
:101B9000BF0D0F931F93CF93DF93EC010E94980C1E
:101BA0008B010E94C60D8F3F69F00E94980C601B4C
:101BB000710B6C177D07A8F380E0DF91CF911F9127
:101BC0000F91089581E0F9CFCF93CFB7F89480912A
:101BD0003E05811124C0E9EBF1E18491E8EDF1E1EA
:101BE0009491E82FF0E0EE0FFF1FE656FE4EA59110
:101BF000B491EC91E92321F461E081E10E94200B92
:101C000081E10E942B098CB580618CBD8CB580640C
:101C10008CBD8FE00E942B0980E10E942B098091EE
:101C20003E058F5F80933E05CFBFCF910895CF9340
:101C3000DF93EC01CD2FDD27C695C695C695AFE0A5
:101C4000B2E0CA9FF001CB9FF00DDA9FF00D112496
:101C50007796C6E0F695E795CA95E1F7EB01E8833C
:101C6000FC01D5E0F695E795DA95E1F7EF73FF27EC
:101C7000C3E0D1E0EC9FB001ED9F700DFC9F700DB3
:101C800011246F5D7F4FE6E076956795EA95E1F761
:101C9000FA016083AC014F7155274A9FC0014B9FE9
:101CA000900D5A9F900D11244796F6E096958795D2
:101CB000FA95E1F7E9018883DF91CF910895DC017E
:101CC0005596ED91FC91569790815A968C91892B5F
:101CD00080837EBD0DB407FEFDCF6EBD0DB407FE43
:101CE000FDCF0895DC015596ED91FC9156979081BA
:101CF0005A968C91892B80836EBD0DB407FEFDCF63
:101D00000895DC015596ED91FC91569790815A9675
:101D10008C918095892380836EBD0DB407FEFDCF25
:101D20000895DF92EF92FF920F931F93CF93DF936B
:101D3000EC01D62E142FF22EEE2039F08FA9882335
:101D400021F0F02E022FD42E162F65E1CE010E9435
:101D5000810E6D2DCE010E94720E6F2DCE010E945C
:101D6000720E65E7CE010E94810E612FCE010E94A6
:101D7000720E602FCE010E94720E6CE5CE01DF91D3
:101D8000CF911F910F91FF90EF90DF900C94810EF7
:101D9000DC015596ED91FC91569790815A968C9165
:101DA000892B8083215031094109510948F00DB434
:101DB00007FEFDCF7EBD0DB407FEFDCF6EBDF2CF99
:101DC0000DB407FEFDCF0895FC0124A52130F9F4E0
:101DD0002FE9260F2A3108F46052FC01A0A1B1A11D
:101DE0002C9130E090E080E082179307C4F4AC01BE
:101DF000440F551F480F591F1196ED91FC911297F2
:101E0000E40FF51F4081461761F00196EDCF2230B7
:101E100021F72FEB260F2A3100F7605EDECF8FEF20
:101E20009FEF08952F923F924F925F926F927F9211
:101E30008F929F92AF92BF92CF92DF92EF92FF92DA
:101E40000F931F93CF93DF93CDB7DEB762970FB693
:101E5000F894DEBF0FBECDBF5C01390148012701F8
:101E6000223031050CF02DC10230110544F58A01F4
:101E70000F5F1F4F9B012F5F3F4FEE24E394C5017F
:101E80000E94910EB201C5010E945F0E62960FB6CC
:101E9000F894DEBF0FBECDBFDF91CF911F910F91A0
:101EA000FF90EF90DF90CF90BF90AF909F908F907A
:101EB0007F906F905F904F903F902F900895040F08
:101EC000151F01501109EE24E3949B01C5010E94E6
:101ED000910EB201C5010E945F0EB1E08B1A91080C
:101EE000C1F7D4CF8401040F151F015011092150EF
:101EF0003109EE24E394C5010E94910E4C145D0457
:101F000009F4CFC09E012E5F3F4FAE014C5F5F4F83
:101F1000BE016A5F7F4FC2010E94170E9E012F5FB4
:101F20003F4FAE014D5F5F4FBE016B5F7F4FC601FC
:101F30000E94170E312C212CC401B0E0A0E08B8749
:101F40009C87AD87BE87C301770CAA0BBB0B8F871D
:101F5000988BA98BBA8BB10190E080E00E94512848
:101F60006B017C016B857C858D859E850E94512847
:101F70009B01AC01C701B6010E94B0276B017C0137
:101F8000AC019B0160E070E080E89FE30E94432782
:101F90002B013C016E8170E090E080E00E945328AC
:101FA000A30192010E94DF286F83788789879A872F
:101FB0006D8170E090E080E00E945328A7019601B7
:101FC0000E94DF289B01AC016F81788589859A8505
:101FD0000E9444270E942228062F10E0102F00277D
:101FE0000027187F6C8170E090E080E00E94532809
:101FF000A30192010E94DF286F83788789879A87DF
:102000006B8170E090E080E00E945328A701960168
:102010000E94DF289B01AC016F81788589859A85B4
:102020000E9444270E94222898E0699FB001112451
:10203000607E7770062B172B6A8170E090E080E05D
:102040000E945328A30192010E94DF282B013C012A
:10205000698170E090E080E00E945328A70196011A
:102060000E94DF289B01AC01C301B2010E944427FA
:102070000E94222870E093E0759567959A95E1F7A4
:10208000602B712B2F85388949895A89C5010E9497
:10209000C80EAFEF2A1A3A0A8214930409F05BCFF4
:1020A000F5CE689C9001699C300D789C300D112410
:1020B000032E000C440B550BB201C5010E94C80E43
:1020C000E5CE260F371F023011050CF00BCF215043
:1020D0003109EE24E3948A01C5010E94910EB201F8
:1020E000C5010E945F0EA1E06A1A7108C1F7CECE49
:1020F0001F93CF93DF93EC01142F0E94810E612F69
:10210000CE01DF91CF911F910C94720E089561E082
:10211000FC0184810E94200B80913F058111109267
:102120003F0508958CBD9DBD0895CF93DF93EC01CD
:1021300080913F05811109C081E080933F05809126
:10214000E7079091E8070E94921060E08C81DF9190
:10215000CF910C94200B8F929F92AF92BF92FF92DF
:102160000F931F93CF93DF93EC01F62E49015A0191
:102170008E81882389F08F8198859C012F5F3F4F46
:1021800038872F838230924018F40E94C60DF3CF17
:10219000CE010E9487101E82CE010E9495108CE213
:1021A00091E00E94C90D8F2D80640E94BF0D08E14F
:1021B00010E0D501C401002E04C0B695A7959795EF
:1021C00087950A94D2F70E94BF0D08501109083F65
:1021D0008FEF180771F785E9FF2021F028E087E8E5
:1021E000F2128FEF0E94BF0D10E00E94C60D8A8789
:1021F00087FF04C01F3F11F01F5FF7CFDF91CF9122
:102200001F910F91FF90BF90AF909F908F90089576
:10221000CF92DF92EF92FF920F93CF93DF93EC0177
:10222000690182E1411551056105710599F08B85C0
:10223000833039F089E0440F551F661F771F8A9558
:10224000D1F79A01AB0168E1CE010E94AB1088235F
:1022500019F084E08D832DC08EEF0E94BF0D7601B2
:102260008EEFD81AF70181917F010E94BF0DEC1407
:10227000FD04C1F78FEF0E94BF0D8FEF0E94BF0DCD
:102280000E94C60D8A878F71853071F4011116C0C6
:10229000CE010E94871081E0DF91CF910F91FF90D6
:1022A000EF90DF90CF90089581E18D83CE010E9461
:1022B0008710CE010E94871080E0EECF88E592E083
:1022C0000E94C90D811102C085E1C4CF20E030E039
:1022D000A9016DE0CE010E94AB10882311F084E1CA
:1022E000B9CF0E94C60D8111FACFD2CF0F93409182
:1022F0004105509142056091430570914405411597
:1023000051056105710599F0082F24E635E08091AB
:102310006407909165070E940811882349F0109284
:10232000410510924205109243051092440581E048
:102330000F9108950F93CF93C82F8091400581117D
:1023400005C0C1E08C2FCF910F91089540910001FD
:102350005091010160910201709103010C2F24E65C
:1023600035E080916407909165070E940811811102
:1023700002C0C0E0E7CFCC2321F381E00E947611B8
:102380008823B9F310924005DDCF9F92AF92BF92A0
:10239000CF92DF92EF92FF920F931F93CF93DF9331
:1023A0006B017C01942E8091000190910101A0911C
:1023B0000201B09103018C159D05AE05BF0509F41E
:1023C00094C081E00E949A11882389F1C09164072A
:1023D000D09165078E81882371F088819981AA81C7
:1023E000BB81C816D906EA06FB0629F48F819885B9
:1023F000892B09F443C0C882D982EA82FB828B858B
:10240000A7019601833039F099E0220F331F441F52
:10241000551F9A95D1F761E1CE010E94AB10882338
:1024200091F083E08D83CE010E94871080E0DF91E0
:10243000CF911F910F91FF90EF90DF90CF90BF90C1
:10244000AF909F9008950E94980C8B010E94C60D3A
:102450008A878F3F69F40E94980C601B710B6D3264
:102460007140A0F38FE08D83CE010E948710DBCFF7
:102470008E3F69F518861F8281E08E8304E615E0A1
:1024800084E6A82E87E0B82E0E94C60DF80181933D
:102490008F01AE16BF06C1F78F8198859E5F988722
:1024A0008F832985222319F081159240B0F08E8107
:1024B000882399F08F8198859C012F5F3F4F388743
:1024C0002F838230924028F40E94C60DF3CF8DE016
:1024D000CACFCE010E9487101E82C0920001D09206
:1024E0000101E0920201F092030140914005492967
:1024F0004093400581E09BCF8F929F92AF92BF9215
:10250000CF92DF92EF92FF92CF9329EE37E0309394
:10251000650720936407882309F46DC040E060E0FC
:1025200070E0CB010E94C51181110BC080E0CF91FA
:10253000FF90EF90DF90CF90BF90AF909F908F90E3
:102540000895809122078F7789F780912E079091C7
:102550002F07A0913007B091310784369105A1056E
:10256000B10520F3C0902A07D0902B07E0902C07EC
:10257000F0902D07C114D104E104F104B9F240E058
:10258000C701B6010E94C511882381F280916F05B1
:10259000909170058115924049F6A0917405AA2387
:1025A00029F260917205709173056115710509F446
:1025B000BDCF20917105222309F4B8CFA09307085D
:1025C0002093F90790E080E030E0E1E0F0E0C82FF0
:1025D000AF01082E02C0440F551F0A94E2F72417DA
:1025E000350769F041E0480F01968930910579F788
:1025F000409302089BCFC12CD12C7601C0CF809391
:10260000020820917A0530917B0550E040E02115C9
:10261000310541F4209188053091890540918A0562
:1026200050918B052093FA073093FB074093FC07EA
:102630005093FD0746015701860E971EA11CB11C41
:102640008092080890920908A0920A08B0920B089C
:10265000E0917505F0917605F0930E08E0930D0872
:10266000B0E00E940727DC01CB01880D991DAA1D4F
:10267000BB1D80930F0890931008A0931108B0938E
:10268000120825E0EE0FFF1F2A95E1F7E150FE4FFB
:10269000EF2FFF27E6958E0F9F1FA11DB11D809381
:1026A000030890930408A0930508B093060880904F
:1026B000770590907805B12CA12C8114910441F4F8
:1026C0008090840590908505A0908605B090870540
:1026D000C81AD90AEA0AFB0AC80CD91CEA1CFB1C56
:1026E00004C0F694E794D794C794CA95D2F7C092E1
:1026F000FE07D092FF07E0920008F092010885EFF4
:10270000C8168FE0D806E104F10428F48CE0809329
:102710000C0881E00CCF80E125EFC2162FEFD20626
:10272000E104F104A0F38091900590919105A091AE
:102730009205B091930580930F0890931008A09391
:102740001108B093120880E2E2CF4F925F926F922D
:102750007F928F929F92AF92BF92CF92DF92EF9231
:10276000FF920F931F93CF93DF93EC0142305105FB
:102770006105710590F480E0DF91CF911F910F9179
:10278000FF90EF90DF90CF90BF90AF909F908F9091
:102790007F906F905F904F90089589859A85AB8563
:1027A000BC850196A11DB11D84179507A607B70723
:1027B00010F3CB88DC88ED88FE888F89803109F0A2
:1027C00042C0BB27A72F962F852F480159012A0108
:1027D0003B01C80ED91EEA1EFB1E8091000190919C
:1027E0000101A0910201B0910301C816D906EA06C1
:1027F000FB0699F58F898031C1F5B301A2015527F8
:1028000066277727440F551F4C595A4FFA0191827A
:102810008082809140058160809340058A89823062
:1028200080F08D819E81AF81B8858C0D9D1DAE1D80
:10283000BF1D8093410590934205A0934305B0933B
:10284000440581E099CFDB01CA01E7E0B695A79581
:1028500097958795EA95D1F7B8CF40E0C701B601C3
:102860000E94C5118111C6CF86CFB301A2014F7757
:10287000552766277727440F551F440F551F4C597E
:102880005A4FFA0180829182A282B382C2CF8F9284
:102890009F92AF92BF92CF92DF92EF92FF920F93EF
:1028A0001F93CF93DF93FC0181859285A385B48527
:1028B0000196A11DB11D84179507A607B70770F4EF
:1028C00080E0DF91CF911F910F91FF90EF90DF900B
:1028D000CF90BF90AF909F908F90089583889488F9
:1028E000A588B6888789803189F5BB27A72F962FC1
:1028F000852FE9016A017B018F01BC01CD01680DC3
:10290000791D8A1D9B1D8090000190900101A0906F
:102910000201B090030186169706A806B90601F5D4
:10292000F8018789803111F5DD24EE24FF24F601BA
:10293000EE0FFF1FEC59FA4F80819181B0E0A0E0CB
:1029400088839983AA83BB8381E0BBCFDB01CA0163
:10295000C7E0B695A79597958795CA95D1F7C9CF42
:1029600040E00E94C5118111DBCFAACFE894C7F8DF
:10297000DD24EE24FF24F601EE0FFF1FEE0FFF1FF4
:10298000EC59FA4F80819181A281B381BF70D8CF79
:102990008F929F92AF92BF92CF92DF92EF92FF926F
:1029A0000F931F93CF93DF93EC018D8181110EC0A4
:1029B00080E0DF91CF911F910F91FF90EF90DF901A
:1029C000CF90BF90AF909F908F9008950B891C89F6
:1029D0002D893E89041715072607370748F34A0152
:1029E0005B01823031F48A869B86AC86BD8681E0AD
:1029F000E0CF81149104A104B10449F41E821F8226
:102A0000188619861A861B861C861D86F0CF0A85B5
:102A10001B852C853D85EB8DFC8D858590E0099689
:102A2000B901A8014150510961097109082E04C07A
:102A300076956795579547950A94D2F77501640185
:102A4000E1E0CE1AD108E108F10804C0F694E79459
:102A5000D794C7948A95D2F7C416D506E606F7062A
:102A600020F0012B022B032B11F58F89988DA98D56
:102A7000BA8D8E839F83A887B9878E010A5F1F4F07
:102A8000C114D104E104F10409F4ADCF4E815F819A
:102A90006885798598018B8D9C8D0E94471491E003
:102AA000C91AD108E108F1088111EACF81CFC41A0F
:102AB000D50AE60AF70AE1CF3F924F925F926F92F2
:102AC0007F928F929F92AF92BF92CF92DF92EF92BE
:102AD000FF920F931F93CF93DF93CDB7DEB72C9761
:102AE0000FB6F894DEBF0FBECDBF5C01DC015B9674
:102AF0008D909C905C9716964D905D906D907C901B
:102B00001997411451046104710409F468C0BFEFBE
:102B10004B1A5B0A6B0A7B0A312CF4018185928582
:102B2000A385B4859C01AD012F5F3F4F4F4F5F4F91
:102B300029873A874B875C87730162011D821E8259
:102B40001F821886F40181859285A385B4852D8125
:102B50003E814F815885281739074A075B0708F0DF
:102B600056C089859A85AB85BC858C159D05AE05BB
:102B7000BF0550F482E0C82ED12CE12CF12C92E05C
:102B8000492E512C612C712C9E012F5F3F4FB701B4
:102B9000A601C4010E9447148823C9F189819A8142
:102BA000AB81BC81892B8A2B8B2B09F12601370144
:102BB0009FEF491A590A690A790A2D813E814F818E
:102BC00058852F5F3F4F4F4F5F4F2D833E834F837D
:102BD00058873FEFC31AD30AE30AF30AB3CFF401CD
:102BE00040805180628073803324339496CFC41424
:102BF000D504E604F70409F70FEF1FEF2FEF3FE0CE
:102C0000B701A601C4010E94A513811119C080E07B
:102C10002C960FB6F894DEBF0FBECDBFDF91CF91DB
:102C20001F910F91FF90EF90DF90CF90BF90AF90EA
:102C30009F908F907F906F905F904F903F900895FE
:102C4000D50116964D915D916D917C911997411525
:102C500051056105710539F097018601C4010E9493
:102C6000A5138823A1F2D5011696CD92DD92ED929F
:102C7000FC921997332051F0D701C6010196A11D8E
:102C8000B11DF40180839183A283B383F501878909
:102C9000908DA18DB28D892B8A2B8B2B39F4848159
:102CA000C78AD08EE18EF28E80688483F50184819C
:102CB0008062848381E0ACCF1F93CF93DF93EC01DC
:102CC000162F8C8187FF2AC06E857F858889998918
:102CD00041E00E94C511882361F1EA8980E2E89F02
:102CE000F0011124EC59FA4F309719F18D8182309F
:102CF00040F48B899C89AD89BE89848F958FA68F7E
:102D0000B78F8F89988D938F828F8F89988DA98D9A
:102D1000BA8DB58BA48B8C818F778C83111103C0F6
:102D20008C818F7E8C83812FDF91CF911F910C94AA
:102D30009A1180E0DF91CF911F910895FF920F9338
:102D40001F93CF93DF93EC018D81813041F090E0B0
:102D500080E0DF91CF911F910F91FF9008958C81BA
:102D600081FFF5CF82FD1EC00091640710916507B9
:102D7000C8010E9495100E94C60DF82EC8010E943D
:102D800087108FEFF812E3CF8C8185FF1EC08D81F5
:102D9000882321F060E0CE010E945C168C818F7D3B
:102DA0008C83D5CF4B895C896D897E898A859B858B
:102DB000AC85BD8584179507A607B707A9F2CE0194
:102DC0000E94C8148111D0CFC2CF409141055091CB
:102DD00042056091430570914405452B462B472BD6
:102DE00021F080E00E947611B2CF80618C832A8529
:102DF0003B85317080E092E0821B930BAACF9F92BB
:102E0000AF92BF92CF92DF92EF92FF920F931F93F8
:102E1000CF93DF9300D000D01F92CDB7DEB78C01E7
:102E20006D83DC0115968C911597813009F0B9C03E
:102E300014968C9181FFB5C082FD9FC0D8015B962E
:102E4000ED91FC915C971A96AD90BD90CD90DC9081
:102E50001D9794809A94B601A50189E076956795AF
:102E6000579547958A95D1F79422B1E0BB229920D6
:102E700009F49FC0D8015B96ED91FC915C97169682
:102E8000CD90DD90ED90FC901997B2E0CB1AD1086F
:102E9000E108F108858504C0CC0CDD1CEE1CFF1C8C
:102EA0008A95D2F74685578560897189C40ED51EEB
:102EB000E61EF71EC90CD11CE11CF11CA114B104C3
:102EC00009F00AC1F80142855385648575858389B7
:102ED0009489A589B689481759076A077B0708F4BA
:102EE000FBC081E00E949A11882309F45AC0C09265
:102EF0000001D0920101E0920201F0920301809161
:102F00004005816080934005F501EC59FA4F8D81B1
:102F10008083F80182859385A485B5850196A11DDE
:102F2000B11D82879387A487B587438954896589B2
:102F30007689481759076A077B0738F42481838B01
:102F4000948BA58BB68B20682483D80114968C9122
:102F500083FD9FC081E090E00F900F900F900F9045
:102F60000F90DF91CF911F910F91FF90EF90DF9025
:102F7000CF90BF90AF909F900895F80143895489F6
:102F80006589768982859385A485B5854817590713
:102F90006A077B0709F452CFC8010E94C814811147
:102FA0004DCF81E090E0D80113969C938E931297B9
:102FB00049C0D80116964D915D916D917C911997FC
:102FC000A114B10409F071C04115510561057105E5
:102FD00089F557968D919D910D90BC91A02D0097EC
:102FE000A105B10509F04FC0C8010E945C158823F6
:102FF000C1F2D8015B96ED91FC915C971696CD904D
:10300000DD90ED90FC901997B2E0CB1AD108E10861
:10301000F108858504C0CC0CDD1CEE1CFF1C8A95D4
:10302000D2F74685578560897189C40ED51EE61E84
:10303000F71E48CF9E012F5F3F4FCF010E944714DC
:10304000811103C090E080E087CF89819A81AB81B4
:10305000BC81F801238D348DF901278948EF5FEF9A
:1030600060E070E0203121F048EF5FEF6FEF7FE02C
:1030700084179507A607B70730F0C8010E945C15B2
:103080008111F8CE8ECFF80186839783A087B18710
:10309000F1CEF8018581882309F483CF61E0C8016E
:1030A0000E945C16811156CF7CCF6A017B01B2E091
:1030B000CB1AD108E108F108858504C0CC0CDD1CD1
:1030C000EE1CFF1C8A95D2F7468557856089718969
:1030D000C40ED51EE61EF71E41E0C701B6010E94D0
:1030E000C511811111CF5DCFCF92DF92EF920F9377
:1030F0001F93CF93DF93EC016B0180913208909185
:1031000033080E949210EB89FC899081898D80950B
:1031100089238083E12C0FE710E02FE730E050E0B7
:1031200040E070E060E0CE010E94910E20E030E4CB
:1031300040E050E0B601CE010E94C80EEB89FC8948
:103140008081998D892B8083DF91CF911F910F9181
:10315000EF90DF90CF900895CF92DF92EF920F9390
:103160001F93CF93DF9300D000D0CDB7DEB76C01B3
:103170006370DC01D6966C93D697D7961C92D7973E
:103180001E968C911E97847E1E968C931E9780E8C7
:1031900090E016969C938E93159718969C938E9319
:1031A0001797611107C01E968C911E9780611E961D
:1031B0008C9314C0613009F068C0F6018685836184
:1031C0008687858196819A83898387819085968376
:1031D000858389819A819087878367ABD6011A9608
:1031E0001C921E9219971C961C921E921B978091FE
:1031F0003208909133080E949210D6015396ED91B7
:10320000FC915497908159968C9159978095892378
:10321000808315960D911C91169717962D913C91D0
:103220000150110921503109E12C50E040E070E0DB
:1032300060E0C6010E94910E60EAC6010E94810E04
:10324000F60196850588F689E02D8081D6015A968B
:103250002C91822B80839EBD0DB407FEFDCFD6013D
:103260005396ED91FC915497808159969C91892BAE
:1032700080830F900F900F900F90DF91CF911F914F
:103280000F91EF90DF90CF900895623029F41E9651
:103290008C911E9782608BCFF60186858160868730
:1032A000858196819C838B83878190859683858396
:1032B0008B819C819087878381E087AB8FCF089536
:1032C00090E080E008952F923F924F925F926F922C
:1032D0007F928F929F92AF92BF92CF92DF92EF92A6
:1032E000FF920F931F93CF93DF93CDB7DEB76B970A
:1032F0000FB6F894DEBF0FBECDBF9E838D833B011A
:103300004A875B8738872F831801C9862DB73EB758
:10331000398F288FC80101966DB77EB7681B790B6E
:103320000FB6F8947EBF0FBE6DBF8DB79EB70196E6
:103330009D878C87E9A9FAA92BA93CA9E217F30775
:10334000C9F0AE9C8001AF9C100D112488A9820D9C
:10335000932D911DC89E9001C99E300D1124CBA8BC
:10336000DCA876014F8158856A857B858D819E8199
:103370000E94120F2301B301680D791D798B688BB0
:1033800050E040E0B12C20E08A2D90E09F878E87AE
:103390003985329DF001339DF00D1124FB8FEA8FAA
:1033A000688979896415750509F493C0F2018491DF
:1033B00067E070E07C836B83E82FF0E0FF8BEE8B9F
:1033C000EC85FD85E20FF11D8E899F890B8002C07F
:1033D000959587950A94E2F7382F317030832F5FE7
:1033E00081709927480F591F22151304E9F44115DC
:1033F0005105B1F02416350621F54F81AB9C400DE7
:10340000112450E0CBA8DCA8E9A8FAA80E851F85F6
:103410002A8D3B8D6A857B858D819E810E94120F4E
:10342000B39450E040E020E06B817C8161507109F1
:103430007C836B836F3F7F4F19F69FEF491A590AC0
:10344000AFCF2F813885AB9C200D311D11243B8BD4
:103450002A8B3A8539834B854A83712C612C812CC8
:10346000AC85BD85A60DB71D62147304CCF62C91F6
:10347000FD01C30128163906BCF33191231306C0A0
:103480002816390619F083940196F4CF682D70E060
:103490007D8B6C8B7985789D40011124222371F0FE
:1034A000C9A8DAA876010E851F8594014A895B892F
:1034B00069817A818D819E810E94120F8C899D89FC
:1034C000680E791EE981FA81E80DF91DFA83E98316
:1034D000C6CFE88DF98D0FB6F894FEBF0FBEEDBFD5
:1034E0006B960FB6F894DEBF0FBECDBFDF91CF91C4
:1034F0001F910F91FF90EF90DF90CF90BF90AF9012
:103500009F908F907F906F905F904F903F902F9003
:103510000895FB0101900020E9F73197AF01461BA8
:10352000570BDC01ED91FC910280F381E02D0994B1
:103530008F929F92AF92BF92EF92FF920F931F9341
:10354000CF93DF93CDB7DEB7A1970FB6F894DEBF68
:103550000FBECDBF7C019B01770F440B550B19A209
:103560008E010F5D1F4F8AE0882E912CA12CB12C6B
:10357000CA01B901A50194010E941227605DF801FA
:1035800062938F01211531054105510589F7309767
:10359000E9F0BF01C7010E94891A8C016CED74E04B
:1035A000C7010E94891A800F911FA1960FB6F89447
:1035B000DEBF0FBECDBFDF91CF911F910F91FF9066
:1035C000EF90BF90AF909F908F90089510E000E033
:1035D000E5CF2F923F924F925F926F927F928F92A0
:1035E0009F92AF92CF92DF92EF92FF920F931F9331
:1035F000CF93DF93EC013B011A01452B51F4FB0102
:1036000001900020E9F731971F01261A370A09F4C3
:1036100069C219A5112309F491C0C8A0D9A0D60187
:1036200013968C917301512C412C882309F459C0B5
:103630008E8D9F8D289E2001299E500C389E500C07
:1036400011242FA1249DC001259D900D112497FDCB
:10365000019695958795F60124813581231B330BBF
:1036600068A5629FA001639F500D112457FF02C0FF
:103670004F5F5F4F559547952FA9143008F0B8C09C
:10368000222309F496C0113009F03CC02D813E81FF
:1036900037FF02C02F5F3F4F35952795281B310913
:1036A0003C872B873EC06D30E1F06A30D1F0CE010F
:1036B0000E94E40E97FD15C0FC01EE0FFF1F8E0F58
:1036C0009F1FD6011196ED91FC91E80FF91F018023
:1036D000F281E02D3296E4914E0E511CEAA14E0E7D
:1036E000511CC70186199709821593050CF0A9CFC3
:1036F000F70161917F016032B1F68E8D9F8D480E8A
:10370000591EEFCF2F81388537FF02C02F5F3F4F03
:1037100035952795241B31093A872987123009F0FE
:10372000B5CF89859A8597FF02C01A8619868B8541
:103730009C8597FF02C01C861B8619A680913208C3
:10374000909133080E949210EB89FC899081898DB9
:10375000809589238083260C371C2614370409F4AE
:10376000BBC1D3016D913D016D30B9F36A3009F0F1
:1037700072C0E8A1F9A184819AA5890F98A5899FB3
:10378000802D112490E02FA9211152C02B853C855A
:103790004F815885280F391F421753070CF49CC1DD
:1037A0001A8619862B853C85820F931F9C878B87F1
:1037B000D4CF113069F42D813E8137FF02C02F5FD5
:1037C0003F4F35952795281B31093A872987A9CF7F
:1037D0002F81388537FF02C02F5F3F4F35952795E2
:1037E000241B31093C872B87123009F49ACFE3CF91
:1037F000222379F0143019F42B853C854FCF29858D
:103800003A85241B31093A872987153009F489CF75
:10381000F3CF143019F429853A85D5CF2B853C8513
:10382000241B31093C872B87153009F47ACFF3CF5D
:1038300029853A854D815E81280F391F421753072C
:103840000CF44AC129853A85820F931F9A8789878C
:103850001C861B8682CF603209F06BC0FAA18E8D68
:103860009F8D8F0F911D2BA13CA1EDA0FEA04FA914
:10387000411133C0EFA1E89F502C1124E216F3064A
:1038800029F189859A852D813E81850D911D8217AB
:10389000930734F08D819E8129853A85582E521ADE
:1038A0004B855C8569857A85A8A1B9A114968C9110
:1038B00008A5809F80011124252D30E0FE9F200D5A
:1038C000311D11246701CE010E94120F89859A854E
:1038D000850D911D9A87898740CF98A4989E902C3A
:1038E0001124E216F30601F18B859C852F81388522
:1038F000890D911D8217930734F08F8198852B8550
:103900003C85982E921A49855A856B857C85E8A15D
:10391000F9A104818FA1089F80011124292D30E095
:103920006701CE010E94120F8B859C85890D911D28
:103930003DCFCE010E94E40E97FD0FCFA8A1B9A103
:103940008C01000F111F080F191F1196ED91FC91AA
:103950001297E00FF11F61817281FB013296D490C2
:103960004D2C512C8FA94AA19BA5992309F4A1C0E4
:10397000811179C089859A855FA12D813E81D59E6F
:10398000800D911D1124549F800D911D11248217CB
:103990009307A4F01A8619862B853C8514964C91C2
:1039A0008AA5480F5527551FE8A5E49FC001E59F4C
:1039B000900D1124820F931F9C878B8742E050E06B
:1039C0008CE395E00E94FE2660913C0570913D05D8
:1039D000A8A1B9A111968D919C911297080F191F5A
:1039E000F80181819281FC013396859094909FA982
:1039F00014968C9191118CC04B855C85E82EF12C2E
:103A0000A8A42F8138858A9D400D511D11242417AB
:103A100035070CF461C02B853C8549855A858EA1FC
:103A20008F938DA18F938CA18F938BA18F938AA15C
:103A30008F93CFA08201CE010E94631929853A8518
:103A40009AA1490E511C4FA1449DC001459D900D66
:103A50001124820F931F9A8789870F900F900F90E0
:103A60000F900F907ACE8B859C8558A52D813E8135
:103A7000D59E800D911D1124549F800D911D112400
:103A8000821793070CF49ACF49855A8514962C9186
:103A90008AA5280F3327331FEFA1E29FC001E39FC0
:103AA000900D1124840F951F9A8789871C861B8689
:103AB00085CF882349F18B859C8558A52D813E8132
:103AC000D59E800D911D1124549F800D911D1124B0
:103AD000821793070CF472CFEB89FC898081998D52
:103AE000892B8083DF91CF911F910F91FF90EF90F1
:103AF000DF90CF90AF909F908F907F906F905F906E
:103B00004F903F902F90089589859A855FA1D6CFD9
:103B100049855A85E82EF12CCFA02D813E818C9DC0
:103B2000400D511D112424173507B4F229853A851B
:103B30004B855C858EA18F938DA18F938CA18F93E4
:103B40008BA18F938AA18F93A8A48201CE010E949A
:103B500063198B859C853AA128A5EFA1DE9EF00113
:103B60001124329FE00DF11D1124E80FF91FFC878D
:103B7000EB8773CFCF93DF93EA010E94E91ACE015E
:103B8000DF91CF910895CF93DF931F92CDB7DEB72A
:103B9000698341E050E0BE016F5F7F4F0E94E91AE8
:103BA00081E090E00F90DF91CF9108951F920F92E6
:103BB0000FB60F9211248F939F938091E100909103
:103BC000E100937F9093E10083FF0FC01092E90022
:103BD00091E09093EB001092EC0092E39093ED0053
:103BE0001092630598E09093F00082FF22C093E06A
:103BF0009093E9009091F200992319F09AE3909341
:103C0000E80090916105992341F0909161059150F0
:103C100090936105911101C05D9A9091620599237D
:103C200041F090916205915090936205911101C00D
:103C3000289A84FF18C08091E2008E7E8160809374
:103C4000E2008091E1008F7E8093E1008091600529
:103C50008E7E8061809360059F918F910F900FBE43
:103C60000F901F90189580FFF7CF8091E2008E7E15
:103C700080618093E2008091E1008E7E8093E1007C
:103C8000809160058E7E8160E5CF1F920F920FB606
:103C90000F921124CF92DF92EF92FF920F931F9316
:103CA0002F933F934F935F936F937F938F939F9344
:103CB000AF93BF93EF93FF93CF93DF93CDB7DEB76F
:103CC0006C97DEBFCDBF1092E9008091E80083FFC2
:103CD00025C068E0CE0145960E941F0A82EF8093BE
:103CE000E8008D8987FF39C09091E80090FFFCCFF4
:103CF000982F907609F034C19E894F89588D2F896D
:103D0000F88C911131C0803861F580915F05809306
:103D1000F1001092F1008EEF8093E8006C960FB6E0
:103D2000F894DEBF0FBECDBFDF91CF91FF91EF9131
:103D3000BF91AF919F918F917F916F915F914F91C3
:103D40003F912F911F910F91FF90EF90DF90CF90B7
:103D50000F900FBE0F901F9018959EEF9093E80064
:103D6000C7CF1092F100D5CF913059F48111D3CF44
:103D70004130510581F680915F058D7F80935F050D
:103D8000CACF933049F48111C6CF4130510519F69D
:103D900080915F058260F2CF953041F48091E80018
:103DA00080FFFCCF20682093E300B5CF963009F068
:103DB000A9C00B8D1C8D22E01092E90010925D05C8
:103DC00010925C05F2122EC010925B0510925A05FB
:103DD0000E946D0A1F8299E09983FA8291E09E8386
:103DE00090EA98879AEF998720915C0530915D055C
:103DF000275F3F4F3C832B838D831092E900109205
:103E00005D0510925C0510935B0500935A0549E02F
:103E100050E0BE016F5F7F4F80E00E94E8090E9482
:103E20006D0A79CF10935B0500935A050E94590AD9
:103E3000DC0112960D911C910115110509F451C177
:103E4000D801ED91FC910480F581E02DBE016B5EFF
:103E50007F4FC8010995009709F03EC1F801008520
:103E60001185EACFF3E0FF120EC08F89882309F491
:103E700040C0823061F440E860E18BE791E10E944C
:103E8000C120811148CF81E28093EB0047CF813080
:103E900029F440E86BE08FE691E1F1CF833099F7A8
:103EA0000E94590ADC011296ED90FC908E010F5F82
:103EB0001F4F6801E114F10479F0D701ED91FC91F5
:103EC0000680F781E02DB801C7010995080F111D83
:103ED000F701E084F184EECFD8011C92F601019045
:103EE0000020E9F73197BF016C197D0940E0C60158
:103EF000C6CF69E571E1FB01449150E080E80E9482
:103F0000E80909CF973009F4BECF983021F481E059
:103F10008093F10000CF993009F0FDCE837009F055
:103F2000B2CFE1E1F1E081E031E096E3219122239B
:103F300071F08093E9003093EB00DF0111972C9131
:103F40002093EC009093ED008F5F873079F78EE738
:103F50008093EA001092EA008F8980936305DBCE9C
:103F60008B8D9C8D1092E90010925D0510925C057E
:103F700090935B0580935A05898D811192C08E893B
:103F80009D89913A49F4813209F07DCF47E050E0B4
:103F900068E071E080E0B3CF913209F074CF8332F2
:103FA00069F48F89988DB0E0A0E08093040190932C
:103FB0000501A0930601B0930701ADCE803269F4EC
:103FC0008091E80082FFFCCF67E088E091E00E94EA
:103FD0001F0A8BEF8093E8009ECE823209F09BCEC1
:103FE0008F8980930F01EEEFFFE7859194918B3FCE
:103FF0009C4D51F1E0E0F8E08091080190910901B9
:10400000A0910A01B0910B01803B9440A105B1053C
:10401000F1F480910F0180FD1AC0EE3F8AE0F807AD
:1040200089F587E797E7918380838091600080938B
:104030005E0588E19BE00FB6F894A8958093600038
:104040000FBE9093600067CEEEEFFAE0D5CF80818F
:1040500091818737974709F05ECEA89580916000DF
:1040600088618093600080915E0580936000EE3FE0
:104070002AE0F20789F08091FE0A9091FF0A91836D
:10408000808349CE808191818737980751F2909340
:10409000FF0A8093FE0AC5CF1092FF0A1092FE0A13
:1040A0003ACE0E94590ADC0112960D911C9101151D
:1040B000110509F4E8CED801ED91FC910190F08151
:1040C000E02DBE016B5E7F4FC8010995811123CEA3
:1040D000F80100851185EBCF181619060CF41BCEDC
:1040E000D2CEF1E0FF12BECE6DE571E104CF1F929A
:1040F0000F920FB60F9211242F933F938F939F939C
:10410000AF93BF938091460590914705A0914805D4
:10411000B09149053091450523E0230F2D3758F51F
:104120000196A11DB11D20934505809346059093EE
:104130004705A0934805B093490580914A059091A1
:104140004B05A0914C05B0914D050196A11DB11DE7
:1041500080934A0590934B05A0934C05B0934D0571
:10416000BF91AF919F918F913F912F910F900FBE73
:104170000F901F90189526E8230F0296A11DB11DE0
:10418000D2CFEF92FF920F931F93CF93DF93F82E2E
:10419000192FE62E042F81E0860F880F0E94BA099E
:1041A00083E00E94BA09CF2DD12FEC0EFD2EF11C19
:1041B000CE15DF05B9F007FF13C0FE0184910E9400
:1041C000BA09182F80E00E94BA0981232196811133
:1041D000EFCFDF91CF911F910F91FF90EF90089556
:1041E0008881EDCF81E0F5CFCF93109269071092CF
:1041F000680788EE93E0A0E0B0E080936A079093B0
:104200006B07A0936C07B0936D0784EA94E09093DA
:104210006707809366078FEF9FEF909373078093F4
:10422000720782EC94E09093DE078093DD07809123
:10423000D507811113C01092D0071092CF0786EED8
:1042400091E19093D2078093D10789E190E0909318
:10425000D4078093D30781E08093D5078091C70767
:1042600081112AC0C1E0C093BA07C093BB0780EC9C
:1042700097E09093BD078093BC071092BF07109200
:10428000BE0786EB94E09093B7078093B607109231
:10429000C2071092C1071092C4071092C307C093BF
:1042A000C507C093C60781EC8093C0070E94590AD6
:1042B0000E944A09C093C707E091C107F091C20765
:1042C000309709F09AC08FEC97E09093C2078093E3
:1042D000C1078091C3079091C4072091D307309103
:1042E000D407820F931F9093C4078093C30780E580
:1042F0008093E7071092E8071092EE071092EF07FD
:104300001092F2071092F40742E050E060E070E093
:104310004093F5075093F6076093F7077093F807FB
:1043200010920C08109216081092150828EC34E030
:1043300030931408209313081092180880933208C1
:104340001092330883E090E090933508809334080E
:1043500086E0E7E1F1E0AFE3B8E001900D928A95E5
:10436000E1F7109248081092470824ED34E03093AA
:1043700046082093450882E18093600897E0909377
:1043800061088FEF80934908109284081092830887
:10439000309382082093810843E140939C089093D6
:1043A0009D08809385081092C0081092BF08309332
:1043B000BE082093BD0824E12093D8089093D90823
:1043C0008093C10880E1EDE1F1E0A9EFB8E0019050
:1043D0000D928A95E1F78EE0EDE2F1E0A9E0B9E017
:1043E00001900D928A95E1F784EF91E0909319097D
:1043F00080931809CF910895FC01808191810097E5
:10440000D9F78FEC97E09183808363CFCF93DF93CD
:1044100000D000D0CDB7DEB7789484B5826084BD7B
:1044200084B5816084BD85B5826085BD85B58160B8
:1044300085BD80916E00816080936E001092810036
:1044400080918100826080938100809181008160F1
:1044500080938100809180008160809380008091B2
:10446000910082608093910080919100816080939F
:104470009100809190008160809390008091C100B4
:1044800084608093C1008091C10082608093C100EC
:104490008091C10081608093C1008091C3008160E0
:1044A0008093C3008091C00082608093C00080919F
:1044B000C20081608093C20080917A008460809302
:1044C0007A0080917A00826080937A0080917A00ED
:1044D000816080937A0080917A00806880937A006E
:1044E0001092630510925F05109260058091D700CD
:1044F00081608093D70080EA8093D80089B580617D
:1045000089BD89B5826089BD09B400FEFDCF61E037
:1045100070E080E090E00E94B60B8091D8008F7C24
:1045200080618093D8008091E000807F8093E000DC
:104530008091E1008E7E8093E1008DE08093E20027
:10454000559A209A8FEF9FEF90937307809372078D
:10455000EFEDF7E088E0DF011D928A95E9F748E08A
:1045600050E0BF018DED97E00E94680D55E4C52E27
:1045700058E0D52E8601F12CE12C6CE3262E332455
:104580003394AA24AA94BA2C412C512CE4EB6E2E1D
:10459000E3E47E2EF8E98F2EF4E09F2E809134081C
:1045A00090913508E816F9060CF0FFC12E9CF00139
:1045B0002F9CF00D1124EC5CF74F178ED801D59687
:1045C0001C92D597D7961C92D797168E9D961C92C3
:1045D0009D97138E128E158E148E98963C929897F6
:1045E00097963C92979799961C9299979A961C92B7
:1045F0009A9792961C9292979B963C929B9720E159
:104600005D962C935D97878D8064878F878D8460FE
:10461000878FD9961C921E92D897DB96BC92AE9249
:10462000DA979696BC92AE9295979496BC92AE927B
:1046300093979F964D925D926D927C92D297E6EA07
:10464000FFEFD496FC93EE93D397F0E5F093320806
:10465000309233085C968C910E942B09D8015B96AE
:104660008C910E942B09F801238D30E0F901E85567
:10467000FE4EE491F0E0EE0FFF1FE457FE4E8591F1
:104680009491D80154969C938E9353975C968C91F9
:104690005C9790E0FC01E855FE4EE491F0E0EE0FEF
:1046A000FF1FE457FE4E45915491F801568B458B00
:1046B000F901E953FE4EE4915996EC935997FC01A8
:1046C000E953FE4EE4915A96EC930E94E40DD80112
:1046D0005396ED91FC915497808159969C915997EE
:1046E000892B80835596ED91FC91569780815A963F
:1046F0009C915A97892B808314968C918F3F21F13E
:104700000E942B0961E0F80184810E94200B6AE07D
:1047100070E080E090E00E94B60B60E0D801149653
:104720008C910E94200B6AE070E080E090E00E9493
:10473000B60B61E0F80184810E94200B6AE070E012
:1047400080E090E00E94B60B6EE170E080E090E0C7
:104750000E94B60B80913208909133080E9492100B
:10476000D8015396ED91FC915497908159968C9174
:104770008095892380832E9CF0012F9CF00D1124BD
:10478000EC5CF74F878D8062878F42E16DEFC80147
:104790000E94781041EB6DEFC8010E9478106EEA1C
:1047A000C8010E94810E41EF63EBC8010E9478109E
:1047B0004FE76AECC8010E94781040E061EAC80146
:1047C0000E94781040E062EAC8010E94781040E040
:1047D00065EBC8010E94781041E06BEAC8010E94B5
:1047E000781064EBC8010E94810E60EAC8010E9443
:1047F000720E65EBC8010E94720E65E5C8010E9449
:10480000720E61ECC8010E94810E68ECC8010E9422
:10481000720E60E8C8010E94720E68ECC8010E9426
:10482000720E4FE067ECC8010E94781062EBC8017D
:104830000E94810E64EAC8010E94720E60E0C80105
:104840000E94720E60E0C8010E94720E69EBC801FE
:104850000E94810E42E361EBC8010E94781041E0A2
:1048600066EBC8010E94781045E06EEBC8010E941B
:10487000781066EAC8010E94810ED8015596ED9124
:10488000FC91569790815A968C91809589238083CC
:10489000BFEABEBD0DB407FEFDCFD8015396ED9122
:1048A000FC915497808159969C91892B80836CE36D
:1048B00070E080E090E00E94B60B60E0C8010E94CA
:1048C000AC18F80160AD71ADC8010E947418D80130
:1048D00091969C928E9290979C961C9260E2C80151
:1048E0000E94E40E97FDF3CFFC01EE0FFF1FE80FCF
:1048F000F91FE55CFE4F0180F281E02D3296E491D4
:10490000F0E0D8015F96FC93EE935E9761E070E073
:1049100080E090E00E94B60BF80185A98823A1F100
:1049200080913208909133080E949210D8015396DA
:10493000ED91FC915497908159968C91599780955F
:1049400089238083D5968C91863021F46FEAC80143
:104950000E94810EF80185A9893029F442E16DEFAA
:10496000C8010E94781066EAC8010E94810ED80131
:10497000D5961C92D5975396ED91FC9154978081D2
:1049800059969C91892B80836FED74E086E697E0C1
:104990000E94891AB70186E697E00E94981ABFEF35
:1049A000EB1AFB0A045C1F4FF9CD10E000E062E552
:1049B000362E812C72E0972EA12CB12CE6E02E2E03
:1049C00080911808882341F061E083E198E00E941B
:1049D0005C168111109218081092F4071092F207D9
:1049E0001092EF071092EE07E2E0E093ED070E94CD
:1049F000980C7B018091ED070E942B0961E080916A
:104A0000ED070E94200B0E94E40D3092E707109200
:104A1000E8078091E7079091E8070E9492105AE01A
:104A2000752E8FEF0E94BF0D7A947110FACF89EE28
:104A300097E00E94951020E030E0A90160E089EE47
:104A400097E00E94AB10782E8093F307F1E08F1768
:104A500059F00E94980C6E197F09613D774058F318
:104A600081E08093EE0743C02AEA31E040E050E065
:104A700068E089EE97E00E94AB1082FF2AC0709236
:104A8000F4078091F407412C512C3201823029F433
:104A9000412C512C612C30E4732E20E030E0A90130
:104AA00067E389EE97E00E94AB10A301920169E2EF
:104AB00089EE97E00E94AB108093F307882301F101
:104AC0000E94980C6E197F09613D774030F388E0B1
:104AD000C8CF44E0742E0E94C60D8093F3077A94E9
:104AE0007110F9CF8A3A41F032E03093EE0789EE47
:104AF00097E00E94871035C042E04093F407C1CF91
:104B00008091F4078230D9F420E030E0A9016AE313
:104B100089EE97E00E94AB10882319F02092EE07EF
:104B2000E6CF0E94C60D807C803C19F483E0809320
:104B3000F4070E94C60D0E94C60D0E94C60D89EEA4
:104B400097E00E94871090E59093E7071092E8079E
:104B500081E00E947C12882319F180911808882333
:104B600029F164EF74E086E697E00E94891A0F5FEE
:104B70001F4FB80186E697E00E94981A0C30110585
:104B800009F01ECF67E075E086E697E00E94891A7B
:104B90006CED74E086E697E00E94891A80E04EC0D2
:104BA00080E00E947C128823E1F2D7CF80910C082C
:104BB000803109F074C082E08093180810922A08AE
:104BC00010922B0810922C0810922D0880910D083D
:104BD00090910E08B0E0A0E025E0880F991FAA1F71
:104BE000BB1F2A95D1F78093260890932708A0939E
:104BF0002808B093290885EF97E090932F088093B9
:104C00002E0881E0809317081092190810921A0854
:104C100010921B0810921C0810921D0810921E087A
:104C200010921F081092200810922108109222085A
:104C300010922308109224081092250880931709D7
:104C400069E175E086E697E00E94891A609117098C
:104C500070E086E697E00E94981A0E94980C709384
:104C60001B0960931A0910921C0905E418E0F12C45
:104C7000E12C4091340850913508E416F5060CF407
:104C800069C0E4E3F8E090E080E022E08417950753
:104C90000CF06AC021AF20AF0196FC96F7CF8032AE
:104CA00009F05FCFA3E0A093180880910F089091BE
:104CB0001008A0911108B091120880932A089093CF
:104CC0002B08A0932C08B0932D0889839A83AB837B
:104CD000BC83412C512C320149815A816B817C81EA
:104CE0009E012F5F3F4F85EF97E00E944714882376
:104CF00009F437CF80910208A501940104C0220F66
:104D0000331F441F551F8A95D2F7DA01C901480E97
:104D1000591E6A1E7B1E49815A816B817C8180915C
:104D20000C08803191F088EF9FEFAFEFBFE048179C
:104D300059076A077B0780F240922608509227089D
:104D4000609228087092290856CF88EF9FEFA0E064
:104D5000B0E0EDCF62E0C8010E94AC183FEFE31A6B
:104D6000F30A045C1F4F85CF05E418E0F12CE12C19
:104D70008CE3B82E8091340890913508E816F90636
:104D8000C4F4D801D8966D917C91C8010E94741822
:104D9000BE9CF001BF9CF00D1124EC5CF74F158E0A
:104DA000148E138E128EBFEFEB1AFB0A045C1F4F9A
:104DB000E1CF10E000E080913408909135080817A9
:104DC000190744F000E010E001151105E9F30E9415
:104DD0000000FACF6AE275E0C6010E94891A6CED04
:104DE00074E0C6010E94891AB801C6010E94981A8F
:104DF0000F5F1F4FECE3CE0ED11CDDCFFB01DC01BA
:104E000002C005900D9241505040D8F708950E947D
:104E10003427A59F900DB49F900DA49F800D911DE8
:104E200011240895A1E21A2EAA1BBB1BFD010DC07F
:104E3000AA1FBB1FEE1FFF1FA217B307E407F5074A
:104E400020F0A21BB30BE40BF50B661F771F881F26
:104E5000991F1A9469F760957095809590959B01BC
:104E6000AC01BD01CF010895A29FB001B39FC00165
:104E7000A39F700D811D1124911DB29F700D811D86
:104E80001124911D08955058BB27AA270E945B2723
:104E90000C94A5280E94972838F00E949E2820F0A4
:104EA00039F49F3F19F426F40C9494280EF4E095FD
:104EB000E7FB0C948E28E92F0E94B62858F3BA1706
:104EC000620773078407950720F079F4A6F50C9420
:104ED000D8280EF4E0950B2EBA2FA02D0B01B901A6
:104EE00090010C01CA01A0011124FF27591B99F060
:104EF000593F50F4503E68F11A16F040A22F232F6C
:104F0000342F4427585FF3CF469537952795A795BB
:104F1000F0405395C9F77EF41F16BA0B620B730B62
:104F2000840BBAF09150A1F0FF0FBB1F661F771FD3
:104F3000881FC2F70EC0BA0F621F731F841F48F488
:104F4000879577956795B795F7959E3F08F0B0CF11
:104F50009395880F08F09927EE0F979587950895F8
:104F60000E94C4270C94A5280E949E2858F00E94F5
:104F7000972840F029F45F3F29F00C948E285111B6
:104F80000C94D9280C9494280E94B62868F399238D
:104F9000B1F3552391F3951B550BBB27AA27621735
:104FA0007307840738F09F5F5F4F220F331F441F42
:104FB000AA1FA9F335D00E2E3AF0E0E832D0915076
:104FC0005040E695001CCAF72BD0FE2F29D0660F63
:104FD000771F881FBB1F261737074807AB07B0E8A6
:104FE00009F0BB0B802DBF01FF2793585F4F3AF0AC
:104FF0009E3F510578F00C948E280C94D9285F3F81
:10500000E4F3983ED4F3869577956795B795F79531
:105010009F5FC9F7880F911D9695879597F9089519
:10502000E1E0660F771F881FBB1F621773078407B5
:10503000BA0720F0621B730B840BBA0BEE1F88F7C4
:10504000E09508950E94BE2888F09F5798F0B92FE8
:105050009927B751B0F0E1F0660F771F881F991FAD
:105060001AF0BA95C9F714C0B13091F00E94D8284F
:10507000B1E008950C94D828672F782F8827B85F5F
:1050800039F0B93FCCF3869577956795B395D9F705
:105090003EF490958095709561957F4F8F4F9F4F0F
:1050A0000895E89409C097FB3EF49095809570951B
:1050B00061957F4F8F4F9F4F9923A9F0F92F96E964
:1050C000BB279395F695879577956795B795F111D9
:1050D000F8CFFAF4BB0F11F460FF1BC06F5F7F4F76
:1050E0008F4F9F4F16C0882311F096E911C0772388
:1050F00021F09EE8872F762F05C0662371F096E891
:10510000862F70E060E02AF09A95660F771F881F5F
:10511000DAF7880F9695879597F9089597F99F671D
:1051200080E870E060E008959FEF80EC089500242F
:105130000A941616170618060906089500240A94FC
:1051400012161306140605060895092E0394000C82
:1051500011F4882352F0BB0F40F4BF2B11F460FF11
:1051600004C06F5F7F4F8F4F9F4F089557FD90583A
:10517000440F551F59F05F3F71F04795880F97FB1B
:10518000991F61F09F3F79F08795089512161306D5
:105190001406551FF2CF4695F1DF08C01616170604
:1051A0001806991FF1CF8695710561050894089539
:1051B000E894BB2766277727CB0197F908950E94CB
:1051C000F2280C94A5280E94972838F00E949E2867
:1051D00020F0952311F00C948E280C94942811241F
:1051E0000C94D9280E94B62870F3959FC1F3950FAF
:1051F00050E0551F629FF001729FBB27F00DB11D5B
:10520000639FAA27F00DB11DAA1F649F6627B00DEA
:10521000A11D661F829F2227B00DA11D621F739FD3
:10522000B00DA11D621F839FA00D611D221F749FE1
:105230003327A00D611D231F849F600D211D822F28
:10524000762F6A2F11249F5750409AF0F1F088234F
:105250004AF0EE0FFF1FBB1F661F771F881F91507C
:105260005040A9F79E3F510580F00C948E280C9475
:10527000D9285F3FE4F3983ED4F3869577956795F8
:10528000B795F795E7959F5FC1F7FE2B880F911DA6
:105290009695879597F90895EE0FFF1F0590F49165
:0852A000E02D0994F894FFCF02
:1052A800FFFFFFFFFFFFFFFF00E10000000000001D
:1052B80000C180810000001200130014005F7B030E
:1052C800000F030000605B02000A0000009A101E35
:1052D800195E00003C101E195E0000207404216F46
:1052E80004226A04236504246004255B042656040A
:1052F800275104284C042947042A42042B3D042C36
:1053080038042D33042E2E042F2904302404311F91
:1053180004321A04331504341004350B0436060419
:1053280037010438FC0339F7033AF2033BED033C39
:10533800E8033DE3033EDE033FD90340D40341CFF6
:105348000342CA0343C50344C00345BB0346B6032F
:1053580047B10348AC0349A7034AA2034B9D034C3A
:1053680098034D93034E8E034F8903508403517F56
:1053780003527A03537503547003556B035666033F
:10538800576103585C035957035A52035B4D035C3A
:1053980048035D43035E3E035F3903603403612FB6
:1053A80003622A03632503642003651B036616034F
:1053B800671103680C036907036A02036BFD026C3B
:1053C800F8026DF3026EEE026FE90270E40271DF1B
:1053D8000272DA0273D50274D00275CB0276C60265
:1053E80077C10278BC0279B7027AB2027BAD027C3F
:1053F800A8027DA3027E9E02B09902205C0E21576E
:105408000E22520E234D0E24480E25430E263E0E24
:1054180027390E28340E292F0E2A2A0E2B250E2C5A
:10542800200E2D1B0E2E160E2F110E300C0E3107CE
:105438000E32020E33FD0D34F80D35F30D36EE0D38
:1054480037E90D38E40D39DF0D3ADA0D3BD50D3C5F
:10545800D00D3DCB0D3EC60D3FC10D40BC0D41B733
:105468000D42B20D43AD0D44A80D45A30D469E0D4A
:1054780047990D48940D498F0D4A8A0D4B850D4C5F
:10548800800D4D7B0D4E760D4F710D506C0D516793
:105498000D52620D535D0D54580D55530D564E0D5A
:1054A80057490D58440D593F0D5A3A0D5B350D5C5F
:1054B800300D5D2B0D5E260D5F210D601C0D6117F3
:1054C8000D62120D630D0D64080D65030D66FE0C6B
:1054D80067F90C68F40C69EF0C6AEA0C6BE50C6C64
:1054E800E00C6DDB0C6ED60C6FD10C70CC0C71C758
:1054F8000C72C20C73BD0C74B80C75B30C76AE0C80
:1055080077A90C78A40C799F0C7A9A0C7B950C7C63
:10551800900C7D8B0C7E860CB0810C2037102132CC
:1055280010222D10232810242310251E10261910B0
:10553800271410280F10290A102A05102B00102CE8
:10554800FB0F2DF60F2EF10F2FEC0F30E70F31E286
:105558000F32DD0F33D80F34D30F35CE0F36C90FC6
:1055680037C40F38BF0F39BA0F3AB50F3BB00F3CED
:10557800AB0F3DA60F3EA10F3F9C0F40970F4192E6
:105588000F428D0F43880F44830F457E0F46790FD6
:1055980047740F486F0F496A0F4A650F4B600F4CED
:1055A8005B0F4D560F4E510F4F4C0F50470F514246
:1055B8000F523D0F53380F54330F552E0F56290FE6
:1055C80057240F581F0F591A0F5A150F5B100F5CED
:1055D8000B0F5D060F5E010F5FFC0E60F70E61F2A8
:1055E8000E62ED0E63E80E64E30E65DE0E66D90EFC
:1055F80067D40E68CF0E69CA0E6AC50E6BC00E6CF2
:10560800BB0E6DB60E6EB10E6FAC0E70A70E71A20A
:105618000E729D0E73980E74930E758E0E76890E0B
:1056280077840E787F0E797A0E7A750E7B700E7CF1
:105638006B0E7D660E7E610E603B01000801000066
:10564800000000009E0A820CBF0AB40A060BC40AB6
:10565800E20A00000000A40C1D0DE20CC70C0000BB
:105668000000680D00000000FF162C0A9E165F1946
:1056780000000000C31DBA1D60195F190D0A00491A
:105688006E697469616C697A696E672053637265C3
:10569800656E20005344204D6F756E7420417474FC
:1056A800656D70743A200043617264204D6F756EA9
:1056B80074204661696C65640053442043617264D8
:1056C800205374617475733A2000546869732069B3
:0C56D800732073637265656E3A20000059
:00000001FF
