:100000000C9445070C946D070C946D070C946D07C8
:100010000C946D070C946D070C946D070C946D0790
:100020000C946D070C946D070C94FB1A0C946A1BCE
:100030000C946D070C946D070C946D070C946D0770
:100040000C946D070C946D070C946D070C946D0760
:100050000C946D070C946D070C946D070C949C1D0B
:100060000C946D070C946D070C946D070C946D0740
:100070000C946D070C946D070C946D070C946D0730
:100080000C946D070C946D070C946D070C946D0720
:100090000C946D070C946D070C946D070C946D0710
:1000A0000C946D070C946D070C946D07EAE000004A
:1000B00000003AB80000C44244C049249064484457
:1000C00060000F84210F80000894514210000894B2
:1000D000214880000092AAAAAA4400000894514234
:1000E0000000252949C044E44460001D060B80033C
:1000F0004920001D29384200392972100019294968
:10010000800039294A400000FC9292929200AAA8ED
:1001100084254E52404124948AA88439294A4000BB
:100120001D29384C24E4444000192F41C0109D295A
:1001300049C000192849808439294B80001C274B6D
:10014000C088000000000003E02295100000C924D0
:10015000B088444220D24930F82108420F808A25D5
:10016000082082008A250852288088CA554AA5524C
:10017000A888008A28A25142008A28A28A2700F86B
:10018000820820820072281C0A2700F228BC9228CC
:1001900080790A1428531B00F228BC820800790ACF
:1001A0001428509E008B2CAA9A688082C6C6AAAAE0
:1001B000AA9200820820820F808A2928D2288010E3
:1001C00084214980AAA88A28BE8A2880309204E81F
:1001D000490C00F421C84200FA083E820F80E24830
:1001E000A28A4E00722820822700F228BE8A2F00A1
:1001F0007228A2FA28803E1049AA9AA5268819F8E2
:1002000072208C2002000418264000000F80F800A5
:10021000000099060800080A08087228A27827003A
:1002200072289C8A2700F82108210400720F228A74
:100230002700790F220A270010C524F841007220F8
:100240008C0A2700722084210F8026A22220722887
:10025000A28A270022444880000800003E000000D7
:10026000000A00823E208000A4A00000421112403B
:1002700024888420A8003090C309515D0044A4A8BC
:10028000541A2A440021CA3E2AA708514F94F9451E
:1002900000AAA00000AA880000AC00040400B0007E
:1002A000060600B600040400BA00030300BD000403
:1002B0000400C100060600C700060600CD000606C1
:1002C00000D300080800DB00060600E10005050079
:1002D000E600040400EA00050500EF00030300F255
:1002E00000050500F700050500FC000505000101FB
:1002F00005050006010808000E01020200100105B4
:100300000500150103030018010202001A0105058A
:10031000001F010505002401040400280105050053
:100320002D01050500320105050037010505003CDA
:1003300001050500410103030044010505004901D1
:100340000505004E0103030051010404005501039B
:10035000030058010606005E010606006401060659
:10036000006A01090900730106060079010606000A
:100370007F0106060085010606008B010606009136
:100380000107070098010606009E01070700A50166
:10039000060600AB01080800B301060600B9010615
:1003A0000600BF01050500C401020200C6010606E1
:1003B00000CC01070700D301050500D8010606009F
:1003C000DE01060600E401060600EA01060600F06A
:1003D00001060600F6010A0A0000020606000602EF
:1003E0000505000B020606001102050500160202B3
:1003F000020018020202001A020606002002060687
:100400000026020606002C0206060032020606003E
:1004100038020606003E0206060044020606004AAE
:10042000020404004E0206060054020404005802AE
:100430000202005A02060600600202020062020680
:10044000060068020404006C020404007002040444
:1004500000740202020076020707007D020808000D
:1004600085020606008B0206060091020404009530
:1004700002020200970202020000000000000000D9
:10048000000000000000000000822045A124F904C3
:10049000F9E3F804F904F904F904F904F965C1A2CF
:1004A0004800000000000000000000000000000004
:1004B000000000000000000000000000000000003C
:1004C00000E36045F9E3F804F904F904F904F904D8
:1004D000F904F904F904F904F9C3F84589000000A6
:1004E000000000000000000000000000000000000C
:1004F0000000000000000000004569C3F8E3F804B4
:10050000F904F904F904F904F904F904F904F90403
:10051000F904F9E3F8A2F808A200000000000000C6
:100520000000000000000000004110E38004C1C38F
:10053000C824C904F9E3F804F904F904F904F90436
:10054000F904F904F904F9E3F8A2F8E3F8E3F8E3AD
:10055000F8C3F804D1A2C8C3C0828861200000009B
:1005600000C330E3E8E3F804F904F9E3F8E3F8043E
:10057000F904F904F9E3F8E3F804F904F924F9A219
:10058000F865F94DFBCFFBAEFBAEFB8EFB4DFB8E52
:10059000FBAEFBCBFAC3F88250000045F1E3F8C391
:1005A000F8C3F804F9A2F8E3F804F9A2F8E3F82490
:1005B000F965F904F904F9C3F886F992FCD3FC92C1
:1005C000FC92FC92FC92FC92FC30FC10FCB2FC8E83
:1005D000FBC3F88228A2F886F9EFFB8AFA45F9EF07
:1005E000FB28FA45F910FC08FA8AFA14FDE7F9C36A
:1005F000F8E3F810FC92FCC7F965F904F924F9E373
:10060000F869FA6DFB20F849FAF3FC8AFAE3A8E3EB
:10061000F824F9B2FC6DFBE7F9D3FC4DFBE7F9F3E5
:10062000FC69FA65F90CFB45F9A2F8A6F992FC10F1
:10063000FCC3F8A2F8A6F986F945F949FAEFFB6977
:10064000FA6DFB51FCCFFB04D904F9A2F86DFBCF86
:10065000FBAAFAB2FC6DFBCBFAB2FC24F9C7F9EFA6
:10066000FB86F9A2F8C7F992FC30FCC3F865F914CF
:10067000FDD3FCD3FCB2FC4DFB86F90CFB92FCEFE6
:10068000FBE3E004F9A2F88AFA71FCCFFBCFFB8E02
:10069000FBEFFBEFFB82F869FAD3FCC7F9A2F8A6DF
:1006A000F992FC10FC45F9E3F845F945F9E3F88EB9
:1006B000FBCFFB20F88AFAB2FCAEFBE3D804F9C307
:1006C000F8C7F992FC92FC8AFA6DFBB2FC0CFB6154
:1006D000F88AFAD3FCC7F9A2F8C7F992FC10FC45D6
:1006E000F9E3F8A6F9A6F945F98EFBCFFB61F8AA64
:1006F000FAB2FCCFFBE3D804F9E3F804F951FCB2F9
:10070000FC86F92CFBF3FC8AFA41F8AAFA14FDE7FF
:10071000F982F8C7F9B2FC10FCA2F8E3F8F3FCD3B5
:10072000FC92FC92FC2CFB20F88AFAB2FCEFFBE373
:10073000E004F904F9C3F8EBFAAEFBE3F849FAEF89
:10074000FB86F9A2F828FAEFFBA6F982F849FAB27B
:10075000FCCFFBA6F9E7F910FCEFFBEFFB51FC6DBA
:10076000FB24F9EBFAB2FC2CFBC3C8E3F804F90450
:10077000F9C3F8C3F804F9E3F8C3F8E3F804F9E3BC
:10078000F8C3F8E3F8A2F8AEFB51FCEFFB51FC30E4
:10079000FCEFFBEFFBEFFBEFFBEFFB51FC92FC925E
:1007A000FC04F9E3588679A2F804F904F904F90481
:1007B000F904F904F904F904F904F904F9E3F82C4B
:1007C000FBD3FC51FC51FC71FC51FC51FC51FC3041
:1007D000FC30FC51FC71FCCFFB65F9A298000000D5
:1007E00000E35824D104F904F904F9E3F804F90406
:1007F000F904F904F9E3F845F928FAC7F9A6F9C7A5
:10080000F9C7F9C7F9C7F9C7F965F9A6F9C7F9C76B
:10081000F904D982780000000000000000000061A7
:100820002861304128047104F9E3F804F904F9045B
:10083000F904F9C3F8A2F8C3F8C3F8C3F8C3F8C3BE
:10084000F8A2F8A298412841304130000000000091
:100850000000000000000000000000000000000098
:1008600000045945F104F904F904F904F904F90400
:10087000F904F904F904F904F9E3F84581000000EA
:100880000000000000000000000000000000000068
:10089000000000000000000000000000006118E3FC
:1008A0009824F9E3F804F904F904F904F9E3F804E5
:1008B000F945B9A238000000000000000000000067
:1008C0000000000000000000000000000000000028
:1008D00000000000000000000000004118E3682450
:1008E000A1E3C0C3C045A924794130000000000045
:1008F00000000000000000000000000000000000F8
:1009000000000000000000000000000000000000E7
:1009100000C210031B810C800480048004800480CA
:10092000048004A00CA31B42110000000000000082
:1009300000000000000000000000000000000000B7
:10094000000000000000000000C319621460048071
:100950000480048004800480048004800480048077
:100960000460046422000000000000000000000099
:100970000000000000000000000000000000000077
:10098000002422200460048004800480048004A0E9
:100990000CA00C8004800480048004800420046780
:1009A0003300000000000000000000000000000014
:1009B00000600042124213A003C10B610C8004804E
:1009C0000480048004800480048004800480042067
:1009D0000420046004600460042004C20BA00342ED
:1009E0000B220AA208000000002319C10B8004801A
:1009F0000480046004800480048004800480046017
:100A0000048004800480042004822C87A609CFC8B7
:100A1000C6C8C6C7BEA6B6E7C627CF258E000C61DE
:100A2000090000420C60046004600480042004603B
:100A300004800420046004A00CC2248004800420EC
:100A400004E23CAAFFEAFFC9FFC9FFC9FFEAFFC9E8
:100A5000FFA8F748E7EAFFE7C6000C2211E003E22F
:100A60002C09D7C575611409CF8465821409CF6438
:100A700065C56DECFF434D2004610C49DFC9FF23C0
:100A800045C134A014A0144014A57588BE40038449
:100A900065ECFF048603136004810CEAFFC7BE0403
:100AA0004DEBFF87AE044DECFFA46D822C078EC189
:100AB000242004C234C9FF49E76004E003E22CE2C9
:100AC0002C822C656D29DF666D87AEC9F728D7E1CA
:100AD000138004200488BE27CF0686EAFFA7B60647
:100AE00086EAFFA114224DE9CEE22C2004E344AAB9
:100AF000FF49E76004C21CECFFEBFFEAFFEAFFA737
:100B0000B6A334669EA9FF28DF000C80042004C52C
:100B10007DAAF709CF28D788BE29DF28DFE003C4E4
:100B200075ECFFE33CE003E344AAFF49E7A11C6046
:100B300004E024E024401CC7CE08C74003E47DEA5B
:100B4000FF28D7000C80042004033DAAFFA9FFA5BD
:100B500075A7B6EAFF66A6A003C475EBFF0335E0F0
:100B600003E23CA9FF49E7A11C6004C32CC32C434A
:100B700024C8C608CFA0030586EAFF28D7000C804A
:100B8000048004810C69F7EAFFA33466A6ECFFA594
:100B90006D40030586ECFFE33CE003E344AAFF4914
:100BA000E7E0036004ECFFEAFFAAF7EAFF669E4075
:100BB00003E47DEAFF49DFE013800480046004263B
:100BC0009608C76004846529C7E22CE00384652980
:100BD000C7E22CA0038465EAFF28DFE23C234D69CD
:100BE000EF48DF48DF89F7A7B642342596EAFFA52C
:100BF000AE420B60048004800460046004800460E2
:100C0000042004800480046004200460042004C8DC
:100C1000C689F748DF89F789F748DF48DF48DF28CA
:100C2000DF48E789F7C9FFC9FF802CC419652A206E
:100C30000480048004800480048004800480048094
:100C40000480048004000C479EEBFF89F789F7A914
:100C5000FF89F789F789F789F7A8F7A8F7C9F7286F
:100C6000D7C13C820200000000A319A213800480B7
:100C7000048004800480048004800480048004A133
:100C800014835D423D423D423D423D423D423D4234
:100C90003D202D4135613D223DA213220A00000076
:100CA00000000000000000C108C2108110031A807B
:100CB0000480048004800480048004200420042034
:100CC0000460042004200420042004830AA108A254
:100CD00008C1080000000000000000000000000043
:100CE000000000000000000000C319420C800480D6
:100CF00004800480048004800480048004800480D4
:100D000004800464220000000000000000000000D5
:100D100000000000000000000000000000000000D3
:100D200000000000008110C212610C800480048069
:100D3000048004800480048004631B2211000000EE
:100D400000000000000000000000000000000000A3
:100D50000000000000000000000000000000000093
:100D6000000000A108031AE31A610B610B0423249D
:100D700022C1080000000000000000000000000088
:100D80000000000000000000000000000200090F49
:100D90000000030401000C0000000000000000003F
:100DA000000000000000000079041D14440210003F
:100DB00001091D1444021000080B00020202000089
:100DC00009040000010202000005240010010524AE
:100DD0000101010424020605240600010705810320
:100DE00010004009040100020A0000000705020289
:100DF00040000007058302400000040309041201BB
:100E00000002EF020140412336800001010203018C
:100E100041726475696E6F204C4C43004172647579
:100E2000696E6F204C656F6E6172646F0000000028
:100E300000250028002B002E0031000000000024B7
:100E40000027002A002D00300004040404040304D9
:100E50000502020202040302020202060606060658
:100E60000604040202020404040802011040804047
:100E700010204080408008020401804020100201C0
:100E80001080102040402000191E11241FBECFEFFB
:100E9000DAE0DEBFCDBF12E0A0E0B1E0E0E7FBE4C6
:100EA00002C005900D92AE3BB107D9F726E0AEEB3C
:100EB000B2E001C01D92AD34B207E1F717E0C5E41E
:100EC000D7E004C02197FE010E94B025C434D107A9
:100ED000C9F70E948A1E0C94B6250C94000090E07D
:100EE000FC01E859F14F2491875B914FFC018491FB
:100EF000882399F090E0880F991FFC01E55CF14F81
:100F0000A591B491FC01E35DF14F859194918FB768
:100F1000F894EC91E22BEC938FBF0895FC01809143
:100F2000E502882311F13FB7F89482E08093E9004D
:100F30002091F200822F90E01816190614F481E037
:100F400090E0882339F0289844E64093E4024091E9
:100F5000F1004083222339F02091F200211103C0D7
:100F60002BE62093E8003FBF08958FEF9FEF089591
:100F70002FB7F89483E08093E9009091E800892FDF
:100F8000807295FF04C09091F20080E4891B2FBF0E
:100F900008958091DC0281110DC082E08093D80217
:100FA00084E08093D9021092DB021092DA0281E091
:100FB0008093DC0288ED92E008954091D202509136
:100FC000D3022091D0023091D10242175307B4F4DA
:100FD0009091E8009570E1F39091E80092FD19C0BE
:100FE0008093F1008091D2029091D30201968F7389
:100FF0009927892B19F48EEF8093E8008091D20213
:101000009091D30201969093D3028093D20281E013
:10101000089580E00895DF92EF92FF920F931F935F
:10102000CF93DF93D82E8A01EB017B01E40EF51EEE
:10103000CE15DF0559F0D7FE12C0FE0184910E9443
:10104000DD0721968111F4CF0FEF1FEFC801DF916B
:10105000CF911F910F91FF90EF90DF9008958881BD
:10106000EECF0F931F93CF93DF931F92CDB7DEB7D1
:1010700082E0898342E450E068EB7DE080E80E94F2
:101080000B080E94C907DC0112960D911C910115F5
:10109000110589F0D801ED91FC910280F381E02DDA
:1010A000BE016F5F7F4FC801099597FD04C0F8012D
:1010B00000851185ECCF89810F90DF91CF911F9131
:1010C0000F910895615030F02091F100FC012083D0
:1010D0000196F8CF289884E68093E4020895AF92B1
:1010E000BF92CF92DF92EF92FF920F931F93CF9315
:1010F000DF936C017B018B01040F151FEB015E0177
:10110000AE18BF08C017D10759F06991D601ED910B
:10111000FC910190F081E02DC6010995892B79F7AA
:10112000C501DF91CF911F910F91FF90EF90DF905C
:10113000CF90BF90AF900895CF93DF931F92CDB71C
:10114000DEB76983DC01ED91FC910280F381E02D33
:1011500041E050E0BE016F5F7F4F09950F90DF9136
:10116000CF91089583E08093E9008091F200882375
:1011700019F08AE38093E80008950E94B80790E090
:101180000895CF93DF931F92CDB7DEB7FC0184851E
:10119000958597FD08C02FEF3FEF358724870F9087
:1011A000DF91CF910895CE0101960E948E0701979D
:1011B00019F4898190E0F3CF8FEF9FEFF0CF0F9379
:1011C0001F93CF93DF931F92CDB7DEB78C01FC0145
:1011D0008485958597FF0BC0CE0101960E948E07EE
:1011E000019771F4898190E0F80195878487F8016F
:1011F000848595850F90DF91CF911F910F91089570
:101200008FEF9FEFF1CFFC018485958597FD0BC093
:101210009FB7F89482E08093E9008091F2009FBF2D
:1012200090E0019608959FB7F89482E08093E900DA
:101230008091F2009FBF90E00895282F30E0F901DF
:10124000E757F24F9491F901E859F14F8491275BE8
:10125000314FF9012491222309F430C09923E9F098
:1012600091509F30D0F4E92FF0E0E75CF64F0C94FA
:10127000B02567096B0948095F0963094D094D09E4
:101280004D096E09740978097C0982094D0986099E
:10129000909180009F7790938000E22FF0E0EE0F16
:1012A000FF1FE35DF14FA591B4919FB7F894EC91C6
:1012B000611132C080958E238C939FBF08959091C9
:1012C00080009F7DE8CF90918000977FE4CF94B518
:1012D0009F7794BDE2CF94B59F7DFBCF9091900016
:1012E0009F7790939000D9CF909190009F7DF9CFF8
:1012F00090919000977FF5CF9091C0009F77909349
:10130000C000CBCF9091C0009F7DF9CF9091C200DB
:10131000977F9093C200C1CF8E2BCECF3FB7F8946A
:101320008091CC029091CD02A091CE02B091CF02DB
:1013300026B5A89B05C02F3F19F00196A11DB11D30
:101340003FBFBA2FA92F982F8827BC01CD01620F6C
:10135000711D811D911D42E0660F771F881F991F27
:101360004A95D1F708958F929F92AF92BF92CF92F4
:10137000DF92EF92FF924B015C010E948E096B019C
:101380007C010E948E096C197D098E099F09683EB7
:10139000734081059105A8F321E0821A9108A10804
:1013A000B10888EEC80E83E0D81EE11CF11C811440
:1013B0009104A104B10429F7FF90EF90DF90CF9042
:1013C000BF90AF909F908F9008958F929F92AF9211
:1013D000BF92CF92DF92EF92FF920F931F93CF9322
:1013E000DF936C017B018A0180910F01882309F44E
:1013F0005CC08091E502882309F457C08091D60231
:1014000080FF05C08091E00082608093E000E801E9
:10141000B12C8AEFA82E93E0892E2AE3922E2097F2
:1014200011F4BB20D9F10E94B80781110AC0AA9417
:10143000AA20D9F161E070E080E090E00E94B30959
:10144000EECF8C171D0611F00CF08C2F9FB7F8947F
:101450008092E9002091E80025FD02C09FBFDFCF08
:10146000282F30E0C21BD30BF701815020F04191AF
:101470004093F100FACFE20EF31EBB2021F09092D0
:10148000E800B12CEBCF8091E80085FDE7CF90928A
:10149000E800BB24B394209709F3F3CF5D9884E66A
:1014A0008093D702101611063CF081E090E0F6011F
:1014B0009383828310E000E0C801DF91CF911F91F8
:1014C0000F91FF90EF90DF90CF90BF90AF909F90E3
:1014D0008F9008952FB7F8946091C8027091C90257
:1014E0008091CA029091CB022FBF08958EBD00005B
:1014F0000DB407FEFDCF8EB508958FEF0C94760ADC
:101500000F931F93CF93DF93EC010E946A0A8B0124
:101510000E947D0A8F3F69F00E946A0A601B710B6E
:101520006C177D07A8F380E0DF91CF911F910F9199
:10153000089581E0F9CFCF93CFB7F8948091C0029E
:10154000811124C0EAE5FEE08491E9E7FEE0949190
:10155000E82FF0E0EE0FFF1FE55CF14FA591B4918D
:10156000EC91E92321F461E081E10E941D0981E110
:101570000E946F078CB580618CBD8CB580648CBD7A
:101580008FE00E946F0780E10E946F078091C00288
:101590008F5F8093C002CFBFCF910895CF93DF9329
:1015A000EC01CD2FDD27C695C695C695AFE0B2E01C
:1015B000CA9FF001CB9FF00DDA9FF00D11247796B2
:1015C000C6E0F695E795CA95E1F7EB01E883FC01E3
:1015D000D5E0F695E795DA95E1F7EF73FF27C3E0DD
:1015E000D1E0EC9FB001ED9F700DFC9F700D1124B8
:1015F0006F5D7F4FE6E076956795EA95E1F7FA0132
:101600006083AC014F7155274A9FC0014B9F900DDD
:101610005A9F900D11244796F6E096958795FA9576
:10162000E1F7E9018883DF91CF910895DC015596B8
:10163000ED91FC91569790815A968C91892B8083DD
:101640007EBD0DB407FEFDCF6EBD0DB407FEFDCF10
:101650000895DC015596ED91FC91569790815A962C
:101660008C91892B80836EBD0DB407FEFDCF08954C
:10167000DC015596ED91FC91569790815A968C918C
:101680008095892380836EBD0DB407FEFDCF08953C
:10169000DF92EF92FF920F931F93CF93DF93EC01B2
:1016A000D62E142FF22EEE2039F08FA9882321F0A8
:1016B000F02E022FD42E162F65E1CE010E94380B9A
:1016C0006D2DCE010E94290B6F2DCE010E94290B9A
:1016D00065E7CE010E94380B612FCE010E94290BD5
:1016E000602FCE010E94290B6CE5CE01DF91CF91D6
:1016F0001F910F91FF90EF90DF900C94380BDC015D
:101700005596ED91FC91569790815A968C91892B24
:101710008083215031094109510948F00DB407FE79
:10172000FDCF7EBD0DB407FEFDCF6EBDF2CF0DB473
:1017300007FEFDCF0895FC0124A52130F9F42FE91F
:10174000260F2A3108F46052FC01A0A1B1A12C910E
:1017500030E090E080E082179307C4F4AC01440FBE
:10176000551F480F591F1196ED91FC911297E40FE8
:10177000F51F4081461761F00196EDCF223021F729
:101780002FEB260F2A3100F7605EDECF8FEF9FEF41
:1017900008952F923F924F925F926F927F928F9215
:1017A0009F92AF92BF92CF92DF92EF92FF920F93F0
:1017B0001F93CF93DF93CDB7DEB762970FB6F89440
:1017C000DEBF0FBECDBF5C013901480127012230C9
:1017D00031050CF02DC10230110544F58A010F5F6F
:1017E0001F4F9B012F5F3F4FEE24E394C5010E94E2
:1017F000480BB201C5010E94160B62960FB6F89411
:10180000DEBF0FBECDBFDF91CF911F910F91FF9033
:10181000EF90DF90CF90BF90AF909F908F907F9090
:101820006F905F904F903F902F900895040F151F79
:1018300001501109EE24E3949B01C5010E94480B5D
:10184000B201C5010E94160BB1E08B1A9108C1F7D5
:10185000D4CF8401040F151F015011092150310903
:10186000EE24E394C5010E94480B4C145D0409F476
:10187000CFC09E012E5F3F4FAE014C5F5F4FBE0158
:101880006A5F7F4FC2010E94CE0A9E012F5F3F4FC9
:10189000AE014D5F5F4FBE016B5F7F4FC6010E947F
:1018A000CE0A312C212CC401B0E0A0E08B879C87AC
:1018B000AD87BE87C301770CAA0BBB0B8F87988BB4
:1018C000A98BBA8BB10190E080E00E94B5246B0136
:1018D0007C016B857C858D859E850E94B5249B014E
:1018E000AC01C701B6010E9414246B017C01AC015C
:1018F0009B0160E070E080E89FE30E94A7232B013A
:101900003C016E8170E090E080E00E94B724A3016A
:1019100092010E9443256F83788789879A876D811A
:1019200070E090E080E00E94B724A70196010E9439
:1019300043259B01AC016F81788589859A850E943A
:10194000A8230E948624062F10E0102F00270027CE
:10195000187F6C8170E090E080E00E94B724A301C2
:1019600092010E9443256F83788789879A876B81CC
:1019700070E090E080E00E94B724A70196010E94E9
:1019800043259B01AC016F81788589859A850E94EA
:10199000A8230E94862498E0699FB0011124607EEC
:1019A0007770062B172B6A8170E090E080E00E9430
:1019B000B724A30192010E9443252B013C016981B8
:1019C00070E090E080E00E94B724A70196010E9499
:1019D00043259B01AC01C301B2010E94A8230E94D0
:1019E000862470E093E0759567959A95E1F7602BF2
:1019F000712B2F85388949895A89C5010E947F0B2F
:101A0000AFEF2A1A3A0A8214930409F05BCFF5CE9D
:101A1000689C9001699C300D789C300D1124032E38
:101A2000000C440B550BB201C5010E947F0BE5CEA3
:101A3000260F371F023011050CF00BCF2150310952
:101A4000EE24E3948A01C5010E94480BB201C5014E
:101A50000E94160BA1E06A1A7108C1F7CECE1F933F
:101A6000CF93DF93EC01142F0E94380B612FCE012E
:101A7000DF91CF911F910C94290B089561E0FC0137
:101A800084810E941D098091C10281111092C102BE
:101A90000895DC015396ED91FC91549790815996ED
:101AA0008C91892B808308958CBD9DBD0895CF9323
:101AB000DF93EC018091C102811109C081E0809324
:101AC000C10280913A0590913B050E94540D60E05F
:101AD0008C81DF91CF910C941D098F929F92AF92D0
:101AE000BF92FF920F931F93CF93DF93EC01F62EDB
:101AF00049015A018E81882389F08F8198859C0144
:101B00002F5F3F4F38872F838230924018F40E9416
:101B10007D0AF3CFCE010E943E0D1E82CE010E94AF
:101B2000570D8CE291E00E94800A8F2D80640E9404
:101B3000760A08E110E0D501C401002E04C0B69574
:101B4000A795979587950A94D2F70E94760A085030
:101B50001109083F8FEF180771F785E9FF2021F081
:101B600028E087E8F2128FEF0E94760A10E00E94C8
:101B70007D0A8A8787FF04C01F3F11F01F5FF7CFE0
:101B8000DF91CF911F910F91FF90BF90AF909F90E9
:101B90008F900895CF92DF92EF92FF920F93CF93A1
:101BA000DF93EC01690182E1411551056105710581
:101BB00099F08B85833039F089E0440F551F661FFB
:101BC000771F8A95D1F79A01AB0168E1CE010E9497
:101BD0006D0D882319F084E08D832DC08EEF0E9457
:101BE000760A76018EEFD81AF70181917F010E9463
:101BF000760AEC14FD04C1F78FEF0E94760A8FEF8E
:101C00000E94760A0E947D0A8A878F71853071F45E
:101C1000011116C0CE010E943E0D81E0DF91CF91EF
:101C20000F91FF90EF90DF90CF90089581E18D8329
:101C3000CE010E943E0DCE010E943E0D80E0EECF0F
:101C400088E592E00E94800A811102C085E1C4CF3C
:101C500020E030E0A9016DE0CE010E946D0D8823E7
:101C600011F084E1B9CF0E947D0A8111FACFD2CF61
:101C70000F934091C3025091C4026091C5027091CC
:101C8000C602411551056105710599F0082F28EE2E
:101C900032E08091E8049091E9040E94CA0D882303
:101CA00049F01092C3021092C4021092C502109221
:101CB000C60281E00F9108950F93CF93C82F8091B2
:101CC000C202811105C0C1E08C2FCF910F91089500
:101CD0004091000150910101609102017091030156
:101CE0000C2F28EE32E08091E8049091E9040E94E4
:101CF000CA0D811102C0C0E0E7CFCC2321F381E0FF
:101D00000E94380E8823B9F31092C202DDCF9F9251
:101D1000AF92BF92CF92DF92EF92FF920F931F93F9
:101D2000CF93DF936B017C01942E80910001909101
:101D30000101A0910201B09103018C159D05AE0532
:101D4000BF0509F494C081E00E945C0E882389F1EC
:101D5000C091E804D091E9048E81882371F08881D4
:101D60009981AA81BB81C816D906EA06FB0629F427
:101D70008F819885892B09F443C0C882D982EA8271
:101D8000FB828B85A7019601833039F099E0220F01
:101D9000331F441F551F9A95D1F761E1CE010E9470
:101DA0006D0D882391F083E08D83CE010E943E0D5E
:101DB00080E0DF91CF911F910F91FF90EF90DF9026
:101DC000CF90BF90AF909F9008950E946A0A8B01B8
:101DD0000E947D0A8A878F3F69F40E946A0A601B0D
:101DE000710B6D327140A0F38FE08D83CE010E94A4
:101DF0003E0DDBCF8E3F69F518861F8281E08E8312
:101E000008EE12E088EEA82E84E0B82E0E947D0A2B
:101E1000F80181938F01AE16BF06C1F78F819885B7
:101E20009E5F98878F832985222319F08115924020
:101E3000B0F08E81882399F08F8198859C012F5F67
:101E40003F4F38872F838230924028F40E947D0ACA
:101E5000F3CF8DE0CACFCE010E943E0D1E82C0920C
:101E60000001D0920101E0920201F0920301409141
:101E7000C20249294093C20281E09BCF8F929F9278
:101E8000AF92BF92CF92DF92EF92FF92CF932CE36B
:101E900035E03093E9042093E804882309F46DC009
:101EA00040E060E070E0CB010E94870E81110BC022
:101EB00080E0CF91FF90EF90DF90CF90BF90AF90F8
:101EC0009F908F9008958091A6048F7789F78091D5
:101ED000B2049091B304A091B404B091B5048436D7
:101EE0009105A105B10520F3C090AE04D090AF04D8
:101EF000E090B004F090B104C114D104E104F10405
:101F0000B9F240E0C701B6010E94870E882381F232
:101F10008091F3029091F4028115924049F6A091CC
:101F2000F802AA2329F26091F6027091F702611576
:101F3000710509F4BDCF2091F502222309F4B8CF31
:101F4000A0935A0520934C0590E080E030E0E1E05A
:101F5000F0E0C82FAF01082E02C0440F551F0A94AD
:101F6000E2F72417350769F041E0480F0196893000
:101F7000910579F7409355059BCFC12CD12C760163
:101F8000C0CF809355052091FE023091FF0250E0B2
:101F900040E02115310541F420910C0330910D03EF
:101FA00040910E0350910F0320934D0530934E0541
:101FB00040934F055093500546015701860E971EDA
:101FC000A11CB11C80925B0590925C05A0925D05FE
:101FD000B0925E05E091F902F091FA02F09361058A
:101FE000E0936005B0E00E946B23DC01CB01880D1B
:101FF000991DAA1DBB1D8093620590936305A09354
:102000006405B093650525E0EE0FFF1F2A95E1F703
:10201000E150FE4FEF2FFF27E6958E0F9F1FA11D6A
:10202000B11D8093560590935705A0935805B09322
:1020300059058090FB029090FC02B12CA12C8114D8
:10204000910441F48090080390900903A0900A0342
:10205000B0900B03C81AD90AEA0AFB0AC80CD91CAB
:10206000EA1CFB1C04C0F694E794D794C794CA9565
:10207000D2F7C0925105D0925205E0925305F092EA
:10208000540585EFC8168FE0D806E104F10428F462
:102090008CE080935F0581E00CCF80E125EFC216D4
:1020A0002FEFD206E104F104A0F380911403909184
:1020B0001503A0911603B0911703809362059093C6
:1020C0006305A0936405B093650580E2E2CF4F926B
:1020D0005F926F927F928F929F92AF92BF92CF92B8
:1020E000DF92EF92FF920F931F93CF93DF93EC0158
:1020F000423051056105710590F480E0DF91CF9188
:102100001F910F91FF90EF90DF90CF90BF90AF9015
:102110009F908F907F906F905F904F9008958985EA
:102120009A85AB85BC850196A11DB11D84179507C5
:10213000A607B70710F3CB88DC88ED88FE888F8967
:10214000803109F042C0BB27A72F962F852F480169
:1021500059012A013B01C80ED91EEA1EFB1E8091BF
:10216000000190910101A0910201B0910301C816F4
:10217000D906EA06FB0699F58F898031C1F5B301CE
:10218000A201552766277727440F551F48515D4FF9
:10219000FA01918280828091C20281608093C202A2
:1021A0008A89823080F08D819E81AF81B8858C0DC7
:1021B0009D1DAE1DBF1D8093C3029093C402A093CA
:1021C000C502B093C60281E099CFDB01CA01E7E006
:1021D000B695A79597958795EA95D1F7B8CF40E042
:1021E000C701B6010E94870E8111C6CF86CFB30109
:1021F000A2014F77552766277727440F551F440FB5
:10220000551F48515D4FFA0180829182A282B382AC
:10221000C2CF8F929F92AF92BF92CF92DF92EF92F6
:10222000FF920F931F93CF93DF93FC0181859285DB
:10223000A385B4850196A11DB11D84179507A60736
:10224000B70770F480E0DF91CF911F910F91FF905D
:10225000EF90DF90CF90BF90AF909F908F900895B8
:1022600083889488A588B6888789803189F5BB27BB
:10227000A72F962F852FE9016A017B018F01BC01F1
:10228000CD01680D791D8A1D9B1D809000019090E5
:102290000101A0900201B090030186169706A806DE
:1022A000B90601F5F8018789803111F5DD24EE24A6
:1022B000FF24F601EE0FFF1FE851FD4F8081918151
:1022C000B0E0A0E088839983AA83BB8381E0BBCF81
:1022D000DB01CA01C7E0B695A79597958795CA9582
:1022E000D1F7C9CF40E00E94870E8111DBCFAACF82
:1022F000E894C7F8DD24EE24FF24F601EE0FFF1F5B
:10230000EE0FFF1FE851FD4F80819181A281B381C3
:10231000BF70D8CF8F929F92AF92BF92CF92DF9231
:10232000EF92FF920F931F93CF93DF93EC018D8178
:1023300081110EC080E0DF91CF911F910F91FF902E
:10234000EF90DF90CF90BF90AF909F908F900895C7
:102350000B891C892D893E89041715072607370725
:1023600048F34A015B01823031F48A869B86AC8651
:10237000BD8681E0E0CF81149104A104B10449F449
:102380001E821F82188619861A861B861C861D8649
:10239000F0CF0A851B852C853D85EB8DFC8D8585D1
:1023A00090E00996B901A8014150510961097109EC
:1023B000082E04C076956795579547950A94D2F7ED
:1023C00075016401E1E0CE1AD108E108F10804C00A
:1023D000F694E794D794C7948A95D2F7C416D50695
:1023E000E606F70620F0012B022B032B11F58F894F
:1023F000988DA98DBA8D8E839F83A887B9878E010A
:102400000A5F1F4FC114D104E104F10409F4ADCFF8
:102410004E815F816885798598018B8D9C8D0E94A6
:10242000091191E0C91AD108E108F1088111EACF38
:1024300081CFC41AD50AE60AF70AE1CF3F924F923C
:102440005F926F927F928F929F92AF92BF92CF9244
:10245000DF92EF92FF920F931F93CF93DF93CDB74D
:10246000DEB72C970FB6F894DEBF0FBECDBF5C0170
:10247000DC015B968D909C905C9716964D905D90DC
:102480006D907C901997411451046104710409F412
:1024900068C0BFEF4B1A5B0A6B0A7B0A312CF40150
:1024A00081859285A385B4859C01AD012F5F3F4F47
:1024B0004F4F5F4F29873A874B875C8773016201D3
:1024C0001D821E821F821886F40181859285A38554
:1024D000B4852D813E814F815885281739074A07D9
:1024E0005B0708F056C089859A85AB85BC858C153D
:1024F0009D05AE05BF0550F482E0C82ED12CE12C1D
:10250000F12C92E0492E512C612C712C9E012F5FF1
:102510003F4FB701A601C4010E9409118823C9F1E8
:1025200089819A81AB81BC81892B8A2B8B2B09F104
:10253000260137019FEF491A590A690A790A2D8144
:102540003E814F8158852F5F3F4F4F4F5F4F2D8307
:102550003E834F8358873FEFC31AD30AE30AF30A37
:10256000B3CFF40140805180628073803324339470
:1025700096CFC414D504E604F70409F70FEF1FEF54
:102580002FEF3FE0B701A601C4010E94671081113F
:1025900019C080E02C960FB6F894DEBF0FBECDBFF9
:1025A000DF91CF911F910F91FF90EF90DF90CF902F
:1025B000BF90AF909F908F907F906F905F904F9063
:1025C0003F900895D50116964D915D916D917C9146
:1025D0001997411551056105710539F0970186017B
:1025E000C4010E9467108823A1F2D5011696CD92EE
:1025F000DD92ED92FC921997332051F0D701C6017C
:102600000196A11DB11DF40180839183A283B38340
:10261000F5018789908DA18DB28D892B8A2B8B2B0B
:1026200039F48481C78AD08EE18EF28E80688483EB
:10263000F50184818062848381E0ACCF1F93CF93C6
:10264000DF93EC01162F8C8187FF2AC06E857F8572
:102650008889998941E00E94870E882361F1EA897F
:1026600080E2E89FF0011124E851FD4F309719F105
:102670008D81823040F48B899C89AD89BE89848F9D
:10268000958FA68FB78F8F89988D938F828F8F8923
:10269000988DA98DBA8DB58BA48B8C818F778C8307
:1026A000111103C08C818F7E8C83812FDF91CF919C
:1026B0001F910C945C0E80E0DF91CF911F910895E3
:1026C000FF920F931F93CF93DF93EC018D818130A5
:1026D00041F090E080E0DF91CF911F910F91FF904A
:1026E00008958C8181FFF5CF82FD1EC00091E80422
:1026F0001091E904C8010E94570D0E947D0AF82E2E
:10270000C8010E943E0D8FEFF812E3CF8C8185FF48
:102710001EC08D81882321F060E0CE010E941E132F
:102720008C818F7D8C83D5CF4B895C896D897E8927
:102730008A859B85AC85BD8584179507A607B70755
:10274000A9F2CE010E948A118111D0CFC2CF40914F
:10275000C3025091C4026091C5027091C602452B1C
:10276000462B472B21F080E00E94380EB2CF8061CB
:102770008C832A853B85317080E092E0821B930B2D
:10278000AACF9F92AF92BF92CF92DF92EF92FF9229
:102790000F931F93CF93DF9300D000D01F92CDB73C
:1027A000DEB78C016D83DC0115968C911597813015
:1027B00009F0B9C014968C9181FFB5C082FD9FC00D
:1027C000D8015B96ED91FC915C971A96AD90BD9007
:1027D000CD90DC901D9794809A94B601A50189E074
:1027E00076956795579547958A95D1F79422B1E0EC
:1027F000BB22992009F49FC0D8015B96ED91FC9112
:102800005C971696CD90DD90ED90FC901997B2E014
:10281000CB1AD108E108F108858504C0CC0CDD1C79
:10282000EE1CFF1C8A95D2F7468557856089718911
:10283000C40ED51EE61EF71EC90CD11CE11CF11CEE
:10284000A114B10409F00AC1F801428553856485D9
:10285000758583899489A589B689481759076A07B8
:102860007B0708F4FBC081E00E945C0E882309F41A
:102870005AC0C0920001D0920101E0920201F09290
:1028800003018091C20281608093C202F501E85188
:10289000FD4F8D818083F80182859385A485B58560
:1028A0000196A11DB11D82879387A487B5874389AF
:1028B000548965897689481759076A077B0738F470
:1028C0002481838B948BA58BB68B20682483D801BD
:1028D00014968C9183FD9FC081E090E00F900F9043
:1028E0000F900F900F90DF91CF911F910F91FF905C
:1028F000EF90DF90CF90BF90AF909F900895F80138
:10290000438954896589768982859385A485B585AF
:10291000481759076A077B0709F452CFC8010E947C
:102920008A1181114DCF81E090E0D80113969C93DC
:102930008E93129749C0D80116964D915D916D9175
:102940007C911997A114B10409F071C0411551058A
:102950006105710589F557968D919D910D90BC91FA
:10296000A02D0097A105B10509F04FC0C8010E9434
:102970001E128823C1F2D8015B96ED91FC915C9701
:102980001696CD90DD90ED90FC901997B2E0CB1AA1
:10299000D108E108F108858504C0CC0CDD1CEE1CD3
:1029A000FF1C8A95D2F74685578560897189C40EC8
:1029B000D51EE61EF71E48CF9E012F5F3F4FCF0169
:1029C0000E940911811103C090E080E087CF8981C6
:1029D0009A81AB81BC81F801238D348DF90127895F
:1029E00048EF5FEF60E070E0203121F048EF5FEFEB
:1029F0006FEF7FE084179507A607B70730F0C8018F
:102A00000E941E128111F8CE8ECFF8018683978323
:102A1000A087B187F1CEF8018581882309F483CF9F
:102A200061E0C8010E941E13811156CF7CCF6A015C
:102A30007B01B2E0CB1AD108E108F108858504C01A
:102A4000CC0CDD1CEE1CFF1C8A95D2F74685578501
:102A500060897189C40ED51EE61EF71E41E0C701CC
:102A6000B6010E94870E811111CF5DCFCF92DF9208
:102A7000EF920F931F93CF93DF9300D000D0CDB789
:102A8000DEB76C016370DC01D6966C93D697D7964F
:102A90001C92D7971E968C911E97847E1E968C93BF
:102AA0001E9780E890E016969C938E931597189643
:102AB0009C938E931797611107C01E968C911E9759
:102AC00080611E968C9314C0613009F068C0F601D5
:102AD000868583618687858196819A8389838781AC
:102AE00090859683858389819A819087878367AB58
:102AF000D6011A961C921E9219971C961C921E9231
:102B00001B9780918505909186050E94540DD601F2
:102B10005396ED91FC915497908159968C915997C9
:102B200080958923808315960D911C911697179691
:102B30002D913C910150110921503109E12C50E0B7
:102B400040E070E060E0C6010E94480B60EAC60108
:102B50000E94380BF60196850588F689E02D808164
:102B6000D6015A962C91822B80839EBD0DB407FE10
:102B7000FDCFD6015396ED91FC91549780815996E3
:102B80009C91892B80830F900F900F900F90DF9175
:102B9000CF911F910F91EF90DF90CF900895623009
:102BA00029F41E968C911E9782608BCFF601868544
:102BB00081608687858196819C838B8387819085C0
:102BC000968385838B819C819087878381E087AB07
:102BD0008FCF089590E080E00895FC0101900020DF
:102BE000E9F73197AF01481B590BBC018AEE94E01D
:102BF0000C94E5098F929F92AF92BF92CF92DF9291
:102C0000EF92FF920F931F93CF93DF93CDB7DEB771
:102C1000A1970FB6F894DEBF0FBECDBF6C01990F20
:102C2000EE08FF0819A28E010F5D1F4F9AE0892E52
:102C3000912CA12CB12CC701B601A50194010E94D1
:102C40007623605DF80162938F01FAE0CF16D1041C
:102C5000E104F10400F50115110511F1C8010E940C
:102C6000ED158C018FE692E00E94ED15800F911F0B
:102C7000A1960FB6F894DEBF0FBECDBFDF91CF9106
:102C80001F910F91FF90EF90DF90CF90BF90AF908A
:102C90009F908F900895C12CD12C7601C394CBCFF7
:102CA00010E000E0DFCF9F92AF92BF92CF92DF9211
:102CB000EF92FF920F931F93CF93DF936C017B01F1
:102CC00042E050E086EE92E00E946223F7013296E5
:102CD000C4913196049184E0E80EF11CF701A590AF
:102CE000B490C15009F45AC0EFEFE00F09F456C098
:102CF000D601D7968C91882319F08C2FCE2FE82FF0
:102D0000D60115968D919C911697D0E0C817D907DA
:102D10000CF044C017968D919C910E2F10E008176F
:102D200019070CF03BC09090E602F090E70280910A
:102D30008505909186050E94540DD6015396ED911C
:102D4000FC915497908159968C918095892380832A
:102D5000E12C9E0150E040E070E060E0C6010E947E
:102D6000480BC92DDF2DFE0165917491C6010E94AB
:102D7000160BB1E0AB1AB1082296A114B10499F771
:102D8000C601DF91CF911F910F91FF90EF90DF90DF
:102D9000CF90BF90AF909F900C94490DDF91CF9151
:102DA0001F910F91FF90EF90DF90CF90BF90AF9069
:102DB0009F9008952F923F924F925F926F927F92D1
:102DC0008F929F92AF92BF92CF92DF92EF92FF923B
:102DD0000F931F93CF93DF93CDB7DEB76B970FB6EB
:102DE000F894DEBF0FBECDBF9E838D833B014A8723
:102DF0005B8738872F831801C9862DB73EB7398F77
:102E0000288FC80101966DB77EB7681B790B0FB686
:102E1000F8947EBF0FBE6DBF8DB79EB701969D879C
:102E20008C87E9A9FAA92BA93CA9E217F307C9F0F5
:102E3000AE9C8001AF9C100D112488A9820D932DAA
:102E4000911DC89E9001C99E300D1124CBA8DCA80D
:102E500076014F8158856A857B858D819E810E9490
:102E6000C90B2301B301680D791D798B688B50E084
:102E700040E0B12C20E08A2D90E09F878E87398535
:102E8000329DF001339DF00D1124FB8FEA8F68898C
:102E900079896415750509F493C0F201849167E09E
:102EA00070E07C836B83E82FF0E0FF8BEE8BEC858A
:102EB000FD85E20FF11D8E899F890B8002C09595DB
:102EC00087950A94E2F7382F317030832F5F817035
:102ED0009927480F591F22151304E9F4411551058C
:102EE000B1F02416350621F54F81AB9C400D11241D
:102EF00050E0CBA8DCA8E9A8FAA80E851F852A8D8A
:102F00003B8D6A857B858D819E810E94C90BB39420
:102F100050E040E020E06B817C81615071097C834E
:102F20006B836F3F7F4F19F69FEF491A590AAFCF56
:102F30002F813885AB9C200D311D11243B8B2A8BB2
:102F40003A8539834B854A83712C612C812CAC8561
:102F5000BD85A60DB71D62147304CCF62C91FD013E
:102F6000C30128163906BCF33191231306C0281675
:102F7000390619F083940196F4CF682D70E07D8BAB
:102F80006C8B7985789D40011124222371F0C9A8AA
:102F9000DAA876010E851F8594014A895B896981CB
:102FA0007A818D819E810E94C90B8C899D89680ED2
:102FB000791EE981FA81E80DF91DFA83E983C6CF0C
:102FC000E88DF98D0FB6F894FEBF0FBEEDBF6B967E
:102FD0000FB6F894DEBF0FBECDBFDF91CF911F912A
:102FE0000F91FF90EF90DF90CF90BF90AF909F90A8
:102FF0008F907F906F905F904F903F902F900895AB
:103000002F923F924F925F926F927F928F929F92F8
:10301000AF92CF92DF92EF92FF920F931F93CF93D5
:10302000DF93EC013B011A01452B51F4FB010190A8
:103030000020E9F731971F01261A370A09F4ADC2BB
:1030400019A5112309F491C0C8A0D9A0D6011396DF
:103050008C917301512C412C882309F459C08E8D19
:103060009F8D289E2001299E500C389E500C1124C3
:103070002FA1249DC001259D900D112497FD01963F
:1030800095958795F60124813581231B330B68A51F
:10309000629FA001639F500D112457FF02C04F5F34
:1030A0005F4F559547952FA9143008F0B8C02223DB
:1030B00009F496C0113009F03CC02D813E8137FFE4
:1030C00002C02F5F3F4F35952795281B31093C875C
:1030D0002B873EC06D30E1F06A30D1F0CE010E9406
:1030E0009B0B97FD15C0FC01EE0FFF1F8E0F9F1F5E
:1030F000D6011196ED91FC91E80FF91F0180F28144
:10310000E02D3296E4914E0E511CEAA14E0E511C58
:10311000C70186199709821593050CF0A9CFF7010D
:1031200061917F016032B1F68E8D9F8D480E591EE0
:10313000EFCF2F81388537FF02C02F5F3F4F359586
:103140002795241B31093A872987123009F0B5CF1A
:1031500089859A8597FF02C01A8619868B859C857A
:1031600097FF02C01C861B8619A680918505909149
:1031700086050E94540DEB89FC899081898D80958C
:1031800089238083260C371C2614370409F4BBC11D
:10319000D3016D913D016D30B9F36A3009F072C011
:1031A000E8A1F9A184819AA5890F98A5899F802D0E
:1031B000112490E02FA9211152C02B853C854F810D
:1031C0005885280F391F421753070CF49CC11A86E3
:1031D00019862B853C85820F931F9C878B87D4CFC4
:1031E000113069F42D813E8137FF02C02F5F3F4FC0
:1031F00035952795281B31093A872987A9CF2F8133
:10320000388537FF02C02F5F3F4F35952795241B28
:1032100031093C872B87123009F49ACFE3CF222360
:1032200079F0143019F42B853C854FCF29853A85E8
:10323000241B31093A872987153009F489CFF3CF48
:10324000143019F429853A85D5CF2B853C85241B6C
:1032500031093C872B87153009F47ACFF3CF2985C4
:103260003A854D815E81280F391F421753070CF4B0
:103270004AC129853A85820F931F9A8789871C86C0
:103280001B8682CF603209F06BC0FAA18E8D9F8DB4
:103290008F0F911D2BA13CA1EDA0FEA04FA94111C4
:1032A00033C0EFA1E89F502C1124E216F30629F158
:1032B00089859A852D813E81850D911D8217930701
:1032C00034F08D819E8129853A85582E521A4B857E
:1032D0005C8569857A85A8A1B9A114968C9108A509
:1032E000809F80011124252D30E0FE9F200D311D8F
:1032F00011246701CE010E94C90B89859A85850D2D
:10330000911D9A87898740CF98A4989E902C11246C
:10331000E216F30601F18B859C852F813885890D96
:10332000911D8217930734F08F8198852B853C85FA
:10333000982E921A49855A856B857C85E8A1F9A15A
:1033400004818FA1089F80011124292D30E067019D
:10335000CE010E94C90B8B859C85890D911D3DCFA7
:10336000CE010E949B0B97FD0FCFA8A1B9A18C01A4
:10337000000F111F080F191F1196ED91FC91129764
:10338000E00FF11F61817281FB013296D4904D2CC8
:10339000512C8FA94AA19BA5992309F4A1C08111A1
:1033A00079C089859A855FA12D813E81D59E800D4A
:1033B000911D1124549F800D911D11248217930794
:1033C000A4F01A8619862B853C8514964C918AA503
:1033D000480F5527551FE8A5E49FC001E59F900DB4
:1033E0001124820F931F9C878B8742E050E08EEB65
:1033F00092E00E9462236091BE027091BF02A8A178
:10340000B9A111968D919C911297080F191FF8017F
:1034100081819281FC013396859094909FA91496A6
:103420008C91911188C04B855C85E82EF12CA8A465
:103430002F8138858A9D400D511D11242417350791
:103440000CF461C02B853C8549855A858EA18F93EC
:103450008DA18F938CA18F938BA18F938AA18F9332
:10346000CFA08201CE010E94DA1629853A859AA161
:10347000490E511C4FA1449DC001459D900D112442
:10348000820F931F9A8789870F900F900F900F904C
:103490000F907ACE8B859C8558A52D813E81D59E37
:1034A000800D911D1124549F800D911D11248217B0
:1034B00093070CF49ACF49855A8514962C918AA5C6
:1034C000280F3327331FEFA1E29FC001E39F900D28
:1034D0001124840F951F9A8789871C861B8685CFA8
:1034E000882329F18B859C8558A52D813E81D59E09
:1034F000800D911D1124549F800D911D1124821760
:1035000093070CF472CFCE01DF91CF911F910F91F1
:10351000FF90EF90DF90CF90AF909F908F907F9033
:103520006F905F904F903F902F900C94490D89853C
:103530009A855FA1DACF49855A85E82EF12CCFA074
:103540002D813E818C9D400D511D1124241735077E
:10355000D4F229853A854B855C858EA18F938DA108
:103560008F938CA18F938BA18F938AA18F93A8A403
:103570008201CE010E94DA168B859C853AA128A58E
:10358000EFA1DE9EF0011124329FE00DF11D112408
:10359000E80FF91FFC87EB8777CFDF91CF911F9161
:1035A0000F91FF90EF90DF90CF90AF909F908F9012
:1035B0007F906F905F904F903F902F900895CF93A2
:1035C000DF93EA010E940018CE01DF91CF910895A8
:1035D000CF93DF931F92CDB7DEB7698341E050E010
:1035E000BE016F5F7F4F0E94001881E090E00F9056
:1035F000DF91CF9108951F920F920FB60F92112471
:103600008F939F938091E1009091E100937F90933D
:10361000E10083FF0FC01092E90091E09093EB006E
:103620001092EC0092E39093ED001092E50298E086
:103630009093F00082FF22C093E09093E900909174
:10364000F200992319F09AE39093E8009091D70241
:10365000992341F09091D70291509093D702911104
:1036600001C05D9A9091E402992341F09091E402A7
:1036700091509093E402911101C0289A84FF18C0E0
:103680008091E2008E7E81608093E2008091E10073
:103690008F7E8093E1008091D6028E7E8061809340
:1036A000D6029F918F910F900FBE0F901F9018958B
:1036B00080FFF7CF8091E2008E7E80618093E200F0
:1036C0008091E1008E7E8093E1008091D6028E7E13
:1036D0008160E5CF1F920F920FB60F921124CF9207
:1036E000DF92EF92FF920F931F932F933F934F938D
:1036F0005F936F937F938F939F93AF93BF93EF935A
:10370000FF93CF93DF93CDB7DEB76C97DEBFCDBF0E
:103710001092E9008091E80083FF25C068E0CE01A7
:1037200045960E94620882EF8093E8008D8987FFAA
:1037300039C09091E80090FFFCCF982F907609F067
:1037400034C19E894F89588D2F89F88C911131C0D1
:10375000803861F58091D5028093F1001092F100DC
:103760008EEF8093E8006C960FB6F894DEBF0FBE24
:10377000CDBFDF91CF91FF91EF91BF91AF919F911D
:103780008F917F916F915F914F913F912F911F91F9
:103790000F91FF90EF90DF90CF900F900FBE0F90A2
:1037A0001F9018959EEF9093E800C7CF1092F100FC
:1037B000D5CF913059F48111D3CF4130510581F6E5
:1037C0008091D5028D7F8093D502CACF933049F482
:1037D0008111C6CF4130510519F68091D502826022
:1037E000F2CF953041F48091E80080FFFCCF206853
:1037F0002093E300B5CF963009F0A9C00B8D1C8D46
:1038000022E01092E9001092D3021092D202F2123A
:103810002EC01092D1021092D0020E9431081F8255
:1038200099E09983FA8291E09E8390EA98879AEFD3
:1038300099872091D2023091D302275F3F4F3C837A
:103840002B838D831092E9001092D3021092D20242
:103850001093D1020093D00249E050E0BE016F5FA7
:103860007F4F80E00E940B080E94310879CF1093AF
:10387000D1020093D0020E94C907DC0112960D917B
:103880001C910115110509F451C1D801ED91FC916C
:103890000480F581E02DBE016B5E7F4FC801099564
:1038A000009709F03EC1F80100851185EACFF3E0E9
:1038B000FF120EC08F89882309F440C0823061F462
:1038C00040E860E18CE19EE00E94E61D811148CF56
:1038D00081E28093EB0047CF813029F440E86BE030
:1038E00080E19EE0F1CF833099F70E94C907DC01A7
:1038F0001296ED90FC908E010F5F1F4F6801E1144E
:10390000F10479F0D701ED91FC910680F781E02D6B
:10391000B801C7010995080F111DF701E084F18472
:10392000EECFD8011C92F60101900020E9F7319703
:10393000BF016C197D0940E0C601C6CF6AEF7DE08A
:10394000FB01449150E080E80E940B0809CF9730BA
:1039500009F4BECF983021F481E08093F10000CFCC
:10396000993009F0FDCE837009F0B2CFEFE3F2E0B9
:1039700081E031E096E32191222371F08093E90008
:103980003093EB00DF0111972C912093EC00909382
:10399000ED008F5F873079F78EE78093EA00109211
:1039A000EA008F898093E502DBCE8B8D9C8D10928F
:1039B000E9001092D3021092D2029093D102809328
:1039C000D002898D811192C08E899D89913A49F4E6
:1039D000813209F07DCF47E050E068E071E080E09F
:1039E000B3CF913209F074CF833269F48F89988D07
:1039F000B0E0A0E08093040190930501A09306013C
:103A0000B0930701ADCE803269F48091E80082FF67
:103A1000FCCF67E088E091E00E9462088BEF809322
:103A2000E8009ECE823209F09BCE8F8980930F01F1
:103A3000EEEFFFE7859194918B3F9C4D51F1E0E0D3
:103A4000F8E08091080190910901A0910A01B091DC
:103A50000B01803B9440A105B105F1F480910F0169
:103A600080FD1AC0EE3F8AE0F80789F587E797E7FF
:103A700091838083809160008093D40288E19BE0F1
:103A80000FB6F894A895809360000FBE90936000E5
:103A900067CEEEEFFAE0D5CF8081918187379747E7
:103AA00009F05ECEA89580916000886180936000E7
:103AB0008091D40280936000EE3F2AE0F20789F003
:103AC0008091FE0A9091FF0A9183808349CE808184
:103AD00091818737980751F29093FF0A8093FE0AED
:103AE000C5CF1092FF0A1092FE0A3ACE0E94C90773
:103AF000DC0112960D911C910115110509F4E8CE17
:103B0000D801ED91FC910190F081E02DBE016B5E3A
:103B10007F4FC8010995811123CEF80100851185D9
:103B2000EBCF181619060CF41BCED2CEF1E0FF1223
:103B3000BECE6EEF7DE004CF1F920F920FB60F92B4
:103B400011242F933F938F939F93AF93BF938091B3
:103B5000C8029091C902A091CA02B091CB023091E3
:103B6000C70223E0230F2D3758F50196A11DB11D83
:103B70002093C7028093C8029093C902A093CA02FF
:103B8000B093CB028091CC029091CD02A091CE0255
:103B9000B091CF020196A11DB11D8093CC029093EC
:103BA000CD02A093CE02B093CF02BF91AF919F916F
:103BB0008F913F912F910F900FBE0F901F901895EE
:103BC00026E8230F0296A11DB11DD2CFEF92FF92DE
:103BD0000F931F93CF93DF93F82E192FE62E042F08
:103BE00081E0860F880F0E94DD0783E00E94DD07D9
:103BF000CF2DD12FEC0EFD2EF11CCE15DF05B9F027
:103C000007FF13C0FE0184910E94DD07182F80E09A
:103C10000E94DD07812321968111EFCFDF91CF91A3
:103C20001F910F91FF90EF9008958881EDCF81E073
:103C3000F5CFCF93DF93EAEEF4E01382128288EEA1
:103C400093E0A0E0B0E084839583A683B78389E402
:103C500092E0918380838FEF9FEF95878487EAE3DB
:103C6000F5E080E580831182ECE3F5E015821682B1
:103C70001186138642E050E060E070E0448755878B
:103C80006687778713A215A614A62BE532E033A723
:103C900022A717A6E5E8F5E080831182C7E8D5E002
:103CA00083E090E09983888386E0E0E1F1E0A2E997
:103CB000B5E001900D928A95E1F71C8A1B8A27E6F0
:103CC00032E03A8B298B82E18CA797E09DA78FEF9A
:103CD0008D8B1092D7051092D6053093D505209381
:103CE000D40543E14093EF059093F0058093D80508
:103CF00010921306109212063093110620931006AC
:103D000024E120932B0690932C0680931406DF91D8
:103D1000CF910895CF93DF9300D000D0CDB7DEB719
:103D2000789484B5826084BD84B5816084BD85B596
:103D3000826085BD85B5816085BD80916E008160A2
:103D400080936E0010928100809181008260809348
:103D5000810080918100816080938100809180004A
:103D600081608093800080919100826080939100B7
:103D7000809191008160809391008091900081609A
:103D8000809390008091C10084608093C1008091F5
:103D9000C10082608093C1008091C10081608093E6
:103DA000C1008091C30081608093C3008091C000F6
:103DB00082608093C0008091C20081608093C200C5
:103DC00080917A00846080937A0080917A0082608A
:103DD00080937A0080917A00816080937A0080914C
:103DE0007A00806880937A001092E5021092D502E2
:103DF0001092D6028091D70081608093D70080EA2C
:103E00008093D80089B5806189BD89B5826089BDFC
:103E100009B400FEFDCF61E070E080E090E00E9418
:103E2000B3098091D8008F7C80618093D800809105
:103E3000E000807F8093E0008091E1008E7E80939F
:103E4000E1008DE08093E200559A209A8FEF9FEF7A
:103E50009093F7048093F60488E9C82E85E0D82E65
:103E6000B12CA12CFF24F39488248A94982C212C23
:103E7000312C24EB422E23E4522E2CE32A9DF00118
:103E80002B9DF00D1124E957FA4F178ED601D596C8
:103E90001C92D597D7961C92D797168E9D961C92FA
:103EA0009D97138E128E158E148E9896FC9298976D
:103EB0009796FC92979799961C9299979A961C922E
:103EC0009A9792961C9292979B96FC929B9720E1D0
:103ED0005D962C935D97878D8064878F878D846036
:103EE000878FD9961C921E92D897DB969C928E92C1
:103EF000DA9796969C928E92959794969C928E9233
:103F000093979F962D923D924D925C92D297E6EABE
:103F1000FFEFD496FC93EE93D397F0E5F0938505ED
:103F2000F09286055C968C910E946F07D6015B9695
:103F30008C910E946F07F601238D30E0F901E75B59
:103F4000F14FE491F0E0EE0FFF1FE35DF14F85913B
:103F50009491D60154969C938E9353975C968C9132
:103F60005C9790E0FC01E75BF14FE491F0E0EE0F2D
:103F7000FF1FE35DF14F45915491F601568B458B40
:103F8000F901E859F14FE4915996EC935997FC01E6
:103F9000E859F14FE4915A96EC930E949B0AD6019E
:103FA0005396ED91FC915497808159969C91599725
:103FB000892B80835596ED91FC91569780815A9676
:103FC0009C915A97892B808314968C918F3F21F175
:103FD0000E946F0761E0F60184810E941D096AE07A
:103FE00070E080E090E00E94B30960E0D601149692
:103FF0008C910E941D096AE070E080E090E00E94D0
:10400000B30961E0F60184810E941D096AE070E055
:1040100080E090E00E94B3096EE170E080E090E003
:104020000E94B30980918505909186050E94540DE8
:10403000D6015396ED91FC915497908159968C91AD
:10404000809589238083BCE3BA9DF001BB9DF00D70
:104050001124E957FA4F878D8062878F42E16DEF17
:10406000C6010E942F0D41EB6DEFC6010E942F0D7E
:104070006EEAC6010E94380B41EF63EBC6010E9455
:104080002F0D4FE76AECC6010E942F0D40E061EA58
:10409000C6010E942F0D40E062EAC6010E942F0D6A
:1040A00040E065EBC6010E942F0D41E06BEAC601BE
:1040B0000E942F0D64EBC6010E94380B60EAC60116
:1040C0000E94290B65EBC6010E94290B65E5C6011C
:1040D0000E94290B61ECC6010E94380B68ECC601F6
:1040E0000E94290B60E8C6010E94290B68ECC601FA
:1040F0000E94290B4FE067ECC6010E942F0D62EB76
:10410000C6010E94380B64EAC6010E94290B60E0D8
:10411000C6010E94290B60E0C6010E94290B69EBD1
:10412000C6010E94380B42E361EBC6010E942F0DCD
:1041300041E066EBC6010E942F0D45E06EEBC60123
:104140000E942F0D66EAC6010E94380BD6015596D3
:10415000ED91FC91569790815A968C918095892388
:104160008083BFEABEBD0DB407FEFDCFD6015396D6
:10417000ED91FC915497808159969C91892B808375
:104180006CE370E080E090E00E94B30960E0C6015B
:104190000E943615F60160AC71AC80918505909156
:1041A00086050E94540DD6015396ED91FC915497CB
:1041B000908159968C91809589238083E12C0FE71B
:1041C00010E02FE730E050E040E070E060E0C60132
:1041D0000E94480B20E030E440E050E0B301C6010B
:1041E0000E947F0BC6010E94490D26E332E0F601D2
:1041F00031A320A314A660E2C6010E949B0B97FD89
:10420000F4CFFC01EE0FFF1FE80FF91FEA5EFE4F2F
:104210000180F281E02D3296E491F0E0D6015F96C4
:10422000FC93EE935E9761E070E080E090E00E9486
:10423000B309F60185A9882369F1809185059091DC
:1042400086050E94540DD6015396ED91FC9154972A
:10425000908159968C915997809589238083D59622
:104260008C91863021F46FEAC6010E94380BF6016A
:1042700085A9893029F442E16DEFC6010E942F0D16
:1042800066EAC6010E94380BD601D5961C92C6017B
:104290000E94490D82E792E00E94ED15C5010E943F
:1042A000FA15BFEFAB1ABB0AECE3CE0ED11CF3E05C
:1042B000AF16B10409F0E1CD10E000E062E0D62EC7
:1042C00070E5772EE3E0CE2E212CF2E03F2E412C3C
:1042D000512CA6E06A2E80916B05882341F061E0A5
:1042E00086E695E00E941E13811110926B051092D4
:1042F0004705109245051092420510924105D09253
:1043000040050E946A0A7B01809140050E946F0768
:1043100061E0809140050E941D090E949B0A22E5F0
:1043200020933A0510923B0580913A0590913B0508
:104330000E94540D5AE0B52E8FEF0E94760ABA946F
:10434000B110FACF8CE395E00E94570D20E030E0E9
:10435000A90160E08CE395E00E946D0DB82E80937A
:10436000460531E0831759F00E946A0A6E197F09E9
:10437000613D774058F381E08093410542C02AEACD
:1043800031E040E050E068E08CE395E00E946D0D84
:1043900082FF2AC0B092470580914705812C912C5D
:1043A0005401823029F4812C912CA12C30E4B32EBD
:1043B00020E030E0A90167E38CE395E00E946D0DF9
:1043C000A501940169E28CE395E00E946D0D809354
:1043D00046058823F1F00E946A0A6E197F09613D43
:1043E000774030F388E0C8CF44E0B42E0E947D0AC5
:1043F00080934605BA94B110F9CF8A3A39F0D09239
:1044000041058CE395E00E943E0D32C0D0924705F5
:10441000C3CF809147058230D1F420E030E0A9017C
:104420006AE38CE395E00E946D0D882319F0609299
:104430004105E7CF0E947D0A807C803C11F4C09248
:1044400047050E947D0A0E947D0A0E947D0A8CE336
:1044500095E00E943E0D70923A0510923B0581E076
:104460000E943E0F8823D9F080916B058823E9F0E4
:1044700088E892E00E94ED150F5F1F4FC8010E946F
:10448000FA150C30110509F026CF8BE992E00E9455
:10449000ED158FE692E00E94ED1580E04EC080E0C1
:1044A0000E943E0F882321F3DFCF80915F0580318A
:1044B00009F0AEC082E080936B0510927D051092EA
:1044C0007E0510927F051092800580916005909185
:1044D0006105B0E0A0E025E0880F991FAA1FBB1F6F
:1044E0002A95D1F78093790590937A05A0937B055F
:1044F000B0937C0588E495E09093820580938105D4
:1045000081E080936A0510926C0510926D051092FF
:104510006E0510926F051092700510927105109241
:104520007205109273051092740510927505109221
:104530007605109277051092780580934C068DEAE7
:1045400092E00E94ED1580914C0690E00E94FA15D1
:1045500062E088E995E00E94361562E084ED95E01E
:104560000E94361562E080E196E00E94361582E0F6
:104570008093C0058093BF058093FC058093FB0565
:10458000809338068093370600E010E064E670E020
:1045900080E090E00E94B30968EC70E080E090E079
:1045A0000E94B30960EB7DE088E995E00E94531614
:1045B00060EB7DE084ED95E00E94531660EB7DE0BA
:1045C00080E196E00E94531668EC70E080E090E095
:1045D0000E94B30968EA7DE088E995E00E945316DD
:1045E00068EA7DE084ED95E00E94531668EA7DE07C
:1045F00080E196E00E94531668EC70E080E090E065
:104600000E94B3090115110509F20E940000BECFF6
:10461000803209F02DCFC0926B0580916205909198
:104620006305A0916405B091650580937D05909325
:104630007E05A0937F05B093800589839A83AB8321
:10464000BC83812C912C540149815A816B817C81DE
:104650009E012F5F3F4F88E495E00E940911882357
:1046600009F406CF80915505A201910104C0220FE3
:10467000331F441F551F8A95D2F7DA01C901880EEE
:10468000991EAA1EBB1E49815A816B817C81809133
:104690005F05803191F088EF9FEFAFEFBFE04817E3
:1046A00059076A077B0780F28092790590927A0514
:1046B000A0927B05B0927C051DCF88EF9FEFA0E014
:1046C000B0E0EDCFFB01DC0102C005900D9241503E
:1046D0005040D8F708950E949823A59F900DB49F4D
:1046E000900DA49F800D911D11240895A1E21A2E12
:1046F000AA1BBB1BFD010DC0AA1FBB1FEE1FFF1F86
:10470000A217B307E407F50720F0A21BB30BE40BD5
:10471000F50B661F771F881F991F1A9469F760951C
:104720007095809590959B01AC01BD01CF010895D6
:10473000A29FB001B39FC001A39F700D811D1124E2
:10474000911DB29F700D811D1124911D0895505827
:10475000BB27AA270E94BF230C9409250E94FB2493
:1047600038F00E94022520F039F49F3F19F426F416
:104770000C94F8240EF4E095E7FB0C94F224E92F56
:104780000E941A2558F3BA17620773078407950722
:1047900020F079F4A6F50C943C250EF4E0950B2E50
:1047A000BA2FA02D0B01B90190010C01CA01A00183
:1047B0001124FF27591B99F0593F50F4503E68F1DE
:1047C0001A16F040A22F232F342F4427585FF3CF1F
:1047D000469537952795A795F0405395C9F77EF4F0
:1047E0001F16BA0B620B730B840BBAF09150A1F039
:1047F000FF0FBB1F661F771F881FC2F70EC0BA0FBF
:10480000621F731F841F48F4879577956795B79546
:10481000F7959E3F08F0B0CF9395880F08F0992741
:10482000EE0F9795879508950E9428240C940925EA
:104830000E94022558F00E94FB2440F029F45F3FBB
:1048400029F00C94F22451110C943D250C94F82479
:104850000E941A2568F39923B1F3552391F3951B10
:10486000550BBB27AA2762177307840738F09F5F91
:104870005F4F220F331F441FAA1FA9F335D00E2EFE
:104880003AF0E0E832D091505040E695001CCAF76B
:104890002BD0FE2F29D0660F771F881FBB1F26172E
:1048A00037074807AB07B0E809F0BB0B802DBF0105
:1048B000FF2793585F4F3AF09E3F510578F00C94D4
:1048C000F2240C943D255F3FE4F3983ED4F38695A3
:1048D00077956795B795F7959F5FC9F7880F911DF5
:1048E0009695879597F90895E1E0660F771F881FE1
:1048F000BB1F621773078407BA0720F0621B730B94
:10490000840BBA0BEE1F88F7E09508950E942225CC
:1049100088F09F5798F0B92F9927B751B0F0E1F080
:10492000660F771F881F991F1AF0BA95C9F714C030
:10493000B13091F00E943C25B1E008950C943C25E3
:10494000672F782F8827B85F39F0B93FCCF3869569
:1049500077956795B395D9F73EF4909580957095C6
:1049600061957F4F8F4F9F4F0895E89409C097FB43
:104970003EF490958095709561957F4F8F4F9F4F36
:104980009923A9F0F92F96E9BB279395F69587957A
:1049900077956795B795F111F8CFFAF4BB0F11F43D
:1049A00060FF1BC06F5F7F4F8F4F9F4F16C08823E4
:1049B00011F096E911C0772321F09EE8872F762F1A
:1049C00005C0662371F096E8862F70E060E02AF05B
:1049D0009A95660F771F881FDAF7880F9695879547
:1049E00097F9089597F99F6780E870E060E008956F
:1049F0009FEF80EC089500240A94161617061806F7
:104A00000906089500240A941216130614060506D2
:104A10000895092E0394000C11F4882352F0BB0F63
:104A200040F4BF2B11F460FF04C06F5F7F4F8F4FC6
:104A30009F4F089557FD9058440F551F59F05F3F01
:104A400071F04795880F97FB991F61F09F3F79F0B0
:104A500087950895121613061406551FF2CF469532
:104A6000F1DF08C0161617061806991FF1CF8695B4
:104A70007105610508940895E894BB276627772798
:104A8000CB0197F908950E9456250C9409250E94A0
:104A9000FB2438F00E94022520F0952311F00C949D
:104AA000F2240C94F82411240C943D250E941A251C
:104AB00070F3959FC1F3950F50E0551F629FF00171
:104AC000729FBB27F00DB11D639FAA27F00DB11D8A
:104AD000AA1F649F6627B00DA11D661F829F222713
:104AE000B00DA11D621F739FB00DA11D621F839F9A
:104AF000A00D611D221F749F3327A00D611D231F70
:104B0000849F600D211D822F762F6A2F11249F57BD
:104B100050409AF0F1F088234AF0EE0FFF1FBB1FC0
:104B2000661F771F881F91505040A9F79E3F51057F
:104B300080F00C94F2240C943D255F3FE4F3983E02
:104B4000D4F3869577956795B795F795E7959F5F29
:104B5000C1F7FE2B880F911D9695879597F90895BB
:104B6000EE0FFF1F0590F491E02D0994F894FFCF0C
:104B7000FFFFFFFFFFFFFFFF00E10000000000005C
:104B8000120013001400207404216F04226A04230D
:104B90006504246004255B04265604275104284C30
:104BA000042947042A42042B3D042C38042D3304E5
:104BB0002E2E042F2904302404311F04321A04330A
:104BC0001504341004350B0436060437010438FC90
:104BD0000339F7033AF2033BED033CE8033DE303FB
:104BE0003EDE033FD90340D40341CF0342CA03430F
:104BF000C50344C00345BB0346B60347B10348ACF5
:104C00000349A7034AA2034B9D034C98034D93030A
:104C10004E8E034F8903508403517F03527A03530E
:104C20007503547003556B03566603576103585C54
:104C3000035957035A52035B4D035C48035D43031A
:104C40005E3E035F3903603403612F03622A03630E
:104C50002503642003651B03661603671103680CB4
:104C6000036907036A02036BFD026CF8026DF3022D
:104C70006EEE026FE90270E40271DF0272DA027313
:104C8000D50274D00275CB0276C60277C10278BC19
:104C90000279B7027AB2027BAD027CA8027DA30240
:104CA0007E9E02B09902601601000801000000C15A
:104CB0008081000000000000009C08E509BD08B2EA
:104CC000080309C108DF0800000000C1136F086075
:104CD00013E91500000000E81ADF1AEA15E9150DBE
:104CE0000A00496E697469616C697A696E6720644B
:104CF0006973706C617920005344204D6F756E7438
:104D000020417474656D70743A20004361726420B0
:104D10004D6F756E74204661696C65640053442064
:0E4D200043617264205374617475733A20000D
:00000001FF
