:100000000C94B4020C94DC020C94DC020C94DC0220
:100010000C94DC020C94DC020C94DC020C94DC02E8
:100020000C94DC020C94DC020C94D7150C9446164C
:100030000C94DC020C94DC020C94DC020C94DC02C8
:100040000C94DC020C94DC020C94DC020C94DC02B8
:100050000C94DC020C94DC020C94DC020C947818F6
:100060000C94DC020C94DC020C94DC020C94DC0298
:100070000C94DC020C94DC020C94DC020C94DC0288
:100080000C94DC020C94DC020C94DC020C94DC0278
:100090000C94DC020C94DC020C94DC020C94DC0268
:1000A0000C94DC020C94DC020C94DC02EAE000000C
:1000B00000003AB80000C44244C049249064484457
:1000C00060000F84210F80000894514210000894B2
:1000D000214880000092AAAAAA4400000894514234
:1000E0000000252949C044E44460001D060B80033C
:1000F0004920001D29384200392972100019294968
:10010000800039294A400000FC9292929200AAA8ED
:1001100084254E52404124948AA88439294A4000BB
:100120001D29384C24E4444000192F41C0109D295A
:1001300049C000192849808439294B80001C274B6D
:10014000C088000000000003E02295100000C924D0
:10015000B088444220D24930F82108420F808A25D5
:10016000082082008A250852288088CA554AA5524C
:10017000A888008A28A25142008A28A28A2700F86B
:10018000820820820072281C0A2700F228BC9228CC
:1001900080790A1428531B00F228BC820800790ACF
:1001A0001428509E008B2CAA9A688082C6C6AAAAE0
:1001B000AA9200820820820F808A2928D2288010E3
:1001C00084214980AAA88A28BE8A2880309204E81F
:1001D000490C00F421C84200FA083E820F80E24830
:1001E000A28A4E00722820822700F228BE8A2F00A1
:1001F0007228A2FA28803E1049AA9AA5268819F8E2
:1002000072208C2002000418264000000F80F800A5
:10021000000099060800080A08087228A27827003A
:1002200072289C8A2700F82108210400720F228A74
:100230002700790F220A270010C524F841007220F8
:100240008C0A2700722084210F8026A22220722887
:10025000A28A270022444880000800003E000000D7
:10026000000A00823E208000A4A00000421112403B
:1002700024888420A8003090C309515D0044A4A8BC
:10028000541A2A440021CA3E2AA708514F94F9451E
:1002900000AAA00000AA880000AC00040400B0007E
:1002A000060600B600040400BA00030300BD000403
:1002B0000400C100060600C700060600CD000606C1
:1002C00000D300080800DB00060600E10005050079
:1002D000E600040400EA00050500EF00030300F255
:1002E00000050500F700050500FC000505000101FB
:1002F00005050006010808000E01020200100105B4
:100300000500150103030018010202001A0105058A
:10031000001F010505002401040400280105050053
:100320002D01050500320105050037010505003CDA
:1003300001050500410103030044010505004901D1
:100340000505004E0103030051010404005501039B
:10035000030058010606005E010606006401060659
:10036000006A01090900730106060079010606000A
:100370007F0106060085010606008B010606009136
:100380000107070098010606009E01070700A50166
:10039000060600AB01080800B301060600B9010615
:1003A0000600BF01050500C401020200C6010606E1
:1003B00000CC01070700D301050500D8010606009F
:1003C000DE01060600E401060600EA01060600F06A
:1003D00001060600F6010A0A0000020606000602EF
:1003E0000505000B020606001102050500160202B3
:1003F000020018020202001A020606002002060687
:100400000026020606002C0206060032020606003E
:1004100038020606003E0206060044020606004AAE
:10042000020404004E0206060054020404005802AE
:100430000202005A02060600600202020062020680
:10044000060068020404006C020404007002040444
:1004500000740202020076020707007D020808000D
:1004600085020606008B0206060091020404009530
:100470000202020097020202000000000200090FBF
:100480000000030401000C00000000000000000058
:1004900000000000000000080B000202020000093A
:1004A00004000001020200000524001001052401DF
:1004B000010104240206052406000107058103103A
:1004C000004009040100020A000000070502024082
:1004D0000000070583024000000403090412010024
:1004E00002EF0201404F1B0692000101020301537B
:1004F0007061726B46756E00537061726B46756EFB
:100500002050726F204D6963726F0000000000255B
:100510000028002B002E00310000000000240027DE
:10052000002A002D00300004040404040304050222
:10053000020202040302020202060606060606047E
:10054000040202020404040802011040804010204A
:100550004080408008020401804020100201108089
:10056000102040402000F51811241FBECFEFDAE024
:10057000DEBFCDBF12E0A0E0B1E0E2E0F1E402C0F6
:1005800005900D92A03DB107D9F726E0A0EDB2E0AD
:1005900001C01D92AD35B207E1F712E0C4EBD2E025
:1005A00004C02197FE010E947920C33BD107C9F7FF
:1005B0000E9466190C947F200C94000090E0FC01CE
:1005C000EA5BFA4F2491895D9A4FFC01849188235C
:1005D00099F090E0880F991FFC01E75EFA4FA59112
:1005E000B491FC01E55FFA4F859194918FB7F8942F
:1005F000EC91E22BEC938FBF0895FC018091F70200
:10060000882311F13FB7F89482E08093E9002091AC
:10061000F200822F90E01816190614F481E090E0A1
:10062000882339F0289844E64093F6024091F1007F
:100630004083222339F02091F200211103C02BE6E0
:100640002093E8003FBF08958FEF9FEF08952FB7E5
:10065000F89483E08093E9009091E800892F8072FC
:1006600095FF04C09091F20080E4891B2FBF08958C
:100670008091EE0281110DC082E08093EA0284E055
:100680008093EB021092ED021092EC0281E08093D5
:10069000EE028AEE92E008954091E4025091E50264
:1006A0002091E2023091E30242175307B4F4909193
:1006B000E8009570E1F39091E80092FD19C08093F5
:1006C000F1008091E4029091E50201968F739927E1
:1006D000892B19F48EEF8093E8008091E4029091C9
:1006E000E50201969093E5028093E40281E008958B
:1006F00080E00895DF92EF92FF920F931F93CF93C4
:10070000DF93D82E8A01EB017B01E40EF51ECE1596
:10071000DF0559F0D7FE12C0FE0184910E944C0300
:1007200021968111F4CF0FEF1FEFC801DF91CF9118
:100730001F910F91FF90EF90DF9008958881EECF89
:100740000F931F93CF93DF931F92CDB7DEB782E055
:10075000898342E450E067E974E080E80E947A030C
:100760000E943803DC0112960D911C9101151105B0
:1007700089F0D801ED91FC910280F381E02DBE015A
:100780006F5F7F4FC801099597FD04C0F801008590
:100790001185ECCF89810F90DF91CF911F910F913F
:1007A0000895615030F02091F100FC012083019602
:1007B000F8CF289884E68093F6020895AF92BF920E
:1007C000CF92DF92EF92FF920F931F93CF93DF931D
:1007D0006C017B018B01040F151FEB015E01AE184C
:1007E000BF08C017D10759F06991D601ED91FC916E
:1007F0000190F081E02DC6010995892B79F7C5019B
:10080000DF91CF911F910F91FF90EF90DF90CF90EC
:10081000BF90AF900895CF93DF931F92CDB7DEB70F
:100820006983DC01ED91FC910280F381E02D41E0D0
:1008300050E0BE016F5F7F4F09950F90DF91CF9120
:10084000089583E08093E9008091F200882319F0F5
:100850008AE38093E80008950E94270390E00895BA
:10086000CF93DF931F92CDB7DEB7FC0184859585CA
:1008700097FD08C02FEF3FEF358724870F90DF915A
:10088000CF910895CE0101960E94FD02019719F4BF
:10089000898190E0F3CF8FEF9FEFF0CF0F931F93FD
:1008A000CF93DF931F92CDB7DEB78C01FC01848517
:1008B000958597FF0BC0CE0101960E94FD0201971E
:1008C00071F4898190E0F80195878487F801848527
:1008D00095850F90DF91CF911F910F9108958FEF24
:1008E0009FEFF1CFFC018485958597FD0BC09FB7E5
:1008F000F89482E08093E9008091F2009FBF90E03D
:10090000019608959FB7F89482E08093E900809162
:10091000F2009FBF90E00895282F30E0F901E758DA
:10092000FB4F9491F901EA5BFA4F8491295D3A4FAC
:10093000F9012491222309F430C09923E9F0915060
:100940009F30D0F4E92FF0E0E855FB4F0C9479206C
:10095000D604DA04B704CE04D204BC04BC04BC043C
:10096000DD04E304E704EB04F104BC04F504909116
:1009700080009F7790938000E22FF0E0EE0FFF1F42
:10098000E55FFA4FA591B4919FB7F894EC9161118E
:1009900032C080958E238C939FBF089590918000E4
:1009A0009F7DE8CF90918000977FE4CF94B59F77AB
:1009B00094BDE2CF94B59F7DFBCF909190009F773F
:1009C00090939000D9CF909190009F7DF9CF909116
:1009D0009000977FF5CF9091C0009F779093C000D3
:1009E000CBCF9091C0009F7DF9CF9091C200977FAF
:1009F0009093C200C1CF8E2BCECF3FB7F894809199
:100A0000DE029091DF02A091E002B091E10226B5F2
:100A1000A89B05C02F3F19F00196A11DB11D3FBF36
:100A2000BA2FA92F982F8827BC01CD01620F711D05
:100A3000811D911D42E0660F771F881F991F4A95FF
:100A4000D1F708958F929F92AF92BF92CF92DF928B
:100A5000EF92FF924B015C010E94FD046B017C014F
:100A60000E94FD046C197D098E099F09683E734040
:100A700081059105A8F321E0821A9108A108B10827
:100A800088EEC80E83E0D81EE11CF11C811491048D
:100A9000A104B10429F7FF90EF90DF90CF90BF90B1
:100AA000AF909F908F9008958F929F92AF92BF9238
:100AB000CF92DF92EF92FF920F931F93CF93DF932A
:100AC0006C017B018A0180910F01882309F45CC0CD
:100AD0008091F702882309F457C08091E80280FFD3
:100AE00005C08091E00082608093E000E801B12CB5
:100AF0008AEFA82E93E0892E2AE3922E209711F4F4
:100B0000BB20D9F10E94270381110AC0AA94AA2010
:100B1000D9F161E070E080E090E00E942205EECF24
:100B20008C171D0611F00CF08C2F9FB7F894809253
:100B3000E9002091E80025FD02C09FBFDFCF282FEC
:100B400030E0C21BD30BF701815020F0419140935C
:100B5000F100FACFE20EF31EBB2021F09092E800E4
:100B6000B12CEBCF8091E80085FDE7CF9092E800B3
:100B7000BB24B394209709F3F3CF5D9884E6809368
:100B8000E902101611063CF081E090E0F601938333
:100B9000828310E000E0C801DF91CF911F910F9197
:100BA000FF90EF90DF90CF90BF90AF909F908F908D
:100BB00008952FB7F8946091DA027091DB0280916A
:100BC000DC029091DD022FBF08958EBD00000DB4B0
:100BD00007FEFDCF8EB508958FEF0C94E5050F93BA
:100BE0001F93CF93DF93EC010E94D9058B010E94E4
:100BF000EC058F3F69F00E94D905601B710B6C17E3
:100C00007D07A8F380E0DF91CF911F910F910895A8
:100C100081E0F9CFCF93DF93EC01CD2FDD27C6958F
:100C2000C695C695AFE0B2E0CA9FF001CB9FF00D2C
:100C3000DA9FF00D11247796C6E0F695E795CA95F0
:100C4000E1F7EB01E883FC01D5E0F695E795DA954D
:100C5000E1F7EF73FF27C3E0D1E0EC9FB001ED9F18
:100C6000700DFC9F700D11246F5D7F4FE6E076954F
:100C70006795EA95E1F7FA016083AC014F7155275A
:100C80004A9FC0014B9F900D5A9F900D112447968B
:100C9000F6E096958795FA95E1F7E9018883DF916B
:100CA000CF910895DC015596ED91FC915697908176
:100CB0005A968C91892B80837EBD0DB407FEFDCFA3
:100CC0006EBD0DB407FEFDCF0895DC015596ED9184
:100CD000FC91569790815A968C91892B80836EBD9A
:100CE0000DB407FEFDCF0895DC015596ED91FC9102
:100CF000569790815A968C918095892380836EBDFA
:100D00000DB407FEFDCF0895DF92EF92FF920F938F
:100D10001F93CF93DF93EC01D62E142FF22EEE20EB
:100D200039F08FA9882321F0F02E022FD42E162F10
:100D300065E1CE010E9474066D2DCE010E9465060C
:100D40006F2DCE010E94650665E7CE010E947406F4
:100D5000612FCE010E946506602FCE010E946506BC
:100D60006CE5CE01DF91CF911F910F91FF90EF9035
:100D7000DF900C947406DC015596ED91FC9156972A
:100D800090815A968C91892B808321503109410999
:100D9000510948F00DB407FEFDCF7EBD0DB407FE2E
:100DA000FDCF6EBDF2CF0DB407FEFDCF0895FC015F
:100DB00024A52130F9F42FE9260F2A3108F46052D6
:100DC000FC01A0A1B1A12C9130E090E080E082175D
:100DD0009307C4F4AC01440F551F480F591F1196D7
:100DE000ED91FC911297E40FF51F4081461761F0D9
:100DF0000196EDCF223021F72FEB260F2A3100F795
:100E0000605EDECF8FEF9FEF08952F923F924F925B
:100E10005F926F927F928F929F92AF92BF92CF928A
:100E2000DF92EF92FF920F931F93CF93DF93CDB793
:100E3000DEB762970FB6F894DEBF0FBECDBF5C0180
:100E4000390148012701223031050CF02DC1023053
:100E5000110544F58A010F5F1F4F9B012F5F3F4F24
:100E6000EE24E394C5010E948406B201C5010E94EC
:100E7000520662960FB6F894DEBF0FBECDBFDF916B
:100E8000CF911F910F91FF90EF90DF90CF90BF9087
:100E9000AF909F908F907F906F905F904F903F901A
:100EA0002F900895040F151F01501109EE24E394AB
:100EB0009B01C5010E948406B201C5010E94520631
:100EC000B1E08B1A9108C1F7D4CF8401040F151F2C
:100ED0000150110921503109EE24E394C5010E940B
:100EE00084064C145D0409F4CFC09E012E5F3F4F71
:100EF000AE014C5F5F4FBE016A5F7F4FC2010E942F
:100F00000A069E012F5F3F4FAE014D5F5F4FBE014E
:100F10006B5F7F4FC6010E940A06312C212CC40151
:100F2000B0E0A0E08B879C87AD87BE87C301770CBC
:100F3000AA0BBB0B8F87988BA98BBA8BB10190E062
:100F400080E00E947E1F6B017C016B857C858D8516
:100F50009E850E947E1F9B01AC01C701B6010E94C5
:100F6000DD1E6B017C01AC019B0160E070E080E85C
:100F70009FE30E94701E2B013C016E8170E090E0A7
:100F800080E00E94801FA30192010E940C206F83C9
:100F9000788789879A876D8170E090E080E00E9471
:100FA000801FA70196010E940C209B01AC016F815C
:100FB000788589859A850E94711E0E944F1F062F91
:100FC00010E0102F00270027187F6C8170E090E060
:100FD00080E00E94801FA30192010E940C206F8379
:100FE000788789879A876B8170E090E080E00E9423
:100FF000801FA70196010E940C209B01AC016F810C
:10100000788589859A850E94711E0E944F1F98E0FD
:10101000699FB0011124607E7770062B172B6A81BF
:1010200070E090E080E00E94801FA30192010E9486
:101030000C202B013C01698170E090E080E00E946F
:10104000801FA70196010E940C209B01AC01C301E7
:10105000B2010E94711E0E944F1F70E093E07595CF
:1010600067959A95E1F7602B712B2F85388949890F
:101070005A89C5010E94BB06AFEF2A1A3A0A8214A8
:10108000930409F05BCFF5CE689C9001699C300D0C
:10109000789C300D1124032E000C440B550BB2012B
:1010A000C5010E94BB06E5CE260F371F0230110591
:1010B0000CF00BCF21503109EE24E3948A01C501D5
:1010C0000E948406B201C5010E945206A1E06A1A7C
:1010D0007108C1F7CECE1F93CF93DF93EC01142F8D
:1010E0000E947406612FCE01DF91CF911F910C9465
:1010F0006506089561E0FC0184810E948C04809162
:10110000D30281111092D30208958CBD9DBD089524
:10111000CF93DF93EC018091D302811109C081E06C
:101120008093D30280914A0590914B050E948508D7
:1011300060E08C81DF91CF910C948C048F929F9210
:10114000AF92BF92FF920F931F93CF93DF93EC0167
:10115000F62E49015A018E81882389F08F81988566
:101160009C012F5F3F4F38872F838230924018F4C5
:101170000E94EC05F3CFCE010E947A081E82CE01B8
:101180000E9488088CE291E00E94EF058F2D806418
:101190000E94E50508E110E0D501C401002E04C05D
:1011A000B695A795979587950A94D2F70E94E5057D
:1011B00008501109083F8FEF180771F785E9FF20E4
:1011C00021F028E087E8F2128FEF0E94E50510E099
:1011D0000E94EC058A8787FF04C01F3F11F01F5F44
:1011E000F7CFDF91CF911F910F91FF90BF90AF90FC
:1011F0009F908F900895CF92DF92EF92FF920F937E
:10120000CF93DF93EC01690182E14115510561053E
:10121000710599F08B85833039F089E0440F551FB3
:10122000661F771F8A95D1F79A01AB0168E1CE015D
:101230000E949E08882319F084E08D832DC08EEFD4
:101240000E94E50576018EEFD81AF70181917F01A2
:101250000E94E505EC14FD04C1F78FEF0E94E5053F
:101260008FEF0E94E5050E94EC058A878F7185301B
:1012700071F4011116C0CE010E947A0881E0DF915D
:10128000CF910F91FF90EF90DF90CF90089581E183
:101290008D83CE010E947A08CE010E947A0880E0F8
:1012A000EECF88E592E00E94EF05811102C085E152
:1012B000C4CF20E030E0A9016DE0CE010E949E087D
:1012C000882311F084E1B9CF0E94EC058111FACF97
:1012D000D2CF0F934091D5025091D6026091D702A0
:1012E0007091D802411551056105710599F0082FDB
:1012F00028EF32E08091F8049091F9040E94FB08F5
:10130000882349F01092D5021092D6021092D7028B
:101310001092D80281E00F9108950F93CF93C82FB8
:101320008091D402811105C0C1E08C2FCF910F9123
:101330000895409100015091010160910201709166
:1013400003010C2F28EF32E08091F8049091F9040A
:101350000E94FB08811102C0C0E0E7CFCC2321F33B
:1013600081E00E9469098823B9F31092D402DDCF8D
:101370009F92AF92BF92CF92DF92EF92FF920F9324
:101380001F93CF93DF936B017C01942E809100011A
:1013900090910101A0910201B09103018C159D056E
:1013A000AE05BF0509F494C081E00E948D09882331
:1013B00089F1C091F804D091F9048E81882371F0ED
:1013C00088819981AA81BB81C816D906EA06FB06E5
:1013D00029F48F819885892B09F443C0C882D9826A
:1013E000EA82FB828B85A7019601833039F099E070
:1013F000220F331F441F551F9A95D1F761E1CE018B
:101400000E949E08882391F083E08D83CE010E9484
:101410007A0880E0DF91CF911F910F91FF90EF90BC
:10142000DF90CF90BF90AF909F9008950E94D90514
:101430008B010E94EC058A878F3F69F40E94D905D1
:10144000601B710B6D327140A0F38FE08D83CE0174
:101450000E947A08DBCF8E3F69F518861F8281E0F3
:101460008E8308EF12E088EFA82E84E0B82E0E9449
:10147000EC05F80181938F01AE16BF06C1F78F818D
:1014800098859E5F98878F832985222319F081157F
:101490009240B0F08E81882399F08F8198859C01CD
:1014A0002F5F3F4F38872F838230924028F40E946D
:1014B000EC05F3CF8DE0CACFCE010E947A081E82E0
:1014C000C0920001D0920101E0920201F09203016A
:1014D0004091D40249294093D40281E09BCF8F925E
:1014E0009F92AF92BF92CF92DF92EF92FF92CF93F3
:1014F0002CE435E03093F9042093F804882309F4B0
:101500006DC040E060E070E0CB010E94B80981113D
:101510000BC080E0CF91FF90EF90DF90CF90BF9015
:10152000AF909F908F9008958091B6048F7789F740
:101530008091C2049091C304A091C404B091C504E9
:1015400084369105A105B10520F3C090BE04D0906A
:10155000BF04E090C004F090C104C114D104E104C0
:10156000F104B9F240E0C701B6010E94B80988232E
:1015700081F280910303909104038115924049F612
:10158000A0910803AA2329F2609106037091070332
:101590006115710509F4BDCF20910503222309F4DB
:1015A000B8CFA0936A0520935C0590E080E030E01E
:1015B000E1E0F0E0C82FAF01082E02C0440F551F34
:1015C0000A94E2F72417350769F041E0480F0196C5
:1015D0008930910579F7409365059BCFC12CD12CBB
:1015E0007601C0CF8093650520910E0330910F03E3
:1015F00050E040E02115310541F420911C03309169
:101600001D0340911E0350911F0320935D053093ED
:101610005E0540935F055093600546015701860EB5
:10162000971EA11CB11C80926B0590926C05A09234
:101630006D05B0926E05E0910903F0910A03F093F5
:101640007105E0937005B0E00E94561EDC01CB01ED
:10165000880D991DAA1DBB1D80937205909373057B
:10166000A0937405B093750525E0EE0FFF1F2A9532
:10167000E1F7E150FE4FEF2FFF27E6958E0F9F1FFA
:10168000A11DB11D8093660590936705A093680521
:10169000B093690580900B0390900C03B12CA12CA2
:1016A0008114910441F48090180390901903A09044
:1016B0001A03B0901B03C81AD90AEA0AFB0AC80C1D
:1016C000D91CEA1CFB1C04C0F694E794D794C79479
:1016D000CA95D2F7C0926105D0926205E092630587
:1016E000F092640585EFC8168FE0D806E104F10496
:1016F00028F48CE080936F0581E00CCF80E125EF2A
:10170000C2162FEFD206E104F104A0F38091240366
:1017100090912503A0912603B09127038093720531
:1017200090937305A0937405B093750580E2E2CFA2
:101730004F925F926F927F928F929F92AF92BF92E1
:10174000CF92DF92EF92FF920F931F93CF93DF938D
:10175000EC01423051056105710590F480E0DF91A4
:10176000CF911F910F91FF90EF90DF90CF90BF909E
:10177000AF909F908F907F906F905F904F90089563
:1017800089859A85AB85BC850196A11DB11D8417FD
:101790009507A607B70710F3CB88DC88ED88FE888D
:1017A0008F89803109F042C0BB27A72F962F852F44
:1017B000480159012A013B01C80ED91EEA1EFB1E31
:1017C0008091000190910101A0910201B09103016B
:1017D000C816D906EA06FB0699F58F898031C1F54E
:1017E000B301A201552766277727440F551F48509C
:1017F0005D4FFA01918280828091D4028160809352
:10180000D4028A89823080F08D819E81AF81B88533
:101810008C0D9D1DAE1DBF1D8093D5029093D602E9
:10182000A093D702B093D80281E099CFDB01CA011F
:10183000E7E0B695A79597958795EA95D1F7B8CF44
:1018400040E0C701B6010E94B8098111C6CF86CF1A
:10185000B301A2014F77552766277727440F551FFD
:10186000440F551F48505D4FFA0180829182A28239
:10187000B382C2CF8F929F92AF92BF92CF92DF92EC
:10188000EF92FF920F931F93CF93DF93FC0181851B
:101890009285A385B4850196A11DB11D8417950776
:1018A000A607B70770F480E0DF91CF911F910F91E9
:1018B000FF90EF90DF90CF90BF90AF909F908F9070
:1018C000089583889488A588B6888789803189F5AA
:1018D000BB27A72F962F852FE9016A017B018F0176
:1018E000BC01CD01680D791D8A1D9B1D80900001F2
:1018F00090900101A0900201B09003018616970616
:10190000A806B90601F5F8018789803111F5DD24B3
:10191000EE24FF24F601EE0FFF1FE850FD4F8081FB
:101920009181B0E0A0E088839983AA83BB8381E0A2
:10193000BBCFDB01CA01C7E0B695A7959795879500
:10194000CA95D1F7C9CF40E00E94B8098111DBCF19
:10195000AACFE894C7F8DD24EE24FF24F601EE0FA9
:10196000FF1FEE0FFF1FE850FD4F80819181A28184
:10197000B381BF70D8CF8F929F92AF92BF92CF9218
:10198000DF92EF92FF920F931F93CF93DF93EC01BF
:101990008D8181110EC080E0DF91CF911F910F9159
:1019A000FF90EF90DF90CF90BF90AF909F908F907F
:1019B00008950B891C892D893E8904171507260770
:1019C000370748F34A015B01823031F48A869B86EF
:1019D000AC86BD8681E0E0CF81149104A104B104FE
:1019E00049F41E821F82188619861A861B861C8659
:1019F0001D86F0CF0A851B852C853D85EB8DFC8DE2
:101A0000858590E00996B901A80141505109610905
:101A10007109082E04C076956795579547950A94E5
:101A2000D2F775016401E1E0CE1AD108E108F108AE
:101A300004C0F694E794D794C7948A95D2F7C41655
:101A4000D506E606F70620F0012B022B032B11F535
:101A50008F89988DA98DBA8D8E839F83A887B9872A
:101A60008E010A5F1F4FC114D104E104F10409F48F
:101A7000ADCF4E815F816885798598018B8D9C8D76
:101A80000E943A0C91E0C91AD108E108F1088111CD
:101A9000EACF81CFC41AD50AE60AF70AE1CF3F920E
:101AA0004F925F926F927F928F929F92AF92BF926E
:101AB000CF92DF92EF92FF920F931F93CF93DF931A
:101AC000CDB7DEB72C970FB6F894DEBF0FBECDBFF3
:101AD0005C01DC015B968D909C905C9716964D9016
:101AE0005D906D907C9019974114510461047104CC
:101AF00009F468C0BFEF4B1A5B0A6B0A7B0A312CF2
:101B0000F40181859285A385B4859C01AD012F5F89
:101B10003F4F4F4F5F4F29873A874B875C87730151
:101B200062011D821E821F821886F40181859285C2
:101B3000A385B4852D813E814F81588528173907AB
:101B40004A075B0708F056C089859A85AB85BC8536
:101B50008C159D05AE05BF0550F482E0C82ED12C32
:101B6000E12CF12C92E0492E512C612C712C9E011C
:101B70002F5F3F4FB701A601C4010E943A0C882392
:101B8000C9F189819A81AB81BC81892B8A2B8B2BEE
:101B900009F1260137019FEF491A590A690A790AA2
:101BA0002D813E814F8158852F5F3F4F4F4F5F4FB3
:101BB0002D833E834F8358873FEFC31AD30AE30A2E
:101BC000F30AB3CFF40140805180628073803324E4
:101BD000339496CFC414D504E604F70409F70FEF45
:101BE0001FEF2FEF3FE0B701A601C4010E94980B41
:101BF000811119C080E02C960FB6F894DEBF0FBE9D
:101C0000CDBFDF91CF911F910F91FF90EF90DF90AB
:101C1000CF90BF90AF909F908F907F906F905F908C
:101C20004F903F900895D50116964D915D916D911D
:101C30007C911997411551056105710539F097019E
:101C40008601C4010E94980B8823A1F2D501169643
:101C5000CD92DD92ED92FC921997332051F0D7018D
:101C6000C6010196A11DB11DF40180839183A28359
:101C7000B383F5018789908DA18DB28D892B8A2B35
:101C80008B2B39F48481C78AD08EE18EF28E8068E6
:101C90008483F50184818062848381E0ACCF1F93CB
:101CA000CF93DF93EC01162F8C8187FF2AC06E85BE
:101CB0007F858889998941E00E94B809882361F16C
:101CC000EA8980E2E89FF0011124E850FD4F309747
:101CD00019F18D81823040F48B899C89AD89BE8950
:101CE000848F958FA68FB78F8F89988D938F828FD2
:101CF0008F89988DA98DBA8DB58BA48B8C818F77A8
:101D00008C83111103C08C818F7E8C83812FDF9196
:101D1000CF911F910C948D0980E0DF91CF911F919D
:101D20000895FF920F931F93CF93DF93EC018D8162
:101D3000813041F090E080E0DF91CF911F910F91D1
:101D4000FF9008958C8181FFF5CF82FD1EC0009128
:101D5000F8041091F904C8010E9488080E94EC055B
:101D6000F82EC8010E947A088FEFF812E3CF8C8119
:101D700085FF1EC08D81882321F060E0CE010E9486
:101D80004F0E8C818F7D8C83D5CF4B895C896D897B
:101D90007E898A859B85AC85BD8584179507A607B6
:101DA000B707A9F2CE010E94BB0C8111D0CFC2CFE0
:101DB0004091D5025091D6026091D7027091D8021D
:101DC000452B462B472B21F080E00E946909B2CFBA
:101DD00080618C832A853B85317080E092E0821B94
:101DE000930BAACF9F92AF92BF92CF92DF92EF92C6
:101DF000FF920F931F93CF93DF9300D000D01F92D9
:101E0000CDB7DEB78C016D83DC0115968C911597EB
:101E1000813009F0B9C014968C9181FFB5C082FD64
:101E20009FC0D8015B96ED91FC915C971A96AD909E
:101E3000BD90CD90DC901D9794809A94B601A50139
:101E400089E076956795579547958A95D1F79422BD
:101E5000B1E0BB22992009F49FC0D8015B96ED91B7
:101E6000FC915C971696CD90DD90ED90FC901997C3
:101E7000B2E0CB1AD108E108F108858504C0CC0C8A
:101E8000DD1CEE1CFF1C8A95D2F7468557856089BC
:101E90007189C40ED51EE61EF71EC90CD11CE11CAB
:101EA000F11CA114B10409F00AC1F801428553855F
:101EB0006485758583899489A589B68948175907EA
:101EC0006A077B0708F4FBC081E00E948D09882324
:101ED00009F45AC0C0920001D0920101E0920201BF
:101EE000F09203018091D40281608093D402F501C5
:101EF000E850FD4F8D818083F80182859385A4850C
:101F0000B5850196A11DB11D82879387A487B587EA
:101F10004389548965897689481759076A077B0779
:101F200038F42481838B948BA58BB68B2068248313
:101F3000D80114968C9183FD9FC081E090E00F90B2
:101F40000F900F900F900F90DF91CF911F910F91F5
:101F5000FF90EF90DF90CF90BF90AF909F9008954B
:101F6000F801438954896589768982859385A4859A
:101F7000B585481759076A077B0709F452CFC8018E
:101F80000E94BB0C81114DCF81E090E0D8011396E7
:101F90009C938E93129749C0D80116964D915D91EE
:101FA0006D917C911997A114B10409F071C041158C
:101FB00051056105710589F557968D919D910D909B
:101FC000BC91A02D0097A105B10509F04FC0C80133
:101FD0000E944F0D8823C1F2D8015B96ED91FC91D0
:101FE0005C971696CD90DD90ED90FC901997B2E03D
:101FF000CB1AD108E108F108858504C0CC0CDD1CA2
:10200000EE1CFF1C8A95D2F7468557856089718939
:10201000C40ED51EE61EF71E48CF9E012F5F3F4F10
:10202000CF010E943A0C811103C090E080E087CF7D
:1020300089819A81AB81BC81F801238D348DF901AE
:10204000278948EF5FEF60E070E0203121F048EF32
:102050005FEF6FEF7FE084179507A607B70730F0B3
:10206000C8010E944F0D8111F8CE8ECFF8018683F2
:102070009783A087B187F1CEF8018581882309F481
:1020800083CF61E0C8010E944F0E811156CF7CCFF3
:102090006A017B01B2E0CB1AD108E108F10885851D
:1020A00004C0CC0CDD1CEE1CFF1C8A95D2F74685C3
:1020B000578560897189C40ED51EE61EF71E41E062
:1020C000C701B6010E94B809811111CF5DCFCF922F
:1020D000DF92EF920F931F93CF93DF93EC016B018D
:1020E00080919505909196050E948508EB89FC8961
:1020F0009081898D809589238083E12C0FE710E002
:102100002FE730E050E040E070E060E0CE010E9458
:10211000840620E030E440E050E0B601CE010E94A9
:10212000BB06EB89FC898081998D892B8083DF91A7
:10213000CF911F910F91EF90DF90CF900895CF92A4
:10214000DF92EF920F931F93CF93DF9300D000D0D5
:10215000CDB7DEB76C016370DC01D6966C93D69771
:10216000D7961C92D7971E968C911E97847E1E96AA
:102170008C931E9780E890E016969C938E9315970B
:1021800018969C938E931797611107C01E968C9199
:102190001E9780611E968C9314C0613009F068C050
:1021A000F601868583618687858196819A838983F6
:1021B000878190859683858389819A81908787839B
:1021C00067ABD6011A961C921E9219971C961C9208
:1021D0001E921B9780919505909196050E94850807
:1021E000D6015396ED91FC915497908159968C911C
:1021F000599780958923808315960D911C91169788
:1022000017962D913C910150110921503109E12C73
:1022100050E040E070E060E0C6010E94840660EAA1
:10222000C6010E947406F60196850588F689E02DA0
:102230008081D6015A962C91822B80839EBD0DB44D
:1022400007FEFDCFD6015396ED91FC915497808106
:1022500059969C91892B80830F900F900F900F902F
:10226000DF91CF911F910F91EF90DF90CF90089564
:10227000623029F41E968C911E9782608BCFF601F6
:10228000868581608687858196819C838B83878103
:102290009085968385838B819C819087878381E05D
:1022A00087AB8FCF089590E080E00895CF93CFB7AC
:1022B000F8948091D002811124C0E8E3F5E0849184
:1022C000E7E5F5E09491E82FF0E0EE0FFF1FE75E01
:1022D000FA4FA591B491EC91E92321F461E081E1F9
:1022E0000E948C0481E10E94DE028CB580618CBD6D
:1022F0008CB580648CBD8FE00E94DE0280E10E947C
:10230000DE028091D0028F5F8093D002CFBFCF9149
:1023100008952F923F924F925F926F927F928F9289
:102320009F92AF92BF92CF92DF92EF92FF920F9364
:102330001F93CF93DF93CDB7DEB76B970FB6F894AB
:10234000DEBF0FBECDBF9E838D833B014A875B8777
:1023500038872F831801C9862DB73EB7398F288F4C
:10236000C80101966DB77EB7681B790B0FB6F8945C
:102370007EBF0FBE6DBF8DB79EB701969D878C87C0
:10238000E9A9FAA92BA93CA9E217F307C9F0AE9C69
:102390008001AF9C100D112488A9820D932D911DF1
:1023A000C89E9001C99E300D1124CBA8DCA87601EF
:1023B0004F8158856A857B858D819E810E940507A6
:1023C0002301B301680D791D798B688B50E040E0E3
:1023D000B12C20E08A2D90E09F878E873985329D31
:1023E000F001339DF00D1124FB8FEA8F6889798904
:1023F0006415750509F493C0F201849167E070E0FB
:102400007C836B83E82FF0E0FF8BEE8BEC85FD8502
:10241000E20FF11D8E899F890B8002C095958795EB
:102420000A94E2F7382F317030832F5F817099273B
:10243000480F591F22151304E9F441155105B1F055
:102440002416350621F54F81AB9C400D112450E038
:10245000CBA8DCA8E9A8FAA80E851F852A8D3B8D9C
:102460006A857B858D819E810E940507B39450E02B
:1024700040E020E06B817C81615071097C836B833B
:102480006F3F7F4F19F69FEF491A590AAFCF2F813F
:102490003885AB9C200D311D11243B8B2A8B3A854E
:1024A00039834B854A83712C612C812CAC85BD8589
:1024B000A60DB71D62147304CCF62C91FD01C30167
:1024C00028163906BCF33191231306C028163906A5
:1024D00019F083940196F4CF682D70E07D8B6C8B9E
:1024E0007985789D40011124222371F0C9A8DAA8CA
:1024F00076010E851F8594014A895B8969817A81FD
:102500008D819E810E9405078C899D89680E791EA8
:10251000E981FA81E80DF91DFA83E983C6CFE88DD8
:10252000F98D0FB6F894FEBF0FBEEDBF6B960FB6D8
:10253000F894DEBF0FBECDBFDF91CF911F910F91F9
:10254000FF90EF90DF90CF90BF90AF909F908F90D3
:102550007F906F905F904F903F902F900895FB0178
:1025600001900020E9F73197AF01461B570BDC01C2
:10257000ED91FC910280F381E02D0994EF92FF929E
:102580000F931F93CF93DF93CDB7DEB7A1970FB60D
:10259000F894DEBF0FBECDBF8C0119A2605D68A3A9
:1025A000BE01605E7F4F0E94AF127C016FE672E059
:1025B000C8010E94AF128E0D9F1DA1960FB6F89410
:1025C000DEBF0FBECDBFDF91CF911F910F91FF9066
:1025D000EF9008952F923F924F925F926F927F9269
:1025E0008F929F92AF92CF92DF92EF92FF920F93D2
:1025F0001F93CF93DF93EC013B011A01452B51F45C
:10260000FB0101900020E9F731971F01261A370AD4
:1026100009F469C219A5112309F491C0C8A0D9A071
:10262000D60113968C917301512C412C882309F407
:1026300059C08E8D9F8D289E2001299E500C389E5A
:10264000500C11242FA1249DC001259D900D112413
:1026500097FD019695958795F60124813581231B79
:10266000330B68A5629FA001639F500D112457FF93
:1026700002C04F5F5F4F559547952FA9143008F062
:10268000B8C0222309F496C0113009F03CC02D8156
:102690003E8137FF02C02F5F3F4F35952795281B9E
:1026A00031093C872B873EC06D30E1F06A30D1F0B4
:1026B000CE010E94D70697FD15C0FC01EE0FFF1F4B
:1026C0008E0F9F1FD6011196ED91FC91E80FF91F17
:1026D0000180F281E02D3296E4914E0E511CEAA168
:1026E0004E0E511CC70186199709821593050CF0EF
:1026F000A9CFF70161917F016032B1F68E8D9F8D78
:10270000480E591EEFCF2F81388537FF02C02F5F4B
:102710003F4F35952795241B31093A872987123079
:1027200009F0B5CF89859A8597FF02C01A86198668
:102730008B859C8597FF02C01C861B8619A68091FD
:102740009505909196050E948508EB89FC899081FA
:10275000898D809589238083260C371C26143704A5
:1027600009F4BBC1D3016D913D016D30B9F36A30FD
:1027700009F072C0E8A1F9A184819AA5890F98A5F2
:10278000899F802D112490E02FA9211152C02B8503
:102790003C854F815885280F391F421753070CF489
:1027A0009CC11A8619862B853C85820F931F9C87B6
:1027B0008B87D4CF113069F42D813E8137FF02C061
:1027C0002F5F3F4F35952795281B31093A87298779
:1027D000A9CF2F81388537FF02C02F5F3F4F359536
:1027E0002795241B31093C872B87123009F49ACF97
:1027F000E3CF222379F0143019F42B853C854FCF99
:1028000029853A85241B31093A872987153009F42F
:1028100089CFF3CF143019F429853A85D5CF2B858C
:102820003C85241B31093C872B87153009F47ACF6E
:10283000F3CF29853A854D815E81280F391F4217D4
:1028400053070CF44AC129853A85820F931F9A8752
:1028500089871C861B8682CF603209F06BC0FAA183
:102860008E8D9F8D8F0F911D2BA13CA1EDA0FEA001
:102870004FA9411133C0EFA1E89F502C1124E2165B
:10288000F30629F189859A852D813E81850D911D5B
:102890008217930734F08D819E8129853A85582EC1
:1028A000521A4B855C8569857A85A8A1B9A11496D1
:1028B0008C9108A5809F80011124252D30E0FE9F7A
:1028C000200D311D11246701CE010E940507898565
:1028D0009A85850D911D9A87898740CF98A4989EE7
:1028E000902C1124E216F30601F18B859C852F8133
:1028F0003885890D911D8217930734F08F81988553
:102900002B853C85982E921A49855A856B857C8546
:10291000E8A1F9A104818FA1089F80011124292D2C
:1029200030E06701CE010E9405078B859C85890DEB
:10293000911D3DCFCE010E94D70697FD0FCFA8A1D4
:10294000B9A18C01000F111F080F191F1196ED91ED
:10295000FC911297E00FF11F61817281FB013296A9
:10296000D4904D2C512C8FA94AA19BA5992309F4F1
:10297000A1C0811179C089859A855FA12D813E8191
:10298000D59E800D911D1124549F800D911D112401
:1029900082179307A4F01A8619862B853C85149616
:1029A0004C918AA5480F5527551FE8A5E49FC00103
:1029B000E59F900D1124820F931F9C878B8742E027
:1029C00050E081ED92E00E944D1E6091D102709125
:1029D000D202A8A1B9A111968D919C911297080FCE
:1029E000191FF80181819281FC01339685909490A2
:1029F0009FA914968C9191118CC04B855C85E82E13
:102A0000F12CA8A42F8138858A9D400D511D1124D9
:102A1000241735070CF461C02B853C8549855A8500
:102A20008EA18F938DA18F938CA18F938BA18F9368
:102A30008AA18F93CFA08201CE010E94891129859E
:102A40003A859AA1490E511C4FA1449DC001459D54
:102A5000900D1124820F931F9A8789870F900F90F2
:102A60000F900F900F907ACE8B859C8558A52D8165
:102A70003E81D59E800D911D1124549F800D911D86
:102A80001124821793070CF49ACF49855A8514961E
:102A90002C918AA5280F3327331FEFA1E29FC00195
:102AA000E39F900D1124840F951F9A8789871C86B8
:102AB0001B8685CF882349F18B859C8558A52D8160
:102AC0003E81D59E800D911D1124549F800D911D36
:102AD0001124821793070CF472CFEB89FC89808153
:102AE000998D892B8083DF91CF911F910F91FF905A
:102AF000EF90DF90CF90AF909F908F907F906F90EE
:102B00005F904F903F902F90089589859A855FA19F
:102B1000D6CF49855A85E82EF12CCFA02D813E8154
:102B20008C9D400D511D112424173507B4F22985C1
:102B30003A854B855C858EA18F938DA18F938CA157
:102B40008F938BA18F938AA18F93A8A48201CE012A
:102B50000E9489118B859C853AA128A5EFA1DE9E54
:102B6000F0011124329FE00DF11D1124E80FF91F2F
:102B7000FC87EB8773CFCF93DF93EA010E94EA12C1
:102B8000CE01DF91CF910895CF93DF931F92CDB700
:102B9000DEB7698341E050E0BE016F5F7F4F0E9466
:102BA000EA1281E090E00F90DF91CF9108951F929B
:102BB0000F920FB60F9211248F939F938091E10093
:102BC0009091E100937F9093E10083FF0FC01092FA
:102BD000E90091E09093EB001092EC0092E3909367
:102BE000ED001092F70298E09093F00082FF22C06F
:102BF00093E09093E9009091F200992319F09AE301
:102C00009093E8009091E902992341F09091E902B4
:102C100091509093E902911101C05D9A9091F60252
:102C2000992341F09091F60291509093F602911100
:102C300001C0289A84FF18C08091E2008E7E8160D6
:102C40008093E2008091E1008F7E8093E10080918B
:102C5000E8028E7E80618093E8029F918F910F90B1
:102C60000FBE0F901F90189580FFF7CF8091E20064
:102C70008E7E80618093E2008091E1008E7E809361
:102C8000E1008091E8028E7E8160E5CF1F920F9275
:102C90000FB60F921124CF92DF92EF92FF920F9313
:102CA0001F932F933F934F935F936F937F938F93D4
:102CB0009F93AF93BF93EF93FF93CF93DF93CDB7E2
:102CC000DEB76C97DEBFCDBF1092E9008091E800BF
:102CD00083FF25C068E0CE0145960E94D10382EFB4
:102CE0008093E8008D8987FF39C09091E80090FFBC
:102CF000FCCF982F907609F034C19E894F89588D6A
:102D00002F89F88C911131C0803861F58091E702EC
:102D10008093F1001092F1008EEF8093E8006C96A2
:102D20000FB6F894DEBF0FBECDBFDF91CF91FF91FC
:102D3000EF91BF91AF919F918F917F916F915F9133
:102D40004F913F912F911F910F91FF90EF90DF9046
:102D5000CF900F900FBE0F901F9018959EEF9093FD
:102D6000E800C7CF1092F100D5CF913059F481110E
:102D7000D3CF4130510581F68091E7028D7F80935A
:102D8000E702CACF933049F48111C6CF41305105D3
:102D900019F68091E7028260F2CF953041F480917C
:102DA000E80080FFFCCF20682093E300B5CF963089
:102DB00009F0A9C00B8D1C8D22E01092E900109241
:102DC000E5021092E402F2122EC01092E302109279
:102DD000E2020E94A0031F8299E09983FA8291E0A7
:102DE0009E8390EA98879AEF99872091E402309128
:102DF000E502275F3F4F3C832B838D831092E900D0
:102E00001092E5021092E4021093E3020093E202B2
:102E100049E050E0BE016F5F7F4F80E00E947A037F
:102E20000E94A00379CF1093E3020093E2020E9474
:102E30003803DC0112960D911C910115110509F45E
:102E400051C1D801ED91FC910480F581E02DBE01C6
:102E50006B5E7F4FC8010995009709F03EC1F801EC
:102E600000851185EACFF3E0FF120EC08F89882319
:102E700009F440C0823061F440E862E188EF94E0F8
:102E80000E94C218811148CF81E28093EB0047CFA6
:102E9000813029F440E868E08FEE94E0F1CF833090
:102EA00099F70E943803DC011296ED90FC908E0198
:102EB0000F5F1F4F6801E114F10479F0D701ED9124
:102EC000FC910680F781E02DB801C7010995080F34
:102ED000111DF701E084F184EECFD8011C92F601B8
:102EE00001900020E9F73197BF016C197D0940E09E
:102EF000C601C6CF69ED74E0FB01449150E080E863
:102F00000E947A0309CF973009F4BECF983021F49C
:102F100081E08093F10000CF993009F0FDCE8370FD
:102F200009F0B2CFEFE3F2E081E031E096E32191E6
:102F3000222371F08093E9003093EB00DF011197B9
:102F40002C912093EC009093ED008F5F873079F700
:102F50008EE78093EA001092EA008F898093F7024F
:102F6000DBCE8B8D9C8D1092E9001092E5021092C1
:102F7000E4029093E3028093E202898D811192C072
:102F80008E899D89913A49F4813209F07DCF47E0DD
:102F900050E068E071E080E0B3CF913209F074CF87
:102FA000833269F48F89988DB0E0A0E080930401AA
:102FB00090930501A0930601B0930701ADCE803236
:102FC00069F48091E80082FFFCCF67E088E091E03F
:102FD0000E94D1038BEF8093E8009ECE823209F0ED
:102FE0009BCE8F8980930F01EEEFFFE7859194913F
:102FF0008B3F9C4D51F1E0E0F8E080910801909109
:103000000901A0910A01B0910B01803B9440A105F8
:10301000B105F1F480910F0180FD1AC0EE3F8AE006
:10302000F80789F587E797E79183808380916000AF
:103030008093E60288E19BE00FB6F894A895809310
:1030400060000FBE9093600067CEEEEFFAE0D5CF40
:10305000808191818737974709F05ECEA89580914E
:1030600060008861809360008091E6028093600038
:10307000EE3F2AE0F20789F08091FE0A9091FF0A64
:103080009183808349CE808191818737980751F25F
:103090009093FF0A8093FE0AC5CF1092FF0A109208
:1030A000FE0A3ACE0E943803DC0112960D911C9163
:1030B0000115110509F4E8CED801ED91FC910190BC
:1030C000F081E02DBE016B5E7F4FC8010995811133
:1030D00023CEF80100851185EBCF181619060CF4E4
:1030E0001BCED2CEF1E0FF12BECE6DED74E004CF68
:1030F0001F920F920FB60F9211242F933F938F932D
:103100009F93AF93BF938091DA029091DB02A091DD
:10311000DC02B091DD023091D90223E0230F2D377C
:1031200058F50196A11DB11D2093D9028093DA02B2
:103130009093DB02A093DC02B093DD028091DE026B
:103140009091DF02A091E002B091E1020196A11DF1
:10315000B11D8093DE029093DF02A093E002B09352
:10316000E102BF91AF919F918F913F912F910F906D
:103170000FBE0F901F90189526E8230F0296A11DF1
:10318000B11DD2CFEF92FF920F931F93CF93DF9396
:10319000F82E192FE62E042F81E0860F880F0E944B
:1031A0004C0383E00E944C03CF2DD12FEC0EFD2E5B
:1031B000F11CCE15DF05B9F007FF13C0FE018491A5
:1031C0000E944C03182F80E00E944C03812321961B
:1031D0008111EFCFDF91CF911F910F91FF90EF9071
:1031E00008958881EDCF81E0F5CFCF93DF93EAEFAB
:1031F000F4E01382128288EE93E0A0E0B0E08483D2
:103200009583A683B78389E492E0918380838FEFCF
:103210009FEF95878487EAE4F5E080E5808311825B
:10322000ECE4F5E0158216821186138642E050E048
:1032300060E070E0448755876687778713A215A6FC
:1032400014A62BE532E033A722A717A6E5E9F5E09F
:1032500080831182C7E9D5E083E090E09983888379
:1032600086E0E0E1F1E0A2EAB5E001900D928A95F6
:10327000E1F71C8A1B8A27E632E03A8B298B84E02F
:103280008CA797E09DA786E08D8B1092E7051092A2
:10329000E6053093E5052093E40545E04093FF05FE
:1032A000909300068093E805109223061092220660
:1032B000309321062093200623E020933B06909331
:1032C0003C0680932406DF91CF910895CF93DF933E
:1032D00000D000D0CDB7DEB7789484B5826084BDCD
:1032E00084B5816084BD85B5826085BD85B581600A
:1032F00085BD80916E00816080936E001092810088
:103300008091810082608093810080918100816042
:103310008093810080918000816080938000809103
:1033200091008260809391008091910081608093F0
:103330009100809190008160809390008091C10005
:1033400084608093C1008091C10082608093C1003D
:103350008091C10081608093C1008091C300816031
:103360008093C3008091C00082608093C0008091F0
:10337000C20081608093C20080917A008460809353
:103380007A0080917A00826080937A0080917A003E
:10339000816080937A0080917A00806880937A00BF
:1033A0001092F7021092E7021092E8028091D70083
:1033B00081608093D70080EA8093D80089B58061CE
:1033C00089BD89B5826089BD09B400FEFDCF61E089
:1033D00070E080E090E00E9422058091D8008F7C10
:1033E00080618093D8008091E000807F8093E0002E
:1033F0008091E1008E7E8093E1008DE08093E20079
:10340000559A209A8FEF9FEF9093070580930605BA
:1034100068EB7BE080E090E00E9422050E9456115C
:1034200068EAC62E65E0D62E8601F12CE12C7CE3FD
:10343000A72EBB24B39488248A94982C412C512C19
:10344000F4EB6F2EF3E47F2EA6EA2A2E33243A946F
:10345000AE9CF001AF9CF00D1124E956FA4F178E87
:10346000D801D5961C92D597D7961C92D797168ED1
:103470009D961C929D97138E128E158E148E989683
:10348000BC9298979796BC92979799961C92999709
:103490009A961C929A9792961C9292979B96BC929F
:1034A0009B9720E15D962C935D97878D8064878F35
:1034B000878D8460878FD9961C921E92D897DB9651
:1034C0009C928E92DA9796969C928E92959794966D
:1034D0009C928E9293979F964D925D926D927C9264
:1034E000D297D4963C922E92D397B0E5B09395059F
:1034F000B0929605F801848D0E94DE02D8015B9699
:103500008C910E94DE02F801238D30E0F901E95D23
:10351000FA4FE491F0E0EE0FFF1FE55FFA4F85915F
:103520009491D80154969C938E9353975C968C916A
:103530005C9790E0FC01E95DFA4FE491F0E0EE0F5A
:10354000FF1FE55FFA4F45915491F801568B458B6B
:10355000F901EA5BFA4FE4915996EC935997FC0113
:10356000EA5BFA4FE4915A96EC930E945611D80107
:103570005396ED91FC915497808159969C9159975F
:10358000892B80835596ED91FC91569780815A96B0
:103590009C915A97892B808314968C918F3F21F1AF
:1035A0000E94DE0261E0F80184810E948C046AE0DE
:1035B00070E080E090E00E94220560E0D80114965F
:1035C0008C910E948C046AE070E080E090E00E94A0
:1035D000220561E0F80184810E948C046AE070E0B9
:1035E00080E090E00E9422056EE170E080E090E0D3
:1035F0000E94220580919505909196050E9485086C
:10360000D8015396ED91FC915497908159968C91E5
:10361000809589238083AE9CF001AF9CF00D11242E
:10362000E956FA4F878D8062878F42E16DEFC801BE
:103630000E946B0841EB6DEFC8010E946B086EEAB7
:10364000C8010E94740641EF63EBC8010E946B0839
:103650004FE76AECC8010E946B0840E061EAC801CC
:103660000E946B0840E062EAC8010E946B0840E0DB
:1036700065EBC8010E946B0841E06BEAC8010E943B
:103680006B0864EBC8010E94740660EAC8010E94DE
:10369000650665EBC8010E94650665E5C8010E94E4
:1036A000650661ECC8010E94740668ECC8010E94BE
:1036B000650660E8C8010E94650668ECC8010E94C2
:1036C00065064FE067ECC8010E946B0862EBC80119
:1036D0000E94740664EAC8010E94650660E0C801A1
:1036E0000E94650660E0C8010E94650669EBC8019A
:1036F0000E94740642E361EBC8010E946B0841E03E
:1037000066EBC8010E946B0845E06EEBC8010E94A1
:103710006B0866EAC8010E947406D8015596ED91BF
:10372000FC91569790815A968C918095892380833D
:10373000BFEABEBD0DB407FEFDCFD8015396ED9193
:10374000FC915497808159969C91892B80836CE3DE
:1037500070E080E090E00E94220560E0C8010E94D5
:103760009F10F80160AD71ADC8010E946710E6E3DB
:10377000F2E0D8019196FC93EE9390979C961C9260
:1037800060E2C8010E94D70697FDF1CFFC01EE0F61
:10379000FF1FE80FF91FEA5EFE4F0180F281E02D66
:1037A0003296E491F0E0D8015F96FC93EE935E9739
:1037B00061E070E080E090E00E942205F80185A9B8
:1037C0008823A1F180919505909196050E94850826
:1037D000D8015396ED91FC915497908159968C9114
:1037E0005997809589238083D5968C91863021F4D2
:1037F0006FEAC8010E947406F80185A9893029F48E
:1038000042E16DEFC8010E946B0866EAC8010E94A0
:103810007406D801D5961C92D5975396ED91FC91DC
:103820005497808159969C91892B808362E772E03E
:103830008AEF94E00E94AF12B7018AEF94E00E94F1
:10384000BE12BFEFEB1AFB0A045C1F4FE3E0EE165B
:10385000F10409F0FDCD72E0872E912C10E000E01C
:10386000E2E0BE2EF2E53F2EA0E52A2EB3E0AB2E1D
:1038700080917B05882341F061E086E795E00E9416
:103880004F0E811110927B0510925705109255052D
:103890001092520510925105B09250050E94D90520
:1038A0007B01809150050E94DE0261E0809150050D
:1038B0000E948C040E94561130924A0510924B05CA
:1038C00080914A0590914B050E9485085AE0752E1B
:1038D0008FEF0E94E5057A947110FACF8CE495E0A1
:1038E0000E94880820E030E0A90160E08CE495E0C7
:1038F0000E949E08782E80935605F1E08F1779F08C
:103900000E94D9056E197F09613D774058F381E027
:103910008093510546C088248394912CA9CF2AEA2C
:1039200031E040E050E068E08CE495E00E949E08C1
:1039300082FF2AC07092570580915705412C512C67
:103940003201823029F4412C512C612C30E4732E49
:1039500020E030E0A90167E38CE495E00E949E0836
:10396000A301920169E28CE495E00E949E08809395
:1039700056058823F1F00E94D9056E197F09613D33
:10398000774030F388E0C4CF44E0742E0E94EC0509
:10399000809356057A947110F9CF8A3A39F0B09233
:1039A00051058CE495E00E947A0831C0B092570529
:1039B000C3CF809157058230C9F420E030E0A901DF
:1039C0006AE38CE495E00E949E08882311F086E06B
:1039D0009FCF0E94EC05807C803C11F4A09257059B
:1039E0000E94EC050E94EC050E94EC058CE495E039
:1039F0000E947A0820924A0510924B0581E00E94AD
:103A00006F0A882329F180917B05882339F168E8C2
:103A100072E08AEF94E00E94AF12B8016F5F7F4FAF
:103A20008AEF94E00E94BE1201E010E08A94892897
:103A300009F071CF6BE972E08AEF94E00E94AF1257
:103A40006FE672E08AEF94E00E94AF1280E04EC011
:103A500080E00E946F0A8823D1F2D5CF80916F0554
:103A6000803109F0BEC082E080937B0510928D0505
:103A700010928E0510928F0510929005809170051E
:103A800090917105B0E0A0E025E0880F991FAA1F72
:103A9000BB1F2A95D1F78093890590938A05A0933F
:103AA0008B05B0938C0588E595E090939205809303
:103AB000910581E080937A0510927C0510927D0536
:103AC00010927E0510927F0510928005109281055C
:103AD000109282051092830510928405109285053C
:103AE00010928605109287051092880580935C06D7
:103AF0006DEA72E08AEF94E00E94AF1260915C067A
:103B000070E08AEF94E00E94BE1262E088EA95E0DD
:103B10000E949F1062E084EE95E00E949F1062E098
:103B200080E296E00E949F1082E08093D00580930F
:103B3000CF0580930C0680930B06809348068093F4
:103B400047066091E0057091E10588EA95E00E94E2
:103B500067101092B4051092B3051092B20510923E
:103B6000B10560911C0670911D0684EE95E00E94DF
:103B700067101092F0051092EF051092EE0510926A
:103B8000ED05609158067091590680E296E00E941A
:103B9000671010922C0610922B0610922A06109293
:103BA000290610E000E06EEB72E0C6010E94AF1241
:103BB0006FE672E0C6010E94AF12B801C6010E9412
:103BC000BE120F5F1F4F4CE3C40ED11C0330110512
:103BD00051F780E090E0892B09F41ACC0E94000094
:103BE00017CC803209F013CFA0927B05809172052B
:103BF00090917305A0917405B091750580938D0522
:103C000090938E05A0938F05B093900589839A8336
:103C1000AB83BC83412C512C320149815A816B8189
:103C20007C819E012F5F3F4F88E595E00E943A0C12
:103C3000882309F4ECCE8091650520E032E040E075
:103C400050E004C0220F331F441F551F8A95D2F73E
:103C5000DA01C901480E591E6A1E7B1E49815A812C
:103C60006B817C8180916F05803191F088EF9FEFAF
:103C7000AFEFBFE0481759076A077B0770F2409221
:103C8000890550928A0560928B0570928C050BCF46
:103C900088EF9FEFA0E0B0E0EDCFFB01DC0102C0B8
:103CA00005900D9241505040D8F708950E94611E32
:103CB000A59F900DB49F900DA49F800D911D112480
:103CC0000895A29FB001B39FC001A39F700D811DF5
:103CD0001124911DB29F700D811D1124911D089515
:103CE0005058BB27AA270E94881E0C94D21F0E94FE
:103CF000C41F38F00E94CB1F20F039F49F3F19F405
:103D000026F40C94C11F0EF4E095E7FB0C94BB1F46
:103D1000E92F0E94E31F58F3BA176207730784075D
:103D2000950720F079F4A6F50C9405200EF4E095A3
:103D30000B2EBA2FA02D0B01B90190010C01CA0165
:103D4000A0011124FF27591B99F0593F50F4503E10
:103D500068F11A16F040A22F232F342F4427585F02
:103D6000F3CF469537952795A795F0405395C9F71A
:103D70007EF41F16BA0B620B730B840BBAF09150D2
:103D8000A1F0FF0FBB1F661F771F881FC2F70EC071
:103D9000BA0F621F731F841F48F487957795679544
:103DA000B795F7959E3F08F0B0CF9395880F08F030
:103DB0009927EE0F9795879508950E94F11E0C9410
:103DC000D21F0E94CB1F58F00E94C41F40F029F45C
:103DD0005F3F29F00C94BB1F51110C9406200C94EA
:103DE000C11F0E94E31F68F39923B1F3552391F398
:103DF000951B550BBB27AA2762177307840738F05A
:103E00009F5F5F4F220F331F441FAA1FA9F335D0B6
:103E10000E2E3AF0E0E832D091505040E695001C6A
:103E2000CAF72BD0FE2F29D0660F771F881FBB1F24
:103E3000261737074807AB07B0E809F0BB0B802D02
:103E4000BF01FF2793585F4F3AF09E3F510578F02E
:103E50000C94BB1F0C9406205F3FE4F3983ED4F310
:103E6000869577956795B795F7959F5FC9F7880F02
:103E7000911D9695879597F90895E1E0660F771F54
:103E8000881FBB1F621773078407BA0720F0621BE5
:103E9000730B840BBA0BEE1F88F7E09508950E9410
:103EA000EB1F88F09F5798F0B92F9927B751B0F0C2
:103EB000E1F0660F771F881F991F1AF0BA95C9F7AE
:103EC00014C0B13091F00E940520B1E008950C9427
:103ED0000520672F782F8827B85F39F0B93FCCF3DA
:103EE000869577956795B395D9F73EF4909580952B
:103EF000709561957F4F8F4F9F4F0895E89409C04B
:103F000097FB3EF490958095709561957F4F8F4F0C
:103F10009F4F9923A9F0F92F96E9BB279395F69522
:103F2000879577956795B795F111F8CFFAF4BB0FA0
:103F300011F460FF1BC06F5F7F4F8F4F9F4F16C004
:103F4000882311F096E911C0772321F09EE8872F8E
:103F5000762F05C0662371F096E8862F70E060E04A
:103F60002AF09A95660F771F881FDAF7880F9695C3
:103F7000879597F9089597F99F6780E870E060E06A
:103F800008959FEF80EC089500240A9416161706F2
:103F900018060906089500240A941216130614063A
:103FA00005060895092E0394000C11F4882352F09D
:103FB000BB0F40F4BF2B11F460FF04C06F5F7F4F55
:103FC0008F4F9F4F089557FD9058440F551F59F03C
:103FD0005F3F71F04795880F97FB991F61F09F3FF6
:103FE00079F087950895121613061406551FF2CF1F
:103FF0004695F1DF08C0161617061806991FF1CF6F
:1040000086957105610508940895E894BB27662795
:104010007727CB0197F908950E941F200C94D21F97
:104020000E94C41F38F00E94CB1F20F0952311F08E
:104030000C94BB1F0C94C11F11240C9406200E94E9
:10404000E31F70F3959FC1F3950F50E0551F629FDA
:10405000F001729FBB27F00DB11D639FAA27F00DE1
:10406000B11DAA1F649F6627B00DA11D661F829F08
:104070002227B00DA11D621F739FB00DA11D621FED
:10408000839FA00D611D221F749F3327A00D611D0A
:10409000231F849F600D211D822F762F6A2F1124EC
:1040A0009F5750409AF0F1F088234AF0EE0FFF1F1F
:1040B000BB1F661F771F881F91505040A9F79E3F76
:1040C000510580F00C94BB1F0C9406205F3FE4F375
:1040D000983ED4F3869577956795B795F795E795CC
:1040E0009F5FC1F7FE2B880F911D9695879597F9D5
:1040F0000895EE0FFF1F0590F491E02D0994F894B8
:02410000FFCFEF
:10410200FFFFFFFFFFFFFFFF00E1000000000000D4
:10411200040005000300207404216F04226A0423B2
:104122006504246004255B04265604275104284CA8
:10413200042947042A42042B3D042C38042D33045D
:104142002E2E042F2904302404311F04321A043382
:104152001504341004350B0436060437010438FC08
:104162000339F7033AF2033BED033CE8033DE30373
:104172003EDE033FD90340D40341CF0342CA034387
:10418200C50344C00345BB0346B60347B10348AC6D
:104192000349A7034AA2034B9D034C98034D930383
:1041A2004E8E034F8903508403517F03527A035387
:1041B2007503547003556B03566603576103585CCD
:1041C200035957035A52035B4D035C48035D430393
:1041D2005E3E035F3903603403612F03622A036387
:1041E2002503642003651B03661603671103680C2D
:1041F200036907036A02036BFD026CF8026DF302A6
:104202006EEE026FE90270E40271DF0272DA02738B
:10421200D50274D00275CB0276C60277C10278BC91
:104222000279B7027AB2027BAD027CA8027DA302B8
:104232007E9E02B09902601601000801000000C1D2
:104242008081000000000000000B0454052C0421B2
:1042520004720430044E0400000000F20EDE0391EA
:104262000E521100000000C415BB15531152110D5E
:104272000A00496E697469616C697A696E672064C3
:104282006973706C617920005344204D6F756E74B0
:1042920020417474656D70743A2000436172642029
:1042A2004D6F756E74204661696C656400534420DD
:1042B20043617264205374617475733A20005468C8
:1042C200697320697320646973706C61793A2000A4
:1070000055C000006EC000006CC000006AC00000E7
:1070100068C0000066C0000064C0000062C00000DC
:1070200060C000005EC00000FCC400005AC0000048
:1070300058C0000056C0000054C0000052C00000FC
:1070400050C000005DC000004CC000004AC00000FD
:1070500048C0000046C0000044C0000042C000001C
:1070600040C000003EC000003CC000003AC000002C
:1070700038C0000036C0000034C0000032C000003C
:1070800030C000002EC000002CC000002AC000004C
:1070900028C0000026C0000024C0000022C000005C
:1070A00020C000001EC000001CC0000011241FBE34
:1070B000CFEFDAE0DEBFCDBF11E0A0E0B1E0E6E463
:1070C000FFE702C005900D92A43BB107D9F711E08C
:1070D000A4EBB1E001C01D92AD3CB107E1F74FD385
:1070E00030C78ECFF89410926F001092810081E02B
:1070F00085BF15BE47985D9A289A0C9400000895A4
:107100001F920F920FB60F9211242F938F939F937C
:10711000EF93FF9310928500109284008091B40148
:107120009091B501009741F001979093B50180933C
:10713000B401892B09F45D9A8091B6019091B70151
:10714000009741F001979093B7018093B601892B86
:1071500009F4289A8091BA019091BB01019690930D
:10716000BB018093BA01E0E0F0E0859194918F5FDC
:107170009F4F49F08091B8019091B9010196909389
:10718000B9018093B801FF91EF919F918F912F9159
:107190000F900FBE0F901F90189584E08093E90028
:1071A0000DC08091E8008B778093E80003C08EB318
:1071B000882351F08091E80082FFF9CF8091E800A8
:1071C00085FFEFCF8091F1000895982F83E08093A1
:1071D000E9008091E80085FD0DC08091E8008E7780
:1071E0008093E80003C08EB3882369F08091E800A3
:1071F00080FFF9CF9093F1005D9884E690E0909342
:10720000B5018093B40108954F925F926F927F927F
:107210008F929F92AF92BF92CF92DF92EF92FF92A6
:107220000F931F93CF93DF9384E08093E9008091C5
:10723000E80082FF57C2289884E690E09093B70157
:107240008093B601AADF182F853481F48CE49DE188
:107250009093B9018093B80107B600FCFDCFF9996E
:10726000FECF81E180935700E89503C0843519F47F
:1072700094DF8DE00DC28C34E1F38035D1F3843797
:1072800021F484E4A2DF80E003C2813611F489E5B1
:10729000FFC18134B1F481DF182F7FDF90E0880FC8
:1072A000991FAA2797FDA095BA2F312F330F20E001
:1072B000442737FD4095542F822B932BA42BB52BBD
:1072C000B8C1803711F483E5E3C1833549F4C0E0E8
:1072D000D1E089917ADF21E0C730D207D1F7D9C157
:1072E000863521F481E371DF80E3D2C1833731F445
:1072F00087E86BDF85E969DF8EE1CAC18536B9F4BD
:10730000E0E0F0E093E085E090935700E89507B661
:1073100000FCFDCF80935700E89507B600FCFDCF39
:10732000E058FF4FA0E7E030FA0771F7A2CF8237AD
:1073300039F4E1E0F0E089E0809357008491A8C13E
:10734000863439F4E0E0F0E089E0809357008491DE
:107350009FC18E3439F4E3E0F0E089E08093570078
:10736000849196C1813539F4E2E0F0E089E08093C0
:10737000570084918DC1823631F489E526DF80E0A3
:1073800024DF80E885C1823419F0873609F0E5C032
:107390001092B9011092B80100DF082FFEDEF82E1E
:1073A000FCDE682E8554823008F071C1902F80E099
:1073B000CF2DD0E0C82BD92B10926F00173609F0D3
:1073C0004BC081E180935700E895DD24CC24C39421
:1073D0003FC0E090BD01F090BE010091BF0110914F
:1073E000C001B6E46B16D9F4ED2DF0E0EE29FF29CB
:1073F000E4918E2FEADEDD2081F082E090E0A0E0D3
:10740000B0E0E80EF91E0A1F1B1FE092BD01F092CA
:10741000BE010093BF011093C001DC2418C0D80145
:10742000C701B695A7959795879575D5CEDE82E06D
:1074300090E0A0E0B0E0E80EF91E0A1F1B1FE092EA
:10744000BD01F092BE010093BF011093C0012197CE
:10745000209709F0BECF7DC08090BD019090BE0105
:10746000A090BF01B090C00196E4691609F05DC01C
:1074700083E0F40180935700E89507B600FCFDCF48
:1074800054C0F6E46F1661F5772031F1E090BD014C
:10749000F090BE010091BF011091C0017EDED82E98
:1074A000CC24852D90E08C299D29F7010C01409278
:1074B0005700E895112482E090E0A0E0B0E0E80EEB
:1074C000F91E0A1F1B1FE092BD01F092BE0100933E
:1074D000BF011093C00102C060DE582E742423C087
:1074E000E090BD01F090BE010091BF011091C0017C
:1074F00016950795F794E79450DE682FC70113D5CA
:107500008091BD019091BE01A091BF01B091C001D9
:107510000296A11DB11D8093BD019093BE01A09361
:10752000BF01B093C001219704C05524772444249F
:107530004394209709F0A5CF96E4691641F485E0BD
:10754000F40180935700E89507B600FCFDCF8DE06D
:107550003CDE82E080936F009CC0833471F4009124
:10756000BD011091BE0119DE90E021E0F8010C018F
:1075700020935700E89511247CCE833619F5E090CE
:10758000BD01F090BE010091BF011091C00105DE68
:10759000F701E16090E021E00C0120935700E895AD
:1075A000112482E090E0A0E0B0E0E80EF91E0A1F8E
:1075B0001B1FE092BD01F092BE010093BF0110932A
:1075C000C00157CE8D3661F4E091BD01F091BE014E
:1075D00085E080935700E89507B600FCFDCF49CEC3
:1075E000823551F4E091BD01F091BE0105911491F5
:1075F000812FEBDD802F4CC0843421F5E090BD015C
:10760000F090BE010091BF011091C0011695079541
:10761000F794E794C2DD682FC70185D48091BD013E
:107620009091BE01A091BF01B091C0010296A11D31
:10763000B11D8093BD019093BE01A093BF01B09393
:10764000C00117CE843609F5E090BD01F090BE016F
:107650000091BF011091C001D801C701B695A7954F
:107660009795879558D4B1DD82E090E0A0E0B0E036
:10767000E80EF91E0A1F1B1FE092BD01F092BE0129
:107680000093BF011093C00104C08B3111F08FE350
:107690009CDD83E08093E9009091E8008091E80010
:1076A0008E778093E80095FF04C010C08EB38823C6
:1076B000C9F08091E80080FFF9CF8091E8008E77D3
:1076C0008093E80003C08EB3882361F08091E800C6
:1076D00080FFF9CF84E08093E9008091E8008B7708
:1076E0008093E800DF91CF911F910F91FF90EF9071
:1076F000DF90CF90BF90AF909F908F907F906F90D2
:107700005F904F9008959091C501892F8F778132B6
:1077100049F58091C6018032A1F0813219F5913A84
:1077200009F58091E800877F8093E8008CE091E084
:1077300067E070E027D28091E8008B778093E800C3
:107740000895913279F48091E800877F8093E80072
:107750008CE091E067E070E079D28091E8008E776C
:107760008093E800089582E061EC42E0D1D083E0AC
:1077700061E842E1CDD084E060E842E1C9C01F93F6
:10778000209100081092000844B714BE88E10FB69B
:10779000F89480936000109260000FBE80E8E0E0F3
:1077A000F0E00FB6F89480936100E09361000FBEA3
:1077B00031E035BF92E095BF3F9A209A559A809369
:1077C00061001092610047985D9A289A1092890092
:1077D0008AEF8093880090936F0083E0809381000C
:1077E000859194918F5F9F4F11F03093BC01942F3E
:1077F00041FF19C0809109012817A9F08093000862
:10780000789480911301882339F08091BA01909186
:10781000BB018F5E9240C8F3F8941092000881E09B
:10782000809313010CC090FF04C08091BC01882399
:1078300051F493FF09C080910901281729F0809124
:10784000BC01882309F04EDCD4D078941092B901A1
:107850001092B8011EEF20C0D7DC4BD38091B80145
:107860009091B90181549F4110F0109213018091C1
:10787000C1019091C20101969093C2018093C10110
:10788000292F97FF03C0512F591B252F220F28178F
:1078900010F4479801C0479A809113018823E1F6BC
:1078A0008091E00081608093E0001CDC80E090E04B
:1078B0001F910895FA01923049F0933061F09130B0
:1078C000F9F484E191E022E130E01EC086E291E02B
:1078D0002EE330E019C0882329F484E691E024E007
:1078E00030E012C0813029F488E691E02EE130E0EA
:1078F0000BC0823029F488E891E02AE230E004C02D
:1079000080E090E020E030E091838083C901089519
:107910008093E9008091EB0081608093EB001092EE
:10792000ED006093EC004093ED008091EE00881F25
:107930008827881F08958091C50188238CF403C08F
:107940008EB38823B1F08091E80082FFF9CF809157
:10795000E8008B778093E80008958EB3882349F080
:107960008091E80080FFF9CF8091E8008E778093C6
:10797000E8000895EF92FF920F931F9345D04CD0EB
:1079800008ED10E0F80180818F7780838081806826
:10799000808380818F7D808319BC1EBA1092C301C1
:1079A00080EEE82EF12CF70180818B7F8083F80137
:1079B00080818160808380E060E042E0A9DFE1EEC9
:1079C000F0E080818E7F8083E2EEF0E08081816054
:1079D0008083808188608083F70180818E7F8083AF
:1079E000F8018081806180831F910F91FF90EF905B
:1079F0000895E7EDF0E08081816080838AE482BFB2
:107A000081E08093C401B6CFE8EDF0E080818E7F05
:107A100080831092E20008951092DA001092E10043
:107A200008951F920F920FB60F9211242F933F9338
:107A30004F935F936F937F938F939F93AF93BF9376
:107A4000EF93FF938091DA0080FF1BC08091D800F4
:107A500080FF17C08091DA008E7F8093DA008091DA
:107A6000D90080FF0BC080E189BD82E189BD09B4E6
:107A700000FEFDCF81E08EBB3BD203C019BC1EBA15
:107A800037D28091E10080FF17C08091E20080FF33
:107A900013C08091E2008E7F8093E2008091E2002B
:107AA00080618093E2008091D80080628093D8004A
:107AB00019BC85E08EBB1CD28091E10084FF2CC0F4
:107AC0008091E20084FF28C080E189BD82E189BD08
:107AD00009B400FEFDCF8091D8008F7D8093D8003F
:107AE0008091E1008F7E8093E1008091E2008F7EA3
:107AF0008093E2008091E20081608093E2008091B7
:107B0000C301882331F48091E30087FD02C081E046
:107B100001C084E08EBBECD18091E10083FF21C0E5
:107B20008091E20083FF1DC08091E100877F8093F8
:107B3000E10082E08EBB1092C3018091E1008E7F54
:107B40008093E1008091E2008E7F8093E20080913B
:107B5000E20080618093E20080E060E042E0D8DEF5
:107B6000C7D1FF91EF91BF91AF919F918F917F917D
:107B70006F915F914F913F912F910F900FBE0F909A
:107B80001F9018959C014091CB015091CC01461754
:107B9000570718F4F90190E044C06115710511F020
:107BA000AB01F8CF8091E8008E778093E80040E049
:107BB00050E0F0CF8EB3882309F444C0853009F437
:107BC00043C08091E80083FF02C081E00895809166
:107BD000E80082FD31C08091E80080FF22C08091E2
:107BE000F3009091F200782F60E0292F30E0262BEF
:107BF000372B07C081918093F100415050402F5F97
:107C00003F4F4115510519F02830310598F390E0A8
:107C10002830310509F491E08091E8008E77809357
:107C2000E8004115510531F6992321F605C08EB3C0
:107C3000882341F0853041F08091E80082FFF7CF42
:107C400080E0089582E0089583E008959C01611525
:107C5000710529F48091E8008B778093E800F901A1
:107C600026C08EB3882391F1853091F18091E80090
:107C700083FF02C081E008958091E80082FFF1CF88
:107C800006C08091F10081936150704059F02091BD
:107C9000F3008091F200322F20E090E0822B932BB2
:107CA000892B79F78091E8008B778093E800611544
:107CB0007105B9F605C08EB3882341F0853041F0D7
:107CC0008091E80080FFF7CF80E0089582E008957A
:107CD00083E008950F931F93DF93CF9300D0CDB728
:107CE000DEB7E5ECF1E08091F100819381E0ED3CBD
:107CF000F807C9F708DD8091E80083FFE4C08091B0
:107D0000C5019091C601953009F46DC0963040F4DC
:107D1000913081F1913070F0933009F0D4C02AC0D5
:107D2000983009F4A3C0993009F4B2C0963009F034
:107D3000CAC07CC0803809F4C6C0823809F0C3C00C
:107D40008091C90187708093E9008091EB001092C7
:107D5000E9002091E800277F2093E80090E025E0EB
:107D6000969587952A95E1F781708093F10010929E
:107D7000F10087C0882319F0823009F0A4C08F7108
:107D8000823009F0A0C08091C701882331F520918D
:107D9000C901277009F497C02093E9008091EB0096
:107DA00080FF1BC0933021F48091EB00806213C0F0
:107DB0008091EB0080618093EB0081E090E002C055
:107DC000880F991F2A95E2F78093EA001092EA0043
:107DD0008091EB0088608093EB001092E900809125
:107DE000E800877F51C0882309F06DC01091C7015A
:107DF0001F770FB7F8948091E800877F8093E800A1
:107E00009ADD8091E80080FFFCCF8091E3008078CC
:107E1000812B8093E30080688093E300112311F4A9
:107E200082E001C083E08EBB0FBF4DC0805882301E
:107E300008F049C08091C7019091C8016091C901C3
:107E4000AE014F5F5F4F36DDBC01009709F43BC0C8
:107E50008091E800877F8093E80089819A8192DE93
:107E60008091E8008B778093E8002DC0803859F529
:107E70008091E800877F8093E8008091C301809320
:107E8000F1008091E8008E778093E80054DD1BC0FC
:107E90008823C9F49091C7019230A8F48091E8003A
:107EA000877F8093E8009093C30145DD8091C301F3
:107EB000882331F48091E30087FD02C081E001C096
:107EC00084E08EBB50DC8091E80083FF0AC0809183
:107ED000EB0080628093EB008091E800877F8093C5
:107EE000E8000F900F90CF91DF911F910F910895AF
:107EF00008951F938EB3882361F01091E9001092CA
:107F0000E9008091E80083FF01C0E4DE1770109360
:107F1000E9001F910895F999FECF92BD81BDF89AAD
:107F2000992780B50895262FF999FECF1FBA92BDE3
:107F300081BD20BD0FB6F894FA9AF99A0FBE01964A
:067F40000895F894FFCF44
:107F46004341544552494E41007700080000000065
:107F56000000080112011001020000084F1B0592E3
:107F660001000201000109023E00020100803209FF
:107F7600040000010202010005240010010424028D
:107F8600040524060001070582030800FF09040111
:107F960000020A000000070504021000010705831D
:107FA60002100001040309041E03500072006F0052
:107FB60020004D006900630072006F00200035004C
:107FC60056002000200000002A03530070006100C4
:107FD60072006B00460075006E00200045006C00C4
:107FE60065006300740072006F006E006900630034
:047FF6007300000014
:040000030000700089
:00000001FF