:100000000C94C8020C94F0020C94F0020C94F002D0
:100010000C94F0020C94F0020C94F0020C94F00298
:100020000C94F0020C94F0020C94A0180C940F198C
:100030000C94F0020C94F0020C94F0020C94F00278
:100040000C94F0020C94F0020C94F0020C94F00268
:100050000C94F0020C94F0020C94F0020C94411BEE
:100060000C94F0020C94F0020C94F0020C94F00248
:100070000C94F0020C94F0020C94F0020C94F00238
:100080000C94F0020C94F0020C94F0020C94F00228
:100090000C94F0020C94F0020C94F0020C94F00218
:1000A0000C94F0020C94F0020C94F002EAE00000D0
:1000B00000003AB80000C44244C049249064484457
:1000C00060000F84210F80000894514210000894B2
:1000D000214880000092AAAAAA4400000894514234
:1000E0000000252949C044E44460001D060B80033C
:1000F0004920001D29384200392972100019294968
:10010000800039294A400000FC9292929200AAA8ED
:1001100084254E52404124948AA88439294A4000BB
:100120001D29384C24E4444000192F41C0109D295A
:1001300049C000192849808439294B80001C274B6D
:10014000C088000000000003E02295100000C924D0
:10015000B088444220D24930F82108420F808A25D5
:10016000082082008A250852288088CA554AA5524C
:10017000A888008A28A25142008A28A28A2700F86B
:10018000820820820072281C0A2700F228BC9228CC
:1001900080790A1428531B00F228BC820800790ACF
:1001A0001428509E008B2CAA9A688082C6C6AAAAE0
:1001B000AA9200820820820F808A2928D2288010E3
:1001C00084214980AAA88A28BE8A2880309204E81F
:1001D000490C00F421C84200FA083E820F80E24830
:1001E000A28A4E00722820822700F228BE8A2F00A1
:1001F0007228A2FA28803E1049AA9AA5268819F8E2
:1002000072208C2002000418264000000F80F800A5
:10021000000099060800080A08087228A27827003A
:1002200072289C8A2700F82108210400720F228A74
:100230002700790F220A270010C524F841007220F8
:100240008C0A2700722084210F8026A22220722887
:10025000A28A270022444880000800003E000000D7
:10026000000A00823E208000A4A00000421112403B
:1002700024888420A8003090C309515D0044A4A8BC
:10028000541A2A440021CA3E2AA708514F94F9451E
:1002900000AAA00000AA880000AC00040400B0007E
:1002A000060600B600040400BA00030300BD000403
:1002B0000400C100060600C700060600CD000606C1
:1002C00000D300080800DB00060600E10005050079
:1002D000E600040400EA00050500EF00030300F255
:1002E00000050500F700050500FC000505000101FB
:1002F00005050006010808000E01020200100105B4
:100300000500150103030018010202001A0105058A
:10031000001F010505002401040400280105050053
:100320002D01050500320105050037010505003CDA
:1003300001050500410103030044010505004901D1
:100340000505004E0103030051010404005501039B
:10035000030058010606005E010606006401060659
:10036000006A01090900730106060079010606000A
:100370007F0106060085010606008B010606009136
:100380000107070098010606009E01070700A50166
:10039000060600AB01080800B301060600B9010615
:1003A0000600BF01050500C401020200C6010606E1
:1003B00000CC01070700D301050500D8010606009F
:1003C000DE01060600E401060600EA01060600F06A
:1003D00001060600F6010A0A0000020606000602EF
:1003E0000505000B020606001102050500160202B3
:1003F000020018020202001A020606002002060687
:100400000026020606002C0206060032020606003E
:1004100038020606003E0206060044020606004AAE
:10042000020404004E0206060054020404005802AE
:100430000202005A02060600600202020062020680
:10044000060068020404006C020404007002040444
:1004500000740202020076020707007D020808000D
:1004600085020606008B0206060091020404009530
:100470000202020097020202000000000023002690
:100480000029002C002F0000000000240027002A73
:10049000002D0030000000000200090F00000304DE
:1004A00001000C000000000000000000000000003F
:1004B000000000000408020110408040102040802D
:1004C00040800802040180402010020110801020AA
:1004D00040402000000000250028002B002E0031A5
:1004E00000040404040403040502020202040302DB
:1004F00002020206060606060604040202020404BC
:10050000080B0002020200000904000001020200C0
:100510000005240010010524010101042402060540
:1005200024060001070581031000400904010002B0
:100530000A00000007050202400000070583024090
:1005400000000403090412010002EF0201404123EC
:10055000368000010102030141726475696E6F20EB
:100560004C4C430041726475696E6F204C656F6E30
:100570006172646F00050C0901A101850415002654
:10058000FF0319002AFF03950475108100C0BE1BEC
:1005900011241FBECFEFDAE0DEBFCDBF13E0A0E035
:1005A000B1E0ECECFAE402C005900D92AC3BB1076F
:1005B000D9F728E0ACEBB3E001C01D92A533B20738
:1005C000E1F712E0C8ECD2E004C02197FE010E94DE
:1005D0005E25C73CD107C9F70E943D1D0C946425D8
:1005E0000C940000CF93DF93FC01818190918506EC
:1005F000482F490F5527551F483051059CF5A281BA
:10060000B381109709F521E836E0338322832081F6
:10061000209383068093840680918606820F8083D0
:1006200020918706A22FB09188068A2F821B8917F6
:10063000E8F481813D91C82FD0E0C05FDE4F388360
:100640008F5F8183F2CFD90118962D913C91199734
:1006500021153105C1F721E836E019963C932E9318
:100660001897D5CF80E0DF91CF91089581E0FBCF3F
:10067000FC018091E303882311F13FB7F89482E0F5
:100680008093E9002091F200822F90E0181619065D
:1006900014F481E090E0882339F0289844E64093F0
:1006A000E2034091F1004083222339F02091F200CF
:1006B000211103C02BE62093E8003FBF08958FEF80
:1006C0009FEF08954091DC035091DD032091DA0300
:1006D0003091DB0342175307B4F49091E800957012
:1006E000E1F39091E80092FD19C08093F1008091B0
:1006F000DC039091DD0301968F739927892B19F400
:100700008EEF8093E8008091DC039091DD030196E9
:100710009093DD038093DC0381E0089580E00895E9
:10072000DF92EF92FF920F931F93CF93DF93D82E18
:100730008A01EB017B01E40EF51ECE15DF0559F0B1
:10074000D7FE12C0FE0184910E946203219681119E
:10075000F4CF0FEF1FEFC801DF91CF911F910F91E1
:10076000FF90EF90DF9008958881EECF2FB7F89437
:1007700087708093E9009091E800892F807295FF3F
:1007800004C09091F20080E4891B2FBF089561504E
:1007900030F02091F100FC0120830196F8CF2898D9
:1007A00084E68093E2030895AF92BF92CF92DF92E6
:1007B000EF92FF920F931F93CF93DF936C017B0116
:1007C0008B01040F151FEB015E01AE18BF08C017A7
:1007D000D10759F06991D601ED91FC910190F0811A
:1007E000E02DC6010995892B79F7C501DF91CF91DD
:1007F0001F910F91FF90EF90DF90CF90BF90AF903F
:1008000008958091D20381110DC082E08093CE03C0
:1008100084E08093CF031092D1031092D00381E043
:100820008093D2038EEC93E008950F931F93CF93A0
:10083000DF931F92CDB7DEB782E0898342E450E0B8
:1008400060E075E080E80E9490030E940104DC01F2
:1008500012960D911C910115110589F0D801ED91A9
:10086000FC910280F381E02DBE016F5F7F4FC801D4
:10087000099597FD04C0F80100851185ECCF8981A9
:100880000F90DF91CF911F910F910895CF93DF9338
:100890001F92CDB7DEB76983DC01ED91FC91028038
:1008A000F381E02D41E050E0BE016F5F7F4F09957D
:1008B0000F90DF91CF91089583E08093E9008091BC
:1008C000F200882319F08AE38093E800089583E01A
:1008D0000E94B60390E00895CF93DF931F92CDB7A7
:1008E000DEB7FC018485958597FD08C02FEF3FEFAB
:1008F000358724870F90DF91CF910895CE0101961F
:100900000E943803019719F4898190E0F3CF8FEFAB
:100910009FEFF0CF0F931F93CF93DF931F92CDB72D
:10092000DEB78C01FC018485958597FF0BC0CE0155
:1009300001960E943803019771F4898190E0F801D3
:1009400095878487F801848595850F90DF91CF91F5
:100950001F910F9108958FEF9FEFF1CFFC018485D8
:10096000958597FD0BC09FB7F89482E08093E900CE
:100970008091F2009FBF90E0019608959FB7F89490
:1009800082E08093E9008091F2009FBF90E008959B
:1009900081508F3008F047C0E82FF0E0EE52FB4F57
:1009A0000C945E25EF04F304E104E704EB04130563
:1009B00013051305F604FC04000504050A051305D8
:1009C0000E05809180008F7780938000089580913C
:1009D00080008F7DF9CF80918000877FF5CF84B52F
:1009E0008F7784BD089584B58F7DFBCF8091900073
:1009F0008F77809390000895809190008F7DF9CF3C
:100A000080919000877FF5CF8091C0008F77809391
:100A1000C00008958091C0008F7DF9CF8091C20001
:100A2000877F8093C20008951F93CF93DF93282F71
:100A300030E0F901EB56FB4F8491F901EC54FB4F88
:100A4000D491F901EF51FB4FC491CC23A9F0162F9B
:100A500081110E94C804EC2FF0E0EE0FFF1FED5251
:100A6000FB4FA591B4918FB7F894EC91111108C088
:100A7000D095DE23DC938FBFDF91CF911F91089536
:100A8000DE2BF8CFCF93DF9390E0FC01EC54FB4FCB
:100A900024918F519B4FFC0184918823C9F090E0F1
:100AA000880F991FFC01E957FB4FA591B491FC01F8
:100AB000ED52FB4FC591D49161110DC09FB7F894D1
:100AC0008C91209582238C938881282328839FBF33
:100AD000DF91CF910895623051F49FB7F8943C9123
:100AE000822F809583238C93E8812E2BEFCF8FB7B5
:100AF000F894EC912E2B2C938FBFEACF3FB7F8944C
:100B00008091CA039091CB03A091CC03B091CD0307
:100B100026B5A89B05C02F3F19F00196A11DB11D58
:100B20003FBFBA2FA92F982F8827BC01CD01620F94
:100B3000711D811D911D42E0660F771F881F991F4F
:100B40004A95D1F708958F929F92AF92BF92CF921C
:100B5000DF92EF92FF924B015C010E947E056B01D8
:100B60007C010E947E056C197D098E099F09683EF3
:100B7000734081059105A8F321E0821A9108A1082C
:100B8000B10888EEC80E83E0D81EE11CF11C811468
:100B90009104A104B10429F7FF90EF90DF90CF906A
:100BA000BF90AF909F908F9008957F928F929F9269
:100BB000AF92BF92CF92DF92EF92FF920F931F936B
:100BC000CF93DF93C82E8B017A018091E3038111CB
:100BD00010C08FEF9FEFDF91CF911F910F91FF908A
:100BE000EF90DF90CF90BF90AF909F908F907F90CD
:100BF00008958091E00380FF05C08091E00082604D
:100C00008093E000CE2DDF2DD12C8AEFB82E8C2DD5
:100C10008770982E8C2D8072882E8C2D8074782E63
:100C20009AE3A92E209719F4DD2009F452C08C2DE7
:100C30000E94B60381110AC0BA94BB2051F261E050
:100C400070E080E090E00E94A305ECCF8C171D06B9
:100C500011F00CF08C2F9FB7F8949092E90020913E
:100C6000E80025FD02C09FBFDDCF282F30E0C21B6A
:100C7000D30B882029F08150A0F01092F100FBCF17
:100C8000F801C7FC0AC0815050F041914093F10037
:100C9000FACF44914093F10031968150D0F7020F82
:100CA000131FDD2021F0A092E800D12CDCCF809131
:100CB000E80085FD07C0A092E800DD24D3942097CA
:100CC00091F2F3CF209779F6772069F2A092E800AD
:100CD000CACF5D9884E68093E103C7017CCFCF93B0
:100CE000DF93EC0180910F01882331F083E00E94B3
:100CF000D5051816190634F081E090E09B838A83AD
:100D000080E090E0DF91CF9108952FB7F894609143
:100D1000C6037091C7038091C8039091C9032FBF88
:100D200008958EBD00000DB407FEFDCF8EB5089569
:100D30008FEF0C9491060F931F93CF93DF93EC01E9
:100D40000E9485068B010E9498068F3F69F00E94E1
:100D50008506601B710B6C177D07A8F380E0DF919F
:100D6000CF911F910F91089581E0F9CFDC01FB0134
:100D700012962C911297848195812817190641F4B7
:100D800091818081813A31F49D7F81E0913009F039
:100D900080E008958132E1F79B3029F482811F962B
:100DA0008C9381E008959A3099F7828150968C93C4
:100DB000F8CFDC01FB0188E4808389E4818384E44B
:100DC00082831D969C911D979F709F5B93831D96B8
:100DD0008D919C9124E0969587952A95E1F78F70E7
:100DE0008F5B848385E00895EF92FF920F931F93AA
:100DF000CF93DF93FB012081213871F523812232CB
:100E000059F5DC0112964C91248135814217130665
:100E100019F5EC010B851C85F12CE12C0115110550
:100E200089F0F801448155816281738180E80E94D4
:100E300090038F3F980749F0E80EF91ED8010D91F5
:100E40001C91ECCF81E08F87C701DF91CF911F917B
:100E50000F91FF90EF90089590E080E0F6CFCF9350
:100E6000DF93CDB7DEB769970FB6F894DEBF0FBE3C
:100E7000CDBFFC01DB018C918F5F8C939E012D5FB8
:100E80003F4F8DE0D9011D928A95E9F729E029832A
:100E900084E08A8391E09D8383E08E832A8721E228
:100EA0002B879C879D879F8722E2288B27E02B8BAF
:100EB00025E02C8B8E8B20E430E0388F2F8B998FA0
:100EC00082818B8395858685998B8A8B83818068C7
:100ED0008D8B49E150E0BE016F5F7F4F80E00E9443
:100EE000900369960FB6F894DEBF0FBECDBFDF91B9
:100EF000CF910895CF92DF92EF92FF921F93CF93FD
:100F0000DF931F92CDB7DEB77B016A018091920615
:100F100081112AC011E010938506109386068BE894
:100F200096E0909388068093870610928A06109226
:100F300089068DE692E09093820680938106109256
:100F40008D0610928C0610928F0610928E061093CA
:100F500090061093910681EC80938B060E94010409
:100F60000E94F2021093920684E0898341E050E0EF
:100F7000BE016F5F7F4F809184060E94D50597FD6B
:100F800007C080918406A601B70180640E94D50540
:100F90000F90DF91CF911F91FF90EF90DF90CF9056
:100FA0000895E8EAF6E0228133812817390711F421
:100FB00013821282329626E0E03BF207A1F748E066
:100FC00050E06AEA76E088EA96E00C947A07EAEA6A
:100FD000F6E030E020E0419151912F5F3F4F452BEB
:100FE00079F4220F331FF901E855F94F918380837B
:100FF00048E050E06AEA76E088EA96E00C947A07E6
:101000002430310541F7F4CFCF93CFB7F8948091D6
:10101000BE03811127C0E2EFF4E08491E5ECF4E037
:101020009491E82FF0E0EE0FFF1FE957FB4FA591D9
:10103000B491EC91E92321F461E081E10E9414056F
:1010400061E081E10E9442058CB580618CBD8CB568
:1010500080648CBD61E08FE00E94420561E080E128
:101060000E9442058091BE038F5F8093BE03CFBF75
:10107000CF910895CF93DF93EC01CD2FDD27C69557
:10108000C695C695AFE0B2E0CA9FF001CB9FF00DC8
:10109000DA9FF00D11247796C6E0F695E795CA958C
:1010A000E1F7EB01E883FC01D5E0F695E795DA95E9
:1010B000E1F7EF73FF27C3E0D1E0EC9FB001ED9FB4
:1010C000700DFC9F700D11246F5D7F4FE6E07695EB
:1010D0006795EA95E1F7FA016083AC014F715527F6
:1010E0004A9FC0014B9F900D5A9F900D1124479627
:1010F000F6E096958795FA95E1F7E9018883DF9107
:10110000CF910895DC015596ED91FC915697908111
:101110005A968C91892B80837EBD0DB407FEFDCF3E
:101120006EBD0DB407FEFDCF0895DC015596ED911F
:10113000FC91569790815A968C91892B80836EBD35
:101140000DB407FEFDCF0895DC015596ED91FC919D
:10115000569790815A968C918095892380836EBD95
:101160000DB407FEFDCF0895DF92EF92FF920F932B
:101170001F93CF93DF93EC01D62E142FF22EEE2087
:1011800039F08FA9882321F0F02E022FD42E162FAC
:1011900065E1CE010E94A4086D2DCE010E94950844
:1011A0006F2DCE010E94950865E7CE010E94A4082C
:1011B000612FCE010E949508602FCE010E949508F4
:1011C0006CE5CE01DF91CF911F910F91FF90EF90D1
:1011D000DF900C94A408DC015596ED91FC91569794
:1011E00090815A968C91892B808321503109410935
:1011F000510948F00DB407FEFDCF7EBD0DB407FECA
:10120000FDCF6EBDF2CF0DB407FEFDCF0895FC01FA
:1012100024A52130F9F42FE9260F2A3108F4605271
:10122000FC01A0A1B1A12C9130E090E080E08217F8
:101230009307C4F4AC01440F551F480F591F119672
:10124000ED91FC911297E40FF51F4081461761F074
:101250000196EDCF223021F72FEB260F2A3100F730
:10126000605EDECF8FEF9FEF08952F923F924F92F7
:101270005F926F927F928F929F92AF92BF92CF9226
:10128000DF92EF92FF920F931F93CF93DF93CDB72F
:10129000DEB762970FB6F894DEBF0FBECDBF5C011C
:1012A000390148012701223031050CF02DC10230EF
:1012B000110544F58A010F5F1F4F9B012F5F3F4FC0
:1012C000EE24E394C5010E94B408B201C5010E9456
:1012D000820862960FB6F894DEBF0FBECDBFDF91D5
:1012E000CF911F910F91FF90EF90DF90CF90BF9023
:1012F000AF909F908F907F906F905F904F903F90B6
:101300002F900895040F151F01501109EE24E39446
:101310009B01C5010E94B408B201C5010E94820868
:10132000B1E08B1A9108C1F7D4CF8401040F151FC7
:101330000150110921503109EE24E394C5010E94A6
:10134000B4084C145D0409F4CFC09E012E5F3F4FDA
:10135000AE014C5F5F4FBE016A5F7F4FC2010E94CA
:101360003A089E012F5F3F4FAE014D5F5F4FBE01B8
:101370006B5F7F4FC6010E943A08312C212CC401BB
:10138000B0E0A0E08B879C87AD87BE87C301770C58
:10139000AA0BBB0B8F87988BA98BBA8BB10190E0FE
:1013A00080E00E9463246B017C016B857C858D85C8
:1013B0009E850E9463249B01AC01C701B6010E9477
:1013C000C2236B017C01AC019B0160E070E080E80E
:1013D0009FE30E9455232B013C016E8170E090E059
:1013E00080E00E946524A30192010E94F1246F8392
:1013F000788789879A876D8170E090E080E00E940D
:101400006524A70196010E94F1249B01AC016F8124
:10141000788589859A850E9456230E943424062F58
:1014200010E0102F00270027187F6C8170E090E0FB
:1014300080E00E946524A30192010E94F1246F8341
:10144000788789879A876B8170E090E080E00E94BE
:101450006524A70196010E94F1249B01AC016F81D4
:10146000788589859A850E9456230E94342498E0C5
:10147000699FB0011124607E7770062B172B6A815B
:1014800070E090E080E00E946524A30192010E9438
:10149000F1242B013C01698170E090E080E00E9422
:1014A0006524A70196010E94F1249B01AC01C301B0
:1014B000B2010E9456230E94342470E093E0759597
:1014C00067959A95E1F7602B712B2F8538894989AB
:1014D0005A89C5010E94EB08AFEF2A1A3A0A821412
:1014E000930409F05BCFF5CE689C9001699C300DA8
:1014F000789C300D1124032E000C440B550BB201C7
:10150000C5010E94EB08E5CE260F371F02301105FA
:101510000CF00BCF21503109EE24E3948A01C50170
:101520000E94B408B201C5010E948208A1E06A1AB3
:101530007108C1F7CECE1F93CF93DF93EC01142F28
:101540000E94A408612FCE01DF91CF911F910C94CE
:101550009508089561E0FC0184810E941405809142
:10156000BF0381111092BF0308958CBD9DBD0895E6
:10157000CF93DF93EC018091BF03811109C081E01B
:101580008093BF0380913606909137060E94B50A7A
:1015900060E08C81DF91CF910C9414058F929F9223
:1015A000AF92BF92FF920F931F93CF93DF93EC0103
:1015B000F62E49015A018E81882389F08F81988502
:1015C0009C012F5F3F4F38872F838230924018F461
:1015D0000E949806F3CFCE010E94AA0A1E82CE0175
:1015E0000E94B80A8CE291E00E949B068F2D8064D5
:1015F0000E94910608E110E0D501C401002E04C04C
:10160000B695A795979587950A94D2F70E9491066B
:1016100008501109083F8FEF180771F785E9FF207F
:1016200021F028E087E8F2128FEF0E94910610E087
:101630000E9498068A8787FF04C01F3F11F01F5F32
:10164000F7CFDF91CF911F910F91FF90BF90AF9097
:101650009F908F900895CF92DF92EF92FF920F9319
:10166000CF93DF93EC01690182E1411551056105DA
:10167000710599F08B85833039F089E0440F551F4F
:10168000661F771F8A95D1F79A01AB0168E1CE01F9
:101690000E94CE0A882319F084E08D832DC08EEF3E
:1016A0000E94910676018EEFD81AF70181917F0191
:1016B0000E949106EC14FD04C1F78FEF0E94910681
:1016C0008FEF0E9491060E9498068A878F7185305D
:1016D00071F4011116C0CE010E94AA0A81E0DF91C7
:1016E000CF910F91FF90EF90DF90CF90089581E11F
:1016F0008D83CE010E94AA0ACE010E94AA0A80E030
:10170000EECF88E592E00E949B06811102C085E140
:10171000C4CF20E030E0A9016DE0CE010E94CE0AE6
:10172000882311F084E1B9CF0E9498068111FACF85
:10173000D2CF0F934091C1035091C2036091C30374
:101740007091C403411551056105710599F0082F89
:1017500024EE33E08091E4059091E5050E942B0B87
:10176000882349F01092C1031092C2031092C30360
:101770001092C40381E00F9108950F93CF93C82F67
:101780008091C003811105C0C1E08C2FCF910F91D2
:101790000895409100015091010160910201709102
:1017A00003010C2F24EE33E08091E4059091E505D0
:1017B0000E942B0B811102C0C0E0E7CFCC2321F3A4
:1017C00081E00E94990B8823B9F31092C003DDCF0A
:1017D0009F92AF92BF92CF92DF92EF92FF920F93C0
:1017E0001F93CF93DF936B017C01942E80910001B6
:1017F00090910101A0910201B09103018C159D050A
:10180000AE05BF0509F494C081E00E94BD0B88239A
:1018100089F1C091E405D091E5058E81882371F0AE
:1018200088819981AA81BB81C816D906EA06FB0680
:1018300029F48F819885892B09F443C0C882D98205
:10184000EA82FB828B85A7019601833039F099E00B
:10185000220F331F441F551F9A95D1F761E1CE0126
:101860000E94CE0A882391F083E08D83CE010E94EE
:10187000AA0A80E0DF91CF911F910F91FF90EF9026
:10188000DF90CF90BF90AF909F9008950E94850603
:101890008B010E9498068A878F3F69F40E94850613
:1018A000601B710B6D327140A0F38FE08D83CE0110
:1018B0000E94AA0ADBCF8E3F69F518861F8281E05D
:1018C0008E8304EE13E084EEA82E85E0B82E0E94ED
:1018D0009806F80181938F01AE16BF06C1F78F817C
:1018E00098859E5F98878F832985222319F081151B
:1018F0009240B0F08E81882399F08F8198859C0169
:101900002F5F3F4F38872F838230924028F40E9408
:101910009806F3CF8DE0CACFCE010E94AA0A1E829C
:10192000C0920001D0920101E0920201F092030105
:101930004091C00349294093C00381E09BCF8F921F
:101940009F92AF92BF92CF92DF92EF92FF92CF938E
:1019500028E336E03093E5052093E405882309F475
:101960006DC040E060E070E0CB010E94E80B8111A7
:101970000BC080E0CF91FF90EF90DF90CF90BF90B1
:10198000AF909F908F9008958091A2058F7789F7EF
:101990008091AE059091AF05A091B005B091B105D1
:1019A00084369105A105B10520F3C090AA05D09019
:1019B000AB05E090AC05F090AD05C114D104E10495
:1019C000F104B9F240E0C701B6010E94E80B882398
:1019D00081F28091EF039091F0038115924049F6D6
:1019E000A091F403AA2329F26091F2037091F3030A
:1019F0006115710509F4BDCF2091F103222309F48B
:101A0000B8CFA09356062093480690E080E030E0DF
:101A1000E1E0F0E0C82FAF01082E02C0440F551FCF
:101A20000A94E2F72417350769F041E0480F019660
:101A30008930910579F7409351069BCFC12CD12C69
:101A40007601C0CF809351062091FA033091FB03B9
:101A500050E040E02115310541F420910804309117
:101A6000090440910A0450910B04209349063093D5
:101A70004A0640934B0650934C0646015701860E8A
:101A8000971EA11CB11C8092570690925806A092F6
:101A90005906B0925A06E091F503F091F603F093DF
:101AA0005D06E0935C06B0E00E941923DC01CB01E7
:101AB000880D991DAA1DBB1D80935E0690935F063D
:101AC000A0936006B093610625E0EE0FFF1F2A95F4
:101AD000E1F7E150FE4FEF2FFF27E6958E0F9F1F96
:101AE000A11DB11D8093520690935306A0935406F6
:101AF000B09355068090F7039090F803B12CA12C79
:101B00008114910441F48090040490900504A09005
:101B10000604B0900704C81AD90AEA0AFB0AC80CDE
:101B2000D91CEA1CFB1C04C0F694E794D794C79414
:101B3000CA95D2F7C0924D06D0924E06E0924F065B
:101B4000F092500685EFC8168FE0D806E104F10444
:101B500028F48CE080935B0681E00CCF80E125EFD8
:101B6000C2162FEFD206E104F104A0F38091100415
:101B700090911104A0911204B091130480935E0619
:101B800090935F06A0936006B093610680E2E2CF77
:101B90004F925F926F927F928F929F92AF92BF927D
:101BA000CF92DF92EF92FF920F931F93CF93DF9329
:101BB000EC01423051056105710590F480E0DF9140
:101BC000CF911F910F91FF90EF90DF90CF90BF903A
:101BD000AF909F908F907F906F905F904F900895FF
:101BE00089859A85AB85BC850196A11DB11D841799
:101BF0009507A607B70710F3CB88DC88ED88FE8829
:101C00008F89803109F042C0BB27A72F962F852FDF
:101C1000480159012A013B01C80ED91EEA1EFB1ECC
:101C20008091000190910101A0910201B091030106
:101C3000C816D906EA06FB0699F58F898031C1F5E9
:101C4000B301A201552766277727440F551F4C5132
:101C50005C4FFA01918280828091C0038160809301
:101C6000C0038A89823080F08D819E81AF81B885E2
:101C70008C0D9D1DAE1DBF1D8093C1039093C203AB
:101C8000A093C303B093C40381E099CFDB01CA01E1
:101C9000E7E0B695A79597958795EA95D1F7B8CFE0
:101CA00040E0C701B6010E94E80B8111C6CF86CF84
:101CB000B301A2014F77552766277727440F551F99
:101CC000440F551F4C515C4FFA0180829182A282D1
:101CD000B382C2CF8F929F92AF92BF92CF92DF9288
:101CE000EF92FF920F931F93CF93DF93FC018185B7
:101CF0009285A385B4850196A11DB11D8417950712
:101D0000A607B70770F480E0DF91CF911F910F9184
:101D1000FF90EF90DF90CF90BF90AF909F908F900B
:101D2000089583889488A588B6888789803189F545
:101D3000BB27A72F962F852FE9016A017B018F0111
:101D4000BC01CD01680D791D8A1D9B1D809000018D
:101D500090900101A0900201B090030186169706B1
:101D6000A806B90601F5F8018789803111F5DD244F
:101D7000EE24FF24F601EE0FFF1FEC51FC4F808193
:101D80009181B0E0A0E088839983AA83BB8381E03E
:101D9000BBCFDB01CA01C7E0B695A795979587959C
:101DA000CA95D1F7C9CF40E00E94E80B8111DBCF83
:101DB000AACFE894C7F8DD24EE24FF24F601EE0F45
:101DC000FF1FEE0FFF1FEC51FC4F80819181A2811C
:101DD000B381BF70D8CF8F929F92AF92BF92CF92B4
:101DE000DF92EF92FF920F931F93CF93DF93EC015B
:101DF0008D8181110EC080E0DF91CF911F910F91F5
:101E0000FF90EF90DF90CF90BF90AF909F908F901A
:101E100008950B891C892D893E890417150726070B
:101E2000370748F34A015B01823031F48A869B868A
:101E3000AC86BD8681E0E0CF81149104A104B10499
:101E400049F41E821F82188619861A861B861C86F4
:101E50001D86F0CF0A851B852C853D85EB8DFC8D7D
:101E6000858590E00996B901A801415051096109A1
:101E70007109082E04C076956795579547950A9481
:101E8000D2F775016401E1E0CE1AD108E108F1084A
:101E900004C0F694E794D794C7948A95D2F7C416F1
:101EA000D506E606F70620F0012B022B032B11F5D1
:101EB0008F89988DA98DBA8D8E839F83A887B987C6
:101EC0008E010A5F1F4FC114D104E104F10409F42B
:101ED000ADCF4E815F816885798598018B8D9C8D12
:101EE0000E946A0E91E0C91AD108E108F108811137
:101EF000EACF81CFC41AD50AE60AF70AE1CF3F92AA
:101F00004F925F926F927F928F929F92AF92BF9209
:101F1000CF92DF92EF92FF920F931F93CF93DF93B5
:101F2000CDB7DEB72C970FB6F894DEBF0FBECDBF8E
:101F30005C01DC015B968D909C905C9716964D90B1
:101F40005D906D907C901997411451046104710467
:101F500009F468C0BFEF4B1A5B0A6B0A7B0A312C8D
:101F6000F40181859285A385B4859C01AD012F5F25
:101F70003F4F4F4F5F4F29873A874B875C877301ED
:101F800062011D821E821F821886F401818592855E
:101F9000A385B4852D813E814F8158852817390747
:101FA0004A075B0708F056C089859A85AB85BC85D2
:101FB0008C159D05AE05BF0550F482E0C82ED12CCE
:101FC000E12CF12C92E0492E512C612C712C9E01B8
:101FD0002F5F3F4FB701A601C4010E946A0E8823FC
:101FE000C9F189819A81AB81BC81892B8A2B8B2B8A
:101FF00009F1260137019FEF491A590A690A790A3E
:102000002D813E814F8158852F5F3F4F4F4F5F4F4E
:102010002D833E834F8358873FEFC31AD30AE30AC9
:10202000F30AB3CFF401408051806280738033247F
:10203000339496CFC414D504E604F70409F70FEFE0
:102040001FEF2FEF3FE0B701A601C4010E94C80DAA
:10205000811119C080E02C960FB6F894DEBF0FBE38
:10206000CDBFDF91CF911F910F91FF90EF90DF9047
:10207000CF90BF90AF909F908F907F906F905F9028
:102080004F903F900895D50116964D915D916D91B9
:102090007C911997411551056105710539F097013A
:1020A0008601C4010E94C80D8823A1F2D5011696AD
:1020B000CD92DD92ED92FC921997332051F0D70129
:1020C000C6010196A11DB11DF40180839183A283F5
:1020D000B383F5018789908DA18DB28D892B8A2BD1
:1020E0008B2B39F48481C78AD08EE18EF28E806882
:1020F0008483F50184818062848381E0ACCF1F9367
:10210000CF93DF93EC01162F8C8187FF2AC06E8559
:102110007F858889998941E00E94E80B882361F1D5
:10212000EA8980E2E89FF0011124EC51FC4F3097DE
:1021300019F18D81823040F48B899C89AD89BE89EB
:10214000848F958FA68FB78F8F89988D938F828F6D
:102150008F89988DA98DBA8DB58BA48B8C818F7743
:102160008C83111103C08C818F7E8C83812FDF9132
:10217000CF911F910C94BD0B80E0DF91CF911F9107
:102180000895FF920F931F93CF93DF93EC018D81FE
:10219000813041F090E080E0DF91CF911F910F916D
:1021A000FF9008958C8181FFF5CF82FD1EC00091C4
:1021B000E4051091E505C8010E94B80A0E9498063E
:1021C000F82EC8010E94AA0A8FEFF812E3CF8C8183
:1021D00085FF1EC08D81882321F060E0CE010E9422
:1021E0007F108C818F7D8C83D5CF4B895C896D89E5
:1021F0007E898A859B85AC85BD8584179507A60752
:10220000B707A9F2CE010E94EB0E8111D0CFC2CF49
:102210004091C1035091C2036091C3037091C40304
:10222000452B462B472B21F080E00E94990BB2CF23
:1022300080618C832A853B85317080E092E0821B2F
:10224000930BAACF9F92AF92BF92CF92DF92EF9261
:10225000FF920F931F93CF93DF9300D000D01F9274
:10226000CDB7DEB78C016D83DC0115968C91159787
:10227000813009F0B9C014968C9181FFB5C082FD00
:102280009FC0D8015B96ED91FC915C971A96AD903A
:10229000BD90CD90DC901D9794809A94B601A501D5
:1022A00089E076956795579547958A95D1F7942259
:1022B000B1E0BB22992009F49FC0D8015B96ED9153
:1022C000FC915C971696CD90DD90ED90FC9019975F
:1022D000B2E0CB1AD108E108F108858504C0CC0C26
:1022E000DD1CEE1CFF1C8A95D2F746855785608958
:1022F0007189C40ED51EE61EF71EC90CD11CE11C47
:10230000F11CA114B10409F00AC1F80142855385FA
:102310006485758583899489A589B6894817590785
:102320006A077B0708F4FBC081E00E94BD0B88238D
:1023300009F45AC0C0920001D0920101E09202015A
:10234000F09203018091C00381608093C003F50186
:10235000EC51FC4F8D818083F80182859385A485A3
:10236000B5850196A11DB11D82879387A487B58786
:102370004389548965897689481759076A077B0715
:1023800038F42481838B948BA58BB68B20682483AF
:10239000D80114968C9183FD9FC081E090E00F904E
:1023A0000F900F900F900F90DF91CF911F910F9191
:1023B000FF90EF90DF90CF90BF90AF909F900895E7
:1023C000F801438954896589768982859385A48536
:1023D000B585481759076A077B0709F452CFC8012A
:1023E0000E94EB0E81114DCF81E090E0D801139651
:1023F0009C938E93129749C0D80116964D915D918A
:102400006D917C911997A114B10409F071C0411527
:1024100051056105710589F557968D919D910D9036
:10242000BC91A02D0097A105B10509F04FC0C801CE
:102430000E947F0F8823C1F2D8015B96ED91FC9139
:102440005C971696CD90DD90ED90FC901997B2E0D8
:10245000CB1AD108E108F108858504C0CC0CDD1C3D
:10246000EE1CFF1C8A95D2F74685578560897189D5
:10247000C40ED51EE61EF71E48CF9E012F5F3F4FAC
:10248000CF010E946A0E811103C090E080E087CFE7
:1024900089819A81AB81BC81F801238D348DF9014A
:1024A000278948EF5FEF60E070E0203121F048EFCE
:1024B0005FEF6FEF7FE084179507A607B70730F04F
:1024C000C8010E947F0F8111F8CE8ECFF80186835C
:1024D0009783A087B187F1CEF8018581882309F41D
:1024E00083CF61E0C8010E947F10811156CF7CCF5D
:1024F0006A017B01B2E0CB1AD108E108F1088585B9
:1025000004C0CC0CDD1CEE1CFF1C8A95D2F746855E
:10251000578560897189C40ED51EE61EF71E41E0FD
:10252000C701B6010E94E80B811111CF5DCFCF9298
:10253000DF92EF920F931F93CF93DF93EC016B0128
:102540008091B2069091B3060E94B50AEB89FC898E
:102550009081898D809589238083E12C0FE710E09D
:102560002FE730E050E040E070E060E0CE010E94F4
:10257000B40820E030E440E050E0B601CE010E9413
:10258000EB08EB89FC898081998D892B8083DF9111
:10259000CF911F910F91EF90DF90CF900895CF9240
:1025A000DF92EF920F931F93CF93DF9300D000D071
:1025B000CDB7DEB76C016370DC01D6966C93D6970D
:1025C000D7961C92D7971E968C911E97847E1E9646
:1025D0008C931E9780E890E016969C938E931597A7
:1025E00018969C938E931797611107C01E968C9135
:1025F0001E9780611E968C9314C0613009F068C0EC
:10260000F601868583618687858196819A83898391
:10261000878190859683858389819A819087878336
:1026200067ABD6011A961C921E9219971C961C92A3
:102630001E921B978091B2069091B3060E94B50A34
:10264000D6015396ED91FC915497908159968C91B7
:10265000599780958923808315960D911C91169723
:1026600017962D913C910150110921503109E12C0F
:1026700050E040E070E060E0C6010E94B40860EA0B
:10268000C6010E94A408F60196850588F689E02D0A
:102690008081D6015A962C91822B80839EBD0DB4E9
:1026A00007FEFDCFD6015396ED91FC9154978081A2
:1026B00059969C91892B80830F900F900F900F90CB
:1026C000DF91CF911F910F91EF90DF90CF90089500
:1026D000623029F41E968C911E9782608BCFF60192
:1026E000868581608687858196819C838B8387819F
:1026F0009085968385838B819C819087878381E0F9
:1027000087AB8FCF089590E080E00895CF93DF935B
:1027100070E0FB01EB56FB4F8491FB01EC54FB4F47
:10272000D4916F517B4FFB01C491CC23A1F0811157
:102730000E94C804EC2FF0E0EE0FFF1FE758FB4F9C
:10274000A591B491EC91ED2381E090E009F480E053
:10275000DF91CF91089580E090E0FACF862F642F2B
:102760000C941405862F642F0C9442052F923F92EF
:102770004F925F926F927F928F929F92AF92BF9291
:10278000CF92DF92EF92FF920F931F93CF93DF933D
:10279000CDB7DEB76B970FB6F894DEBF0FBECDBFD7
:1027A0009E838D833B014A875B8738872F8318017F
:1027B000C9862DB73EB7398F288FC80101966DB7EE
:1027C0007EB7681B790B0FB6F8947EBF0FBE6DBF46
:1027D0008DB79EB701969D878C87E9A9FAA92BA989
:1027E0003CA9E217F307C9F0AE9C8001AF9C100D25
:1027F000112488A9820D932D911DC89E9001C99E18
:10280000300D1124CBA8DCA876014F8158856A854C
:102810007B858D819E810E9435092301B301680D5E
:10282000791D798B688B50E040E0B12C20E08A2D37
:1028300090E09F878E873985329DF001339DF00DA2
:102840001124FB8FEA8F688979896415750509F46D
:1028500093C0F201849167E070E07C836B83E82F82
:10286000F0E0FF8BEE8BEC85FD85E20FF11D8E898C
:102870009F890B8002C0959587950A94E2F7382FBF
:10288000317030832F5F81709927480F591F2215AF
:102890001304E9F441155105B1F02416350621F56C
:1028A0004F81AB9C400D112450E0CBA8DCA8E9A8D7
:1028B000FAA80E851F852A8D3B8D6A857B858D81C3
:1028C0009E810E943509B39450E040E020E06B8186
:1028D0007C81615071097C836B836F3F7F4F19F658
:1028E0009FEF491A590AAFCF2F813885AB9C200D35
:1028F000311D11243B8B2A8B3A8539834B854A83C2
:10290000712C612C812CAC85BD85A60DB71D621480
:102910007304CCF62C91FD01C30128163906BCF3D3
:102920003191231306C02816390619F083940196B5
:10293000F4CF682D70E07D8B6C8B7985789D40019C
:102940001124222371F0C9A8DAA876010E851F850B
:1029500094014A895B8969817A818D819E810E9477
:1029600035098C899D89680E791EE981FA81E80D07
:10297000F91DFA83E983C6CFE88DF98D0FB6F89477
:10298000FEBF0FBEEDBF6B960FB6F894DEBF0FBE55
:10299000CDBFDF91CF911F910F91FF90EF90DF900E
:1029A000CF90BF90AF909F908F907F906F905F90EF
:1029B0004F903F902F900895FB0101900020E9F780
:1029C0003197AF01461B570BDC01ED91FC91028062
:1029D000F381E02D09948F929F92AF92BF92EF9274
:1029E000FF920F931F93CF93DF93CDB7DEB7A197DD
:1029F0000FB6F894DEBF0FBECDBF7C01FA01CB014C
:102A000019A2223008F42AE08E010F5D1F4F822E9A
:102A1000912CB12CA12CBF01A50194010E9424236B
:102A2000F901CA016A300CF5605DD8016E938D0121
:102A3000232B242B252B79F790E080E0109721F0B1
:102A4000BD01C7010E94DC14A1960FB6F894DEBF49
:102A50000FBECDBFDF91CF911F910F91FF90EF90EF
:102A6000BF90AF909F908F900895695CDECFCF921A
:102A7000DF92EF92FF920F931F93CF93DF93EC01BE
:102A80006A017B01E881F9810190F081E02D6DE21E
:102A900009958C0144275527BA014C195D096E0927
:102AA0007F092AE0CE010E94EB14800F911FDF9175
:102AB000CF911F910F91FF90EF90DF90CF900895ED
:102AC0000F931F93CF93DF93EC010E94DC148C01D2
:102AD00061E972E0CE010E94DC14800F911FDF914A
:102AE000CF911F910F910895CF93DF9364E972E026
:102AF00086EE95E00E9460158AEE90E00E94E7075E
:102B00008AEE90E00E94D10765EA72E086EE95E0D9
:102B10000E946015E091BA07F091BB07828593850A
:102B200024813581821B930B9387828764EB72E04B
:102B300086EE95E00E94601564EC72E086EE95E00A
:102B40000E946015C8EBD7E067ED72E0888199813B
:102B50000E9460156EED72E0888199810E94601577
:102B6000DF91CF9108952F923F924F925F926F9293
:102B70007F928F929F92AF92CF92DF92EF92FF92CD
:102B80000F931F93CF93DF93EC013B011A01452B69
:102B900051F4FB0101900020E9F731971F01261A3B
:102BA000370A09F469C219A5112309F491C0C8A014
:102BB000D9A0D60113968C917301512C412C8823F6
:102BC00009F459C08E8D9F8D289E2001299E500C9E
:102BD000389E500C11242FA1249DC001259D900DDD
:102BE000112497FD019695958795F60124813581ED
:102BF000231B330B68A5629FA001639F500D112416
:102C000057FF02C04F5F5F4F559547952FA914306E
:102C100008F0B8C0222309F496C0113009F03CC076
:102C20002D813E8137FF02C02F5F3F4F359527959D
:102C3000281B31093C872B873EC06D30E1F06A309C
:102C4000D1F0CE010E94070997FD15C0FC01EE0FDF
:102C5000FF1F8E0F9F1FD6011196ED91FC91E80F7B
:102C6000F91F0180F281E02D3296E4914E0E511C45
:102C7000EAA14E0E511CC7018619970982159305CA
:102C80000CF0A9CFF70161917F016032B1F68E8D12
:102C90009F8D480E591EEFCF2F81388537FF02C018
:102CA0002F5F3F4F35952795241B31093A87298798
:102CB000123009F0B5CF89859A8597FF02C01A8630
:102CC00019868B859C8597FF02C01C861B8619A6DA
:102CD0008091B2069091B3060E94B50AEB89FC89F7
:102CE0009081898D809589238083260C371C26143A
:102CF000370409F4BBC1D3016D913D016D30B9F3C7
:102D00006A3009F072C0E8A1F9A184819AA5890FFF
:102D100098A5899F802D112490E02FA9211152C0E0
:102D20002B853C854F815885280F391F4217530743
:102D30000CF49CC11A8619862B853C85820F931F43
:102D40009C878B87D4CF113069F42D813E8137FF6A
:102D500002C02F5F3F4F35952795281B31093A87D1
:102D60002987A9CF2F81388537FF02C02F5F3F4FBA
:102D700035952795241B31093C872B87123009F4A0
:102D80009ACFE3CF222379F0143019F42B853C85B8
:102D90004FCF29853A85241B31093A872987153079
:102DA00009F489CFF3CF143019F429853A85D5CFAA
:102DB0002B853C85241B31093C872B87153009F472
:102DC0007ACFF3CF29853A854D815E81280F391F4F
:102DD000421753070CF44AC129853A85820F931F85
:102DE0009A8789871C861B8682CF603209F06BC068
:102DF000FAA18E8D9F8D8F0F911D2BA13CA1EDA06F
:102E0000FEA04FA9411133C0EFA1E89F502C11241F
:102E1000E216F30629F189859A852D813E81850D7B
:102E2000911D8217930734F08D819E8129853A8503
:102E3000582E521A4B855C8569857A85A8A1B9A15F
:102E400014968C9108A5809F80011124252D30E0D7
:102E5000FE9F200D311D11246701CE010E9435090E
:102E600089859A85850D911D9A87898740CF98A479
:102E7000989E902C1124E216F30601F18B859C8517
:102E80002F813885890D911D8217930734F08F812A
:102E900098852B853C85982E921A49855A856B8595
:102EA0007C85E8A1F9A104818FA1089F80011124EC
:102EB000292D30E06701CE010E9435098B859C8564
:102EC000890D911D3DCFCE010E94070997FD0FCFBF
:102ED000A8A1B9A18C01000F111F080F191F11968D
:102EE000ED91FC911297E00FF11F61817281FB015E
:102EF0003296D4904D2C512C8FA94AA19BA5992391
:102F000009F4A1C0811179C089859A855FA12D81BD
:102F10003E81D59E800D911D1124549F800D911DE1
:102F2000112482179307A4F01A8619862B853C85F5
:102F300014964C918AA5480F5527551FE8A5E49F84
:102F4000C001E59F900D1124820F931F9C878B87F2
:102F500042E050E08CEB93E00E9410236091BC03B0
:102F60007091BD03A8A1B9A111968D919C91129762
:102F7000080F191FF80181819281FC013396859019
:102F800094909FA914968C9191118CC04B855C856F
:102F9000E82EF12CA8A42F8138858A9D400D511D63
:102FA0001124241735070CF461C02B853C85498515
:102FB0005A858EA18F938DA18F938CA18F938BA116
:102FC0008F938AA18F93CFA08201CE010E94B61366
:102FD00029853A859AA1490E511C4FA1449DC001F3
:102FE000459D900D1124820F931F9A8789870F901A
:102FF0000F900F900F900F907ACE8B859C8558A5DF
:103000002D813E81D59E800D911D1124549F800DF0
:10301000911D1124821793070CF49ACF49855A8584
:1030200014962C918AA5280F3327331FEFA1E29F16
:10303000C001E39F900D1124840F951F9A87898703
:103040001C861B8685CF882349F18B859C8558A5D6
:103050002D813E81D59E800D911D1124549F800DA0
:10306000911D1124821793070CF472CFEB89FC8910
:103070008081998D892B8083DF91CF911F910F9152
:10308000FF90EF90DF90CF90AF909F908F907F90C8
:103090006F905F904F903F902F90089589859A850B
:1030A0005FA1D6CF49855A85E82EF12CCFA02D817E
:1030B0003E818C9D400D511D112424173507B4F21B
:1030C00029853A854B855C858EA18F938DA18F9341
:1030D0008CA18F938BA18F938AA18F93A8A4820137
:1030E000CE010E94B6138B859C853AA128A5EFA13D
:1030F000DE9EF0011124329FE00DF11D1124E80F36
:10310000F91FFC87EB8773CFCF93DF93EA010E940F
:10311000B315CE01DF91CF910895CF93DF931F9226
:10312000CDB7DEB7698341E050E0BE016F5F7F4FEE
:103130000E94B31581E090E00F90DF91CF91089548
:103140001F920F920FB60F9211248F939F9380912D
:10315000E1009091E100937F9093E10083FF0FC025
:103160001092E90091E09093EB001092EC0092E352
:103170009093ED001092E30398E09093F00082FFAB
:1031800022C093E09093E9009091F200992319F006
:103190009AE39093E8009091E103992341F0909194
:1031A000E10391509093E103911101C05D9A9091D8
:1031B000E203992341F09091E20391509093E2034E
:1031C000911101C0289A84FF18C08091E2008E7E80
:1031D00081608093E2008091E1008F7E8093E10026
:1031E0008091E0038E7E80618093E0039F918F91B8
:1031F0000F900FBE0F901F90189580FFF7CF809112
:10320000E2008E7E80618093E2008091E1008E7EFC
:103210008093E1008091E0038E7E8160E5CF1F9274
:103220000F920FB60F921124CF92DF92EF92FF927E
:103230000F931F932F933F934F935F936F937F93BE
:103240008F939F93AF93BF93EF93FF93CF93DF93AE
:10325000CDB7DEB76C97DEBFCDBF1092E90080918D
:10326000E80083FF25C068E0CE0145960E94C703B1
:1032700082EF8093E8008D8987FF39C09091E80044
:1032800090FFFCCF982F907609F034C19E894F892A
:10329000588D2F89F88C911131C0803861F580915B
:1032A000DF038093F1001092F1008EEF8093E8002D
:1032B0006C960FB6F894DEBF0FBECDBFDF91CF91F5
:1032C000FF91EF91BF91AF919F918F917F916F91FE
:1032D0005F914F913F912F911F910F91FF90EF9030
:1032E000DF90CF900F900FBE0F901F9018959EEF1C
:1032F0009093E800C7CF1092F100D5CF913059F4E8
:103300008111D3CF4130510581F68091DF038D7F4C
:103310008093DF03CACF933049F48111C6CF413087
:10332000510519F68091DF038260F2CF953041F4A8
:103330008091E80080FFFCCF20682093E300B5CFA8
:10334000963009F0A9C00B8D1C8D22E01092E90087
:103350001092DD031092DC03F2122EC01092DB03F8
:103360001092DA030E9415041F8299E09983FA8271
:1033700091E09E8390EA98879AEF99872091DC03E9
:103380003091DD03275F3F4F3C832B838D83109269
:10339000E9001092DD031092DC031093DB0300932D
:1033A000DA0349E050E0BE016F5F7F4F80E00E948A
:1033B00090030E94150479CF1093DB030093DA0386
:1033C0000E940104DC0112960D911C91011511055A
:1033D00009F451C1D801ED91FC910480F581E02DF3
:1033E000BE016B5E7F4FC8010995009709F03EC191
:1033F000F80100851185EACFF3E0FF120EC08F8936
:10340000882309F440C0823061F440E860E184E63A
:1034100095E00E948B1B811148CF81E28093EB00E5
:1034200047CF813029F440E86BE088E595E0F1CFA3
:10343000833099F70E940104DC011296ED90FC9014
:103440008E010F5F1F4F6801E114F10479F0D7017D
:10345000ED91FC910680F781E02DB801C701099537
:10346000080F111DF701E084F184EECFD8011C9202
:10347000F60101900020E9F73197BF016C197D0931
:1034800040E0C601C6CF62E475E0FB01449150E024
:1034900080E80E94900309CF973009F4BECF98309E
:1034A00021F481E08093F10000CF993009F0FDCE46
:1034B000837009F0B2CFE1E1F1E081E031E096E321
:1034C0002191222371F08093E9003093EB00DF011A
:1034D00011972C912093EC009093ED008F5F873033
:1034E00079F78EE78093EA001092EA008F89809343
:1034F000E303DBCE8B8D9C8D1092E9001092DD03EF
:103500001092DC039093DB038093DA03898D8111A1
:1035100092C08E899D89913A49F4813209F07DCF1C
:1035200047E050E068E071E080E0B3CF913209F00D
:1035300074CF833269F48F89988DB0E0A0E08093D6
:10354000040190930501A0930601B0930701ADCE4D
:10355000803269F48091E80082FFFCCF67E088E068
:1035600091E00E94C7038BEF8093E8009ECE8232E9
:1035700009F09BCE8F8980930F01EEEFFFE78591D5
:1035800094918B3F9C4D51F1E0E0F8E0809108016F
:1035900090910901A0910A01B0910B01803B9440E8
:1035A000A105B105F1F480910F0180FD1AC0EE3F35
:1035B0008AE0F80789F587E797E791838083809110
:1035C00060008093DE0388E19BE00FB6F894A89535
:1035D000809360000FBE9093600067CEEEEFFAE03C
:1035E000D5CF808191818737974709F05ECEA89526
:1035F000809160008861809360008091DE038093F9
:103600006000EE3F2AE0F20789F08091FE0A909177
:10361000FF0A9183808349CE808191818737980703
:1036200051F29093FF0A8093FE0AC5CF1092FF0AD1
:103630001092FE0A3ACE0E940104DC0112960D910E
:103640001C910115110509F4E8CED801ED91FC910A
:103650000190F081E02DBE016B5E7F4FC80109959E
:10366000811123CEF80100851185EBCF18161906BC
:103670000CF41BCED2CEF1E0FF12BECE66E475E0B4
:1036800004CF1F920F920FB60F9211242F933F93E6
:103690008F939F93AF93BF938091C6039091C7037D
:1036A000A091C803B091C9033091C50323E0230F53
:1036B0002D3758F50196A11DB11D2093C5038093A8
:1036C000C6039093C703A093C803B093C903809126
:1036D000CA039091CB03A091CC03B091CD03019686
:1036E000A11DB11D8093CA039093CB03A093CC037B
:1036F000B093CD03BF91AF919F918F913F912F9147
:103700000F900FBE0F901F90189526E8230F02967A
:10371000A11DB11DD2CFEF92FF920F931F93CF93B4
:10372000DF93F82E192FE62E042F81E0860F880FE5
:103730000E94620383E00E946203CF2DD12FEC0E22
:10374000FD2EF11CCE15DF05B9F007FF13C0FE01F9
:1037500084910E946203182F80E00E9462038123FB
:1037600021968111EFCFDF91CF911F910F91FF90A3
:10377000EF9008958881EDCF81E0F5CFCF9310923F
:10378000E9051092E80588EE93E0A0E0B0E08093B0
:10379000EA059093EB05A093EC05B093ED058FE45B
:1037A00092E09093E7058093E6058FEF9FEF90936B
:1037B000F3058093F20580E5809336061092370674
:1037C00010923D0610923E0610924106109243065A
:1037D00082E090E0A0E0B0E080934406909345063C
:1037E000A0934606B093470610925B0610926506BA
:1037F0001092640681E692E09093630680936206DD
:103800001092670689E792E09093A9068093A80634
:103810008091A006811113C010929B0610929A0607
:1038200085E795E090939D0680939C0689E190E062
:1038300090939F0680939E0681E08093A0068091DE
:10384000920681112AC0C1E0C0938506C093860606
:103850008BE896E0909388068093870610928A06FC
:10386000109289068DE692E09093820680938106FD
:1038700010928D0610928C0610928F0610928E0672
:10388000C0939006C093910681EC80938B060E94B2
:1038900001040E94F202C0939206E0918C06F0911E
:1038A0008D06309709F0E0C08AE996E090938D0686
:1038B00080938C0680918E0690918F0620919E06B3
:1038C00030919F06820F931F90938F0680938E06F0
:1038D00080E58093B2061092B30683E090E0909367
:1038E000B5068093B40686E0E7E1F1E0A6EBB6E02A
:1038F00001900D928A95E1F71092BF061092BE06D4
:1039000029E832E03093BD062093BC0682E1809323
:10391000D70697E09093D8068FEF8093C006109259
:10392000FB061092FA063093F9062093F80643E15D
:1039300040931307909314078093FC061092370767
:1039400010923607309335072093340724E12093F3
:103950004F0790935007809338078BEE92E0909337
:103960009E0780939D078EEE92E09093A007809330
:103970009F0784EF91E09093A4078093A30784E6C8
:1039800090E09093A6078093A50782E090E0909343
:10399000A8078093A70780911D0190911E01A09117
:1039A0001F018093BE079093BF07A093C00788E0D4
:1039B0008093C1078091200190912101A091220163
:1039C0008093C2079093C307A093C4071092C707C0
:1039D0001092CB071092CA071092CC078FE792E0A3
:1039E0009093C6078093C507E1EEF7E0108214823A
:1039F00013821582369688E0ED31F807B9F781EC2D
:103A000097E0909328088093270882EC97E09093A2
:103A10002A088093290881E080932B0883E0809313
:103A20002C088EEB97E090932608809325088AE077
:103A300090E090932E0880932D0884EF91E090936E
:103A4000300880932F081092330810923208109299
:103A50002108109222081092230810922408109234
:103A60003108CF910895FC01808191810097D9F7A9
:103A70008AE996E0918380831DCFCF93DF93CDB702
:103A8000DEB728970FB6F894DEBF0FBECDBF78948F
:103A900084B5826084BD84B5816084BD85B5826053
:103AA00085BD85B5816085BD80916E008160809304
:103AB0006E0010928100809181008260809381006D
:103AC000809181008160809381008091800081607D
:103AD000809380008091910082608093910080911A
:103AE000910081608093910080919000816080932B
:103AF00090008091C10084608093C1008091C100DA
:103B000082608093C1008091C10081608093C10078
:103B10008091C30081608093C3008091C000826067
:103B20008093C0008091C20081608093C200809128
:103B30007A00846080937A0080917A00826080931A
:103B40007A0080917A00816080937A0080917A0077
:103B5000806880937A001092E3031092DF03109242
:103B6000E0038091D70081608093D70080EA809342
:103B7000D80089B5806189BD89B5826089BD09B4E5
:103B800000FEFDCF61E070E080E090E00E94A305C0
:103B90008091D8008F7C80618093D8008091E00074
:103BA000807F8093E0008091E1008E7E8093E10031
:103BB0008DE08093E200559A209A2AE040E052EC92
:103BC00061E070E086EE95E00E94EB1461E972E03E
:103BD00086EE95E00E94DC1468EE73E080E090E0F1
:103BE0000E94A30563EF72E086EE95E00E946015E7
:103BF00067E073E086EE95E00E946015EAEAF6E081
:103C000088E0DF011D928A95E9F748E050E0BF01A6
:103C100088EA96E00E947A0767E173E086EE95E015
:103C20000E94601504E610E062E373E086EE95E022
:103C30000E9460150E94741564E670E080E090E0D8
:103C40000E94A3050150110979F7E090A507F090B3
:103C5000A607E091BA07F091BB07828593858E1580
:103C60009F050CF046C06AE070E080E090E00E94A2
:103C7000A30589EE90E00E94E70789EE90E00E949C
:103C8000D107E091BA07F091BB0782859385248123
:103C90003581820F931F938782870091B807109117
:103CA000B907F80160AD71ADC8010E949712D80143
:103CB0001C961C921E921B971A961C921E92199784
:103CC00067ED72E08091B8079091B9070E94601586
:103CD00067E373E08091B8079091B9070E9460157F
:103CE000B8CF6AE070E080E090E00E94A3050E94F7
:103CF0007415E091BA07F091BB0782859385E816A9
:103D0000F9067CF35CEB252E56E0352E8101C12CA3
:103D1000D12C76016CE3862E99249394AA24AA943C
:103D2000BA2C412C512CE4EB6E2EE3E47E2ED88687
:103D3000CF828091B4069091B506C816D9060CF0D2
:103D400020C28C9CF0018D9CF00D1124EC54F94F95
:103D5000168AD801D5961C92D597D7961C92D797DC
:103D6000158A9D961C929D97128A118A148A138A2D
:103D700098969C92989797969C92979799961C9252
:103D800099979A961C929A9792961C9292979B96C4
:103D90009C929B9720E15D962C935D978689806429
:103DA000868B86898460868BD9961C921E92D897C2
:103DB000DB96BC92AE92DA979696BC92AE929597AD
:103DC0009496BC92AE9293979F964D925D926D920F
:103DD0007C92D297E6EAFFEFD496FC93EE93D397CA
:103DE000F0E5F093B2069092B30661E05C968C9198
:103DF0000E94420561E0D8015B968C910E944205C9
:103E0000F801238D30E0F901EF51FB4FE491F0E030
:103E1000EE0FFF1FED52FB4F85919491D801549600
:103E20009C938E9353975C968C915C9790E0FC01E9
:103E3000EF51FB4FE491F0E0EE0FFF1FED52FB4F0F
:103E400045915491F801568B458BF901EC54FB4F89
:103E5000E4915996EC935997FC01EC54FB4FE49193
:103E60005A96EC930E940408D8015396ED91FC9168
:103E70005497808159969C915997892B80835596A8
:103E8000ED91FC91569780815A969C915A97892B77
:103E9000808314968C918F3F29F161E00E94420546
:103EA00061E0F80184810E9414056AE070E080E01E
:103EB00090E00E94A30560E0D80114968C910E94C6
:103EC00014056AE070E080E090E00E94A30561E0E4
:103ED000F80184810E9414056AE070E080E090E0BF
:103EE0000E94A3056EE170E080E090E00E94A305CF
:103EF0008091B2069091B3060E94B50AD8015396FC
:103F0000ED91FC915497908159968C9180958923DD
:103F100080832F813885829EF001839EF00D1124CD
:103F2000EC54F94F86898062868B42E16DEFC801BF
:103F30000E949B0A41EB6DEFC8010E949B0A6EEA4A
:103F4000C8010E94A40841EF63EBC8010E949B0ACC
:103F50004FE76AECC8010E949B0A40E061EAC80191
:103F60000E949B0A40E062EAC8010E949B0A40E06E
:103F700065EBC8010E949B0A41E06BEAC8010E9400
:103F80009B0A64EBC8010E94A40860EAC8010E9471
:103F9000950865EBC8010E94950865E5C8010E9477
:103FA000950861ECC8010E94A40868ECC8010E9451
:103FB000950860E8C8010E94950868ECC8010E9455
:103FC00095084FE067ECC8010E949B0A62EBC801AC
:103FD0000E94A40864EAC8010E94950860E0C80134
:103FE0000E94950860E0C8010E94950869EBC8012D
:103FF0000E94A40842E361EBC8010E949B0A41E0D1
:1040000066EBC8010E949B0A45E06EEBC8010E9466
:104010009B0A66EAC8010E94A408D8015596ED9152
:10402000FC91569790815A968C9180958923808334
:10403000BFEABEBD0DB407FEFDCFD8015396ED918A
:10404000FC915497808159969C91892B80836CE3D5
:1040500070E080E090E00E94A30560E0C8010E944B
:10406000CF12F80160AD71ADC8010E949712E3E470
:10407000F2E0D8019196FC93EE9390979C961C9257
:1040800060E2C8010E94070997FDF1CFFC01EE0F25
:10409000FF1FE80FF91FED5DFE4F0180F281E02D5B
:1040A0003296E491F0E0D8015F96FC93EE935E9730
:1040B00061E070E080E090E00E94A305F80185A92E
:1040C0008823A1F18091B2069091B3060E94B50AAF
:1040D000D8015396ED91FC915497908159968C910B
:1040E0005997809589238083D5968C91863021F4C9
:1040F0006FEAC8010E94A408F80185A9893029F453
:1041000042E16DEFC8010E949B0A66EAC8010E9465
:10411000A408D801D5961C92D5975396ED91FC91A1
:104120005497808159969C91892B808362E473E037
:1041300086EE95E00E94DC142AE0B701A60186EE27
:1041400095E00E94EB1461E972E086EE95E00E9432
:10415000DC146FE473E0C8010E94DC142AE0B701AC
:10416000A601C8010E94EB1467E573E0C8010E9434
:104170006015045C1F4FBFEFCB1ADB0AEB0AFB0A8A
:10418000D6CD1E821D8262E0F62E72E5D72EE0E5C6
:10419000CE2EF3E0EF2E412CA2E05A2E612C712C92
:1041A00080916706882341F061E082E696E00E94F4
:1041B0007F108111109267061092430610924106FB
:1041C00010923E0610923D06F0923C060E94850633
:1041D0008B0161E080913C060E94420561E0809184
:1041E0003C060E9414050E940408D09236061092E4
:1041F000370680913606909137060E94B50A5AE03C
:10420000B52E8FEF0E949106BA94B110FACF88E3D1
:1042100096E00E94B80A20E030E0A90160E088E35F
:1042200096E00E94CE0AB82E80934206E1E08E17F7
:1042300059F00E948506601B710B613D774058F371
:1042400081E080933D0642C02AEA31E040E050E040
:1042500068E088E396E00E94CE0A82FF2AC0B0920E
:10426000430680914306812C912C5401823029F41D
:10427000812C912CA12C30E4B32E20E030E0A90158
:1042800067E388E396E00E94CE0AA501940169E203
:1042900088E396E00E94CE0A809342068823F1F0DC
:1042A0000E948506601B710B613D774030F388E00A
:1042B000C8CF44E0B42E0E94980680934206BA9478
:1042C000B110F9CF8A3A39F0F0923D0688E396E0D2
:1042D0000E94AA0A33C0F0924306C3CF80914306DE
:1042E0008230D9F420E030E0A9016AE388E396E067
:1042F0000E94CE0A882321F036E030933D06E6CFB7
:104300000E949806807C803C11F4E09243060E9453
:1043100098060E9498060E94980688E396E00E94FC
:10432000AA0AC09236061092370681E00E949F0CBE
:10433000882359F180916706882369F16EE673E05E
:1043400086EE95E00E94DC144D815E814F5F5F4FE9
:10435000052E000C660B770B77FF28C186EE95E0E3
:104360000E94371561E972E086EE95E00E94DC1448
:104370008D819E8109970CF41FC161E873E086EE80
:1043800095E00E94601580E055C080E00E949F0C7F
:104390008823A1F2CFCF80915B06803109F0ACC0B9
:1043A00082E0809367061092790610927A06109246
:1043B0007B0610927C0680915C0690915D06B0E0D1
:1043C000A0E025E0880F991FAA1FBB1F2A95D1F7EF
:1043D0008093750690937606A0937706B09378063F
:1043E00084E496E090937E0680937D0681E080933E
:1043F0006606109268061092690610926A0610927C
:104400006B0610926C0610926D0610926E0610925A
:104410006F0610927006109271061092720610923A
:104420007306109274066EE573E086EE95E00E94C6
:10443000601581E08093340863E973E086EE95E0CF
:104440000E9460150E9485067093AC076093AB07CD
:104450001092AF0763EA73E086EE95E00E94601564
:104460008CEB96E09093B3078093B20703EA17E0D2
:104470001093B5070093B4071092B7071092B607D0
:1044800063EA73E086EE95E00E94601588EF96E09F
:104490009093B9078093B8071093BB070093BA07AE
:1044A00081E090E09093BD078093BC070CEB16E091
:1044B000F12CE12C9CE3D92E8091B4069091B506A5
:1044C000E816F9060CF07EC0D801D8966D917C9163
:1044D000C8010E949712DE9CF001DF9CF00D1124B0
:1044E000EC54F94F148A138A128A118ABFEFEB1A1F
:1044F000FB0A045C1F4FE0CF803209F01FCFE0922F
:10450000670680915E0690915F06A0916006B0916B
:1045100061068093790690937A06A0937B06B09308
:104520007C0689839A83AB83BC83812C912C5401B4
:1045300049815A816B817C819E012F5F3F4F84E4CA
:1045400096E00E946A0E882309F4F8CE8091510605
:10455000A301920104C0220F331F441F551F8A95E7
:10456000D2F7DA01C901880E991EAA1EBB1E498125
:104570005A816B817C8180915B06803191F088EF5C
:104580009FEFAFEFBFE0481759076A077B0780F23C
:104590008092750690927606A0927706B092780681
:1045A0001FCF88EF9FEFA0E0B0E0EDCF2AE086EECE
:1045B00095E00E94EB14D6CE8D819E8101969E835C
:1045C0008D83EECD10E000E08091B4069091B506A9
:1045D00008171907ACF012E080E0E82E80E0F82E12
:1045E0002091B4063091B506E4EBF6E090E080E06F
:1045F000821793077CF410AB17A70196FC96F8CFAF
:1046000062E0C1010E94CF120F5F1F4FECE32E0E3C
:10461000311CDACFE114F10439F30E940000E0CF3D
:10462000FB01DC0102C005900D9241505040D8F7CB
:1046300008950E944623A59F900DB49F900DA49FBE
:10464000800D911D11240895A1E21A2EAA1BBB1BF7
:10465000FD010DC0AA1FBB1FEE1FFF1FA217B3074E
:10466000E407F50720F0A21BB30BE40BF50B661F64
:10467000771F881F991F1A9469F760957095809528
:1046800090959B01AC01BD01CF010895A29FB0019F
:10469000B39FC001A39F700D811D1124911DB29F76
:1046A000700D811D1124911D08955058BB27AA2714
:1046B0000E946D230C94B7240E94A92438F00E9414
:1046C000B02420F039F49F3F19F426F40C94A6246A
:1046D0000EF4E095E7FB0C94A024E92F0E94C82477
:1046E00058F3BA17620773078407950720F079F427
:1046F000A6F50C94EA240EF4E0950B2EBA2FA02D0B
:104700000B01B90190010C01CA01A0011124FF277E
:10471000591B99F0593F50F4503E68F11A16F04079
:10472000A22F232F342F4427585FF3CF4695379578
:104730002795A795F0405395C9F77EF41F16BA0B3D
:10474000620B730B840BBAF09150A1F0FF0FBB1FEB
:10475000661F771F881FC2F70EC0BA0F621F731F34
:10476000841F48F4879577956795B795F7959E3F91
:1047700008F0B0CF9395880F08F09927EE0F979522
:10478000879508950E94D6230C94B7240E94B024E4
:1047900058F00E94A92440F029F45F3F29F00C94BE
:1047A000A02451110C94EB240C94A6240E94C8243C
:1047B00068F39923B1F3552391F3951B550BBB2750
:1047C000AA2762177307840738F09F5F5F4F220F95
:1047D000331F441FAA1FA9F335D00E2E3AF0E0E88C
:1047E00032D091505040E695001CCAF72BD0FE2FD6
:1047F00029D0660F771F881FBB1F2617370748076A
:10480000AB07B0E809F0BB0B802DBF01FF27935821
:104810005F4F3AF09E3F510578F00C94A0240C9421
:10482000EB245F3FE4F3983ED4F386957795679544
:10483000B795F7959F5FC9F7880F911D9695879556
:1048400097F90895E1E0660F771F881FBB1F621775
:1048500073078407BA0720F0621B730B840BBA0B33
:10486000EE1F88F7E09508950E94D02488F09F57A6
:1048700098F0B92F9927B751B0F0E1F0660F771F84
:10488000881F991F1AF0BA95C9F714C0B13091F07A
:104890000E94EA24B1E008950C94EA24672F782F4F
:1048A0008827B85F39F0B93FCCF38695779567953F
:1048B000B395D9F73EF490958095709561957F4FAB
:1048C0008F4F9F4F0895E89409C097FB3EF4909551
:1048D0008095709561957F4F8F4F9F4F9923A9F0D9
:1048E000F92F96E9BB279395F69587957795679568
:1048F000B795F111F8CFFAF4BB0F11F460FF1BC0AC
:104900006F5F7F4F8F4F9F4F16C0882311F096E93E
:1049100011C0772321F09EE8872F762F05C06623EC
:1049200071F096E8862F70E060E02AF09A95660FA5
:10493000771F881FDAF7880F9695879597F908955E
:1049400097F99F6780E870E060E008959FEF80EC42
:10495000089500240A9416161706180609060895E5
:1049600000240A9412161306140605060895092E4B
:104970000394000C11F4882352F0BB0F40F4BF2BBA
:1049800011F460FF04C06F5F7F4F8F4F9F4F0895FA
:1049900057FD9058440F551F59F05F3F71F04795F0
:1049A000880F97FB991F61F09F3F79F087950895D5
:1049B000121613061406551FF2CF4695F1DF08C0F4
:1049C000161617061806991FF1CF86957105610511
:1049D00008940895E894BB2766277727CB0197F9B9
:1049E00008950E9404250C94B7240E94A92438F04D
:1049F0000E94B02420F0952311F00C94A0240C9474
:104A0000A62411240C94EB240E94C82470F3959FD3
:104A1000C1F3950F50E0551F629FF001729FBB27B5
:104A2000F00DB11D639FAA27F00DB11DAA1F649F51
:104A30006627B00DA11D661F829F2227B00DA11D04
:104A4000621F739FB00DA11D621F839FA00D611D8A
:104A5000221F749F3327A00D611D231F849F600DAB
:104A6000211D822F762F6A2F11249F5750409AF0D4
:104A7000F1F088234AF0EE0FFF1FBB1F661F771F60
:104A8000881F91505040A9F79E3F510580F00C942B
:104A9000A0240C94EB245F3FE4F3983ED4F3869576
:104AA00077956795B795F795E7959F5FC1F7FE2BCB
:104AB000880F911D9695879597F90895EE0FFF1F22
:0C4AC0000590F491E02D0994F894FFCFCC
:104ACC00FFFFFFFFFFFFFFFF00E100000000000001
:104ADC0000C1808100000012001300140031323339
:104AEC00030405207404216F04226A042365042442
:104AFC006004255B04265604275104284C042947DE
:104B0C00042A42042B3D042C38042D33042E2E048D
:104B1C002F2904302404311F04321A0433150434B1
:104B2C001004350B0436060437010438FC0339F73E
:104B3C00033AF2033BED033CE8033DE3033EDE03A3
:104B4C003FD90340D40341CF0342CA0343C50344B6
:104B5C00C00345BB0346B60347B10348AC0349A7A2
:104B6C00034AA2034B9D034C98034D93034E8E03B3
:104B7C004F8903508403517F03527A0353750354B6
:104B8C007003556B03566603576103585C03595702
:104B9C00035A52035B4D035C48035D43035E3E03C3
:104BAC005F3903603403612F03622A0363250364B6
:104BBC002003651B03661603671103680C03690762
:104BCC00036A02036BFD026CF8026DF3026EEE02D7
:104BDC006FE90270E40271DF0272DA0273D50274BB
:104BEC00D00275CB0276C60277C10278BC0279B7C7
:104BFC00027AB2027BAD027CA8027DA3027E9E02E9
:104C0C00B09902602301000801000000000000467A
:104C1C00046F0667045C04AE046C048A0400000094
:104C2C00002211D403C110821300000000B6062F1D
:104C3C0007F406D906000000007A0700000000B255
:104C4C0013AE138613000000008D18841883138292
:104C5C00130D0A0041646A757374696E6720766F70
:104C6C006C756D650041646A757374696E67207646
:104C7C0061727300436C656172696E672073637255
:104C8C0065656E005072696E74696E6720746F2072
:104C9C0073637265656E0053797374656D00566F3E
:104CAC006C756D6520446F776E21002E63002E7439
:104CBC0078740053657474696E6720757020686130
:104CCC0072647761726500696E6974696E672070D1
:104CDC00726F6772616D00496E697469616C697A93
:104CEC00696E672073797374656D20766F6C756D62
:104CFC0065006C6F6F7000566F6C756D652055702C
:104D0C002100496E697469616C697A696E67205318
:104D1C00637265656E200020536574757000534492
:104D2C002043617264204D6F756E7465640053444A
:104D3C00204D6F756E7420417474656D70743A20DB
:104D4C000043617264204D6F756E74204661696C0E
:104D5C0065640053657474696E67207570207661A4
:104D6C0072730053657474696E67207570204D659D
:0C4D7C006469612050726F6772616D0005
:00000001FF
