:100000000C94E2000C940A010C940A010C940A016D
:100010000C940A010C940A010C940A010C940A0134
:100020000C940A010C940A010C940B150C947A158B
:100030000C940A010C940A010C940A010C940A0114
:100040000C940A010C940A010C940A010C940A0104
:100050000C940A010C940A010C940A010C94AC173C
:100060000C940A010C940A010C940A010C940A01E4
:100070000C940A010C940A010C940A010C940A01D4
:100080000C940A010C940A010C940A010C940A01C4
:100090000C940A010C940A010C940A010C940A01B4
:1000A0000C940A010C940A010C940A01000000004F
:1000B000240027002A002D0030000000000023004B
:1000C000260029002C002F00000000002500280039
:1000D0002B002E0031000404040404030405020272
:1000E00002020403020202020606060606060404D1
:1000F0000202020404040802011040804010204063
:10010000804080080204018040201002011080100D
:10011000204040200000000200090F0000030401FD
:10012000000C0000000000000000000000000000C3
:10013000000000080B000202020000090400000198
:10014000020200000524001001052401010104241D
:10015000020605240600010705810310004009047A
:100160000100020A00000007050202400000070526
:1001700083024000000403090412010002EF02019F
:100180004041233680000101020301417264756918
:100190006E6F204C4C430041726475696E6F204C49
:1001A000656F6E6172646F00050C0901A101850421
:1001B000150026FF0319002AFF039504751081001E
:1001C000C000291811241FBECFEFDAE0DEBFCDBF7B
:1001D00011E0A0E0B1E0E6EDF8E302C005900D9279
:1001E000AA3FB107D9F726E0AAEFB1E001C01D92FE
:1001F000AE37B207E1F710E0C2EED0E004C02197BD
:10020000FE010E94631CC13ED107C9F70E94B419C8
:100210000C94691C0C940000CF93DF93FC01818146
:100220009091C104482F490F5527551F483051055B
:100230009CF5A281B381109709F52DEB34E033834F
:10024000228320812093BF048093C0048091C20444
:10025000820F80832091C304A22FB091C4048A2FFF
:10026000821B8917E8F481813D91C82FD0E0C05FDF
:10027000DE4F38838F5F8183F2CFD90118962D919D
:100280003C91199721153105C1F72DEB34E01996F2
:100290003C932E931897D5CF80E0DF91CF910895AE
:1002A00081E0FBCFFC0180911D04882311F13FB751
:1002B000F89482E08093E9002091F200822F90E090
:1002C0001816190614F481E090E0882339F0289874
:1002D00044E640931C044091F1004083222339F00E
:1002E0002091F200211103C02BE62093E8003FBFCC
:1002F00008958FEF9FEF08954091160450911704D1
:10030000209114043091150442175307B4F49091CE
:10031000E8009570E1F39091E80092FD19C0809398
:10032000F100809116049091170401968F7399271C
:10033000892B19F48EEF8093E80080911604909138
:1003400017040196909317048093160481E0089592
:1003500080E00895DF92EF92FF920F931F93CF9367
:10036000DF93D82E8A01EB017B01E40EF51ECE153A
:10037000DF0559F0D7FE12C0FE0184910E947C0176
:1003800021968111F4CF0FEF1FEFC801DF91CF91BC
:100390001F910F91FF90EF90DF9008958881EECF2D
:1003A0002FB7F89487708093E9009091E800892F27
:1003B000807295FF04C09091F20080E4891B2FBFEA
:1003C0000895615030F02091F100FC0120830196E6
:1003D000F8CF289884E680931C040895AF92BF92CA
:1003E000CF92DF92EF92FF920F931F93CF93DF9301
:1003F0006C017B018B01040F151FEB015E01AE1830
:10040000BF08C017D10759F06991D601ED91FC9151
:100410000190F081E02DC6010995892B79F7C5017E
:10042000DF91CF911F910F91FF90EF90DF90CF90D0
:10043000BF90AF90089580910C0481110DC082E0AF
:100440008093080484E08093090410920B041092B6
:100450000A0481E080930C0488E094E008950F93EF
:100460001F93CF93DF931F92CDB7DEB782E08983CE
:1004700042E450E063E371E080E80E94AA010E9438
:100480001B02DC0112960D911C910115110589F0DA
:10049000D801ED91FC910280F381E02DBE016F5FE8
:1004A0007F4FC801099597FD04C0F80100851185AB
:1004B000ECCF89810F90DF91CF911F910F9108951B
:1004C000CF93DF931F92CDB7DEB76983DC01ED9147
:1004D000FC910280F381E02D41E050E0BE016F5FAE
:1004E0007F4F09950F90DF91CF91089583E080931E
:1004F000E9008091F200882319F08AE38093E800F4
:10050000089583E00E94D00190E00895CF93DF9397
:100510001F92CDB7DEB7FC018485958597FD08C095
:100520002FEF3FEF358724870F90DF91CF9108950C
:10053000CE0101960E945201019719F4898190E041
:10054000F3CF8FEF9FEFF0CF0F931F93CF93DF93F6
:100550001F92CDB7DEB78C01FC018485958597FF8E
:100560000BC0CE0101960E945201019771F489815E
:1005700090E0F80195878487F801848595850F9030
:10058000DF91CF911F910F9108958FEF9FEFF1CFE2
:10059000FC018485958597FD0BC09FB7F89482E098
:1005A0008093E9008091F2009FBF90E0019608954A
:1005B0009FB7F89482E08093E9008091F2009FBF9A
:1005C00090E0089581508F3008F047C0E82FF0E0A8
:1005D000E451FD4F0C94631C09030D03FB0201035E
:1005E00005032D032D032D03100316031A031E0309
:1005F00024032D032803809180008F77809380004F
:100600000895809180008F7DF9CF80918000877F51
:10061000F5CF84B58F7784BD089584B58F7DFBCFEA
:10062000809190008F778093900008958091900042
:100630008F7DF9CF80919000877FF5CF8091C000AA
:100640008F778093C00008958091C0008F7DF9CF8F
:100650008091C200877F8093C20008951F93CF933B
:10066000DF93282F30E0F901EC5EFE4F8491F90111
:10067000EB50FF4FD491F901EA52FF4FC491CC23C4
:10068000A9F0162F81110E94E202EC2FF0E0EE0F8C
:10069000FF1FE853FF4FA591B4918FB7F894EC91E9
:1006A000111108C0D095DE23DC938FBFDF91CF916D
:1006B0001F910895DE2BF8CF3FB7F8948091040482
:1006C00090910504A0910604B091070426B5A89B5B
:1006D00005C02F3F19F00196A11DB11D3FBFBA2FD4
:1006E000A92F982F8827BC01CD01620F711D811D94
:1006F000911D42E0660F771F881F991F4A95D1F719
:1007000008958F929F92AF92BF92CF92DF92EF9215
:10071000FF924B015C010E945C036B017C010E9413
:100720005C036C197D098E099F09683E7340810541
:100730009105A8F321E0821A9108A108B10888EE7A
:10074000C80E83E0D81EE11CF11C81149104A104A1
:10075000B10429F7FF90EF90DF90CF90BF90AF905A
:100760009F908F9008957F928F929F92AF92BF92A9
:10077000CF92DF92EF92FF920F931F93CF93DF936D
:10078000C82E8B017A0180911D04811110C08FEF5A
:100790009FEFDF91CF911F910F91FF90EF90DF902E
:1007A000CF90BF90AF909F908F907F900895809151
:1007B0001A0480FF05C08091E00082608093E00011
:1007C000CE2DDF2DD12C8AEFB82E8C2D8770982E50
:1007D0008C2D8072882E8C2D8074782E9AE3A92E11
:1007E000209719F4DD2009F452C08C2D0E94D0010D
:1007F00081110AC0BA94BB2051F261E070E080E040
:1008000090E00E948103ECCF8C171D0611F00CF0D4
:100810008C2F9FB7F8949092E9002091E80025FD75
:1008200002C09FBFDDCF282F30E0C21BD30B882032
:1008300029F08150A0F01092F100FBCFF801C7FC25
:100840000AC0815050F041914093F100FACF449199
:100850004093F10031968150D0F7020F131FDD2035
:1008600021F0A092E800D12CDCCF8091E80085FD3A
:1008700007C0A092E800DD24D394209791F2F3CF33
:10088000209779F6772069F2A092E800CACF5D98A8
:1008900084E680931B04C7017CCFCF93DF93EC01E8
:1008A00080910F01882331F083E00E94B303181672
:1008B000190634F081E090E09B838A8380E090E029
:1008C000DF91CF9108958EBD00000DB407FEFDCFDE
:1008D0008EB508958FEF0C9463040F931F93CF93FD
:1008E000DF938C012FB7F89480911E0490911F0420
:1008F000A0912004B09121042FBFEC010E946A0452
:100900008F3FB1F02FB7F89480911E0490911F048F
:10091000A0912004B09121042FBF8C1B9D0B801748
:10092000910760F380E0DF91CF911F910F910895BF
:1009300081E0F9CFDC01FB0112962C9112978481A2
:1009400095812817190641F491818081813A31F40B
:100950009D7F81E0913009F080E008958132E1F7D8
:100960009B3029F482811F968C9381E008959A3000
:1009700099F7828150968C93F8CFDC01FB0188E4D3
:10098000808389E4818384E482831D969C911D97F2
:100990009F709F5B93831D968D919C9124E096950B
:1009A00087952A95E1F78F708F5B848385E00895A2
:1009B000EF92FF920F931F93CF93DF93FB01208160
:1009C000213871F52381223259F5DC0112964C91C0
:1009D000248135814217130619F5EC010B851C851E
:1009E000F12CE12C0115110589F0F80144815581A4
:1009F0006281738180E80E94AA018F3F980749F0C5
:100A0000E80EF91ED8010D911C91ECCF81E08F8783
:100A1000C701DF91CF911F910F91FF90EF90089543
:100A200090E080E0F6CFCF93DF93CDB7DEB7699744
:100A30000FB6F894DEBF0FBECDBFFC01DB018C9179
:100A40008F5F8C939E012D5F3F4F8DE0D9011D92EA
:100A50008A95E9F729E0298384E08A8391E09D83E0
:100A600083E08E832A8721E22B879C879D879F873F
:100A700022E2288B27E02B8B25E02C8B8E8B20E429
:100A800030E0388F2F8B998F82818B839585868577
:100A9000998B8A8B838180688D8B49E150E0BE0100
:100AA0006F5F7F4F80E00E94AA0169960FB6F894AD
:100AB000DEBF0FBECDBFDF91CF910895CF92DF9201
:100AC000EF92FF921F93CF93DF931F92CDB7DEB7C4
:100AD0007B016A018091CE0481112AC011E010933C
:100AE000C1041093C20487EC94E09093C4048093F3
:100AF000C3041092C6041092C50485E491E090935B
:100B0000BE048093BD041092C9041092C8041092D0
:100B1000CB041092CA041093CC041093CD0481EC42
:100B20008093C7040E941B020E940C011093CE0404
:100B300084E0898341E050E0BE016F5F7F4F809188
:100B4000C0040E94B30397FD07C08091C004A601B2
:100B5000B70180640E94B3030F90DF91CF911F9182
:100B6000FF90EF90DF90CF900895CF93DF93EC014B
:100B7000E6EEF4E090E080E0219131910196232BA4
:100B800041F5880F991FFC01EC51FB4FD183C083C5
:100B900048E050E066EE74E084EE94E00E945E056A
:100BA000E4EEF4E08CEE94E022813381C217D307A7
:100BB00011F41382128232968E179F07A9F748E02C
:100BC00050E066EE74E084EE94E0DF91CF910C94F7
:100BD0005E058430910581F6DBCFCF93DF93EC0186
:100BE000CD2FDD27C695C695C695AFE0B2E0CA9F6A
:100BF000F001CB9FF00DDA9FF00D11247796C6E03F
:100C0000F695E795CA95E1F7EB01E883FC01D5E09D
:100C1000F695E795DA95E1F7EF73FF27C3E0D1E0AA
:100C2000EC9FB001ED9F700DFC9F700D11246F5D66
:100C30007F4FE6E076956795EA95E1F7FA016083E4
:100C4000AC014F7155274A9FC0014B9F900D5A9F91
:100C5000900D11244796F6E096958795FA95E1F761
:100C6000E9018883DF91CF9108958FB7F89480913F
:100C7000FC018FBF089561E0FC0184810E942E0376
:100C80008091FD0181111092FD010895DC015596BE
:100C9000ED91FC91569790815A968C91892B808387
:100CA0007EBD0DB407FEFDCF6EBD0DB407FEFDCFBA
:100CB0000895DC015596ED91FC91569790815A96D6
:100CC0008C91892B80836EBD0DB407FEFDCF0895F6
:100CD000DC015596ED91FC91569790815A968C9136
:100CE0008095892380836EBD0DB407FEFDCF0895E6
:100CF000DF92EF92FF920F931F93CF93DF93EC015C
:100D0000D62E142FF22EEE2039F08FA9882321F051
:100D1000F02E022FD42E162F65E1CE010E94680618
:100D20006D2DCE010E9459066F2DCE010E945906ED
:100D300065E7CE010E946806612FCE010E94590628
:100D4000602FCE010E9459066CE5CE01DF91CF9154
:100D50001F910F91FF90EF90DF900C946806DC01DB
:100D60005596ED91FC91569790815A968C91892BCE
:100D70008083215031094109510948F00DB407FE23
:100D8000FDCF7EBD0DB407FEFDCF6EBDF2CF0DB41D
:100D900007FEFDCF0895FC0124A52130F9F42FE9C9
:100DA000260F2A3108F46052FC01A0A1B1A12C91B8
:100DB00030E090E080E082179307C4F4AC01440F68
:100DC000551F480F591F1196ED91FC911297E40F92
:100DD000F51F4081461761F00196EDCF223021F7D3
:100DE0002FEB260F2A3100F7605EDECF8FEF9FEFEB
:100DF00008952F923F924F925F926F927F928F92BF
:100E00009F92AF92BF92CF92DF92EF92FF920F9399
:100E10001F93CF93DF93CDB7DEB762970FB6F894E9
:100E2000DEBF0FBECDBF5C01390148012701223072
:100E300031050CF02DC10230110544F58A010F5F18
:100E40001F4F9B012F5F3F4FEE24E394C5010E948B
:100E50007806B201C5010E94460662960FB6F89464
:100E6000DEBF0FBECDBFDF91CF911F910F91FF90DD
:100E7000EF90DF90CF90BF90AF909F908F907F903A
:100E80006F905F904F903F902F900895040F151F23
:100E900001501109EE24E3949B01C5010E947806DC
:100EA000B201C5010E944606B1E08B1A9108C1F754
:100EB000D4CF8401040F151F0150110921503109AD
:100EC000EE24E394C5010E9478064C145D0409F4F5
:100ED000CFC09E012E5F3F4FAE014C5F5F4FBE0102
:100EE0006A5F7F4FC2010E94ED059E012F5F3F4F59
:100EF000AE014D5F5F4FBE016B5F7F4FC6010E9429
:100F0000ED05312C212CC401B0E0A0E08B879C873B
:100F1000AD87BE87C301770CAA0BBB0B8F87988B5D
:100F2000A98BBA8BB10190E080E00E94681B6B0135
:100F30007C016B857C858D859E850E94681B9B014D
:100F4000AC01C701B6010E94C71A6B017C01AC015C
:100F50009B0160E070E080E89FE30E945A1A2B0139
:100F60003C016E8170E090E080E00E946A1BA3016A
:100F700092010E94F61B6F83788789879A876D811B
:100F800070E090E080E00E946A1BA70196010E9439
:100F9000F61B9B01AC016F81788589859A850E943B
:100FA0005B1A0E94391B062F10E0102F0027002724
:100FB000187F6C8170E090E080E00E946A1BA301C2
:100FC00092010E94F61B6F83788789879A876B81CD
:100FD00070E090E080E00E946A1BA70196010E94E9
:100FE000F61B9B01AC016F81788589859A850E94EB
:100FF0005B1A0E94391B98E0699FB0011124607E42
:101000007770062B172B6A8170E090E080E00E94D9
:101010006A1BA30192010E94F61B2B013C0169810E
:1010200070E090E080E00E946A1BA70196010E9498
:10103000F61B9B01AC01C301B2010E945B1A0E9426
:10104000391B70E093E0759567959A95E1F7602BF1
:10105000712B2F85388949895A89C5010E94AF06AD
:10106000AFEF2A1A3A0A8214930409F05BCFF5CE47
:10107000689C9001699C300D789C300D1124032EE2
:10108000000C440B550BB201C5010E94AF06E5CE22
:10109000260F371F023011050CF00BCF21503109FC
:1010A000EE24E3948A01C5010E947806B201C501CD
:1010B0000E944606A1E06A1A7108C1F7CECE8CBD27
:1010C0009DBD0895CF93DF93EC018091FD018111C7
:1010D00009C081E08093FD018091720490917304B6
:1010E0000E945F0860E08C81DF91CF910C942E0309
:1010F000CF92DF92EF92FF920F931F93CF93DF93E4
:10110000EC01162F69017A018E81882389F08F8185
:1011100098859C012F5F3F4F38872F838230924004
:1011200018F40E946A04F3CFCE010E943B061E828F
:10113000CE010E9462088CE291E00E946D04812F32
:1011400080640E94630408E110E0D701C601002E0C
:1011500004C0B695A795979587950A94D2F70E94F3
:10116000630408501109083F8FEF180771F78FEFDC
:101170000E94630410E00E946A048A8787FF04C00B
:101180001F3F11F01F5FF7CFDF91CF911F910F919C
:10119000FF90EF90DF90CF900895CF92DF92EF9283
:1011A000FF920F93CF93DF93EC01690182E1411528
:1011B00051056105710599F08B85833039F089E01F
:1011C000440F551F661F771F8A95D1F79A01AB010F
:1011D00068E1CE010E947808882319F084E08D83AD
:1011E0002DC08EEF0E94630476018EEFD81AF701AE
:1011F00081917F010E946304EC14FD04C1F78FEF1D
:101200000E9463048FEF0E9463040E946A048A872D
:101210008F71853071F4011116C0CE010E943B061A
:1012200081E0DF91CF910F91FF90EF90DF90CF9011
:10123000089581E18D83CE010E943B06CE010E947C
:101240003B0680E0EECF88E592E00E946D048111BC
:1012500002C085E1C4CF20E030E0A9016DE0CE01FD
:101260000E947808882311F084E1B9CF0E946A04B3
:101270008111FACFD2CF0F934091FF01509100021C
:1012800060910102709102024115510561057105DD
:1012900089F0082F23E032E090E080E00E94CD0842
:1012A000882349F01092FF0110920002109201026F
:1012B0001092020281E00F9108950F93CF93C82FEF
:1012C0008091FE01811105C0C1E08C2FCF910F915B
:1012D00008954091000150910101609102017091C7
:1012E00003010C2F23E032E090E080E00E94CD0863
:1012F000811102C0C0E0E9CFCC2331F381E00E942C
:101300003B098823B9F31092FE01DFCFAF92BF9261
:10131000CF92DF92EF92FF921F93CF93DF936B01F7
:101320007C01142F8091000190910101A091020194
:10133000B09103018C159D05AE05BF0509F4BFC032
:1013400081E00E945D098823E1F1809106008823F5
:10135000A1F08091000090910100A0910200B09155
:101360000300C816D906EA06FB0639F48091070087
:1013700090910800892B09F461C0C0920000D092BE
:101380000100E0920200F092030080910B00A7019F
:101390009601833039F099E0220F331F441F551F07
:1013A0009A95D1F761E190E080E00E947808882367
:1013B00091F083E08093050090E080E00E943B067E
:1013C00080E0DF91CF911F91FF90EF90DF90CF9061
:1013D000BF90AF9008952FB7F89480911E0490911C
:1013E0001F04A0912004B09121042FBFEC010E94A2
:1013F0006A0480930A008F3FC1F42FB7F89480915C
:101400001E0490911F04A0912004B09121042FBFCD
:101410008C1B9D0B8D32914050F38FE08093050023
:1014200090E080E00E943B06C7CF8E3FC1F510924E
:1014300008001092070081E080930600C3E0D2E02C
:1014400083E0A82E84E0B82E0E946A048993AC162B
:10145000BD06D1F780910700909108009E5F9093A0
:1014600008008093070020910900222319F08115BC
:101470009240E8F0809106008823C9F0809107002F
:10148000909108009C012F5F3F4F309308002093FC
:1014900007008230924028F40E946A04EFCF8DE06A
:1014A000BDCF90E080E00E943B0610920600C09203
:1014B0000001D0920101E0920201F09203014091FB
:1014C000FE01412B4093FE0181E07BCF4F925F9262
:1014D0006F927F928F929F92AF92BF92CF92DF9244
:1014E000EF92FF920F931F93CF93DF93EC01423063
:1014F00051056105710590F480E0DF91CF911F9156
:101500000F91FF90EF90DF90CF90BF90AF909F90A2
:101510008F907F906F905F904F90089589859A8506
:10152000AB85BC850196A11DB11D84179507A60743
:10153000B70710F3CB88DC88ED88FE888F8980316F
:1015400009F042C0BB27A72F962F852F48015901CC
:101550002A013B01C80ED91EEA1EFB1E8091000124
:1015600090910101A0910201B0910301C816D90622
:10157000EA06FB0699F58F898031C1F5B301A20116
:10158000552766277727440F551F4D5F5D4FFA019A
:10159000918280828091FE0181608093FE018A8920
:1015A000823080F08D819E81AF81B8858C0D9D1D2C
:1015B000AE1DBF1D8093FF0190930002A093010216
:1015C000B093020281E099CFDB01CA01E7E0B69552
:1015D000A79597958795EA95D1F7B8CF40E0C701D1
:1015E000B6010E9486098111C6CF86CFB301A20140
:1015F0004F77552766277727440F551F440F551FF0
:101600004D5F5D4FFA0180829182A282B382C2CF88
:101610008F929F92AF92BF92CF92DF92EF92FF9202
:101620000F931F93CF93DF93FC0181859285A38550
:10163000B4850196A11DB11D84179507A607B707AC
:1016400070F480E0DF91CF911F910F91FF90EF90A8
:10165000DF90CF90BF90AF909F908F900895838838
:101660009488A588B6888789803189F5BB27A72FFC
:10167000962F852FE9016A017B018F01BC01CD0105
:10168000680D791D8A1D9B1D8090000190900101BD
:10169000A0900201B090030186169706A806B9062D
:1016A00001F5F8018789803111F5DD24EE24FF244E
:1016B000F601EE0FFF1FED5FFD4F80819181B0E0DD
:1016C000A0E088839983AA83BB8381E0BBCFDB0141
:1016D000CA01C7E0B695A79597958795CA95D1F7A2
:1016E000C9CF40E00E9486098111DBCFAACFE894E0
:1016F000C7F8DD24EE24FF24F601EE0FFF1FEE0FE6
:10170000FF1FED5FFD4F80819181A281B381BF708A
:10171000D8CF8F929F92AF92BF92CF92DF92EF92EB
:10172000FF920F931F93CF93DF93EC018D81811173
:101730000EC080E0DF91CF911F910F91FF90EF904D
:10174000DF90CF90BF90AF909F908F9008950B89BE
:101750001C892D893E89041715072607370748F38A
:101760004A015B01823031F48A869B86AC86BD8655
:1017700081E0E0CF81149104A104B10449F41E82F8
:101780001F82188619861A861B861C861D86F0CF36
:101790000A851B852C853D85EB8DFC8D858590E02C
:1017A0000996B901A8014150510961097109082E32
:1017B00004C076956795579547950A94D2F77501B9
:1017C0006401E1E0CE1AD108E108F10804C0F69402
:1017D000E794D794C7948A95D2F7C416D506E6063F
:1017E000F70620F0012B022B032B11F58F89988D22
:1017F000A98DBA8D8E839F83A887B9878E010A5FD2
:101800001F4FC114D104E104F10409F4ADCF4E819E
:101810005F816885798598018B8D9C8D0E94080B6E
:1018200091E0C91AD108E108F1088111EACF81CF0E
:10183000C41AD50AE60AF70AE1CF3F924F925F92A7
:101840006F927F928F929F92AF92BF92CF92DF92D0
:10185000EF92FF920F931F93CF93DF93CDB7DEB735
:101860002C970FB6F894DEBF0FBECDBF5C01DC0134
:101870005B968D909C905C9716964D905D906D90C8
:101880007C901997411451046104710409F468C0F3
:10189000BFEF4B1A5B0A6B0A7B0A312CF40181857E
:1018A0009285A385B4859C01AD012F5F3F4F4F4FBB
:1018B0005F4F29873A874B875C87730162011D82DE
:1018C0001E821F821886F40181859285A385B485C6
:1018D0002D813E814F815885281739074A075B07BC
:1018E00008F056C089859A85AB85BC858C159D0509
:1018F000AE05BF0550F482E0C82ED12CE12CF12CAE
:1019000092E0492E512C612C712C9E012F5F3F4F8C
:10191000B701A601C4010E94080B8823C9F189817F
:101920009A81AB81BC81892B8A2B8B2B09F12601F3
:1019300037019FEF491A590A690A790A2D813E81B8
:101940004F8158852F5F3F4F4F4F5F4F2D833E8311
:101950004F8358873FEFC31AD30AE30AF30AB3CF82
:10196000F40140805180628073803324339496CF99
:10197000C414D504E604F70409F70FEF1FEF2FEFA7
:101980003FE0B701A601C4010E94660A811119C097
:1019900080E02C960FB6F894DEBF0FBECDBFDF916E
:1019A000CF911F910F91FF90EF90DF90CF90BF905C
:1019B000AF909F908F907F906F905F904F903F90EF
:1019C0000895D50116964D915D916D917C91199771
:1019D000411551056105710539F097018601C40172
:1019E0000E94660A8823A1F2D5011696CD92DD9257
:1019F000ED92FC921997332051F0D701C601019660
:101A0000A11DB11DF40180839183A283B383F501ED
:101A10008789908DA18DB28D892B8A2B8B2B39F4E0
:101A20008481C78AD08EE18EF28E80688483F5012E
:101A300084818062848381E0ACCF1F93CF93DF9356
:101A4000EC01162F8C8187FF2AC06E857F858889DF
:101A5000998941E00E948609882361F1EA8980E240
:101A6000E89FF0011124ED5FFD4F309719F18D8152
:101A7000823040F48B899C89AD89BE89848F958F93
:101A8000A68FB78F8F89988D938F828F8F89988D2E
:101A9000A98DBA8DB58BA48B8C818F778C83111116
:101AA00003C08C818F7E8C83812FDF91CF911F911A
:101AB0000C945D0980E0DF91CF911F9108951F93F1
:101AC000CF93DF93EC018D81813031F090E080E0A5
:101AD000DF91CF911F9108958C8181FFF7CF82FD17
:101AE0001BC090E080E00E9462080E946A04182FE8
:101AF00090E080E00E943B061F3F41F78C8185FF0C
:101B00001EC08D81882321F060E0CE010E941D0D52
:101B10008C818F7D8C83DACF4B895C896D897E893E
:101B20008A859B85AC85BD8584179507A607B70771
:101B3000C1F2CE010E94890B8111D3CFC7CF409152
:101B4000FF01509100026091010270910202452B49
:101B5000462B472B21F080E00E943B09B7CF8061E4
:101B60008C832A853B85317080E092E0821B930B49
:101B7000AFCF9F92AF92BF92CF92DF92EF92FF9240
:101B80000F931F93CF93DF9300D000D01F92CDB758
:101B9000DEB78C016D83DC0115968C911597813031
:101BA00009F0B9C014968C9181FFB5C082FD9FC029
:101BB000D8015B96ED91FC915C971A96AD90BD9023
:101BC000CD90DC901D9794809A94B601A50189E090
:101BD00076956795579547958A95D1F79422B1E008
:101BE000BB22992009F49FC0D8015B96ED91FC912E
:101BF0005C971696CD90DD90ED90FC901997B2E031
:101C0000CB1AD108E108F108858504C0CC0CDD1C95
:101C1000EE1CFF1C8A95D2F746855785608971892D
:101C2000C40ED51EE61EF71EC90CD11CE11CF11C0A
:101C3000A114B10409F00AC1F801428553856485F5
:101C4000758583899489A589B689481759076A07D4
:101C50007B0708F4FBC081E00E945D09882309F43A
:101C60005AC0C0920001D0920101E0920201F092AC
:101C700003018091FE0181608093FE01F501ED5F1B
:101C8000FD4F8D818083F80182859385A485B5857C
:101C90000196A11DB11D82879387A487B5874389CB
:101CA000548965897689481759076A077B0738F48C
:101CB0002481838B948BA58BB68B20682483D801D9
:101CC00014968C9183FD9FC081E090E00F900F905F
:101CD0000F900F900F90DF91CF911F910F91FF9078
:101CE000EF90DF90CF90BF90AF909F900895F80154
:101CF000438954896589768982859385A485B585CC
:101D0000481759076A077B0709F452CFC8010E9498
:101D1000890B81114DCF81E090E0D80113969C93FF
:101D20008E93129749C0D80116964D915D916D9191
:101D30007C911997A114B10409F071C041155105A6
:101D40006105710589F557968D919D910D90BC9116
:101D5000A02D0097A105B10509F04FC0C8010E9450
:101D60001D0C8823C1F2D8015B96ED91FC915C9724
:101D70001696CD90DD90ED90FC901997B2E0CB1ABD
:101D8000D108E108F108858504C0CC0CDD1CEE1CEF
:101D9000FF1C8A95D2F74685578560897189C40EE4
:101DA000D51EE61EF71E48CF9E012F5F3F4FCF0185
:101DB0000E94080B811103C090E080E087CF8981E9
:101DC0009A81AB81BC81F801238D348DF90127897B
:101DD00048EF5FEF60E070E0203121F048EF5FEF07
:101DE0006FEF7FE084179507A607B70730F0C801AB
:101DF0000E941D0C8111F8CE8ECFF8018683978347
:101E0000A087B187F1CEF8018581882309F483CFBB
:101E100061E0C8010E941D0D811156CF7CCF6A017F
:101E20007B01B2E0CB1AD108E108F108858504C036
:101E3000CC0CDD1CEE1CFF1C8A95D2F7468557851D
:101E400060897189C40ED51EE61EF71E41E0C701E8
:101E5000B6010E948609811111CF5DCFCF92DF922A
:101E6000EF920F931F93CF93DF93EC016B0180915F
:101E7000EE049091EF040E945F08EB89FC89908149
:101E8000898D809589238083E12C0FE710E02FE76F
:101E900030E050E040E070E060E0CE010E94780663
:101EA00020E030E440E050E0B601CE010E94AF06F1
:101EB000EB89FC898081998D892B8083DF91CF917B
:101EC0001F910F91EF90DF90CF900895089590E0CB
:101ED00080E00895CF93DF9370E0FB01EC5EFE4F4E
:101EE0008491FB01EB50FF4FD4916A527F4FFB016D
:101EF000C491CC23A1F081110E94E202EC2FF0E00A
:101F0000EE0FFF1FE654FF4FA591B491EC91ED2326
:101F100081E090E009F480E0DF91CF91089580E0C6
:101F200090E0FACF862F642F0C942E03CF93DF938B
:101F300070E0FB01EB50FF4F24916A527F4FFB0191
:101F400084918823C9F090E0880F991FFC01E45523
:101F5000FF4FA591B491FC01E853FF4FC591D49177
:101F600041110DC09FB7F8948C91209582238C93DA
:101F70008881282328839FBFDF91CF910895423025
:101F800051F49FB7F8943C91822F809583238C93D2
:101F9000E8812E2BEFCF8FB7F894EC912E2B2C935A
:101FA0008FBFEACF0F931F93CF93DF93EC018B0189
:101FB000E881F9810280F381E02D099518870F836C
:101FC0001A8709871C870B8781E0DF91CF911F91CA
:101FD0000F9108952F923F924F925F926F927F924E
:101FE0008F929F92AF92BF92CF92DF92EF92FF9229
:101FF0000F931F93CF93DF93CDB7DEB76B970FB6D9
:10200000F894DEBF0FBECDBF9E838D833B014A8710
:102010005B8738872F831801C9862DB73EB7398F64
:10202000288FC80101966DB77EB7681B790B0FB674
:10203000F8947EBF0FBE6DBF8DB79EB701969D878A
:102040008C87E9A9FAA92BA93CA9E217F307C9F0E3
:10205000AE9C8001AF9C100D112488A9820D932D98
:10206000911DC89E9001C99E300D1124CBA8DCA8FB
:1020700076014F8158856A857B858D819E810E947E
:10208000F9062301B301680D791D798B688B50E047
:1020900040E0B12C20E08A2D90E09F878E87398523
:1020A000329DF001339DF00D1124FB8FEA8F68897A
:1020B00079896415750509F493C0F201849167E08C
:1020C00070E07C836B83E82FF0E0FF8BEE8BEC8578
:1020D000FD85E20FF11D8E899F890B8002C09595C9
:1020E00087950A94E2F7382F317030832F5F817023
:1020F0009927480F591F22151304E9F4411551057A
:10210000B1F02416350621F54F81AB9C400D11240A
:1021100050E0CBA8DCA8E9A8FAA80E851F852A8D77
:102120003B8D6A857B858D819E810E94F906B394E3
:1021300050E040E020E06B817C81615071097C833C
:102140006B836F3F7F4F19F69FEF491A590AAFCF44
:102150002F813885AB9C200D311D11243B8B2A8BA0
:102160003A8539834B854A83712C612C812CAC854F
:10217000BD85A60DB71D62147304CCF62C91FD012C
:10218000C30128163906BCF33191231306C0281663
:10219000390619F083940196F4CF682D70E07D8B99
:1021A0006C8B7985789D40011124222371F0C9A898
:1021B000DAA876010E851F8594014A895B896981B9
:1021C0007A818D819E810E94F9068C899D89680E95
:1021D000791EE981FA81E80DF91DFA83E983C6CFFA
:1021E000E88DF98D0FB6F894FEBF0FBEEDBF6B966C
:1021F0000FB6F894DEBF0FBECDBFDF91CF911F9118
:102200000F91FF90EF90DF90CF90BF90AF909F9095
:102210008F907F906F905F904F903F902F90089598
:10222000FB0101900020E9F73197AF01461B570BE6
:10223000DC01ED91FC910280F381E02D09940F9374
:102240001F93CF93DF93EC010E9410118C0169E77B
:1022500071E0CE010E941011800F911FDF91CF918C
:102260001F910F9108956CE771E082E294E00C9465
:102270001F110F931F93CF93DF93EC01662379F126
:1022800089EE90E00E94B505EC81FD8185859685FB
:1022900024813581820F931F9687858787858823C0
:1022A000C9F00F811885F80160AD71ADC8010E94B9
:1022B0002E0FF801148613861286118664E971E0E8
:1022C0008F8198850E941F116BE971E08F8198853D
:1022D0000E941F11DF91CF911F910F9108958AEEF7
:1022E00090E00E94B505EC81FD818585968524816D
:1022F0003581821B930B968785878785882351F3C9
:1023000009851A85F80160AD71ADC8010E942E0FD4
:10231000F801148613861286118664E971E08985B6
:102320009A850E941F1166EA71E089859A85D0CF4F
:10233000EF92FF920F931F93CF93DF93EC0163EB28
:1023400071E082E294E00E941F1160E0CE010E94E1
:102350003911EC81FD81178604E610E060E0CE01C2
:102360000E9439116AE070E080E090E00E948103F1
:102370000150110999F7EC81FD8181E0878716866C
:102380001586E280F38011E0EC81FD8185859685DC
:102390008E159F058CF46AE070E080E090E00E946A
:1023A000810361E0CE010E943911112369F3EC81B0
:1023B000FD81178610E0E8CFEC81FD81858596854B
:1023C000E816F9068CF46AE070E080E090E00E9484
:1023D000810360E0CE010E943911112369F3EC8181
:1023E000FD81178610E0E8CF81E087876CEC71E013
:1023F0008A819B81DF91CF911F910F91FF90EF9088
:102400000C941F11EF92FF920F931F93CF93DF93C2
:10241000EC017B018A0161EE71E082E294E00E94AE
:102420001F11FB82EA821D830C8381E08E83DF9182
:10243000CF911F910F91FF90EF9008952F923F92AF
:102440004F925F926F927F928F929F92AF92CF92B4
:10245000DF92EF92FF920F931F93CF93DF93EC01E4
:102460003B011A01452B51F4FB0101900020E9F7D3
:1024700031971F01261A370A09F469C219A51123D9
:1024800009F491C0C8A0D9A0D60113968C9173010C
:10249000512C412C882309F459C08E8D9F8D289E84
:1024A0002001299E500C389E500C11242FA1249DF0
:1024B000C001259D900D112497FD01969595879556
:1024C000F60124813581231B330B68A5629FA0018F
:1024D000639F500D112457FF02C04F5F5F4F55950A
:1024E00047952FA9143008F0B8C0222309F496C0EC
:1024F000113009F03CC02D813E8137FF02C02F5FB3
:102500003F4F35952795281B31093C872B873EC0C7
:102510006D30E1F06A30D1F0CE010E94CB0697FD1C
:1025200015C0FC01EE0FFF1F8E0F9F1FD6011196E5
:10253000ED91FC91E80FF91F0180F281E02D3296B8
:10254000E4914E0E511CEAA14E0E511CC701861992
:102550009709821593050CF0A9CFF70161917F01CE
:102560006032B1F68E8D9F8D480E591EEFCF2F81B0
:10257000388537FF02C02F5F3F4F35952795241BC5
:1025800031093A872987123009F0B5CF89859A85B4
:1025900097FF02C01A8619868B859C8597FF02C01B
:1025A0001C861B8619A68091EE049091EF040E9470
:1025B0005F08EB89FC899081898D809589238083D0
:1025C000260C371C2614370409F4BBC1D3016D91C6
:1025D0003D016D30B9F36A3009F072C0E8A1F9A18C
:1025E00084819AA5890F98A5899F802D112490E058
:1025F0002FA9211152C02B853C854F815885280F6A
:10260000391F421753070CF49CC11A8619862B8573
:102610003C85820F931F9C878B87D4CF113069F440
:102620002D813E8137FF02C02F5F3F4F35952795A3
:10263000281B31093A872987A9CF2F81388537FF91
:1026400002C02F5F3F4F35952795241B31093C87EA
:102650002B87123009F49ACFE3CF222379F014307C
:1026600019F42B853C854FCF29853A85241B3109E8
:102670003A872987153009F489CFF3CF143019F43C
:1026800029853A85D5CF2B853C85241B31093C878C
:102690002B87153009F47ACFF3CF29853A854D8100
:1026A0005E81280F391F421753070CF44AC1298550
:1026B0003A85820F931F9A8789871C861B8682CF53
:1026C000603209F06BC0FAA18E8D9F8D8F0F911D26
:1026D0002BA13CA1EDA0FEA04FA9411133C0EFA159
:1026E000E89F502C1124E216F30629F189859A857A
:1026F0002D813E81850D911D8217930734F08D81C8
:102700009E8129853A85582E521A4B855C856985AC
:102710007A85A8A1B9A114968C9108A5809F800103
:102720001124252D30E0FE9F200D311D112467015D
:10273000CE010E94F90689859A85850D911D9A879B
:10274000898740CF98A4989E902C1124E216F30616
:1027500001F18B859C852F813885890D911D82170C
:10276000930734F08F8198852B853C85982E921A9B
:1027700049855A856B857C85E8A1F9A104818FA1E3
:10278000089F80011124292D30E06701CE010E94AD
:10279000F9068B859C85890D911D3DCFCE010E9448
:1027A000CB0697FD0FCFA8A1B9A18C01000F111F77
:1027B000080F191F1196ED91FC911297E00FF11F70
:1027C00061817281FB013296D4904D2C512C8FA9DE
:1027D0004AA19BA5992309F4A1C0811179C08985DB
:1027E0009A855FA12D813E81D59E800D911D11247A
:1027F000549F800D911D112482179307A4F01A860F
:1028000019862B853C8514964C918AA5480F55272F
:10281000551FE8A5E49FC001E59F900D1124820F8C
:10282000931F9C878B8742E050E08AEF91E00E94E3
:10283000511A6091FA017091FB01A8A1B9A11196FA
:102840008D919C911297080F191FF8018181928137
:10285000FC013396859094909FA914968C919111C8
:102860008CC04B855C85E82EF12CA8A42F8138857F
:102870008A9D400D511D1124241735070CF461C0A9
:102880002B853C8549855A858EA18F938DA18F9389
:102890008CA18F938BA18F938AA18F93CFA082015C
:1028A000CE010E94EA0F29853A859AA1490E511C52
:1028B0004FA1449DC001459D900D1124820F931F8F
:1028C0009A8789870F900F900F900F900F907ACE74
:1028D0008B859C8558A52D813E81D59E800D911DAF
:1028E0001124549F800D911D1124821793070CF41D
:1028F0009ACF49855A8514962C918AA5280F33279B
:10290000331FEFA1E29FC001E39F900D1124840FBC
:10291000951F9A8789871C861B8685CF882349F156
:102920008B859C8558A52D813E81D59E800D911D5E
:102930001124549F800D911D1124821793070CF4CC
:1029400072CFEB89FC898081998D892B8083DF91FF
:10295000CF911F910F91FF90EF90DF90CF90AF90AC
:102960009F908F907F906F905F904F903F902F90AF
:10297000089589859A855FA1D6CF49855A85E82E25
:10298000F12CCFA02D813E818C9D400D511D112435
:1029900024173507B4F229853A854B855C858EA1CD
:1029A0008F938DA18F938CA18F938BA18F938AA1ED
:1029B0008F93A8A48201CE010E94EA0F8B859C858B
:1029C0003AA128A5EFA1DE9EF0011124329FE00D6F
:1029D000F11D1124E80FF91FFC87EB8773CFCF930C
:1029E000DF93EA010E941E12CE01DF91CF9108957C
:1029F000CF93DF931F92CDB7DEB7698341E050E0FC
:102A0000BE016F5F7F4F0E941E1281E090E00F9029
:102A1000DF91CF9108951F920F920FB60F9211245C
:102A20008F939F938091E1009091E100937F909329
:102A3000E10083FF0FC01092E90091E09093EB005A
:102A40001092EC0092E39093ED0010921D0498E038
:102A50009093F00082FF22C093E09093E900909160
:102A6000F200992319F09AE39093E80090911B04E7
:102A7000992341F090911B04915090931B04911164
:102A800001C05D9A90911C04992341F090911C041F
:102A9000915090931C04911101C0289A84FF18C092
:102AA0008091E2008E7E81608093E2008091E1005F
:102AB0008F7E8093E10080911A048E7E80618093E6
:102AC0001A049F918F910F900FBE0F901F90189531
:102AD00080FFF7CF8091E2008E7E80618093E200DC
:102AE0008091E1008E7E8093E10080911A048E7EB9
:102AF0008160E5CF1F920F920FB60F921124CF92F3
:102B0000DF92EF92FF920F931F932F933F934F9378
:102B10005F936F937F938F939F93AF93BF93EF9345
:102B2000FF93CF93DF93CDB7DEB76C97DEBFCDBFFA
:102B30001092E9008091E80083FF25C068E0CE0193
:102B400045960E94E10182EF8093E8008D8987FF1E
:102B500039C09091E80090FFFCCF982F907609F053
:102B600034C19E894F89588D2F89F88C911131C0BD
:102B7000803861F5809119048093F1001092F10082
:102B80008EEF8093E8006C960FB6F894DEBF0FBE10
:102B9000CDBFDF91CF91FF91EF91BF91AF919F9109
:102BA0008F917F916F915F914F913F912F911F91E5
:102BB0000F91FF90EF90DF90CF900F900FBE0F908E
:102BC0001F9018959EEF9093E800C7CF1092F100E8
:102BD000D5CF913059F48111D3CF4130510581F6D1
:102BE000809119048D7F80931904CACF933049F4E2
:102BF0008111C6CF4130510519F6809119048260C8
:102C0000F2CF953041F48091E80080FFFCCF20683E
:102C10002093E300B5CF963009F0A9C00B8D1C8D31
:102C200022E01092E9001092170410921604F2129A
:102C30002EC010921504109214040E942F021F82BD
:102C400099E09983FA8291E09E8390EA98879AEFBF
:102C500099872091160430911704275F3F4F3C83DA
:102C60002B838D831092E9001092170410921604A2
:102C7000109315040093140449E050E0BE016F5F07
:102C80007F4F80E00E94AA010E942F0279CF10930B
:102C90001504009314040E941B02DC0112960D918E
:102CA0001C910115110509F451C1D801ED91FC9158
:102CB0000480F581E02DBE016B5E7F4FC801099550
:102CC000009709F03EC1F80100851185EACFF3E0D5
:102CD000FF120EC08F89882309F440C0823061F44E
:102CE00040E860E187E991E00E94F617811148CF42
:102CF00081E28093EB0047CF813029F440E86BE01C
:102D00008BE891E0F1CF833099F70E941B02DC0140
:102D10001296ED90FC908E010F5F1F4F6801E11439
:102D2000F10479F0D701ED91FC910680F781E02D57
:102D3000B801C7010995080F111DF701E084F1845E
:102D4000EECFD8011C92F60101900020E9F73197EF
:102D5000BF016C197D0940E0C601C6CF65E771E08F
:102D6000FB01449150E080E80E94AA0109CF97300E
:102D700009F4BECF983021F481E08093F10000CFB8
:102D8000993009F0FDCE837009F0B2CFE1E1F1E0B6
:102D900081E031E096E32191222371F08093E900F4
:102DA0003093EB00DF0111972C912093EC0090936E
:102DB000ED008F5F873079F78EE78093EA001092FD
:102DC000EA008F8980931D04DBCE8B8D9C8D109241
:102DD000E900109217041092160490931504809342
:102DE0001404898D811192C08E899D89913A49F48C
:102DF000813209F07DCF47E050E068E071E080E08B
:102E0000B3CF913209F074CF833269F48F89988DF2
:102E1000B0E0A0E08093040190930501A093060127
:102E2000B0930701ADCE803269F48091E80082FF53
:102E3000FCCF67E088E091E00E94E1018BEF809396
:102E4000E8009ECE823209F09BCE8F8980930F01DD
:102E5000EEEFFFE7859194918B3F9C4D51F1E0E0BF
:102E6000F8E08091080190910901A0910A01B091C8
:102E70000B01803B9440A105B105F1F480910F0155
:102E800080FD1AC0EE3F8AE0F80789F587E797E7EB
:102E900091838083809160008093180488E19BE097
:102EA0000FB6F894A895809360000FBE90936000D1
:102EB00067CEEEEFFAE0D5CF8081918187379747D3
:102EC00009F05ECEA89580916000886180936000D3
:102ED0008091180480936000EE3F2AE0F20789F0A9
:102EE0008091FE0A9091FF0A9183808349CE808170
:102EF00091818737980751F29093FF0A8093FE0AD9
:102F0000C5CF1092FF0A1092FE0A3ACE0E941B0211
:102F1000DC0112960D911C910115110509F4E8CE02
:102F2000D801ED91FC910190F081E02DBE016B5E26
:102F30007F4FC8010995811123CEF80100851185C5
:102F4000EBCF181619060CF41BCED2CEF1E0FF120F
:102F5000BECE69E771E004CF1F920F920FB60F92B9
:102F600011242F933F938F939F93AF93BF9380919F
:102F70001E0490911F04A0912004B091210430916F
:102F8000030423E0230F2D3758F50196A11DB11D31
:102F90002093030480931E0490931F04A0932004A5
:102FA000B09321048091040490910504A09106043B
:102FB000B09107040196A11DB11D80930404909364
:102FC0000504A0930604B0930704BF91AF919F91AD
:102FD0008F913F912F910F900FBE0F901F901895DA
:102FE00026E8230F0296A11DB11DD2CFEF92FF92CA
:102FF0000F931F93CF93DF93F82E192FE62E042FF4
:1030000081E0860F880F0E947C0183E00E947C0192
:10301000CF2DD12FEC0EFD2EF11CCE15DF05B9F012
:1030200007FF13C0FE0184910E947C01182F80E0ED
:103030000E947C01812321968111EFCFDF91CF91F6
:103040001F910F91FF90EF9008958881EDCF81E05F
:10305000F5CFCF93109225041092240488EE93E0CC
:10306000A0E0B0E08093260490932704A093280466
:10307000B093290487E291E0909323048093220483
:103080008FEF9FEF90932F0480932E0480E5809321
:103090007204109273041092790410927A041092C0
:1030A0007D0410927F0482E090E0A0E0B0E0809385
:1030B000800490938104A0938204B09383041092BF
:1030C00097041092A1041092A00489E391E09093D8
:1030D0009F0480939E041092A30481E591E0909355
:1030E000E5048093E4048091DC04811113C0109204
:1030F000D7041092D60488EA91E09093D904809383
:10310000D80489E190E09093DB048093DA0481E0B5
:103110008093DC048091CE0481112AC0C1E0C09369
:10312000C104C093C20487EC94E09093C4048093DC
:10313000C3041092C6041092C50485E491E09093F4
:10314000BE048093BD041092C9041092C80410926A
:10315000CB041092CA04C093CC04C093CD0481EC7C
:103160008093C7040E941B020E940C01C093CE04EE
:10317000E091C804F091C904309709F0ECC086EDE5
:1031800094E09093C9048093C8048091CA049091FC
:10319000CB042091DA043091DB04820F931F9093CB
:1031A000CB048093CA0480E58093EE041092EF0470
:1031B00083E090E09093F1048093F00486E0E7E1EF
:1031C000F1E0A2EFB4E001900D928A95E1F7109240
:1031D000FD041092FC0421E631E03093FB042093BF
:1031E000FA0482E18093150597E0909316058FEF1E
:1031F0008093FE04109239051092380530933705FC
:103200002093360543E140935105909352058093F6
:103210003A0510927505109274053093730520934A
:10322000720524E120938D0590938E058093760599
:1032300081EF91E09093DC058093DB0584EF91E0D2
:103240009093DE058093DD0584EF91E09093E20595
:103250008093E10584E690E09093E4058093E30594
:1032600082E090E09093E6058093E50585E791E0A4
:103270009093F4058093F3058DE691E09093FB0520
:103280008093FA0580911D0190911E01A0911F016C
:103290008093070690930806A093090688E0809320
:1032A0000A068091200190912101A0912201809332
:1032B0000B0690930C06A0930D0610921006109228
:1032C0001406109213061092150687E591E090936C
:1032D0000F0680930E06EAE2F6E010821482138253
:1032E0001582369686E0E636F807B9F78AE096E06A
:1032F00090937106809370068BE096E0909373062E
:103300008093720681E08093740683E08093750653
:1033100087E096E090936F0680936E068AE090E0D7
:10332000909377068093760684EF91E090937906E8
:103330008093780610927C0610927B0610926A06A3
:1033400010926B0610926C0610926D0610927A061F
:10335000CF910895FC01808191810097D9F786ED86
:1033600094E09183808311CF789484B5826084BD8A
:1033700084B5816084BD85B5826085BD85B5816079
:1033800085BD80916E00816080936E0010928100F7
:1033900080918100826080938100809181008160B2
:1033A0008093810080918000816080938000809173
:1033B0009100826080939100809191008160809360
:1033C0009100809190008160809390008091C10075
:1033D00084608093C1008091C10082608093C100AD
:1033E0008091C10081608093C1008091C3008160A1
:1033F0008093C3008091C00082608093C000809160
:10340000C20081608093C20080917A0084608093C2
:103410007A0080917A00826080937A0080917A00AD
:10342000816080937A0080917A00806880937A002E
:1034300010921D041092190410921A048091D70062
:1034400081608093D70080EA8093D80089B580613D
:1034500089BD89B5826089BD09B400FEFDCF61E0F8
:1034600070E080E090E00E9481038091D8008F7C22
:1034700080618093D8008091E000807F8093E0009D
:103480008091E1008E7E8093E1008DE08093E200E8
:10349000559A209AC0E0D0E02097F1F30E940000F6
:1034A000FBCFFB01DC0102C005900D924150504062
:1034B000D8F708955058BB27AA270E94721A0C9477
:1034C000BC1B0E94AE1B38F00E94B51B20F039F4E3
:1034D0009F3F19F426F40C94AB1B0EF4E095E7FB28
:1034E0000C94A51BE92F0E94CD1B58F3BA17620755
:1034F00073078407950720F079F4A6F50C94EF1B69
:103500000EF4E0950B2EBA2FA02D0B01B9019001FE
:103510000C01CA01A0011124FF27591B99F0593F42
:1035200050F4503E68F11A16F040A22F232F342F8A
:103530004427585FF3CF469537952795A795F040D8
:103540005395C9F77EF41F16BA0B620B730B840BED
:10355000BAF09150A1F0FF0FBB1F661F771F881FA5
:10356000C2F70EC0BA0F621F731F841F48F48795FD
:1035700077956795B795F7959E3F08F0B0CF9395EF
:10358000880F08F09927EE0F9795879508950E9468
:10359000DB1A0C94BC1B0E94B51B58F00E94AE1B9A
:1035A00040F029F45F3F29F00C94A51B51110C94B5
:1035B000F01B0C94AB1B0E94CD1B68F39923B1F355
:1035C000552391F3951B550BBB27AA276217730749
:1035D000840738F09F5F5F4F220F331F441FAA1FDD
:1035E000A9F335D00E2E3AF0E0E832D09150504099
:1035F000E695001CCAF72BD0FE2F29D0660F771F47
:10360000881FBB1F261737074807AB07B0E809F02C
:10361000BB0B802DBF01FF2793585F4F3AF09E3FB1
:10362000510578F00C94A51B0C94F01B5F3FE4F35C
:10363000983ED4F3869577956795B795F7959F5FF4
:10364000C9F7880F911D9695879597F90895E1E040
:10365000660F771F881FBB1F621773078407BA079F
:1036600020F0621B730B840BBA0BEE1F88F7E095FA
:1036700008950E94D51B88F09F5798F0B92F99277D
:10368000B751B0F0E1F0660F771F881F991F1AF04D
:10369000BA95C9F714C0B13091F00E94EF1BB1E0A8
:1036A00008950C94EF1B672F782F8827B85F39F0A7
:1036B000B93FCCF3869577956795B395D9F73EF4E6
:1036C00090958095709561957F4F8F4F9F4F08958E
:1036D000E89409C097FB3EF49095809570956195AC
:1036E0007F4F8F4F9F4F9923A9F0F92F96E9BB2762
:1036F0009395F695879577956795B795F111F8CFDE
:10370000FAF4BB0F11F460FF1BC06F5F7F4F8F4F48
:103710009F4F16C0882311F096E911C0772321F03E
:103720009EE8872F762F05C0662371F096E8862FD6
:1037300070E060E02AF09A95660F771F881FDAF72D
:10374000880F9695879597F9089597F99F6780E870
:1037500070E060E008959FEF80EC089500240A94E3
:103760001616170618060906089500240A9412165C
:103770001306140605060895092E0394000C11F48F
:10378000882352F0BB0F40F4BF2B11F460FF04C03C
:103790006F5F7F4F8F4F9F4F089557FD9058440F95
:1037A000551F59F05F3F71F04795880F97FB991FA0
:1037B00061F09F3F79F0879508951216130614065D
:1037C000551FF2CF4695F1DF08C0161617061806EA
:1037D000991FF1CF86957105610508940895E894C5
:1037E000BB2766277727CB0197F908950E94091C0C
:1037F0000C94BC1B0E94AE1B38F00E94B51B20F03D
:10380000952311F00C94A51B0C94AB1B11240C9464
:10381000F01B0E94CD1B70F3959FC1F3950F50E0F4
:10382000551F629FF001729FBB27F00DB11D639F72
:10383000AA27F00DB11DAA1F649F6627B00DA11D18
:10384000661F829F2227B00DA11D621F739FB00DBE
:10385000A11D621F839FA00D611D221F749F33272E
:10386000A00D611D231F849F600D211D822F762FC7
:103870006A2F11249F5750409AF0F1F088234AF0A4
:10388000EE0FFF1FBB1F661F771F881F9150504010
:10389000A9F79E3F510580F00C94A51B0C94F01BDA
:1038A0005F3FE4F3983ED4F3869577956795B79597
:1038B000F795E7959F5FC1F7FE2B880F911D9695B1
:1038C000879597F90895EE0FFF1F0590F491E02D6D
:0638D0000994F894FFCFFB
:1038D600FFFFFFFFFFFFFFFF00E100000000000009
:1038E60000C1808100000012001300140031323341
:1038F6000304050000000060024D0481027602C840
:10390600028602A40200000000B90DEE015F0D66FA
:103916000F000000009A041305D804BD040000003F
:10392600005E0500000000960F920F6A0F0000006F
:1039360000F814EF14670F660F000000009811D20C
:103946000F00000000331102120D0A00546869735B
:103956002069732061206D656469612070726F67EC
:1039660072616D0053797374656D00566F6C756D79
:10397600652055702100566F6C756D6520446F7714
:103986006E210054686973206973206120766F6C1C
:10399600756D652070726F6772616D00537973740F
:1039A600656D20766F6C756D652073657475702115
:1039B60000626173652053657450726F6772616D42
:0A39C600002E63002E7478740000D8
:00000001FF
