:100000000C94D0020C94F8020C94F8020C94F802B0
:100010000C94F8020C94F8020C94F8020C94F80278
:100020000C94F8020C94F8020C94101D0C947F1D93
:100030000C94F8020C94F8020C94F8020C94F80258
:100040000C94F8020C94F8020C94F8020C94F80248
:100050000C94F8020C94F8020C94F8020C94B11F62
:100060000C94F8020C94F8020C94F8020C94F80228
:100070000C94F8020C94F8020C94F8020C94F80218
:100080000C94F8020C94F8020C94F8020C94F80208
:100090000C94F8020C94F8020C94F8020C94F802F8
:1000A0000C94F8020C94F8020C94F802EAE00000B8
:1000B00000003AB80000C44244C049249064484457
:1000C00060000F84210F80000894514210000894B2
:1000D000214880000092AAAAAA4400000894514234
:1000E0000000252949C044E44460001D060B80033C
:1000F0004920001D29384200392972100019294968
:10010000800039294A400000FC9292929200AAA8ED
:1001100084254E52404124948AA88439294A4000BB
:100120001D29384C24E4444000192F41C0109D295A
:1001300049C000192849808439294B80001C274B6D
:10014000C088000000000003E02295100000C924D0
:10015000B088444220D24930F82108420F808A25D5
:10016000082082008A250852288088CA554AA5524C
:10017000A888008A28A25142008A28A28A2700F86B
:10018000820820820072281C0A2700F228BC9228CC
:1001900080790A1428531B00F228BC820800790ACF
:1001A0001428509E008B2CAA9A688082C6C6AAAAE0
:1001B000AA9200820820820F808A2928D2288010E3
:1001C00084214980AAA88A28BE8A2880309204E81F
:1001D000490C00F421C84200FA083E820F80E24830
:1001E000A28A4E00722820822700F228BE8A2F00A1
:1001F0007228A2FA28803E1049AA9AA5268819F8E2
:1002000072208C2002000418264000000F80F800A5
:10021000000099060800080A08087228A27827003A
:1002200072289C8A2700F82108210400720F228A74
:100230002700790F220A270010C524F841007220F8
:100240008C0A2700722084210F8026A22220722887
:10025000A28A270022444880000800003E000000D7
:10026000000A00823E208000A4A00000421112403B
:1002700024888420A8003090C309515D0044A4A8BC
:10028000541A2A440021CA3E2AA708514F94F9451E
:1002900000AAA00000AA880000AC00040400B0007E
:1002A000060600B600040400BA00030300BD000403
:1002B0000400C100060600C700060600CD000606C1
:1002C00000D300080800DB00060600E10005050079
:1002D000E600040400EA00050500EF00030300F255
:1002E00000050500F700050500FC000505000101FB
:1002F00005050006010808000E01020200100105B4
:100300000500150103030018010202001A0105058A
:10031000001F010505002401040400280105050053
:100320002D01050500320105050037010505003CDA
:1003300001050500410103030044010505004901D1
:100340000505004E0103030051010404005501039B
:10035000030058010606005E010606006401060659
:10036000006A01090900730106060079010606000A
:100370007F0106060085010606008B010606009136
:100380000107070098010606009E01070700A50166
:10039000060600AB01080800B301060600B9010615
:1003A0000600BF01050500C401020200C6010606E1
:1003B00000CC01070700D301050500D8010606009F
:1003C000DE01060600E401060600EA01060600F06A
:1003D00001060600F6010A0A0000020606000602EF
:1003E0000505000B020606001102050500160202B3
:1003F000020018020202001A020606002002060687
:100400000026020606002C0206060032020606003E
:1004100038020606003E0206060044020606004AAE
:10042000020404004E0206060054020404005802AE
:100430000202005A02060600600202020062020680
:10044000060068020404006C020404007002040444
:1004500000740202020076020707007D020808000D
:1004600085020606008B0206060091020404009530
:100470000202020097020202000000000023002690
:100480000029002C002F0000000000240027002A73
:10049000002D0030000000000200090F00000304DE
:1004A00001000C000000000000000000000000003F
:1004B000000000000408020110408040102040802D
:1004C00040800802040180402010020110801020AA
:1004D00040402000000000250028002B002E0031A5
:1004E00000040404040403040502020202040302DB
:1004F00002020206060606060604040202020404BC
:10050000080B0002020200000904000001020200C0
:100510000005240010010524010101042402060540
:1005200024060001070581031000400904010002B0
:100530000A00000007050202400000070583024090
:1005400000000403090412010002EF0201404123EC
:10055000368000010102030141726475696E6F20EB
:100560004C4C430041726475696E6F204C656F6E30
:100570006172646F007C3C3E5E2B3D3F2F5B5D3BB8
:100580002C2A225C00050C0901A101850415002616
:10059000FF0319002AFF03950475108100C0FB1F9B
:1005A00011241FBECFEFDAE0DEBFCDBF13E0A0E025
:1005B000B1E0E4EEF4E502C005900D92A834B10775
:1005C000D9F727E0A8E4B3E001C01D92AF39B20724
:1005D000E1F712E0C0EDD2E004C02197FE010E94D5
:1005E0002929CF3CD107C9F70E9480210C94702A99
:1005F0000C940000CF93DF93FC0181819091110650
:10060000482F490F5527551F483051059CF5A281A9
:10061000B381109709F52DE036E0338322832081E2
:1006200020930F068093100680911206820F80831C
:1006300020911306A22FB09114068A2F821B8917CE
:10064000E8F481813D91C82FD0E0C45FDE4F38834C
:100650008F5F8183F2CFD90118962D913C91199724
:1006600021153105C1F72DE036E019963C932E9304
:100670001897D5CF80E0DF91CF91089581E0FBCF2F
:10068000FC0180916E03882311F13FB7F89482E05A
:100690008093E9002091F200822F90E0181619064D
:1006A00014F481E090E0882339F0289844E64093E0
:1006B0006D034091F1004083222339F02091F20034
:1006C000211103C02BE62093E8003FBF08958FEF70
:1006D0009FEF08954091670350916803209165034F
:1006E0003091660342175307B4F49091E800957077
:1006F000E1F39091E80092FD19C08093F1008091A0
:1007000067039091680301968F739927892B19F4D9
:100710008EEF8093E80080916703909168030196C3
:10072000909368038093670381E0089580E00895C3
:10073000EF92FF920F931F93CF93DF93F82E192F11
:10074000E62E042F81E0860F880F0E946A0383E063
:100750000E946A03CF2DD12FEC0EFD2EF11CCE1579
:10076000DF05B9F007FF13C0FE0184910E946A0300
:10077000182F80E00E946A03812321968111EFCF18
:10078000DF91CF911F910F91FF90EF900895888195
:10079000EDCF81E0F5CFDF92EF92FF920F931F93A1
:1007A000CF93DF93D82E8A01EB017B01E40EF51E77
:1007B000CE15DF0559F0D7FE12C0FE0184910E94CC
:1007C0006A0321968111F4CF0FEF1FEFC801DF916B
:1007D000CF911F910F91FF90EF90DF900895888146
:1007E000EECF2FB7F89487708093E9009091E800DE
:1007F000892F807295FF04C09091F20080E4891BDC
:100800002FBF0895615030F02091F100FC0120834A
:100810000196F8CF289884E680936D030895AF92EF
:10082000BF92CF92DF92EF92FF920F931F93CF93DD
:10083000DF936C017B018B01040F151FEB015E013F
:10084000AE18BF08C017D10759F06991D601ED91D4
:10085000FC910190F081E02DC6010995892B79F773
:10086000C501DF91CF911F910F91FF90EF90DF9025
:10087000CF90BF90AF90089580915D0381110DC01E
:1008800082E08093590384E080935A0310925C03C2
:1008900010925B0381E080935D0389E593E0089506
:1008A0000F931F93CF93DF931F92CDB7DEB782E0F4
:1008B000898342E450E060E075E080E80E94CB0369
:1008C0000E943C04DC0112960D911C91011511054A
:1008D00089F0D801ED91FC910280F381E02DBE01F9
:1008E0006F5F7F4FC801099597FD04C0F80100852F
:1008F0001185ECCF89810F90DF91CF911F910F91DE
:100900000895CF93DF931F92CDB7DEB76983DC01E3
:10091000ED91FC910280F381E02D41E050E0BE01B9
:100920006F5F7F4F09950F90DF91CF91089583E01E
:100930008093E9008091F200882319F08AE3809384
:10094000E800089583E00E94F10390E00895CF93BA
:10095000DF931F92CDB7DEB7FC018485958597FDA7
:1009600008C02FEF3FEF358724870F90DF91CF919D
:100970000895CE0101960E944003019719F48981E0
:1009800090E0F3CF8FEF9FEFF0CF0F931F93CF93B4
:10099000DF931F92CDB7DEB78C01FC01848595856E
:1009A00097FF0BC0CE0101960E944003019771F49E
:1009B000898190E0F80195878487F8018485958581
:1009C0000F90DF91CF911F910F9108958FEF9FEFBF
:1009D000F1CFFC018485958597FD0BC09FB7F894F6
:1009E00082E08093E9008091F2009FBF90E0019641
:1009F00008959FB7F89482E08093E9008091F20017
:100A00009FBF90E0089581508F3008F047C0E82FD5
:100A1000F0E0E35FFA4F0C9429292A052E051C0506
:100A2000220526054E054E054E05310537053B05C9
:100A30003F0545054E054905809180008F778093DD
:100A400080000895809180008F7DF9CF8091800093
:100A5000877FF5CF84B58F7784BD089584B58F7D6A
:100A6000FBCF809190008F778093900008958091C4
:100A700090008F7DF9CF80919000877FF5CF809196
:100A8000C0008F778093C00008958091C0008F7D53
:100A9000F9CF8091C200877F8093C20008951F9391
:100AA000CF93DF93282F30E0F901EB56FB4F849171
:100AB000F901EC54FB4FD491F901EF51FB4FC49174
:100AC000CC23A9F0162F81110E940305EC2FF0E032
:100AD000EE0FFF1FED52FB4FA591B4918FB7F89425
:100AE000EC91111108C0D095DE23DC938FBFDF910C
:100AF000CF911F910895DE2BF8CFCF93DF9390E035
:100B0000FC01EC54FB4F24918F519B4FFC018491CD
:100B10008823C9F090E0880F991FFC01E957FB4F2B
:100B2000A591B491FC01ED52FB4FC591D491611197
:100B30000DC09FB7F8948C91209582238C93888167
:100B4000282328839FBFDF91CF910895623051F40D
:100B50009FB7F8943C91822F809583238C93E881F2
:100B60002E2BEFCF8FB7F894EC912E2B2C938FBFB9
:100B7000EACF3FB7F8948091550390915603A09126
:100B80005703B091580326B5A89B05C02F3F19F015
:100B90000196A11DB11D3FBFBA2FA92F982F8827FD
:100BA000BC01CD01620F711D811D911D42E0660FD8
:100BB000771F881F991F4A95D1F708958F929F92AA
:100BC000AF92BF92CF92DF92EF92FF924B015C0106
:100BD0000E94B9056B017C010E94B9056C197D0961
:100BE0008E099F09683E734081059105A8F321E0B5
:100BF000821A9108A108B10888EEC80E83E0D81EB9
:100C0000E11CF11C81149104A104B10429F7FF90A7
:100C1000EF90DF90CF90BF90AF909F908F9008950E
:100C20007F928F929F92AF92BF92CF92DF92EF927C
:100C3000FF920F931F93CF93DF93C82E8B017A01FE
:100C400080916E03811110C08FEF9FEFDF91CF91E4
:100C50001F910F91FF90EF90DF90CF90BF90AF90DA
:100C60009F908F907F90089580916B0380FF05C0C7
:100C70008091E00082608093E000CE2DDF2DD12CAA
:100C80008AEFB82E8C2D8770982E8C2D8072882E2E
:100C90008C2D8074782E9AE3A92E209719F4DD20EC
:100CA00009F452C08C2D0E94F10381110AC0BA943C
:100CB000BB2051F261E070E080E090E00E94DE0530
:100CC000ECCF8C171D0611F00CF08C2F9FB7F89409
:100CD0009092E9002091E80025FD02C09FBFDDCF82
:100CE000282F30E0C21BD30B882029F08150A0F0C0
:100CF0001092F100FBCFF801C7FC0AC0815050F000
:100D000041914093F100FACF44914093F100319624
:100D10008150D0F7020F131FDD2021F0A092E800D0
:100D2000D12CDCCF8091E80085FD07C0A092E800BF
:100D3000DD24D394209791F2F3CF209779F6772092
:100D400069F2A092E800CACF5D9884E680936C03B4
:100D5000C7017CCFCF93DF93EC0180910B018823F7
:100D600031F083E00E9410061816190634F081E075
:100D700090E09B838A8380E090E0DF91CF9108959B
:100D80002FB7F894609151037091520380915303EF
:100D9000909154032FBF08958EBD00000DB407FE3F
:100DA000FDCF8EB508958FEF0C94CC060F931F9353
:100DB000CF93DF93EC010E94C0068B010E94D30603
:100DC0008F3F69F00E94C006601B710B6C177D0796
:100DD000A8F380E0DF91CF911F910F91089581E0FA
:100DE000F9CFFC01DB0112968D919C9113979383AF
:100DF000828389E792E09183808314968C91149783
:100E0000848315968C911597858316964D915D91E7
:100E10006D917C91199746835783608771871A96E5
:100E20004D915D916D917C911D97428753876487A9
:100E300075871E964D915D916D917C915197468776
:100E40005787608B718B52968C915297828B5396F9
:100E50004D915D916D917C915697438B548B658B31
:100E6000768B57964D915D916D917C915A97478BFA
:100E7000508F618F728F5B968D919C91948F838F31
:100E80000895DC015996ED91FC913097B9F0838972
:100E90009489A589B6894285538564857585841BA7
:100EA000950BA60BB70B811520E89207A105B1059C
:100EB00038F08FEF9FE7A0E0B0E0089590E080E089
:100EC0000895DC0159968D919C91009739F0DC01D1
:100ED000ED91FC910480F581E02D099490E080E093
:100EE0000895CF93DF931F92CDB7DEB76983DC01FE
:100EF000ED91FC910280F381E02D41E050E0BE01D4
:100F00006F5F7F4F09950F90DF91CF910895DC01BE
:100F1000FB0112962C91129784819581281719064E
:100F200041F491818081813A31F49D7F81E091305B
:100F300009F080E008958132E1F79B3029F4828145
:100F40001F968C9381E008959A3099F7828150968C
:100F50008C93F8CFDC01FB0188E4808389E48183F2
:100F600084E482831D969C911D979F709F5B938361
:100F70001D968D919C9124E0969587952A95E1F791
:100F80008F708F5B848385E00895EF92FF920F93BB
:100F90001F93CF93DF93FB012081213871F52381CB
:100FA000223259F5DC0112964C9124813581421789
:100FB000130619F5EC010B851C85F12CE12C0115AC
:100FC000110589F0F801448155816281738180E8BF
:100FD0000E94CB038F3F980749F0E80EF91ED80115
:100FE0000D911C91ECCF81E08F87C701DF91CF91EC
:100FF0001F910F91FF90EF90089590E080E0F6CF61
:10100000CF93DF93CDB7DEB769970FB6F894DEBF05
:101010000FBECDBFFC01DB018C918F5F8C939E01D5
:101020002D5F3F4F8DE0D9011D928A95E9F729E0A8
:10103000298384E08A8391E09D8383E08E832A87DD
:1010400021E22B879C879D879F8722E2288B27E0C0
:101050002B8B25E02C8B8E8B20E430E0388F2F8B70
:10106000998F82818B8395858685998B8A8B8381E5
:1010700080688D8B49E150E0BE016F5F7F4F80E05B
:101080000E94CB0369960FB6F894DEBF0FBECDBFAA
:10109000DF91CF910895CF92DF92EF92FF921F934D
:1010A000CF93DF931F92CDB7DEB77B016A018091AA
:1010B0001E0681112AC011E010931106109312062A
:1010C00087E196E09093140680931306109216061B
:1010D0001092150685E892E090930E0680930D0617
:1010E000109219061092180610921B0610921A06FA
:1010F00010931C0610931D0681EC809317060E9426
:101100003C040E94FA0210931E0684E0898341E0A9
:1011100050E0BE016F5F7F4F809110060E94100665
:1011200097FD07C080911006A601B70180640E9458
:1011300010060F90DF91CF911F91FF90EF90DF90FD
:10114000CF900895CF93DF93EC01E6E3F6E090E0D3
:1011500080E0219131910196232B41F5880F991F51
:10116000FC01EC5CF94FD183C08348E050E066E3BA
:1011700076E084E396E00E944B08E4E3F6E08CE33B
:1011800096E022813381C217D30711F413821282B1
:1011900032968E179F07A9F748E050E066E376E0A5
:1011A00084E396E0DF91CF910C944B088430910555
:1011B00081F6DBCFCF93CFB7F89480914A038111AA
:1011C00027C0E2EFF4E08491E5ECF4E09491E82F9D
:1011D000F0E0EE0FFF1FE957FB4FA591B491EC91A2
:1011E000E92321F461E081E10E944F0561E081E1A2
:1011F0000E947D058CB580618CBD8CB580648CBDF2
:1012000061E08FE00E947D0561E080E10E947D0544
:1012100080914A038F5F80934A03CFBFCF91089597
:10122000CF93DF93EC01CD2FDD27C695C695C695EC
:10123000AFE0B2E0CA9FF001CB9FF00DDA9FF00D56
:1012400011247796C6E0F695E795CA95E1F7EB018C
:10125000E883FC01D5E0F695E795DA95E1F7EF73C1
:10126000FF27C3E0D1E0EC9FB001ED9F700DFC9F24
:10127000700D11246F5D7F4FE6E076956795EA95D6
:10128000E1F7FA016083AC014F7155274A9FC00115
:101290004B9F900D5A9F900D11244796F6E096951E
:1012A0008795FA95E1F7E9018883DF91CF91089559
:1012B000DC015596ED91FC91569790815A968C9150
:1012C000892B80837EBD0DB407FEFDCF6EBD0DB4AE
:1012D00007FEFDCF0895DC015596ED91FC915697E0
:1012E00090815A968C91892B80836EBD0DB407FE38
:1012F000FDCF0895DC015596ED91FC9156979081B4
:101300005A968C918095892380836EBD0DB407FE1B
:10131000FDCF0895DF92EF92FF920F931F93CF932B
:10132000DF93EC01D62E142FF22EEE2039F08FA988
:10133000882321F0F02E022FD42E162F65E1CE0146
:101340000E947A096D2DCE010E946B096F2DCE018E
:101350000E946B0965E7CE010E947A09612FCE01D8
:101360000E946B09602FCE010E946B096CE5CE01D3
:10137000DF91CF911F910F91FF90EF90DF900C9430
:101380007A09DC015596ED91FC91569790815A9619
:101390008C91892B8083215031094109510948F0F2
:1013A0000DB407FEFDCF7EBD0DB407FEFDCF6EBDB3
:1013B000F2CF0DB407FEFDCF0895FC0124A5213026
:1013C000F9F42FE9260F2A3108F46052FC01A0A19C
:1013D000B1A12C9130E090E080E082179307C4F433
:1013E000AC01440F551F480F591F1196ED91FC9108
:1013F0001297E40FF51F4081461761F00196EDCF7B
:10140000223021F72FEB260F2A3100F7605EDECF66
:101410008FEF9FEF08952F923F924F925F926F92BE
:101420007F928F929F92AF92BF92CF92DF92EF9274
:10143000FF920F931F93CF93DF93CDB7DEB76297E1
:101440000FB6F894DEBF0FBECDBF5C013901480175
:101450002701223031050CF02DC10230110544F571
:101460008A010F5F1F4F9B012F5F3F4FEE24E394D4
:10147000C5010E948A09B201C5010E9458096296FD
:101480000FB6F894DEBF0FBECDBFDF91CF911F9195
:101490000F91FF90EF90DF90CF90BF90AF909F9013
:1014A0008F907F906F905F904F903F902F90089516
:1014B000040F151F01501109EE24E3949B01C5018F
:1014C0000E948A09B201C5010E945809B1E08B1A35
:1014D0009108C1F7D4CF8401040F151F01501109E1
:1014E00021503109EE24E394C5010E948A094C146D
:1014F0005D0409F4CFC09E012E5F3F4FAE014C5FEB
:101500005F4FBE016A5F7F4FC2010E9410099E01BA
:101510002F5F3F4FAE014D5F5F4FBE016B5F7F4F4F
:10152000C6010E941009312C212CC401B0E0A0E0BA
:101530008B879C87AD87BE87C301770CAA0BBB0B3B
:101540008F87988BA98BBA8BB10190E080E00E94C5
:101550002E286B017C016B857C858D859E850E9484
:101560002E289B01AC01C701B6010E948D276B019B
:101570007C01AC019B0160E070E080E89FE30E9489
:1015800020272B013C016E8170E090E080E00E94FA
:101590003028A30192010E94BC286F837887898735
:1015A0009A876D8170E090E080E00E943028A7016A
:1015B00096010E94BC289B01AC016F8178858985CA
:1015C0009A850E9421270E94FF27062F10E0102FE6
:1015D00000270027187F6C8170E090E080E00E9477
:1015E0003028A30192010E94BC286F8378878987E5
:1015F0009A876B8170E090E080E00E943028A7011C
:1016000096010E94BC289B01AC016F817885898579
:101610009A850E9421270E94FF2798E0699FB001C8
:101620001124607E7770062B172B6A8170E090E0A2
:1016300080E00E943028A30192010E94BC282B0167
:101640003C01698170E090E080E00E943028A701B1
:1016500096010E94BC289B01AC01C301B2010E940B
:1016600021270E94FF2770E093E0759567959A9572
:10167000E1F7602B712B2F85388949895A89C5017B
:101680000E94C109AFEF2A1A3A0A8214930409F0A2
:101690005BCFF5CE689C9001699C300D789C300D35
:1016A0001124032E000C440B550BB201C5010E94FE
:1016B000C109E5CE260F371F023011050CF00BCF04
:1016C00021503109EE24E3948A01C5010E948A0960
:1016D000B201C5010E945809A1E06A1A7108C1F758
:1016E000CECE1F93CF93DF93EC01142F0E947A0983
:1016F000612FCE01DF91CF911F910C946B0908955A
:1017000061E0FC0184810E944F0580914B038111AF
:1017100010924B0308958CBD9DBD0895CF93DF9328
:10172000EC0180914B03811109C081E080934B0350
:101730008091C2059091C3050E948B0B60E08C8163
:10174000DF91CF910C944F058F929F92AF92BF92F1
:10175000FF920F931F93CF93DF93EC01F62E490175
:101760005A018E81882389F08F8198859C012F5F93
:101770003F4F38872F838230924018F40E94D3065F
:10178000F3CFCE010E94800B1E82CE010E948E0BF1
:101790008CE291E00E94D6068F2D80640E94CC06D8
:1017A00008E110E0D501C401002E04C0B695A7954C
:1017B000979587950A94D2F70E94CC060850110994
:1017C000083F8FEF180771F785E9FF2021F028E027
:1017D00087E8F2128FEF0E94CC0610E00E94D30639
:1017E0008A8787FF04C01F3F11F01F5FF7CFDF918B
:1017F000CF911F910F91FF90BF90AF909F908F90CE
:101800000895AF92BF92CF92DF92EF92FF920F9323
:101810001F93CF93DF93EC016901C801820F931FDF
:101820008130924050F58E81882379F088819981AA
:10183000AA81BB8184179507A607B70731F48F816A
:101840009885C816D90608F042C0488359836A8330
:101850007B838B85833039F089E0440F551F661FE9
:10186000771F8A95D1F79A01AB0161E1CE010E9401
:10187000A40B882389F083E08D83CE010E94800B26
:1018800080E0DF91CF911F910F91FF90EF90DF905B
:10189000CF90BF90AF9008950E94C0065B010E9458
:1018A000D3068A878F3F69F40E94C0066A197B09B4
:1018B0006D327140A0F38FE08D83CE010E94800BCA
:1018C000DCCF8E3F89F418861F8281E08E838F8162
:1018D00098858C159D0550F40E94D3068F819885BC
:1018E000019698878F83F3CF8DE0E6CF6701E00EF6
:1018F000F11E0E94D306F60181936F01EE15FF05DC
:10190000C1F78F819885080F191F18870F83898564
:10191000882319F001151240A0F08E81882389F0E8
:101920008F8198859C012F5F3F4F38872F838230AE
:10193000924018F40E94D306F3CFCE010E94800B90
:101940001E8281E09ECFCF92DF92EF92FF920F93A3
:10195000CF93DF93EC01690182E1411551056105E7
:10196000710599F08B85833039F089E0440F551F5C
:10197000661F771F8A95D1F79A01AB0168E1CE0106
:101980000E94A40B882319F084E08D832DC08EEF74
:101990000E94CC0676018EEFD81AF70181917F0163
:1019A0000E94CC06EC14FD04C1F78FEF0E94CC0618
:1019B0008FEF0E94CC060E94D3068A878F718530F4
:1019C00071F4011116C0CE010E94800B81E0DF91FD
:1019D000CF910F91FF90EF90DF90CF90089581E12C
:1019E0008D83CE010E94800BCE010E94800B80E08F
:1019F000EECF88E592E00E94D606811102C085E113
:101A0000C4CF20E030E0A9016DE0CE010E94A40B1C
:101A1000882311F084E1B9CF0E94D3068111FACF57
:101A2000D2CF0F9340914C0350914D0360914E03E0
:101A300070914F03411551056105710599F0082F0B
:101A400022E733E080916F03909170030E94A30C12
:101A5000882349F010924C0310924D0310924E03CC
:101A600010924F0381E00F9108950F93CF93C82FE9
:101A700080917103811105C0C1E08C2FCF910F912E
:101A800008954091130150911401609115017091D6
:101A900016010C2F22E733E080916F0390917003C1
:101AA0000E94A30C811102C0C0E0E7CFCC2321F338
:101AB00081E00E94110D8823B9F310927103DDCFEC
:101AC0008F929F92AF92BF92EF92FF920F931F93CC
:101AD000CF934B015C01C42F8091130190911401AD
:101AE000A0911501B091160188159905AA05BB05AD
:101AF00051F181E00E94350D81110BC080E0CF9142
:101B00001F910F91FF90EF90BF90AF909F908F909B
:101B1000089582E7E82E83E0F82E00E012E030E03E
:101B200020E0B501A40180916F03909170030E94A1
:101B3000010C882319F38092130190921401A09252
:101B40001501B0921601409171034C2B4093710323
:101B500081E0D5CF8F929F92AF92BF92CF92DF92CA
:101B6000EF92FF92CF9324EC35E0309370032093F3
:101B70006F03882309F46DC040E060E070E0CB01A2
:101B80000E94600D81110BC080E0CF91FF90EF901B
:101B9000DF90CF90BF90AF909F908F9008958091ED
:101BA00030058F7789F780913C0590913D05A09194
:101BB0003E05B0913F0584369105A105B10520F39E
:101BC000C0903805D0903905E0903A05F0903B057B
:101BD000C114D104E104F104B9F240E0C701B60137
:101BE0000E94600D882381F280917D0390917E0395
:101BF0008115924049F6A0918203AA2329F26091AF
:101C00008003709181036115710509F4BDCF2091A6
:101C10007F03222309F4B8CFA093E2052093D405D3
:101C200090E080E030E0E1E0F0E0C82FAF01082E66
:101C300002C0440F551F0A94E2F72417350769F0D4
:101C400041E0480F01968930910579F74093DD0511
:101C50009BCFC12CD12C7601C0CF8093DD05209184
:101C600088033091890350E040E02115310541F4AB
:101C700020919603309197034091980350919903D6
:101C80002093D5053093D6054093D7055093D805BA
:101C900046015701860E971EA11CB11C8092E305D8
:101CA0009092E405A092E505B092E605E0918303E9
:101CB000F0918403F093E905E093E805B0E00E9419
:101CC000E426DC01CB01880D991DAA1DBB1D809364
:101CD000EA059093EB05A093EC05B093ED0525E0A4
:101CE000EE0FFF1F2A95E1F7E150FE4FEF2FFF2780
:101CF000E6958E0F9F1FA11DB11D8093DE05909369
:101D0000DF05A093E005B093E105809085039090F6
:101D10008603B12CA12C8114910441F4809092038C
:101D200090909303A0909403B0909503C81AD90A99
:101D3000EA0AFB0AC80CD91CEA1CFB1C04C0F69476
:101D4000E794D794C794CA95D2F7C092D905D09298
:101D5000DA05E092DB05F092DC0585EFC8168FE02E
:101D6000D806E104F10428F48CE08093E70581E0D3
:101D70000CCF80E125EFC2162FEFD206E104F1046B
:101D8000A0F380919E0390919F03A091A003B09136
:101D9000A1038093EA059093EB05A093EC05B09323
:101DA000ED0580E2E2CF4F925F926F927F928F9229
:101DB0009F92AF92BF92CF92DF92EF92FF920F93DA
:101DC0001F93CF93DF93EC014230510561057105FC
:101DD00090F480E0DF91CF911F910F91FF90EF90F1
:101DE000DF90CF90BF90AF909F908F907F906F903B
:101DF0005F904F90089589859A85AB85BC85019643
:101E0000A11DB11D84179507A607B70710F3CB884E
:101E1000DC88ED88FE888F89803109F042C0BB27BD
:101E2000A72F962F852F480159012A013B01C80E83
:101E3000D91EEA1EFB1E8091130190911401A091FE
:101E40001501B0911601C816D906EA06FB0699F5E8
:101E50008F898031C1F5B301A20155276627772705
:101E6000440F551F4E585C4FFA0191828082809139
:101E700071038160809371038A89823080F08D8143
:101E80009E81AF81B8858C0D9D1DAE1DBF1D8093B9
:101E90004C0390934D03A0934E03B0934F0381E006
:101EA00099CFDB01CA01E7E0B695A795979587958D
:101EB000EA95D1F7B8CF40E0C701B6010E94600DA6
:101EC0008111C6CF86CFB301A2014F775527662770
:101ED0007727440F551F440F551F4E585C4FFA018A
:101EE00080829182A282B382C2CF8F929F92AF9260
:101EF000BF92CF92DF92EF92FF920F931F93CF93F7
:101F0000DF93FC0181859285A385B4850196A11D8F
:101F1000B11D84179507A607B70770F480E0DF911D
:101F2000CF911F910F91FF90EF90DF90CF90BF90D6
:101F3000AF909F908F90089583889488A588B688E5
:101F40008789803189F5BB27A72F962F852FE90137
:101F50006A017B018F01BC01CD01680D791D8A1DCD
:101F60009B1D8090130190901401A0901501B090DA
:101F7000160186169706A806B90601F5F8018789A5
:101F8000803111F5DD24EE24FF24F601EE0FFF1F52
:101F9000EE58FC4F80819181B0E0A0E08883998366
:101FA000AA83BB8381E0BBCFDB01CA01C7E0B69542
:101FB000A79597958795CA95D1F7C9CF40E00E941C
:101FC000600D8111DBCFAACFE894C7F8DD24EE24A1
:101FD000FF24F601EE0FFF1FEE0FFF1FEE58FC4F20
:101FE00080819181A281B381BF70D8CF4F925F92DF
:101FF0006F927F92AF92BF92CF92DF92EF92FF9259
:102000000F931F93CF93DF9300D000D0CDB7DEB7EF
:102010008C0149835A836B837C835901C12CD12C59
:102020007601412C82E0582E612C712C49815A8115
:102030006B817C819E012F5F3F4FC8010E94750F0D
:10204000882339F1F8018585A301920104C0220F8C
:10205000331F441F551F8A95D2F7DA01C901C80EF4
:10206000D91EEA1EFB1E49815A816B817C818789BA
:10207000803111F188EF9FEFAFEFBFE048175907AC
:102080006A077B0798F2F501C082D182E282F3826F
:1020900081E00F900F900F900F90DF91CF911F91E3
:1020A0000F91FF90EF90DF90CF90BF90AF907F9017
:1020B0006F905F904F90089588EF9FEFA0E0B0E0A1
:1020C000DDCFCF93DF93FC012581222321F080E037
:1020D000DF91CF910895EC018091E705803159F5AA
:1020E00082E08583178A108E118E128E8091E8050A
:1020F0009091E905B0E0A0E025E0880F991FAA1FA4
:10210000BB1F2A95D1F7838B948BA58BB68B80ED63
:1021100095E09C8F8B8F81E08C831E821F821886B6
:1021200019861A861B861C861D861E861F86188A9F
:10213000198A1A8ACDCF803251F683E08583409187
:10214000EA055091EB056091EC057091ED05478B28
:10215000508F618F728F9F012D5E3F4F80ED95E014
:102160000E94F60F8111D3CFB2CF8F929F92AF9280
:10217000BF92CF92DF92EF92FF920F931F93CF9374
:10218000DF93EC018D8181110EC080E0DF91CF9152
:102190001F910F91FF90EF90DF90CF90BF90AF9085
:1021A0009F908F9008950B891C892D893E89041773
:1021B00015072607370748F34A015B01823031F4DF
:1021C0008A869B86AC86BD8681E0E0CF811491042F
:1021D000A104B10449F41E821F82188619861A864A
:1021E0001B861C861D86F0CF0A851B852C853D85A8
:1021F000EB8DFC8D858590E00996B901A8014150D1
:10220000510961097109082E04C0769567955795A3
:1022100047950A94D2F775016401E1E0CE1AD1081E
:10222000E108F10804C0F694E794D794C7948A951E
:10223000D2F7C416D506E606F70620F0012B022BCE
:10224000032B11F58F89988DA98DBA8D8E839F836D
:10225000A887B9878E010A5F1F4FC114D104E1041A
:10226000F10409F4ADCF4E815F81688579859801CD
:102270008B8D9C8D0E94750F91E0C91AD108E108E1
:10228000F1088111EACF81CFC41AD50AE60AF70A0C
:10229000E1CF3F924F925F926F927F928F929F9287
:1022A000AF92BF92CF92DF92EF92FF920F931F9364
:1022B000CF93DF93CDB7DEB72C970FB6F894DEBF80
:1022C0000FBECDBF5C01DC015B968D909C905C974E
:1022D00016964D905D906D907C9019974114510425
:1022E0006104710409F468C0BFEF4B1A5B0A6B0A02
:1022F0007B0A312CF40181859285A385B4859C01EC
:10230000AD012F5F3F4F4F4F5F4F29873A874B8774
:102310005C87730162011D821E821F821886F40190
:1023200081859285A385B4852D813E814F81588515
:10233000281739074A075B0708F056C089859A8530
:10234000AB85BC858C159D05AE05BF0550F482E0BC
:10235000C82ED12CE12CF12C92E0492E512C612C6D
:10236000712C9E012F5F3F4FB701A601C4010E944F
:10237000750F8823C9F189819A81AB81BC81892B32
:102380008A2B8B2B09F1260137019FEF491A590A35
:10239000690A790A2D813E814F8158852F5F3F4F11
:1023A0004F4F5F4F2D833E834F8358873FEFC31AB4
:1023B000D30AE30AF30AB3CFF4014080518062806C
:1023C00073803324339496CFC414D504E604F70401
:1023D00009F70FEF1FEF2FEF3FE0B701A601C40190
:1023E0000E94D30E811119C080E02C960FB6F8948C
:1023F000DEBF0FBECDBFDF91CF911F910F91FF9038
:10240000EF90DF90CF90BF90AF909F908F907F9094
:102410006F905F904F903F900895D50116964D9123
:102420005D916D917C91199741155105610571057B
:1024300039F097018601C4010E94D30E8823A1F2CE
:10244000D5011696CD92DD92ED92FC92199733202C
:1024500051F0D701C6010196A11DB11DF401808381
:102460009183A283B383F5018789908DA18DB28D6D
:10247000892B8A2B8B2B39F48481C78AD08EE18EED
:10248000F28E80688483F50184818062848381E098
:10249000ACCF2F923F924F925F926F927F928F922A
:1024A0009F92AF92BF92CF92DF92EF92FF920F93E3
:1024B0001F93CF93DF9300D01F92CDB7DEB7FC01FF
:1024C0008581811118C08FEF9FEF0F900F900F90B3
:1024D000DF91CF911F910F91FF90EF90DF90CF9000
:1024E000BF90AF909F908F907F906F905F904F9034
:1024F0003F902F900895848180FFE5CF43895489D0
:102500006589768982859385A485B585312C212CB2
:10251000481759076A077B0719F022242394312CA6
:102520006F012101CE0101963C01DF011696BB83AC
:10253000AA834114510409F4C5C0F60142855385AC
:10254000648575854A01F1E09F22D6015B968D91E5
:102550009C915C978A019B01E9E036952795179538
:102560000795EA95D1F71596EC91E230E9F5FC0173
:10257000628D738D848D958D600F711F821F931FE7
:10258000A12C22E0B22EA818B9084A145B0408F462
:102590005201F601248126FD04C0A114F2E0BF0619
:1025A00071F40091130110911401209115013091E3
:1025B0001601061717072807390709F05EC040E023
:1025C0000E94600D882309F47ECFC4018E589C4F71
:1025D000D3019C012A0D3B1DFC012E173F0709F476
:1025E0006CC041914D93F9CFDC011496BC90BA9424
:1025F000B0228114910479F4B1100DC0452B462B03
:10260000472B69F5F6018789908DA18DB28D868360
:102610009783A087B187D6015B96ED91FC915C977B
:1026200016966D917D918D919C91199762507109CB
:1026300081099109258504C0660F771F881F991F9E
:102640002A95D2F70685178520893189600F711F79
:10265000821F931F6B0D711D811D911D91CFD6019E
:1026600016964D915D916D917C9119972A813B81D0
:102670000E94750F8111CFCF26CF73018501940180
:10268000AB01BC0180916F03909170030E94010C1B
:10269000882309F418CF6A0C7B1CF6018285938588
:1026A000A485B5858A0D9B1DA11DB11D82879387C9
:1026B000A487B5874A185B083CCF281B390B620EEC
:1026C000731EEBCF2A94232809F0FDCE898190E078
:1026D000FCCEFC01818D928D009711F00C94491273
:1026E0008FEF9FEF08950F931F93CF93DF93EC012C
:1026F000898D9A8D10E000E0009799F00E944912B0
:102700008C010F3F100769F0898D9A8DFC0142857D
:1027100053856485758541505109610971090E948D
:10272000B510C801DF91CF911F910F9108951F93AC
:10273000CF93DF93FC0125812223D1F1162FEC01E9
:10274000848187FF2AC0668577858089918941E0E9
:102750000E94600D882361F1EA8980E2E89FF00120
:102760001124EE58FC4F309719F18D81823040F4DE
:102770008B899C89AD89BE89848F958FA68FB78FF1
:102780008F89988D938F828F8F89988DA98DBA8D1F
:10279000B58BA48B8C818F778C83111103C08C81B6
:1027A0008F7E8C83812FDF91CF911F910C94350DFB
:1027B00080E0DF91CF911F910895FF920F931F93B7
:1027C000CF93DF93EC018D81813041F090E080E088
:1027D000DF91CF911F910F91FF9008958C8181FF20
:1027E000F5CF82FD1BC000916F0310917003C801EB
:1027F0000E948E0B0E94D306F82EC8010E94800B07
:102800008FEFF812E3CF8C8185FF1BC060E0CE0113
:102810000E9497138C818F7D8C83D8CF4B895C89E4
:102820006D897E898A859B85AC85BD8584179507D2
:10283000A607B707C1F2CE010E94B5108111D3CF10
:10284000C5CF40914C0350914D0360914E03709160
:102850004F03452B462B472B21F080E00E94110DA2
:10286000B5CF80618C832A853B85317080E092E012
:10287000821B930BADCFCF93DF93EC0161E00E94FD
:102880009713882311F01D8281E0DF91CF91089585
:10289000FC01818D928D009719F061E00C949713E3
:1028A00008952F923F924F925F926F927F928F92F4
:1028B0009F92AF92BF92CF92DF92EF92FF920F93CF
:1028C0001F93CF93DF9300D000D01F92CDB7DEB718
:1028D0007C015B01342E5D83DC0115968C9115978C
:1028E000813009F0CEC014962C9021FECAC022FC83
:1028F000B4C0C32CDD8022947FE027222094B22D27
:10290000B1702B2ED7011A964D915D916D917C91EE
:102910001D97C114D10409F428C15B968D919C9137
:102920005C97FC0174807A948A019B0169E036957A
:102930002795179507956A95D1F770228A0111702E
:10294000711020C001151105E9F416964D915D91A5
:102950006D917C911997411551056105710509F03B
:1029600099C057968D919D910D90BC91A02D009787
:10297000A105B10509F0B0C0C7010E944911882323
:1029800009F47FC080E092E0801B910B46018C151A
:102990009D0508F44C01D7015B964D915C915C97C5
:1029A00016968D919D910D90BC91A02D0297A10935
:1029B000B109FA01258504C0880F991FAA1FBB1F02
:1029C0002A95D2F74685578560897189840F951FAE
:1029D000A61FB71F9C01AD01270D311D411D511DC3
:1029E00029013A01811432E0930609F07BC08091FD
:1029F000130190911401A0911501B0911601841555
:102A00009505A605B70559F48FEF9FEFDC0180937C
:102A1000130190931401A0931501B0931601022D98
:102A20009501B301A20180916F03909170030E9400
:102A3000A30C882331F19EEFB91AC818D908F70101
:102A400082859385A485B585880D991DA11DB11D2D
:102A500082879387A487B58755CFF7014389548927
:102A60006589768982859385A485B5854817590738
:102A70006A077B0709F43DCFC7010E94B510811199
:102A800038CF81E090E0D70113969C938E931297F4
:102A900080E007C09E012F5F3F4F0E94750F81119C
:102AA00002C090E079C089819A81AB81BC81F70135
:102AB000238D348DF901278948EF5FEF60E070E0E6
:102AC000203121F048EF5FEF6FEF7FE0841795072B
:102AD000A607B70708F050CFF70186839783A08732
:102AE000B18750CF0115110599F5D7011A964D916F
:102AF0005D916D917C911D9753968D919D910D9057
:102B0000BC91A02D481759076A077B0708F181E09F
:102B10000E94350D882309F4B4CF409213015092DE
:102B20001401609215017092160180917103816009
:102B300080937103C8018E589C4FD5019C01280DCC
:102B4000391DFC012E173F0759F04D914193FACFE3
:102B500041E0C301B2010E94600D8111EBCF91CF22
:102B6000281B390BA20EB31E68CFF7018389948905
:102B7000A589B68984179507A607B70738F4848115
:102B8000438B548B658B768B80688483F7018481BB
:102B900083FD1AC0832D9D810F900F900F900F9091
:102BA0000F90DF91CF911F910F91FF90EF90DF90E9
:102BB000CF90BF90AF909F908F907F906F905F90DD
:102BC0004F903F902F90089561E0C7010E949713A6
:102BD000882309F456CFDECFCF93DF931F92CDB772
:102BE000DEB7698341E050E0BE016F5F7F4F0E9416
:102BF00051140F90DF91CF910895CF93DF93EC01A3
:102C0000E98DFA8D309749F481E090E09B838A83C7
:102C100090E080E0DF91CF91089513821282898D38
:102C20009A8D0E945114E98DFA8D22813381232BD4
:102C300059F7F0CFCF92DF92EF920F931F93CF937C
:102C4000DF93EC016B0180913E0690913F060E945C
:102C50008B0BEB89FC899081898D809589238083FA
:102C6000E12C0FE710E02FE730E050E040E070E0AB
:102C700060E0CE010E948A0920E030E440E050E0AC
:102C8000B601CE010E94C109EB89FC898081998D32
:102C9000892B8083DF91CF911F910F91EF90DF906F
:102CA000CF900895089590E080E00895CF93DF934A
:102CB00070E0FB01EB56FB4F8491FB01EC54FB4FA2
:102CC000D4916F517B4FFB01C491CC23A1F08111B2
:102CD0000E940305EC2FF0E0EE0FFF1FE758FB4FBB
:102CE000A591B491EC91ED2381E090E009F480E0AE
:102CF000DF91CF91089580E090E0FACF862F642F86
:102D00000C944F05862F642F0C947D050F931F9311
:102D1000CF93DF93EC018B01E881F9810280F3818D
:102D2000E02D099518870F831A8709871C870B8761
:102D300081E0DF91CF911F910F9108950F931F9321
:102D4000CF93DF93EC0180E2689FF0011124EE58ED
:102D5000FC4F6A8B8091130190911401A091150191
:102D6000B09116018E879F87A88BB98B048915892E
:102D700030E020E09801112700270F8B188F298F52
:102D80003A8F828D938DB0E0A0E0AC01BD01402B65
:102D9000512B622B732B4F8B588F698F7A8F8385C2
:102DA0008871A9F4848D958DA68DB78D8B8B9C8BA6
:102DB000AD8BBE8B81E08D8381E08C831E821F8270
:102DC000188619861A861B861C861D8603C08031CC
:102DD00031F080E0DF91CF911F910F9108959E0116
:102DE0002D5E3F4F8B8D9C8D0E94F60F882389F3BB
:102DF00084E0E1CFAF92BF92CF92DF92EF92FF9249
:102E00000F931F93CF93DF93CDB7DEB72B970FB6FA
:102E1000F894DEBF0FBECDBF6C01FE013196CE012E
:102E20000C967F0120E22193E817F907E1F7DA0118
:102E300020E037E09D91B92E9923A9F19E32B9F493
:102E40003A3091F480E02B960FB6F894DEBF0FBEB7
:102E5000CDBFDF91CF911F910F91FF90EF90DF9049
:102E6000CF90BF90AF90089528E03AE0E3CFE5E738
:102E7000F5E08491882321F031969813FACFE2CFC0
:102E8000321700F38FED890F8E35E0F68FE9890F49
:102E90008A3118F440EEB42EB90EF701E20FF11D9D
:102EA000B0822F5FC7CF8981803261F28B01FB0135
:102EB000838D948DF601948F838FFB011682178288
:102EC000108611861286138614861586F80182856F
:102ED0009385A485B5854389548965897689841746
:102EE0009507A607B70708F0ADCF25E0B695A795DB
:102EF000979587952A95D1F7F82FFF70AF2EF80197
:102F00008581823008F49ECFC8010E94491297FD46
:102F100099CFF80182859385A485B5854F96A11D2B
:102F2000B11D82879387A487B587F0E2AF9EB00179
:102F300011246E587C4F6115710509F483CFFB0194
:102F40008081882309F1853E19F4B11032C01EC07A
:102F50004BE050E0C7010E94542A892B09F0B6CFFC
:102F60006A2DC6012B960FB6F894DEBF0FBECDBFFB
:102F7000DF91CF911F910F91FF90EF90DF90CF9055
:102F8000BF90AF900C949E16B1105CCFF601A28A50
:102F90008091130190911401A0911501B091160137
:102FA00086879787A08BB18BFB018081882309F4EA
:102FB00049CFBB24B3948ACF2F923F924F925F9216
:102FC0006F927F928F929F92AF92BF92CF92DF9239
:102FD000EF92FF920F931F93CF93DF93CDB7DEB79E
:102FE0006B970FB6F894DEBF0FBECDBF9E838D8367
:102FF0003B014A875B8738872F831801C9862DB725
:103000003EB7398F288FC80101966DB77EB7681B10
:10301000790B0FB6F8947EBF0FBE6DBF8DB79EB70C
:1030200001969D878C87E9A9FAA92BA93CA9E217EB
:10303000F307C9F0AE9C8001AF9C100D112488A944
:10304000820D932D911DC89E9001C99E300D1124B3
:10305000CBA8DCA876014F8158856A857B858D8158
:103060009E810E940B0A2301B301680D791D798BA3
:10307000688B50E040E0B12C20E08A2D90E09F87E3
:103080008E873985329DF001339DF00D1124FB8F21
:10309000EA8F688979896415750509F493C0F2018E
:1030A000849167E070E07C836B83E82FF0E0FF8B16
:1030B000EE8BEC85FD85E20FF11D8E899F890B80DB
:1030C00002C0959587950A94E2F7382F31703083C6
:1030D0002F5F81709927480F591F22151304E9F4B7
:1030E00041155105B1F02416350621F54F81AB9CF1
:1030F000400D112450E0CBA8DCA8E9A8FAA80E8561
:103100001F852A8D3B8D6A857B858D819E810E94DE
:103110000B0AB39450E040E020E06B817C81615069
:1031200071097C836B836F3F7F4F19F69FEF491ABC
:10313000590AAFCF2F813885AB9C200D311D11244A
:103140003B8B2A8B3A8539834B854A83712C612CC2
:10315000812CAC85BD85A60DB71D62147304CCF619
:103160002C91FD01C30128163906BCF331912313BC
:1031700006C02816390619F083940196F4CF682DFD
:1031800070E07D8B6C8B7985789D40011124222322
:1031900071F0C9A8DAA876010E851F8594014A89C5
:1031A0005B8969817A818D819E810E940B0A8C895D
:1031B0009D89680E791EE981FA81E80DF91DFA836F
:1031C000E983C6CFE88DF98D0FB6F894FEBF0FBE28
:1031D000EDBF6B960FB6F894DEBF0FBECDBFDF918B
:1031E000CF911F910F91FF90EF90DF90CF90BF9004
:1031F000AF909F908F907F906F905F904F903F9097
:103200002F900895FB0101900020E9F73197AF015D
:10321000461B570BDC01ED91FC910280F381E02D00
:1032200009940F931F93CF93DF93EC010E9402192F
:103230008C0161EB72E0CE010E940219800F911F98
:10324000DF91CF911F910F9108950F931F93CF930B
:10325000DF93EC01662379F189EE90E00E94A208E9
:10326000EC81FD818585968524813581820F931FB0
:103270009687858787858823C9F00F811885F8018F
:1032800060AD71ADC8010E941A16F801148613864C
:103290001286118664EB72E08F8198850E94111965
:1032A0006BEB72E08F8198850E941119DF91CF91AD
:1032B0001F910F9108958AEE90E00E94A208EC8180
:1032C000FD818585968524813581821B930B9687A8
:1032D00085878785882351F309851A85F80160ADB4
:1032E00071ADC8010E941A16F80114861386128661
:1032F000118664EB72E089859A850E94111966EC4B
:1033000072E089859A85D0CFEF92FF920F931F9339
:10331000CF93DF93EC0163ED72E082E795E00E94CA
:10332000111960E0CE010E942519EC81FD811786FC
:1033300004E610E060E0CE010E9425196AE070E02A
:1033400080E090E00E94DE050150110999F7EC81C0
:10335000FD8181E0878716861586E280F38011E083
:10336000EC81FD81858596858E159F058CF46AE03C
:1033700070E080E090E00E94DE0561E0CE010E94F6
:103380002519112369F3EC81FD81178610E0E8CF40
:10339000EC81FD8185859685E816F9068CF46AE056
:1033A00070E080E090E00E94DE0560E0CE010E94C7
:1033B0002519112369F3EC81FD81178610E0E8CF10
:1033C00081E087876CEE72E08A819B81DF91CF91EB
:1033D0001F910F91FF90EF900C941119EF92FF92B3
:1033E0000F931F93CF93DF93EC017B018A011B8224
:1033F0001A8288EE93E0A0E0B0E08C839D83AE83D8
:10340000BF838DE492E0998388838DE190E00E94F0
:103410002F299A8F898F009779F02DE1F701DC0130
:1034200001900D922A95E1F74CE050E0B801CE01F1
:103430000C960E94612A188EDF91CF911F910F91F7
:10344000FF90EF9008952F923F924F925F926F926C
:103450007F928F929F92AF92CF92DF92EF92FF92E4
:103460000F931F93CF93DF93EC013B011A01452B80
:1034700051F4FB0101900020E9F731971F01261A52
:10348000370A09F469C219A5112309F491C0C8A02B
:10349000D9A0D60113968C917301512C412C88230D
:1034A00009F459C08E8D9F8D289E2001299E500CB5
:1034B000389E500C11242FA1249DC001259D900DF4
:1034C000112497FD019695958795F6012481358104
:1034D000231B330B68A5629FA001639F500D11242D
:1034E00057FF02C04F5F5F4F559547952FA9143086
:1034F00008F0B8C0222309F496C0113009F03CC08E
:103500002D813E8137FF02C02F5F3F4F35952795B4
:10351000281B31093C872B873EC06D30E1F06A30B3
:10352000D1F0CE010E94DD0997FD15C0FC01EE0F20
:10353000FF1F8E0F9F1FD6011196ED91FC91E80F92
:10354000F91F0180F281E02D3296E4914E0E511C5C
:10355000EAA14E0E511CC7018619970982159305E1
:103560000CF0A9CFF70161917F016032B1F68E8D29
:103570009F8D480E591EEFCF2F81388537FF02C02F
:103580002F5F3F4F35952795241B31093A872987AF
:10359000123009F0B5CF89859A8597FF02C01A8647
:1035A00019868B859C8597FF02C01C861B8619A6F1
:1035B00080913E0690913F060E948B0BEB89FC891F
:1035C0009081898D809589238083260C371C261451
:1035D000370409F4BBC1D3016D913D016D30B9F3DE
:1035E0006A3009F072C0E8A1F9A184819AA5890F17
:1035F00098A5899F802D112490E02FA9211152C0F8
:103600002B853C854F815885280F391F421753075A
:103610000CF49CC11A8619862B853C85820F931F5A
:103620009C878B87D4CF113069F42D813E8137FF81
:1036300002C02F5F3F4F35952795281B31093A87E8
:103640002987A9CF2F81388537FF02C02F5F3F4FD1
:1036500035952795241B31093C872B87123009F4B7
:103660009ACFE3CF222379F0143019F42B853C85CF
:103670004FCF29853A85241B31093A872987153090
:1036800009F489CFF3CF143019F429853A85D5CFC1
:103690002B853C85241B31093C872B87153009F489
:1036A0007ACFF3CF29853A854D815E81280F391F66
:1036B000421753070CF44AC129853A85820F931F9C
:1036C0009A8789871C861B8682CF603209F06BC07F
:1036D000FAA18E8D9F8D8F0F911D2BA13CA1EDA086
:1036E000FEA04FA9411133C0EFA1E89F502C112437
:1036F000E216F30629F189859A852D813E81850D93
:10370000911D8217930734F08D819E8129853A851A
:10371000582E521A4B855C8569857A85A8A1B9A176
:1037200014968C9108A5809F80011124252D30E0EE
:10373000FE9F200D311D11246701CE010E940B0A4E
:1037400089859A85850D911D9A87898740CF98A490
:10375000989E902C1124E216F30601F18B859C852E
:103760002F813885890D911D8217930734F08F8141
:1037700098852B853C85982E921A49855A856B85AC
:103780007C85E8A1F9A104818FA1089F8001112403
:10379000292D30E06701CE010E940B0A8B859C85A4
:1037A000890D911D3DCFCE010E94DD0997FD0FCF00
:1037B000A8A1B9A18C01000F111F080F191F1196A4
:1037C000ED91FC911297E00FF11F61817281FB0175
:1037D0003296D4904D2C512C8FA94AA19BA59923A8
:1037E00009F4A1C0811179C089859A855FA12D81D5
:1037F0003E81D59E800D911D1124549F800D911DF9
:10380000112482179307A4F01A8619862B853C850C
:1038100014964C918AA5480F5527551FE8A5E49F9B
:10382000C001E59F900D1124820F931F9C878B8709
:1038300042E050E088E493E00E94DB266091480378
:1038400070914903A8A1B9A111968D919C911297ED
:10385000080F191FF80181819281FC013396859030
:1038600094909FA914968C9191118CC04B855C8586
:10387000E82EF12CA8A42F8138858A9D400D511D7A
:103880001124241735070CF461C02B853C8549852C
:103890005A858EA18F938DA18F938CA18F938BA12D
:1038A0008F938AA18F93CFA08201CE010E94DC1753
:1038B00029853A859AA1490E511C4FA1449DC0010A
:1038C000459D900D1124820F931F9A8789870F9031
:1038D0000F900F900F900F907ACE8B859C8558A5F6
:1038E0002D813E81D59E800D911D1124549F800D08
:1038F000911D1124821793070CF49ACF49855A859C
:1039000014962C918AA5280F3327331FEFA1E29F2D
:10391000C001E39F900D1124840F951F9A8789871A
:103920001C861B8685CF882349F18B859C8558A5ED
:103930002D813E81D59E800D911D1124549F800DB7
:10394000911D1124821793070CF472CFEB89FC8927
:103950008081998D892B8083DF91CF911F910F9169
:10396000FF90EF90DF90CF90AF909F908F907F90DF
:103970006F905F904F903F902F90089589859A8522
:103980005FA1D6CF49855A85E82EF12CCFA02D8195
:103990003E818C9D400D511D112424173507B4F232
:1039A00029853A854B855C858EA18F938DA18F9358
:1039B0008CA18F938BA18F938AA18F93A8A482014E
:1039C000CE010E94DC178B859C853AA128A5EFA12A
:1039D000DE9EF0011124329FE00DF11D1124E80F4D
:1039E000F91FFC87EB8773CFCF93DF93EA010E9427
:1039F000231ACE01DF91CF910895CF93DF931F92C9
:103A0000CDB7DEB7698341E050E0BE016F5F7F4F05
:103A10000E94231A81E090E00F90DF91CF910895EA
:103A20001F920F920FB60F9211248F939F93809144
:103A3000E1009091E100937F9093E10083FF0FC03C
:103A40001092E90091E09093EB001092EC0092E369
:103A50009093ED0010926E0398E09093F00082FF37
:103A600022C093E09093E9009091F200992319F01D
:103A70009AE39093E80090916C03992341F0909120
:103A80006C03915090936C03911101C05D9A9091D9
:103A90006D03992341F090916D03915090936D03C4
:103AA000911101C0289A84FF18C08091E2008E7E97
:103AB00081608093E2008091E1008F7E8093E1003D
:103AC00080916B038E7E806180936B039F918F91B9
:103AD0000F900FBE0F901F90189580FFF7CF809129
:103AE000E2008E7E80618093E2008091E1008E7E14
:103AF0008093E10080916B038E7E8160E5CF1F9201
:103B00000F920FB60F921124CF92DF92EF92FF9295
:103B10000F931F932F933F934F935F936F937F93D5
:103B20008F939F93AF93BF93EF93FF93CF93DF93C5
:103B3000CDB7DEB76C97DEBFCDBF1092E9008091A4
:103B4000E80083FF25C068E0CE0145960E9402048C
:103B500082EF8093E8008D8987FF39C09091E8005B
:103B600090FFFCCF982F907609F034C19E894F8941
:103B7000588D2F89F88C911131C0803861F5809172
:103B80006A038093F1001092F1008EEF8093E800B9
:103B90006C960FB6F894DEBF0FBECDBFDF91CF910C
:103BA000FF91EF91BF91AF919F918F917F916F9115
:103BB0005F914F913F912F911F910F91FF90EF9047
:103BC000DF90CF900F900FBE0F901F9018959EEF33
:103BD0009093E800C7CF1092F100D5CF913059F4FF
:103BE0008111D3CF4130510581F680916A038D7FD9
:103BF00080936A03CACF933049F48111C6CF413014
:103C0000510519F680916A038260F2CF953041F434
:103C10008091E80080FFFCCF20682093E300B5CFBF
:103C2000963009F0A9C00B8D1C8D22E01092E9009E
:103C30001092680310926703F2122EC0109266036E
:103C4000109265030E9450041F8299E09983FA82C2
:103C500091E09E8390EA98879AEF99872091670375
:103C600030916803275F3F4F3C832B838D831092F5
:103C7000E9001092680310926703109366030093A3
:103C8000650349E050E0BE016F5F7F4F80E00E9416
:103C9000CB030E94500479CF109366030093650311
:103CA0000E943C04DC0112960D911C910115110536
:103CB00009F451C1D801ED91FC910480F581E02D0A
:103CC000BE016B5E7F4FC8010995009709F03EC1A8
:103CD000F80100851185EACFF3E0FF120EC08F894D
:103CE000882309F440C0823061F440E860E184E652
:103CF00095E00E949803811148CF81E28093EB0008
:103D000047CF813029F440E86BE088E595E0F1CFBA
:103D1000833099F70E943C04DC011296ED90FC90F0
:103D20008E010F5F1F4F6801E114F10479F0D70194
:103D3000ED91FC910680F781E02DB801C70109954E
:103D4000080F111DF701E084F184EECFD8011C9219
:103D5000F60101900020E9F73197BF016C197D0948
:103D600040E0C601C6CF62E475E0FB01449150E03B
:103D700080E80E94CB0309CF973009F4BECF98307A
:103D800021F481E08093F10000CF993009F0FDCE5D
:103D9000837009F0B2CFEDE0F1E081E031E096E32D
:103DA0002191222371F08093E9003093EB00DF0131
:103DB00011972C912093EC009093ED008F5F87304A
:103DC00079F78EE78093EA001092EA008F8980935A
:103DD0006E03DBCE8B8D9C8D1092E90010926803F0
:103DE000109267039093660380936503898D811118
:103DF00092C08E899D89913A49F4813209F07DCF34
:103E000047E050E064E071E080E0B3CF913209F028
:103E100074CF833269F48F89988DB0E0A0E08093ED
:103E2000000190930101A0930201B0930301ADCE74
:103E3000803269F48091E80082FFFCCF67E084E083
:103E400091E00E9402048BEF8093E8009ECE8232C4
:103E500009F09BCE8F8980930B01EEEFFFE78591F0
:103E600094918B3F9C4D51F1E0E0F8E0809104018A
:103E700090910501A0910601B0910701803B94400B
:103E8000A105B105F1F480910B0180FD1AC0EE3F50
:103E90008AE0F80789F587E797E791838083809127
:103EA00060008093690388E19BE00FB6F894A895C1
:103EB000809360000FBE9093600067CEEEEFFAE053
:103EC000D5CF808191818737974709F05ECEA8953D
:103ED0008091600088618093600080916903809385
:103EE0006000EE3F2AE0F20789F08091FE0A90918F
:103EF000FF0A9183808349CE80819181873798071B
:103F000051F29093FF0A8093FE0AC5CF1092FF0AE8
:103F10001092FE0A3ACE0E943C04DC0112960D91EA
:103F20001C910115110509F4E8CED801ED91FC9121
:103F30000190F081E02DBE016B5E7F4FC8010995B5
:103F4000811123CEF80100851185EBCF18161906D3
:103F50000CF41BCED2CEF1E0FF12BECE66E475E0CB
:103F600004CF1F920F920FB60F9211242F933F93FD
:103F70008F939F93AF93BF9380915103909152037E
:103F8000A0915303B09154033091500323E0230FC9
:103F90002D3758F50196A11DB11D20935003809334
:103FA000510390935203A0935303B0935403809111
:103FB000550390915603A0915703B0915803019671
:103FC000A11DB11D8093550390935603A0935703F1
:103FD000B0935803BF91AF919F918F913F912F91D3
:103FE0000F900FBE0F901F90189526E8230F029692
:103FF000A11DB11DD2CFCF931092750510927405FB
:1040000088EE93E0A0E0B0E080937605909377058A
:10401000A0937805B093790587E692E090937305B5
:10402000809372058FEF9FEF90937F0580937E05BD
:1040300080E58093C2051092C3051092C9051092C5
:10404000CA051092CD051092CF0582E090E0A0E065
:10405000B0E08093D0059093D105A093D205B093A2
:10406000D3051092E7051092F1051092F00589E74B
:1040700092E09093EF058093EE051092F30581E9AD
:1040800092E0909335068093340680912C0681113E
:1040900013C0109227061092260685E895E09093AB
:1040A00029068093280689E190E090932B0680935F
:1040B0002A0681E080932C0680911E0681112AC079
:1040C000C1E0C0931106C093120687E196E0909379
:1040D000140680931306109216061092150685E8B2
:1040E00092E090930E0680930D061092190610929E
:1040F000180610921B0610921A06C0931C06C09355
:104100001D0681EC809317060E943C040E94FA026F
:10411000C0931E06E0911806F0911906309709F039
:10412000E6C086E296E09093190680931806809187
:104130001A0690911B0620912A0630912B06820FB9
:10414000931F90931B0680931A0680E580933E068A
:1041500010923F0683E090E09093410680934006E2
:1041600086E0EDE1F1E0A2E4B6E001900D928A95DF
:10417000E1F710924D0610924C0621EA32E030939E
:104180004B0620934A0682E1809365069AE090935D
:1041900066068FEF80934E0610928906109288066D
:1041A000309387062093860643E14093A1069093BF
:1041B000A20680938A061092C5061092C406309318
:1041C000C3062093C20624E12093DD069093DE0609
:1041D0008093C60681E093E09093FF068093FE06ED
:1041E0008EE393E0909301078093000784EF91E0C2
:1041F000909306078093050784E690E09093080764
:104200008093070782E090E090930A078093090764
:104210008DEA92E09093180780931707809123010D
:1042200090912401A0912501809324079093250764
:10423000A093260788E0809327078091260190911C
:104240002701A09128018093280790932907A09324
:104250002A0710922D071092310710923007109202
:10426000320787E992E090932C0780932B07E7E4CD
:10427000F7E01082148213821582369687E0E338C5
:10428000F807B9F787E297E090938E0780938D0740
:1042900088E297E09093900780938F0781E0809366
:1042A000910783E08093920784E297E090938C07D4
:1042B00080938B078AE090E0909394078093930714
:1042C00084EF91E090939607809395071092990759
:1042D000109298071092870710928807109289070A
:1042E00010928A0710929707CF910895FC01808160
:1042F00091810097D9F786E296E09183808317CF6A
:10430000CF93DF93CDB7DEB7C857D1090FB6F89476
:10431000DEBF0FBECDBF789484B5826084BD84B506
:10432000816084BD85B5826085BD85B5816085BDB0
:1043300080916E00816080936E0010928100809168
:1043400081008260809381008091810081608093F0
:104350008100809180008160809380008091910035
:1043600082608093910080919100816080939100A0
:10437000809190008160809390008091C100846062
:104380008093C1008091C10082608093C1008091C0
:10439000C10081608093C1008091C30081608093DF
:1043A000C3008091C00082608093C0008091C200F1
:1043B00081608093C20080917A00846080937A004B
:1043C00080917A00826080937A0080917A00816087
:1043D00080937A0080917A00806880937A001092AE
:1043E0006E0310926A0310926B038091D700816074
:1043F0008093D70080EA8093D80089B5806189BD19
:1044000089B5826089BD09B400FEFDCF61E070E02E
:1044100080E090E00E94DE058091D8008F7C806172
:104420008093D8008091E000807F8093E0008091AD
:10443000E1008E7E8093E1008DE08093E200559A4A
:10444000209A8FEF9FEF90937F0580937E0568EE13
:1044500073E080E090E00E94DE050AE4602E06E052
:10446000702E6301912C812CFF24F394212C312C8C
:1044700084EB482E83E4582E40914006509141062B
:10448000841695060CF067C22CE3289DF001299D47
:10449000F00D1124E05CF94F108ED601D5961C92D8
:1044A000D597D7961C92D797178A9D961C929D9761
:1044B000148A138A168A158A9896FC92989797966A
:1044C000FC92979799961C9299979A961C929A9714
:1044D00092961C9292979B96FC929B9720E15D96F8
:1044E0002C935D97808D8064808F808D8460808F19
:1044F000D9961C921E92D8978FEF9FEFDB969C93D4
:104500008E93DA9796969C938E93959794969C9318
:104510008E9393979F962D923D924D925C92D29757
:10452000E6EAFFEFD496FC93EE93D397F0E5F09391
:104530003E06F0923F0661E05C968C910E947D05FC
:1045400061E0D6015B968C910E947D05F601238D7A
:1045500030E0F901EF51FB4FE491F0E0EE0FFF1F67
:10456000ED52FB4F85919491D60154969C938E9376
:1045700053975C968C915C9790E0FC01EF51FB4F58
:10458000E491F0E0EE0FFF1FED52FB4F4591549187
:10459000F601568B458BF901EC54FB4FE49159968B
:1045A000EC935997FC01EC54FB4FE4915A96EC9331
:1045B0000E94DA08D6015396ED91FC9154978081C0
:1045C00059969C915997892B80835596ED91FC9132
:1045D000569780815A969C915A97892B808314967E
:1045E0008C918F3F29F161E00E947D0561E0F60129
:1045F00084810E944F056AE070E080E090E00E94B4
:10460000DE0560E0D60114968C910E944F056AE0A9
:1046100070E080E090E00E94DE0561E0F6018481B8
:104620000E944F056AE070E080E090E00E94DE05A5
:104630006EE170E080E090E00E94DE0580913E0631
:1046400090913F060E948B0BD6015396ED91FC9101
:104650005497908159968C91809589238083BCE3EF
:10466000B89DF001B99DF00D1124E05CF94F808DEB
:104670008062808F42E16DEFC6010E94710B41EBB9
:104680006DEFC6010E94710B6EEAC6010E947A09A5
:1046900041EF63EBC6010E94710B4FE76AECC60164
:1046A0000E94710B40E061EAC6010E94710B40E07C
:1046B00062EAC6010E94710B40E065EBC6010E94F0
:1046C000710B41E06BEAC6010E94710B64EBC601FD
:1046D0000E947A0960EAC6010E946B0965EBC60177
:1046E0000E946B0965E5C6010E946B0961ECC60179
:1046F0000E947A0968ECC6010E946B0960E8C60155
:104700000E946B0968ECC6010E946B094FE067ECE0
:10471000C6010E94710B62EBC6010E947A0964EA2D
:10472000C6010E946B0960E0C6010E946B0960E04F
:10473000C6010E946B0969EBC6010E947A0942E337
:1047400061EBC6010E94710B41E066EBC6010E945D
:10475000710B45E06EEBC6010E94710B66EAC60163
:104760000E947A09D6015596ED91FC915697908159
:104770005A968C91809589238083BFEABEBD0DB483
:1047800007FEFDCFD6015396ED91FC9154978081A1
:1047900059969C91892B80836CE370E080E090E0D7
:1047A0000E94DE05F60116AA17AAFCE3F89DC001D7
:1047B000F99D900D11249C01205C394F5901D901BC
:1047C00058968C915897847E58968C935897E0E829
:1047D000F0E05096FC93EE931F975296FC93EE9365
:1047E000519758968C915897806158968C9358970A
:1047F00054961C921E92539756961C921E92559751
:1048000080913E0690913F060E948B0BD6015396F5
:10481000ED91FC915497908159968C9180958923C4
:104820008083F5010785108921893289015011099A
:1048300021503109E12C50E040E070E060E0C60119
:104840000E948A0960EAC6010E947A09D501589639
:104850009C91D6015596ED91FC91569780815A9680
:104860002C91822B80839EBD0DB407FEFDCFD60117
:104870005396ED91FC915497808159969C9159974C
:10488000892B8083D8966D917C91C6010E941A165F
:104890002BE532E0F60131A320A314A660E2C601A5
:1048A0000E94DD0997FDF4CFFC01EE0FFF1FE80F1A
:1048B000F91FE75DFE4F0180F281E02D3296E49111
:1048C000F0E0D6015F96FC93EE935E9761E070E0B6
:1048D00080E090E00E94DE05F60185A98823A1F121
:1048E00080913E0690913F060E948B0BD601539615
:1048F000ED91FC915497908159968C9159978095A0
:1049000089238083D5968C91863021F46FEAC60185
:104910000E947A09F60185A9893029F442E16DEFF8
:10492000C6010E94710B66EAC6010E947A09D6018F
:10493000D5961C92D5975396ED91FC915497808112
:1049400059969C91892B8083BFEF8B1A9B0AECE3CD
:10495000CE0ED11C91CD8AE496E0909349068093C7
:104960004806E0E4F6E090E080E022E08417950756
:104970002CF422AB21AB0196FC96F8CFE6E3F6E0EF
:1049800088E0DF011D928A95E9F748E050E0BF0119
:1049900084E396E00E944B080E94C00660930E07D5
:1049A00070930F07809310079093110781E0809315
:1049B00014071092150710921607E9961FAE1EAE47
:1049C000E99742E5E42E50E5D52E63E0C62E72E06D
:1049D000F72EEAE08E2E912CA12CB12C8091F305BC
:1049E000882321F08EEE95E00E943B141092CF05B3
:1049F0001092CD051092CA051092C905B5E1B09389
:104A0000C8050E94C0068B0161E08091C8050E9424
:104A10007D0561E08091C8050E944F050E94DA087B
:104A2000E092C2051092C3058091C2059091C30522
:104A30000E948B0B3AE0532E8FEF0E94CC065A94C3
:104A40005110FACF84EC95E00E948E0B20E030E00C
:104A5000A90160E084EC95E00E94A40B582E80939D
:104A6000CE05E1E08E1759F00E94C006601B710B65
:104A7000613D774058F381E08093C90544C02AEA3C
:104A800031E040E050E068E084EC95E00E94A40B47
:104A900082FF2BC05092CF058091CF05212C312C65
:104AA0002101823029F4212C312C412C90E4592E03
:104AB00020E030E0A90167E384EC95E00E94A40BBC
:104AC000A201910169E284EC95E00E94A40B80931D
:104AD000CE05882309F488C00E94C006601B710BB4
:104AE000613D774028F388E0C7CF24E0522E0E9432
:104AF000D3068093CE055A945110F9CF8A3A09F41F
:104B000070C0F092C90584EC95E00E94800B64E1CE
:104B100073E082E795E00E940219E9962EAC3FAC63
:104B2000E9978FEF281A380A032C000C440855081F
:104B300057FEE5C06DE282E795E00E9481042227DE
:104B40003327A901221933094409550919A28E01F5
:104B50000F5D1F4FCA01B901A50194010E94EF2604
:104B6000605DD8016E938D01211531054105510518
:104B700089F70115110529F0B80182E795E00E9437
:104B8000021961EB72E082E795E00E940219E99652
:104B90008EAD9FADE99709970CF4C7C067E273E04B
:104BA00082E795E00E94111980E080939A0710E057
:104BB00000E08CE3F82E80914006909141060817A2
:104BC00019070CF4E0C000E010E063E473E082E752
:104BD00095E00E94111901151105B9F30E9400001A
:104BE000F4CFF092CF0558CF8091CF058230D9F421
:104BF00020E030E0A9016AE384EC95E00E94A40B78
:104C0000882321F036E03093C9057DCF0E94D3067A
:104C1000807C803C11F4C092CF050E94D3060E9494
:104C2000D3060E94D30684EC95E00E94800BD092BC
:104C3000C2051092C30581E00E94AA0D882309F4E1
:104C400057C08EEE95E00E946110882309F45FCF73
:104C500064E073E082E795E00E9411191C821B82D8
:104C600009E712E01A8309831E82CE0101960E9491
:104C70006110BE016F5F7F4FCE01CF960E94F1069B
:104C80001DA21CA21BA30AA31FA225968FAD2597C8
:104C9000811155C0A0961FAE1EAEA09788EE93E07E
:104CA000A0E0B0E0A4968CAF9DAFAEAFBFAFA4972D
:104CB0008DE492E06E969FAF8EAF6E97E7961FAE33
:104CC0001EAEE797A9961FAEA997CE01845A9F4FB3
:104CD0000E944107892B09F454C0CE01845A9F4F8A
:104CE0000E946913682F82E795E00E948104EDCF4E
:104CF00080E00E94AA0D882309F409CFA2CFA20167
:104D0000910119A28E010F5D1F4FCA01B901A501C2
:104D100094010E94EF26605DF80162938F012115D6
:104D200031054105510589F724CFE9968EAD9FAD38
:104D3000E9970196E9969FAF8EAFE9974FCE49E389
:104D400053E0BE01615C7F4FCE0182960E94FA164D
:104D5000882309F49FCFCE01CF960E943B14BE0159
:104D60006E5D7F4FCE0101960E94F10649E353E04C
:104D7000BE016F5F7F4FCE01845A9F4F0E94EE1994
:104D8000A4CF81E012CFD301D8966D917C91C3015D
:104D90000E941A16F09EF001F19EF00D1124E05CC5
:104DA000F94F168A158A148A138A0F5F1F4FBCE3C6
:104DB0006B0E711C00CFFB01DC0102C005900D924F
:104DC00041505040D8F708950E941127A59F900D9B
:104DD000B49F900DA49F800D911D11240895A1E210
:104DE0001A2EAA1BBB1BFD010DC0AA1FBB1FEE1F65
:104DF000FF1FA217B307E407F50720F0A21BB30BB0
:104E0000E40BF50B661F771F881F991F1A9469F72B
:104E100060957095809590959B01AC01BD01CF0187
:104E20000895A29FB001B39FC001A39F700D811D83
:104E30001124911DB29F700D811D1124911D0895A3
:104E40005058BB27AA270E9438270C9482280E941A
:104E5000742838F00E947B2820F039F49F3F19F421
:104E600026F40C9471280EF4E095E7FB0C946B2863
:104E7000E92F0E94932858F3BA1762077307840733
:104E8000950720F079F4A6F50C94B5280EF4E0957A
:104E90000B2EBA2FA02D0B01B90190010C01CA01F4
:104EA000A0011124FF27591B99F0593F50F4503E9F
:104EB00068F11A16F040A22F232F342F4427585F91
:104EC000F3CF469537952795A795F0405395C9F7A9
:104ED0007EF41F16BA0B620B730B840BBAF0915061
:104EE000A1F0FF0FBB1F661F771F881FC2F70EC000
:104EF000BA0F621F731F841F48F4879577956795D3
:104F0000B795F7959E3F08F0B0CF9395880F08F0BE
:104F10009927EE0F9795879508950E94A1270C94E5
:104F200082280E947B2858F00E94742840F029F4BF
:104F30005F3F29F00C946B2851110C94B6280C9407
:104F400071280E94932868F39923B1F3552391F3B4
:104F5000951B550BBB27AA2762177307840738F0E8
:104F60009F5F5F4F220F331F441FAA1FA9F335D045
:104F70000E2E3AF0E0E832D091505040E695001CF9
:104F8000CAF72BD0FE2F29D0660F771F881FBB1FB3
:104F9000261737074807AB07B0E809F0BB0B802D91
:104FA000BF01FF2793585F4F3AF09E3F510578F0BD
:104FB0000C946B280C94B6285F3FE4F3983ED4F32E
:104FC000869577956795B795F7959F5FC9F7880F91
:104FD000911D9695879597F90895E1E0660F771FE3
:104FE000881FBB1F621773078407BA0720F0621B74
:104FF000730B840BBA0BEE1F88F7E09508950E949F
:105000009B2888F09F5798F0B92F9927B751B0F097
:10501000E1F0660F771F881F991F1AF0BA95C9F73C
:1050200014C0B13091F00E94B528B1E008950C94FD
:10503000B528672F782F8827B85F39F0B93FCCF3B0
:10504000869577956795B395D9F73EF490958095B9
:10505000709561957F4F8F4F9F4F0895E89409C0D9
:1050600097FB3EF490958095709561957F4F8F4F9B
:105070009F4F9923A9F0F92F96E9BB279395F695B1
:10508000879577956795B795F111F8CFFAF4BB0F2F
:1050900011F460FF1BC06F5F7F4F8F4F9F4F16C093
:1050A000882311F096E911C0772321F09EE8872F1D
:1050B000762F05C0662371F096E8862F70E060E0D9
:1050C0002AF09A95660F771F881FDAF7880F969552
:1050D000879597F9089597F99F6780E870E060E0F9
:1050E00008959FEF80EC089500240A941616170681
:1050F00018060906089500240A94121613061406C9
:1051000005060895092E0394000C11F4882352F02B
:10511000BB0F40F4BF2B11F460FF04C06F5F7F4FE3
:105120008F4F9F4F089557FD9058440F551F59F0CA
:105130005F3F71F04795880F97FB991F61F09F3F84
:1051400079F087950895121613061406551FF2CFAD
:105150004695F1DF08C0161617061806991FF1CFFD
:1051600086957105610508940895E894BB27662724
:105170007727CB0197F908950E94CF280C948228B5
:105180000E94742838F00E947B2820F0952311F0AB
:105190000C946B280C94712811240C94B6280E944E
:1051A000932870F3959FC1F3950F50E0551F629FB0
:1051B000F001729FBB27F00DB11D639FAA27F00D70
:1051C000B11DAA1F649F6627B00DA11D661F829F97
:1051D0002227B00DA11D621F739FB00DA11D621F7C
:1051E000839FA00D611D221F749F3327A00D611D99
:1051F000231F849F600D211D822F762F6A2F11247B
:105200009F5750409AF0F1F088234AF0EE0FFF1FAD
:10521000BB1F661F771F881F91505040A9F79E3F04
:10522000510580F00C946B280C94B6285F3FE4F392
:10523000983ED4F3869577956795B795F795E7955A
:105240009F5FC1F7FE2B880F911D9695879597F963
:105250000895EE0FFF1F0590F491E02D09940F9330
:105260001F93CF93DF938230910510F482E090E09A
:10527000E0919D07F0919E0730E020E0B0E0A0E0D3
:10528000309799F42115310509F44AC0281B390BD0
:1052900024303105D8F58A819B816115710589F12A
:1052A000FB0193838283FE0111C040815181028101
:1052B000138148175907E0F04817590799F41097D8
:1052C00061F012960C93129713961C933296CF01AD
:1052D000DF91CF911F910F91089500939D07109337
:1052E0009E07F4CF2115310551F04217530738F0CE
:1052F000A901DB019A01BD01DF01F801C1CFEF0176
:10530000F9CF90939E0780939D07CDCFFE01E20FCA
:10531000F31F819391932250310939832883D7CF8A
:1053200020919B0730919C07232B41F42091190178
:1053300030911A0130939C0720939B07209117010D
:10534000309118012115310541F42DB73EB7409138
:105350001B0150911C01241B350BE0919B07F09120
:105360009C07E217F307A0F42E1B3F0B2817390701
:1053700078F0AC014E5F5F4F2417350748F04E0FB1
:105380005F1F50939C0740939B07819391939FCFFE
:10539000F0E0E0E09CCFCF93DF930097E9F0FC01D1
:1053A000329713821282A0919D07B0919E07ED0162
:1053B00030E020E01097A1F420813181820F931F0B
:1053C00020919B0730919C072817390709F061C08D
:1053D000F0939C07E0939B07DF91CF910895EA013A
:1053E000CE17DF07E8F54A815B819E014115510523
:1053F000B1F7E901FB83EA8349915991C40FD51FA5
:10540000EC17FD0761F4808191810296840F951F4E
:10541000E90199838883828193819B838A83F0E069
:10542000E0E012968D919C9113970097B9F52D911C
:105430003C911197CD010296820F931F20919B07FB
:1054400030919C072817390739F6309751F510929B
:105450009E0710929D07B0939C07A0939B07BCCF1B
:10546000D383C28340815181840F951FC817D90708
:1054700061F44E5F5F4F88819981480F591F5183B6
:1054800040838A819B81938382832115310509F0B2
:10549000B0CFF0939E07E0939D079ECFFD01DC0106
:1054A000C0CF13821282D7CFFB01DC0104C08D91E3
:1054B0000190801921F441505040C8F7881B990B86
:1054C0000895FB01DC014150504048F001900D92DD
:1054D0000020C9F701C01D9241505040E0F70895E7
:0454E000F894FFCF6E
:1054E400FFFFFFFF00E100000000000000C1808119
:1054F400000000FFFFFFFF00009F07800012001361
:10550400001400313233030405207404216F042293
:105514006A04236504246004255B04265604275189
:1055240004284C042947042A42042B3D042C380443
:105534002D33042E2E042F2904302404311F043269
:105544001A04331504341004350B043606043701E9
:105554000438FC0339F7033AF2033BED033CE80358
:105564003DE3033EDE033FD90340D40341CF03426E
:10557400CA0343C50344C00345BB0346B60347B14E
:105584000348AC0349A7034AA2034B9D034C980369
:105594004D93034E8E034F8903508403517F03526E
:1055A4007A03537503547003556B035666035761AE
:1055B40003585C035957035A52035B4D035C480379
:1055C4005D43035E3E035F3903603403612F03626E
:1055D4002A03632503642003651B0366160367110E
:1055E40003680C036907036A02036BFD026CF8028B
:1055F4006DF3026EEE026FE90270E40271DF027273
:10560400DA0273D50274D00275CB0276C60277C172
:105614000278BC0279B7027AB2027BAD027CA8029E
:105624007DA3027E9E02B09902000000007107FD76
:1056340015610748144107691373136029010008B1
:10564400010000000000008104AA06A2049704E9F6
:1056540004A704C50400000000EC150F04DD135278
:10566400160000000087070008C507AA070000000D
:10567400004B080000000082167E1656160000003B
:1056840000FD1CF41C5316521600000000841986F9
:10569400160D0A0053797374656D00566F6C756D41
:1056A400652055702100566F6C756D6520446F77C9
:1056B4006E210054686973206973206120766F6CD1
:1056C400756D652070726F6772616D0053797374C4
:1056D400656D20766F6C756D6520736574757021CA
:1056E400002E630053442043617264204D6F756E35
:1056F400746564005344204D6F756E742041747456
:10570400656D70743A200043617264204D6F756E4C
:1057140074204661696C65640073657475702E74D9
:085724007874006C6F6F7000D7
:00000001FF
