:100000000C94C7020C94EF020C94EF020C94EF02D4
:100010000C94EF020C94EF020C94EF020C94EF029C
:100020000C94EF020C94EF020C94EB190C945A1AF6
:100030000C94EF020C94EF020C94EF020C94EF027C
:100040000C94EF020C94EF020C94EF020C94EF026C
:100050000C94EF020C94EF020C94EF020C948C1CA5
:100060000C94EF020C94EF020C94EF020C94EF024C
:100070000C94EF020C94EF020C94EF020C94EF023C
:100080000C94EF020C94EF020C94EF020C94EF022C
:100090000C94EF020C94EF020C94EF020C94EF021C
:1000A0000C94EF020C94EF020C94EF02EAE00000D3
:1000B00000003AB80000C44244C049249064484457
:1000C00060000F84210F80000894514210000894B2
:1000D000214880000092AAAAAA4400000894514234
:1000E0000000252949C044E44460001D060B80033C
:1000F0004920001D29384200392972100019294968
:10010000800039294A400000FC9292929200AAA8ED
:1001100084254E52404124948AA88439294A4000BB
:100120001D29384C24E4444000192F41C0109D295A
:1001300049C000192849808439294B80001C274B6D
:10014000C088000000000003E02295100000C924D0
:10015000B088444220D24930F82108420F808A25D5
:10016000082082008A250852288088CA554AA5524C
:10017000A888008A28A25142008A28A28A2700F86B
:10018000820820820072281C0A2700F228BC9228CC
:1001900080790A1428531B00F228BC820800790ACF
:1001A0001428509E008B2CAA9A688082C6C6AAAAE0
:1001B000AA9200820820820F808A2928D2288010E3
:1001C00084214980AAA88A28BE8A2880309204E81F
:1001D000490C00F421C84200FA083E820F80E24830
:1001E000A28A4E00722820822700F228BE8A2F00A1
:1001F0007228A2FA28803E1049AA9AA5268819F8E2
:1002000072208C2002000418264000000F80F800A5
:10021000000099060800080A08087228A27827003A
:1002200072289C8A2700F82108210400720F228A74
:100230002700790F220A270010C524F841007220F8
:100240008C0A2700722084210F8026A22220722887
:10025000A28A270022444880000800003E000000D7
:10026000000A00823E208000A4A00000421112403B
:1002700024888420A8003090C309515D0044A4A8BC
:10028000541A2A440021CA3E2AA708514F94F9451E
:1002900000AAA00000AA880000AC00040400B0007E
:1002A000060600B600040400BA00030300BD000403
:1002B0000400C100060600C700060600CD000606C1
:1002C00000D300080800DB00060600E10005050079
:1002D000E600040400EA00050500EF00030300F255
:1002E00000050500F700050500FC000505000101FB
:1002F00005050006010808000E01020200100105B4
:100300000500150103030018010202001A0105058A
:10031000001F010505002401040400280105050053
:100320002D01050500320105050037010505003CDA
:1003300001050500410103030044010505004901D1
:100340000505004E0103030051010404005501039B
:10035000030058010606005E010606006401060659
:10036000006A01090900730106060079010606000A
:100370007F0106060085010606008B010606009136
:100380000107070098010606009E01070700A50166
:10039000060600AB01080800B301060600B9010615
:1003A0000600BF01050500C401020200C6010606E1
:1003B00000CC01070700D301050500D8010606009F
:1003C000DE01060600E401060600EA01060600F06A
:1003D00001060600F6010A0A0000020606000602EF
:1003E0000505000B020606001102050500160202B3
:1003F000020018020202001A020606002002060687
:100400000026020606002C0206060032020606003E
:1004100038020606003E0206060044020606004AAE
:10042000020404004E0206060054020404005802AE
:100430000202005A02060600600202020062020680
:10044000060068020404006C020404007002040444
:1004500000740202020076020707007D020808000D
:1004600085020606008B0206060091020404009530
:10047000020202009702020200000000002400278E
:10048000002A002D00300000000000230026002973
:10049000002C002F000000000200090F00000304E0
:1004A00001000C000000000000000000000000003F
:1004B00000000004080201104080401020408040ED
:1004C00080080204018040201002011080102040AA
:1004D000402000000000250028002B002E003100E5
:1004E00004040404040304050202020204030202D9
:1004F00002020606060606060404020202040408B6
:100500000B000202020000090400000102020000C8
:10051000052400100105240101010424020605241C
:100520000600010705810310004009040100020ACA
:10053000000000070502024000000705830240009A
:10054000000403090412010002EF0201404F1B06E0
:1005500092000101020301537061726B46756E00D7
:10056000537061726B46756E2050726F204D6963D7
:10057000726F00050C0901A1018504150026FF0317
:1005800019002AFF03950475108100C0091D11246C
:100590001FBECFEFDAE0DEBFCDBF13E0A0E0B1E0D9
:1005A000E8EBFFE402C005900D92A035B107D9F742
:1005B00027E0A0E5B3E001C01D92A93AB207E1F738
:1005C00012E0C7ECD2E004C02197FE010E94D427BC
:1005D000C63CD107C9F70E94921E0C94DA270C94EE
:1005E000000096E0899FD0011124FD01E85AF84FE0
:1005F00071836083A75CB84F91E091969C9391972B
:10060000E091A607F091A7079091A507992339F0EB
:10061000309751F0811108C08091550709943097A7
:1006200019F05C968C91FACF0895CF93DF93FC017B
:10063000818190911906482F490F5527551F483041
:1006400051059CF5A281B381109709F525E136E0AB
:10065000338322832081209317068093180680918C
:100660001A06820F808320911B06A22FB0911C06D0
:100670008A2F821B8917E8F481813D91C82FD0E031
:10068000C05FDE4F38838F5F8183F2CFD901189628
:100690002D913C91199721153105C1F725E136E0DF
:1006A00019963C932E931897D5CF80E0DF91CF9188
:1006B000089581E0FBCFFC0180917703882311F13D
:1006C0003FB7F89482E08093E9002091F200822FF6
:1006D00090E01816190614F481E090E0882339F0B0
:1006E000289844E6409376034091F100408322230A
:1006F00039F02091F200211103C02BE62093E8008D
:100700003FBF08958FEF9FEF089540917003509180
:10071000710320916E0330916F0342175307B4F4B5
:100720009091E8009570E1F39091E80092FD19C076
:100730008093F100809170039091710301968F7303
:100740009927892B19F48EEF8093E800809170032C
:10075000909171030196909371038093700381E0EF
:10076000089580E00895DF92EF92FF920F931F9318
:10077000CF93DF93D82E8A01EB017B01E40EF51EA7
:10078000CE15DF0559F0D7FE12C0FE0184910E94FC
:10079000850321968111F4CF0FEF1FEFC801DF9180
:1007A000CF911F910F91FF90EF90DF900895888176
:1007B000EECF2FB7F89487708093E9009091E8000E
:1007C000892F807295FF04C09091F20080E4891B0C
:1007D0002FBF0895615030F02091F100FC0120837B
:1007E0000196F8CF289884E6809376030895AF9217
:1007F000BF92CF92DF92EF92FF920F931F93CF930E
:10080000DF936C017B018B01040F151FEB015E016F
:10081000AE18BF08C017D10759F06991D601ED9104
:10082000FC910190F081E02DC6010995892B79F7A3
:10083000C501DF91CF911F910F91FF90EF90DF9055
:10084000CF90BF90AF9008958091660381110DC045
:1008500082E08093620384E08093630310926503D7
:100860001092640381E08093660382E693E008952A
:100870000F931F93CF93DF931F92CDB7DEB782E024
:10088000898342E450E06FEF74E080E80E94B30394
:100890000E942404DC0112960D911C910115110592
:1008A00089F0D801ED91FC910280F381E02DBE0129
:1008B0006F5F7F4FC801099597FD04C0F80100855F
:1008C0001185ECCF89810F90DF91CF911F910F910E
:1008D0000895CF93DF931F92CDB7DEB76983DC0114
:1008E000ED91FC910280F381E02D41E050E0BE01EA
:1008F0006F5F7F4F09950F90DF91CF91089583E04F
:100900008093E9008091F200882319F08AE38093B4
:10091000E800089583E00E94D90390E00895CF9302
:10092000DF931F92CDB7DEB7FC018485958597FDD7
:1009300008C02FEF3FEF358724870F90DF91CF91CD
:100940000895CE0101960E945B03019719F48981F5
:1009500090E0F3CF8FEF9FEFF0CF0F931F93CF93E4
:10096000DF931F92CDB7DEB78C01FC01848595859E
:1009700097FF0BC0CE0101960E945B03019771F4B3
:10098000898190E0F80195878487F80184859585B1
:100990000F90DF91CF911F910F9108958FEF9FEFEF
:1009A000F1CFFC018485958597FD0BC09FB7F89426
:1009B00082E08093E9008091F2009FBF90E0019671
:1009C00008959FB7F89482E08093E9008091F20047
:1009D0009FBF90E0089581508F3008F047C0E82F06
:1009E000F0E0EB50FB4F0C94D427120516050405DC
:1009F0000A050E0536053605360519051F052305BA
:100A000027052D0536053105809180008F7780936D
:100A100080000895809180008F7DF9CF80918000C3
:100A2000877FF5CF84B58F7784BD089584B58F7D9A
:100A3000FBCF809190008F778093900008958091F4
:100A400090008F7DF9CF80919000877FF5CF8091C6
:100A5000C0008F778093C00008958091C0008F7D83
:100A6000F9CF8091C200877F8093C2000895CF9311
:100A7000DF93282F30E0F901EB56FB4F8491F90109
:100A8000ED54FB4FD491F901E052FB4FC491CC23BC
:100A9000A1F081110E94EB04EC2FF0E0EE0FFF1F9C
:100AA000E957FB4FA591B491EC91ED2381E090E0E3
:100AB00009F480E0DF91CF91089580E090E0FACFD3
:100AC000862F0C9437051F93CF93DF93282F30E0A8
:100AD000F901EB56FB4F8491F901ED54FB4FD49192
:100AE000F901E052FB4FC491CC23A9F0162F8111DC
:100AF0000E94EB04EC2FF0E0EE0FFF1FEE52FB4FD5
:100B0000A591B4918FB7F894EC91111108C0D095CC
:100B1000DE23DC938FBFDF91CF911F910895DE2BF1
:100B2000F8CF862F642F0C946305CF93DF9390E06A
:100B3000FC01ED54FB4F249180529B4FFC018491AA
:100B40008823C9F090E0880F991FFC01E758FB4FFC
:100B5000A591B491FC01EE52FB4FC591D491611166
:100B60000DC09FB7F8948C91209582238C93888137
:100B7000282328839FBFDF91CF910895623051F4DD
:100B80009FB7F8943C91822F809583238C93E881C2
:100B90002E2BEFCF8FB7F894EC912E2B2C938FBF89
:100BA000EACF862F642F0C9495053FB7F894809177
:100BB0005E0390915F03A0916003B091610326B53D
:100BC000A89B05C02F3F19F00196A11DB11D3FBF85
:100BD000BA2FA92F982F8827BC01CD01620F711D54
:100BE000811D911D42E0660F771F881F991F4A954E
:100BF000D1F708958F929F92AF92BF92CF92DF92DA
:100C0000EF92FF924B015C010E94D5056B017C01C4
:100C10000E94D5056C197D098E099F09683E7340B5
:100C200081059105A8F321E0821A9108A108B10875
:100C300088EEC80E83E0D81EE11CF11C81149104DB
:100C4000A104B10429F7FF90EF90DF90CF90BF90FF
:100C5000AF909F908F9008957F928F929F92AF92C6
:100C6000BF92CF92DF92EF92FF920F931F93CF9399
:100C7000DF93C82E8B017A0180917703811110C018
:100C80008FEF9FEFDF91CF911F910F91FF90EF902A
:100C9000DF90CF90BF90AF909F908F907F900895FE
:100CA0008091740380FF05C08091E0008260809392
:100CB000E000CE2DDF2DD12C8AEFB82E8C2D877041
:100CC000982E8C2D8072882E8C2D8074782E9AE32D
:100CD000A92E209719F4DD2009F452C08C2D0E9412
:100CE000D90381110AC0BA94BB2051F261E070E0CF
:100CF00080E090E00E94FA05ECCF8C171D0611F001
:100D00000CF08C2F9FB7F8949092E9002091E800A6
:100D100025FD02C09FBFDDCF282F30E0C21BD30BC3
:100D2000882029F08150A0F01092F100FBCFF8014B
:100D3000C7FC0AC0815050F041914093F100FACFB6
:100D400044914093F10031968150D0F7020F131F68
:100D5000DD2021F0A092E800D12CDCCF8091E800CA
:100D600085FD07C0A092E800DD24D394209791F27E
:100D7000F3CF209779F6772069F2A092E800CACFE6
:100D80005D9884E680937503C7017CCFCF93DF9392
:100D9000EC0180910F01882331F083E00E942C0642
:100DA0001816190634F081E090E09B838A8380E076
:100DB00090E0DF91CF9108952FB7F89460915A0396
:100DC00070915B0380915C0390915D032FBF089548
:100DD0000F931F93CF93DF93C82FD62F26E0829FC8
:100DE000C0011124FC01E75CF84F11A2885A984F0A
:100DF000FC018081918181309105F1F058F08230C1
:100E00009105F1F1039709F440C0DF91CF911F9153
:100E10000F9108956623C9F361E070E08C2F0E9462
:100E2000F1020E94DC066093910770939207809311
:100E3000930790939407E9CF0E94DC0600919107F5
:100E4000109192072091930730919407AB01BC0158
:100E5000401B510B620B730B8091A3079091A40769
:100E6000B0E0A0E084179507A607B70748F462E052
:100E700070E08C2FDF91CF911F910F910C94F102B4
:100E800063E070E0D111C1CFF4CF70E060E0F1CF4A
:100E90008EBD00000DB407FEFDCF8EB508958FEF17
:100EA0000C9448070F931F93CF93DF93EC010E949C
:100EB000DC068B010E944F078F3F69F00E94DC0621
:100EC000601B710B6C177D07A8F380E0DF91CF9159
:100ED0001F910F91089581E0F9CFDC01FB0112967B
:100EE0002C911297848195812817190641F49181DC
:100EF0008081813A31F49D7F81E0913009F080E07A
:100F000008958132E1F79B3029F482811F968C93FA
:100F100081E008959A3099F7828150968C93F8CFAA
:100F2000DC01FB0188E4808389E4818384E482839B
:100F30001D969C911D979F709F5B93831D968D912D
:100F40009C9124E0969587952A95E1F78F708F5BA9
:100F5000848385E00895EF92FF920F931F93CF93C0
:100F6000DF93FB012081213871F52381223259F56D
:100F7000DC0112964C91248135814217130619F534
:100F8000EC010B851C85F12CE12C0115110589F074
:100F9000F801448155816281738180E80E94B30326
:100FA0008F3F980749F0E80EF91ED8010D911C916A
:100FB000ECCF81E08F87C701DF91CF911F910F9117
:100FC000FF90EF90089590E080E0F6CFCF93DF930D
:100FD000CDB7DEB769970FB6F894DEBF0FBECDBFB1
:100FE000FC01DB018C918F5F8C939E012D5F3F4F45
:100FF0008DE0D9011D928A95E9F729E0298384E0E3
:101000008A8391E09D8383E08E832A8721E22B8768
:101010009C879D879F8722E2288B27E02B8B25E0EA
:101020002C8B8E8B20E430E0388F2F8B998F828130
:101030008B8395858685998B8A8B838180688D8B40
:1010400049E150E0BE016F5F7F4F80E00E94B30333
:1010500069960FB6F894DEBF0FBECDBFDF91CF917A
:101060000895CF92DF92EF92FF921F93CF93DF9379
:101070001F92CDB7DEB77B016A01809126068111F0
:101080002AC011E01093190610931A068FE196E01A
:1010900090931C0680931B0610921E0610921D064C
:1010A0008DE692E090931606809315061092210625
:1010B0001092200610922306109222061093240606
:1010C0001093250681EC80931F060E9424040E9441
:1010D00015031093260684E0898341E050E0BE01A9
:1010E0006F5F7F4F809118060E942C0697FD07C006
:1010F00080911806A601B70180640E942C060F900B
:10110000DF91CF911F91FF90EF90DF90CF900895E6
:10111000ECE3F6E0228133812817390711F41382BA
:101120001282329626E0E434F207A1F748E050E05C
:101130006EE376E08CE396E00C943108EEE3F6E0A3
:1011400030E020E0419151912F5F3F4F452B79F4E2
:10115000220F331FF901E45CF94F9183808348E04B
:1011600050E06EE376E08CE396E00C943108243096
:10117000310541F7F4CFCF93CFB7F8948091520364
:10118000811127C0E1EFF4E08491E4ECF4E0949164
:10119000E82FF0E0EE0FFF1FE758FB4FA591B49149
:1011A000EC91E92321F461E081E10E94630561E0B3
:1011B00081E10E9495058CB580618CBD8CB5806401
:1011C0008CBD61E08FE00E94950561E080E10E94A6
:1011D0009505809152038F5F80935203CFBFCF91CB
:1011E0000895CF93DF93EC01CD2FDD27C695C695EB
:1011F000C695AFE0B2E0CA9FF001CB9FF00DDA9F39
:10120000F00D11247796C6E0F695E795CA95E1F7BB
:10121000EB01E883FC01D5E0F695E795DA95E1F777
:10122000EF73FF27C3E0D1E0EC9FB001ED9F700D9D
:10123000FC9F700D11246F5D7F4FE6E076956795FA
:10124000EA95E1F7FA016083AC014F7155274A9F97
:10125000C0014B9F900D5A9F900D11244796F6E0C8
:1012600096958795FA95E1F7E9018883DF91CF910B
:101270000895DC015596ED91FC91569790815A9610
:101280008C91892B80837EBD0DB407FEFDCF6EBD92
:101290000DB407FEFDCF0895DC015596ED91FC914C
:1012A000569790815A968C91892B80836EBD0DB490
:1012B00007FEFDCF0895DC015596ED91FC91569700
:1012C00090815A968C918095892380836EBD0DB450
:1012D00007FEFDCF0895DF92EF92FF920F931F93C9
:1012E000CF93DF93EC01D62E142FF22EEE2039F09F
:1012F0008FA9882321F0F02E022FD42E162F65E11E
:10130000CE010E945B096D2DCE010E944C096F2D0C
:10131000CE010E944C0965E7CE010E945B09612F56
:10132000CE010E944C09602FCE010E944C096CE551
:10133000CE01DF91CF911F910F91FF90EF90DF9041
:101340000C945B09DC015596ED91FC9156979081C8
:101350005A968C91892B808321503109410951097A
:1013600048F00DB407FEFDCF7EBD0DB407FEFDCFE6
:101370006EBDF2CF0DB407FEFDCF0895FC0124A58C
:101380002130F9F42FE9260F2A3108F46052FC01CC
:10139000A0A1B1A12C9130E090E080E082179307EA
:1013A000C4F4AC01440F551F480F591F1196ED911D
:1013B000FC911297E40FF51F4081461761F00196EA
:1013C000EDCF223021F72FEB260F2A3100F7605E98
:1013D000DECF8FEF9FEF08952F923F924F925F9253
:1013E0006F927F928F929F92AF92BF92CF92DF9235
:1013F000EF92FF920F931F93CF93DF93CDB7DEB79A
:1014000062970FB6F894DEBF0FBECDBF5C01390105
:1014100048012701223031050CF02DC102301105A1
:1014200044F58A010F5F1F4F9B012F5F3F4FEE2452
:10143000E394C5010E946B09B201C5010E943909FC
:1014400062960FB6F894DEBF0FBECDBFDF91CF918D
:101450001F910F91FF90EF90DF90CF90BF90AF90D2
:101460009F908F907F906F905F904F903F902F90C4
:101470000895040F151F01501109EE24E3949B01F8
:10148000C5010E946B09B201C5010E943909B1E092
:101490008B1A9108C1F7D4CF8401040F151F015096
:1014A000110921503109EE24E394C5010E946B0912
:1014B0004C145D0409F4CFC09E012E5F3F4FAE0176
:1014C0004C5F5F4FBE016A5F7F4FC2010E94F1080F
:1014D0009E012F5F3F4FAE014D5F5F4FBE016B5FBF
:1014E0007F4FC6010E94F108312C212CC401B0E0CD
:1014F000A0E08B879C87AD87BE87C301770CAA0BC2
:10150000BB0B8F87988BA98BBA8BB10190E080E0E1
:101510000E94D9266B017C016B857C858D859E851B
:101520000E94D9269B01AC01C701B6010E94382652
:101530006B017C01AC019B0160E070E080E89FE3FF
:101540000E94CB252B013C016E8170E090E080E091
:101550000E94DB26A30192010E9467276F83788790
:1015600089879A876D8170E090E080E00E94DB2699
:10157000A70196010E9467279B01AC016F817885C6
:1015800089859A850E94CC250E94AA26062F10E004
:10159000102F00270027187F6C8170E090E080E01A
:1015A0000E94DB26A30192010E9467276F83788740
:1015B00089879A876B8170E090E080E00E94DB264B
:1015C000A70196010E9467279B01AC016F81788576
:1015D00089859A850E94CC250E94AA2698E0699F59
:1015E000B0011124607E7770062B172B6A8170E0A2
:1015F00090E080E00E94DB26A30192010E94672711
:101600002B013C01698170E090E080E00E94DB26C4
:10161000A70196010E9467279B01AC01C301B2019B
:101620000E94CC250E94AA2670E093E075956795EC
:101630009A95E1F7602B712B2F85388949895A8952
:10164000C5010E94A209AFEF2A1A3A0A8214930434
:1016500009F05BCFF5CE689C9001699C300D789CB9
:10166000300D1124032E000C440B550BB201C501A3
:101670000E94A209E5CE260F371F023011050CF09B
:101680000BCF21503109EE24E3948A01C5010E9459
:101690006B09B201C5010E943909A1E06A1A7108FB
:1016A000C1F7CECE1F93CF93DF93EC01142F0E948E
:1016B0005B09612FCE01DF91CF911F910C944C09F2
:1016C000089561E0FC0184810E94630580915303C9
:1016D00081111092530308958CBD9DBD0895CF9341
:1016E000DF93EC0180915303811109C081E0809365
:1016F00053038091CA059091CB050E946C0B60E06A
:101700008C81DF91CF910C9463058F929F92AF9261
:10171000BF92FF920F931F93CF93DF93EC01F62EAE
:1017200049015A018E81882389F08F8198859C0117
:101730002F5F3F4F38872F838230924018F40E94EA
:101740004F07F3CFCE010E94610B1E82CE010E9493
:101750006F0B8CE291E00E9452078F2D80640E94F3
:10176000480708E110E0D501C401002E04C0B69579
:10177000A795979587950A94D2F70E944807085035
:101780001109083F8FEF180771F785E9FF2021F055
:1017900028E087E8F2128FEF0E94480710E00E94CD
:1017A0004F078A8787FF04C01F3F11F01F5FF7CFE5
:1017B000DF91CF911F910F91FF90BF90AF909F90BD
:1017C0008F900895CF92DF92EF92FF920F93CF9375
:1017D000DF93EC01690182E1411551056105710555
:1017E00099F08B85833039F089E0440F551F661FCF
:1017F000771F8A95D1F79A01AB0168E1CE010E946B
:10180000850B882319F084E08D832DC08EEF0E9414
:10181000480776018EEFD81AF70181917F010E9467
:101820004807EC14FD04C1F78FEF0E9448078FEFC3
:101830000E9448070E944F078A878F71853071F494
:10184000011116C0CE010E94610B81E0DF91CF91A2
:101850000F91FF90EF90DF90CF90089581E18D83FD
:10186000CE010E94610BCE010E94610B80E0EECFA1
:1018700088E592E00E945207811102C085E1C4CF41
:1018800020E030E0A9016DE0CE010E94850B8823A5
:1018900011F084E1B9CF0E944F078111FACFD2CF66
:1018A0000F934091550350915603609157037091E7
:1018B0005803411551056105710599F0082F28E776
:1018C00033E080917805909179050E94E20B88239E
:1018D00049F010925503109256031092570310923C
:1018E000580381E00F9108950F93CF93C82F8091F3
:1018F0005403811105C0C1E08C2FCF910F91089541
:101900004091000150910101609102017091030129
:101910000C2F28E733E080917805909179050E949B
:10192000E20B811102C0C0E0E7CFCC2321F381E0BC
:101930000E94500C8823B9F310925403DDCF9F927C
:10194000AF92BF92CF92DF92EF92FF920F931F93CD
:10195000CF93DF936B017C01942E809100019091D5
:101960000101A0910201B09103018C159D05AE0506
:10197000BF0509F494C081E00E94740C882389F1AA
:10198000C0917805D09179058E81882371F0888186
:101990009981AA81BB81C816D906EA06FB0629F4FB
:1019A0008F819885892B09F443C0C882D982EA8245
:1019B000FB828B85A7019601833039F099E0220FD5
:1019C000331F441F551F9A95D1F761E1CE010E9444
:1019D000850B882391F083E08D83CE010E94610BFB
:1019E00080E0DF91CF911F910F91FF90EF90DF90FA
:1019F000CF90BF90AF909F9008950E94DC068B011E
:101A00000E944F078A878F3F69F40E94DC06601BA3
:101A1000710B6D327140A0F38FE08D83CE010E9477
:101A2000610BDBCF8E3F69F518861F8281E08E83C4
:101A300008E713E088E7A82E85E0B82E0E944F073C
:101A4000F80181938F01AE16BF06C1F78F8198858B
:101A50009E5F98878F832985222319F081159240F4
:101A6000B0F08E81882399F08F8198859C012F5F3B
:101A70003F4F38872F838230924028F40E944F07CF
:101A8000F3CF8DE0CACFCE010E94610B1E82C092BF
:101A90000001D0920101E0920201F0920301409115
:101AA000540349294093540381E09BCF8F929F9226
:101AB000AF92BF92CF92DF92EF92FF92CF932CEC36
:101AC00035E03093790520937805882309F46DC0BB
:101AD00040E060E070E0CB010E949F0C81110BC0E0
:101AE00080E0CF91FF90EF90DF90CF90BF90AF90CC
:101AF0009F908F900895809136058F7789F7809118
:101B0000420590914305A0914405B0914505843666
:101B10009105A105B10520F3C0903E05D0903F0589
:101B2000E0904005F0904105C114D104E104F104B6
:101B3000B9F240E0C701B6010E949F0C882381F2F0
:101B400080918303909184038115924049F6A0917E
:101B50008803AA2329F26091860370918703611597
:101B6000710509F4BDCF20918503222309F4B8CF74
:101B7000A093EA052093DC0590E080E030E0E1E00E
:101B8000F0E0C82FAF01082E02C0440F551F0A9481
:101B9000E2F72417350769F041E0480F01968930D4
:101BA000910579F74093E5059BCFC12CD12C7601A7
:101BB000C0CF8093E50520918E0330918F0350E0D4
:101BC00040E02115310541F420919C0330919D03A3
:101BD00040919E0350919F032093DD053093DE05D5
:101BE0004093DF055093E00546015701860E971E8E
:101BF000A11CB11C8092EB059092EC05A092ED0522
:101C0000B092EE05E0918903F0918A03F093F1051B
:101C1000E093F005B0E00E948F25DC01CB01880D38
:101C2000991DAA1DBB1D8093F2059093F305A09307
:101C3000F405B093F50525E0EE0FFF1F2A95E1F7B7
:101C4000E150FE4FEF2FFF27E6958E0F9F1FA11D3E
:101C5000B11D8093E6059093E705A093E805B09346
:101C6000E90580908B0390908C03B12CA12C8114FA
:101C7000910441F48090980390909903A0909A0366
:101C8000B0909B03C81AD90AEA0AFB0AC80CD91CEF
:101C9000EA1CFB1C04C0F694E794D794C794CA9539
:101CA000D2F7C092E105D092E205E092E305F0920E
:101CB000E40585EFC8168FE0D806E104F10428F4A6
:101CC0008CE08093EF0581E00CCF80E125EFC21618
:101CD0002FEFD206E104F104A0F38091A4039091C8
:101CE000A503A091A603B091A7038093F20590935A
:101CF000F305A093F405B093F50580E2E2CF4F928F
:101D00005F926F927F928F929F92AF92BF92CF928B
:101D1000DF92EF92FF920F931F93CF93DF93EC012B
:101D2000423051056105710590F480E0DF91CF915B
:101D30001F910F91FF90EF90DF90CF90BF90AF90E9
:101D40009F908F907F906F905F904F9008958985BE
:101D50009A85AB85BC850196A11DB11D8417950799
:101D6000A607B70710F3CB88DC88ED88FE888F893B
:101D7000803109F042C0BB27A72F962F852F48013D
:101D800059012A013B01C80ED91EEA1EFB1E809193
:101D9000000190910101A0910201B0910301C816C8
:101DA000D906EA06FB0699F58F898031C1F5B301A2
:101DB000A201552766277727440F551F48585C4FC7
:101DC000FA01918280828091540381608093540350
:101DD0008A89823080F08D819E81AF81B8858C0D9B
:101DE0009D1DAE1DBF1D8093550390935603A09378
:101DF0005703B093580381E099CFDB01CA01E7E0B4
:101E0000B695A79597958795EA95D1F7B8CF40E015
:101E1000C701B6010E949F0C8111C6CF86CFB301C6
:101E2000A2014F77552766277727440F551F440F88
:101E3000551F48585C4FFA0180829182A282B3827A
:101E4000C2CF8F929F92AF92BF92CF92DF92EF92CA
:101E5000FF920F931F93CF93DF93FC0181859285AF
:101E6000A385B4850196A11DB11D84179507A6070A
:101E7000B70770F480E0DF91CF911F910F91FF9031
:101E8000EF90DF90CF90BF90AF909F908F9008958C
:101E900083889488A588B6888789803189F5BB278F
:101EA000A72F962F852FE9016A017B018F01BC01C5
:101EB000CD01680D791D8A1D9B1D809000019090B9
:101EC0000101A0900201B090030186169706A806B2
:101ED000B90601F5F8018789803111F5DD24EE247A
:101EE000FF24F601EE0FFF1FE858FC4F808191811F
:101EF000B0E0A0E088839983AA83BB8381E0BBCF55
:101F0000DB01CA01C7E0B695A79597958795CA9555
:101F1000D1F7C9CF40E00E949F0C8111DBCFAACF3F
:101F2000E894C7F8DD24EE24FF24F601EE0FFF1F2E
:101F3000EE0FFF1FE858FC4F80819181A281B38191
:101F4000BF70D8CF8F929F92AF92BF92CF92DF9205
:101F5000EF92FF920F931F93CF93DF93EC018D814C
:101F600081110EC080E0DF91CF911F910F91FF9002
:101F7000EF90DF90CF90BF90AF909F908F9008959B
:101F80000B891C892D893E890417150726073707F9
:101F900048F34A015B01823031F48A869B86AC8625
:101FA000BD8681E0E0CF81149104A104B10449F41D
:101FB0001E821F82188619861A861B861C861D861D
:101FC000F0CF0A851B852C853D85EB8DFC8D8585A5
:101FD00090E00996B901A8014150510961097109C0
:101FE000082E04C076956795579547950A94D2F7C1
:101FF00075016401E1E0CE1AD108E108F10804C0DE
:10200000F694E794D794C7948A95D2F7C416D50668
:10201000E606F70620F0012B022B032B11F58F8922
:10202000988DA98DBA8D8E839F83A887B9878E01DD
:102030000A5F1F4FC114D104E104F10409F4ADCFCC
:102040004E815F816885798598018B8D9C8D0E947A
:10205000210F91E0C91AD108E108F1088111EACFF6
:1020600081CFC41AD50AE60AF70AE1CF3F924F9210
:102070005F926F927F928F929F92AF92BF92CF9218
:10208000DF92EF92FF920F931F93CF93DF93CDB721
:10209000DEB72C970FB6F894DEBF0FBECDBF5C0144
:1020A000DC015B968D909C905C9716964D905D90B0
:1020B0006D907C901997411451046104710409F4E6
:1020C00068C0BFEF4B1A5B0A6B0A7B0A312CF40124
:1020D00081859285A385B4859C01AD012F5F3F4F1B
:1020E0004F4F5F4F29873A874B875C8773016201A7
:1020F0001D821E821F821886F40181859285A38528
:10210000B4852D813E814F815885281739074A07AC
:102110005B0708F056C089859A85AB85BC858C1510
:102120009D05AE05BF0550F482E0C82ED12CE12CF0
:10213000F12C92E0492E512C612C712C9E012F5FC5
:102140003F4FB701A601C4010E94210F8823C9F1A6
:1021500089819A81AB81BC81892B8A2B8B2B09F1D8
:10216000260137019FEF491A590A690A790A2D8118
:102170003E814F8158852F5F3F4F4F4F5F4F2D83DB
:102180003E834F8358873FEFC31AD30AE30AF30A0B
:10219000B3CFF40140805180628073803324339444
:1021A00096CFC414D504E604F70409F70FEF1FEF28
:1021B0002FEF3FE0B701A601C4010E947F0E8111FD
:1021C00019C080E02C960FB6F894DEBF0FBECDBFCD
:1021D000DF91CF911F910F91FF90EF90DF90CF9003
:1021E000BF90AF909F908F907F906F905F904F9037
:1021F0003F900895D50116964D915D916D917C911A
:102200001997411551056105710539F0970186014E
:10221000C4010E947F0E8823A1F2D5011696CD92AB
:10222000DD92ED92FC921997332051F0D701C6014F
:102230000196A11DB11DF40180839183A283B38314
:10224000F5018789908DA18DB28D892B8A2B8B2BDF
:1022500039F48481C78AD08EE18EF28E80688483BF
:10226000F50184818062848381E0ACCF1F93CF939A
:10227000DF93EC01162F8C8187FF2AC06E857F8546
:102280008889998941E00E949F0C882361F1EA893D
:1022900080E2E89FF0011124E858FC4F309719F1D3
:1022A0008D81823040F48B899C89AD89BE89848F71
:1022B000958FA68FB78F8F89988D938F828F8F89F7
:1022C000988DA98DBA8DB58BA48B8C818F778C83DB
:1022D000111103C08C818F7E8C83812FDF91CF9170
:1022E0001F910C94740C80E0DF91CF911F910895A1
:1022F000FF920F931F93CF93DF93EC018D81813079
:1023000041F090E080E0DF91CF911F910F91FF901D
:1023100008958C8181FFF5CF82FD1EC00091780564
:1023200010917905C8010E946F0B0E944F07F82E8B
:10233000C8010E94610B8FEFF812E3CF8C8185FFFB
:102340001EC08D81882321F060E0CE010E943611ED
:102350008C818F7D8C83D5CF4B895C896D897E89FB
:102360008A859B85AC85BD8584179507A607B70729
:10237000A9F2CE010E94A20F8111D0CFC2CF40910D
:102380005503509156036091570370915803452BA4
:10239000462B472B21F080E00E94500CB2CF806189
:1023A0008C832A853B85317080E092E0821B930B01
:1023B000AACF9F92AF92BF92CF92DF92EF92FF92FD
:1023C0000F931F93CF93DF9300D000D01F92CDB710
:1023D000DEB78C016D83DC0115968C9115978130E9
:1023E00009F0B9C014968C9181FFB5C082FD9FC0E1
:1023F000D8015B96ED91FC915C971A96AD90BD90DB
:10240000CD90DC901D9794809A94B601A50189E047
:1024100076956795579547958A95D1F79422B1E0BF
:10242000BB22992009F49FC0D8015B96ED91FC91E5
:102430005C971696CD90DD90ED90FC901997B2E0E8
:10244000CB1AD108E108F108858504C0CC0CDD1C4D
:10245000EE1CFF1C8A95D2F74685578560897189E5
:10246000C40ED51EE61EF71EC90CD11CE11CF11CC2
:10247000A114B10409F00AC1F801428553856485AD
:10248000758583899489A589B689481759076A078C
:102490007B0708F4FBC081E00E94740C882309F4D8
:1024A0005AC0C0920001D0920101E0920201F09264
:1024B000030180915403816080935403F501E8582F
:1024C000FC4F8D818083F80182859385A485B58535
:1024D0000196A11DB11D82879387A487B587438983
:1024E000548965897689481759076A077B0738F444
:1024F0002481838B948BA58BB68B20682483D80191
:1025000014968C9183FD9FC081E090E00F900F9016
:102510000F900F900F90DF91CF911F910F91FF902F
:10252000EF90DF90CF90BF90AF909F900895F8010B
:10253000438954896589768982859385A485B58583
:10254000481759076A077B0709F452CFC8010E9450
:10255000A20F81114DCF81E090E0D80113969C939A
:102560008E93129749C0D80116964D915D916D9149
:102570007C911997A114B10409F071C0411551055E
:102580006105710589F557968D919D910D90BC91CE
:10259000A02D0097A105B10509F04FC0C8010E9408
:1025A00036108823C1F2D8015B96ED91FC915C97BF
:1025B0001696CD90DD90ED90FC901997B2E0CB1A75
:1025C000D108E108F108858504C0CC0CDD1CEE1CA7
:1025D000FF1C8A95D2F74685578560897189C40E9C
:1025E000D51EE61EF71E48CF9E012F5F3F4FCF013D
:1025F0000E94210F811103C090E080E087CF898184
:102600009A81AB81BC81F801238D348DF901278932
:1026100048EF5FEF60E070E0203121F048EF5FEFBE
:102620006FEF7FE084179507A607B70730F0C80162
:102630000E9436108111F8CE8ECFF80186839783E1
:10264000A087B187F1CEF8018581882309F483CF73
:1026500061E0C8010E943611811156CF7CCF6A011A
:102660007B01B2E0CB1AD108E108F108858504C0EE
:10267000CC0CDD1CEE1CFF1C8A95D2F746855785D5
:1026800060897189C40ED51EE61EF71E41E0C701A0
:10269000B6010E949F0C811111CF5DCFCF92DF92C6
:1026A000EF920F931F93CF93DF93EC016B01809117
:1026B0004606909147060E946C0BEB89FC8990813D
:1026C000898D809589238083E12C0FE710E02FE727
:1026D00030E050E040E070E060E0CE010E946B0925
:1026E00020E030E440E050E0B601CE010E94A209B3
:1026F000EB89FC898081998D892B8083DF91CF9133
:102700001F910F91EF90DF90CF900895CF93DF93BB
:10271000EC0168AD79AD0E944E131C861B861A86AB
:102720001986DF91CF910895089590E080E0089593
:10273000FC01738362835583448382E090E0918738
:102740008087DB0198968C93989797968C9381E07D
:102750008683DA011B961C9273876287758764876C
:102760007787668708952F923F924F925F926F927C
:102770007F928F929F92AF92BF92CF92DF92EF9211
:10278000FF920F931F93CF93DF93CDB7DEB76B9775
:102790000FB6F894DEBF0FBECDBF9E838D833B0185
:1027A0004A875B8738872F831801C9862DB73EB7C4
:1027B000398F288FC80101966DB77EB7681B790BDA
:1027C0000FB6F8947EBF0FBE6DBF8DB79EB7019652
:1027D0009D878C87E9A9FAA92BA93CA9E217F307E1
:1027E000C9F0AE9C8001AF9C100D112488A9820D08
:1027F000932D911DC89E9001C99E300D1124CBA828
:10280000DCA876014F8158856A857B858D819E8104
:102810000E94EC092301B301680D791D798B688B47
:1028200050E040E0B12C20E08A2D90E09F878E8719
:102830003985329DF001339DF00D1124FB8FEA8F15
:10284000688979896415750509F493C0F20184914A
:1028500067E070E07C836B83E82FF0E0FF8BEE8B0A
:10286000EC85FD85E20FF11D8E899F890B8002C0EA
:10287000959587950A94E2F7382F317030832F5F52
:1028800081709927480F591F22151304E9F4411547
:102890005105B1F02416350621F54F81AB9C400D52
:1028A000112450E0CBA8DCA8E9A8FAA80E851F8562
:1028B0002A8D3B8D6A857B858D819E810E94EC09E6
:1028C000B39450E040E020E06B817C81615071095D
:1028D0007C836B836F3F7F4F19F69FEF491A590A2C
:1028E000AFCF2F813885AB9C200D311D11243B8B40
:1028F0002A8B3A8539834B854A83712C612C812C34
:10290000AC85BD85A60DB71D62147304CCF62C9161
:10291000FD01C30128163906BCF33191231306C00B
:102920002816390619F083940196F4CF682D70E0CB
:102930007D8B6C8B7985789D40011124222371F069
:10294000C9A8DAA876010E851F8594014A895B899A
:1029500069817A818D819E810E94EC098C899D8993
:10296000680E791EE981FA81E80DF91DFA83E98381
:10297000C6CFE88DF98D0FB6F894FEBF0FBEEDBF40
:102980006B960FB6F894DEBF0FBECDBFDF91CF912F
:102990001F910F91FF90EF90DF90CF90BF90AF907D
:1029A0009F908F907F906F905F904F903F902F906F
:1029B0000895FB0101900020E9F73197AF01461B14
:1029C000570BDC01ED91FC910280F381E02D09941D
:1029D0004F925F926F927F928F929F92AF92BF922F
:1029E000CF92DF92EF92FF920F931F93CF93DF93DB
:1029F000CDB7DEB7A1970FB6F894DEBF0FBECDBF3F
:102A00008C016B01770FEE08FF08F7FE50C0DC0168
:102A1000ED91FC910190F081E02D6DE209955C0152
:102A200022273327A9012C193D094E095F0919A254
:102A3000FE01B1967F019AE0492E512C612C712C38
:102A4000CA01B901A30192010E949A25605DD701D4
:102A50006E937D01211531054105510589F790E0FF
:102A600080E0109721F0BD01C8010E94D914A80E82
:102A7000B91E6BE972E0C8010E94D9148A0D9B1D32
:102A8000A1960FB6F894DEBF0FBECDBFDF91CF91F8
:102A90001F910F91FF90EF90DF90CF90BF90AF907C
:102AA0009F908F907F906F905F904F900895A701B7
:102AB000960119A2FE01B1967F018AE0882E912C21
:102AC000A12CB12CCA01B901A50194010E949A253B
:102AD000605DD7016E937D012115310541055105DA
:102AE00089F7B12CA12C109721F2BD01C8010E94D9
:102AF000D9145C01BECF0F931F93CF93DF93EC01EA
:102B00000E94D9148C016BE972E0CE010E94D914A5
:102B1000800F911FDF91CF911F910F9108950F9317
:102B20001F93CF93DF93EC0110E000E0662309F4DC
:102B30005DC0EC81FD8126813781021713075CF4AB
:102B400089EE90E00E949E0889EE90E00E9488083D
:102B50000F5F1F4FEECF44815581249FC001259FF9
:102B6000900D349F900D112420893189820F931F7D
:102B700085369105C4F5918B808B84898111148AE7
:102B80008289882351F18A859B850E9486136EE98C
:102B900072E08A859B850E947B1565EA72E08A85D2
:102BA0009B850E947B15EC81FD8182898823A9F099
:102BB0008A859B8524E0DC0198962C9398979796BC
:102BC0002C93608971890E94E814EA81FB818885D1
:102BD000811101C081E080A787A381E0DF91CF91BF
:102BE0001F910F91089584E690E0C5CFEC81FD819F
:102BF00086819781081719075CF48AEE90E00E949D
:102C00009E088AEE90E00E9488080F5F1F4FEECF6B
:102C100044815581849F9001859F300D949F300D94
:102C2000112480899189821B930B18161906ACF424
:102C3000918B808B8289882309F4B5CF8C859D8503
:102C40000E9486136EE972E08C859D850E947B153B
:102C500060EB72E08C859D85A4CF118A108A81E09B
:102C6000848BE8CFCF93DF93FC012781211114C01F
:102C7000EC01828193810E9486138A819B812FEFD0
:102C80003FEFFC0136A325A334A323A36DEB72E031
:102C90000E947B1581E08F8381E0DF91CF910895C1
:102CA000EF92FF920F931F93CF93DF93EC018A81F2
:102CB0009B810E94861364EC72E08A819B810E9452
:102CC0007B156EE972E08A819B810E947B1560ED25
:102CD00072E08A819B810E947B15EC81FD81128AC2
:102CE00000E510E060E0CE010E948F156AE070E020
:102CF00080E090E00E94FA050150110999F7EC81FB
:102D0000FD81118A108AE280F38011E0EC81FD815F
:102D1000808991898E159F058CF46AE070E080E0CF
:102D200090E00E94FA0561E0CE010E948F15112308
:102D300069F3EC81FD81128A10E0E8CFEC81FD811E
:102D400080899189E816F9068CF46AE070E080E0E9
:102D500090E00E94FA0560E0CE010E948F151123D9
:102D600069F3EC81FD81128A10E0E8CF81E0828B6B
:102D70008A819B810E9486136EE972E08A819B8121
:102D80000E947B1566ED72E08A819B810E947B1513
:102D90008A859B8524E0FC0120A727A3EC81FD8187
:102DA000608971890E94E814EA81FB81888581111C
:102DB00001C081E080A787A360ED77E080E090E02C
:102DC0000E94FA058A819B810E9486136EE972E057
:102DD0008A819B810E947B1564EE72E08A819B81CF
:102DE0000E947B1560ED77E080E090E0DF91CF916D
:102DF0001F910F91FF90EF900C94FA052F923F9244
:102E00004F925F926F927F928F929F92AF92CF92EA
:102E1000DF92EF92FF920F931F93CF93DF93EC011A
:102E20003B011A01452B51F4FB0101900020E9F709
:102E300031971F01261A370A09F469C219A511230F
:102E400009F491C0C8A0D9A0D60113968C91730142
:102E5000512C412C882309F459C08E8D9F8D289EBA
:102E60002001299E500C389E500C11242FA1249D26
:102E7000C001259D900D112497FD0196959587958C
:102E8000F60124813581231B330B68A5629FA001C5
:102E9000639F500D112457FF02C04F5F5F4F559540
:102EA00047952FA9143008F0B8C0222309F496C022
:102EB000113009F03CC02D813E8137FF02C02F5FE9
:102EC0003F4F35952795281B31093C872B873EC0FE
:102ED0006D30E1F06A30D1F0CE010E94BE0997FD5D
:102EE00015C0FC01EE0FFF1F8E0F9F1FD60111961C
:102EF000ED91FC91E80FF91F0180F281E02D3296EF
:102F0000E4914E0E511CEAA14E0E511CC7018619C8
:102F10009709821593050CF0A9CFF70161917F0104
:102F20006032B1F68E8D9F8D480E591EEFCF2F81E6
:102F3000388537FF02C02F5F3F4F35952795241BFB
:102F400031093A872987123009F0B5CF89859A85EA
:102F500097FF02C01A8619868B859C8597FF02C051
:102F60001C861B8619A680914606909147060E94F2
:102F70006C0BEB89FC899081898D809589238083F6
:102F8000260C371C2614370409F4BBC1D3016D91FC
:102F90003D016D30B9F36A3009F072C0E8A1F9A1C2
:102FA00084819AA5890F98A5899F802D112490E08E
:102FB0002FA9211152C02B853C854F815885280FA0
:102FC000391F421753070CF49CC11A8619862B85AA
:102FD0003C85820F931F9C878B87D4CF113069F477
:102FE0002D813E8137FF02C02F5F3F4F35952795DA
:102FF000281B31093A872987A9CF2F81388537FFC8
:1030000002C02F5F3F4F35952795241B31093C8720
:103010002B87123009F49ACFE3CF222379F01430B2
:1030200019F42B853C854FCF29853A85241B31091E
:103030003A872987153009F489CFF3CF143019F472
:1030400029853A85D5CF2B853C85241B31093C87C2
:103050002B87153009F47ACFF3CF29853A854D8136
:103060005E81280F391F421753070CF44AC1298586
:103070003A85820F931F9A8789871C861B8682CF89
:10308000603209F06BC0FAA18E8D9F8D8F0F911D5C
:103090002BA13CA1EDA0FEA04FA9411133C0EFA18F
:1030A000E89F502C1124E216F30629F189859A85B0
:1030B0002D813E81850D911D8217930734F08D81FE
:1030C0009E8129853A85582E521A4B855C856985E3
:1030D0007A85A8A1B9A114968C9108A5809F80013A
:1030E0001124252D30E0FE9F200D311D1124670194
:1030F000CE010E94EC0989859A85850D911D9A87DC
:10310000898740CF98A4989E902C1124E216F3064C
:1031100001F18B859C852F813885890D911D821742
:10312000930734F08F8198852B853C85982E921AD1
:1031300049855A856B857C85E8A1F9A104818FA119
:10314000089F80011124292D30E06701CE010E94E3
:10315000EC098B859C85890D911D3DCFCE010E9488
:10316000BE0997FD0FCFA8A1B9A18C01000F111FB7
:10317000080F191F1196ED91FC911297E00FF11FA6
:1031800061817281FB013296D4904D2C512C8FA914
:103190004AA19BA5992309F4A1C0811179C0898511
:1031A0009A855FA12D813E81D59E800D911D1124B0
:1031B000549F800D911D112482179307A4F01A8645
:1031C00019862B853C8514964C918AA5480F552766
:1031D000551FE8A5E49FC001E59F900D1124820FC3
:1031E000931F9C878B8742E050E080E593E00E942C
:1031F00086256091500370915103A8A1B9A1119641
:103200008D919C911297080F191FF801818192816D
:10321000FC013396859094909FA914968C919111FE
:103220008CC04B855C85E82EF12CA8A42F813885B5
:103230008A9D400D511D1124241735070CF461C0DF
:103240002B853C8549855A858EA18F938DA18F93BF
:103250008CA18F938BA18F938AA18F93CFA0820192
:10326000CE010E94B31329853A859AA1490E511CBB
:103270004FA1449DC001459D900D1124820F931FC5
:103280009A8789870F900F900F900F900F907ACEAA
:103290008B859C8558A52D813E81D59E800D911DE5
:1032A0001124549F800D911D1124821793070CF453
:1032B0009ACF49855A8514962C918AA5280F3327D1
:1032C000331FEFA1E29FC001E39F900D1124840FF3
:1032D000951F9A8789871C861B8685CF882349F18D
:1032E0008B859C8558A52D813E81D59E800D911D95
:1032F0001124549F800D911D1124821793070CF403
:1033000072CFEB89FC898081998D892B8083DF9135
:10331000CF911F910F91FF90EF90DF90CF90AF90E2
:103320009F908F907F906F905F904F903F902F90E5
:10333000089589859A855FA1D6CF49855A85E82E5B
:10334000F12CCFA02D813E818C9D400D511D11246B
:1033500024173507B4F229853A854B855C858EA103
:103360008F938DA18F938CA18F938BA18F938AA123
:103370008F93A8A48201CE010E94B3138B859C85F4
:103380003AA128A5EFA1DE9EF0011124329FE00DA5
:10339000F11D1124E80FF91FFC87EB8773CFCF9342
:1033A000DF93EA010E94FE16CE01DF91CF910895CE
:1033B000CF93DF931F92CDB7DEB7698341E050E032
:1033C000BE016F5F7F4F0E94FE1681E090E00F907C
:1033D000DF91CF9108951F920F920FB60F92112493
:1033E0008F939F938091E1009091E100937F909360
:1033F000E10083FF0FC01092E90091E09093EB0091
:103400001092EC0092E39093ED001092770398E015
:103410009093F00082FF22C093E09093E900909196
:10342000F200992319F09AE39093E80090917503C4
:10343000992341F0909175039150909375039111E8
:1034400001C05D9A90917603992341F090917603A3
:10345000915090937603911101C0289A84FF18C06F
:103460008091E2008E7E81608093E2008091E10095
:103470008F7E8093E100809174038E7E80618093C3
:1034800074039F918F910F900FBE0F901F9018950E
:1034900080FFF7CF8091E2008E7E80618093E20012
:1034A0008091E1008E7E8093E100809174038E7E96
:1034B0008160E5CF1F920F920FB60F921124CF9229
:1034C000DF92EF92FF920F931F932F933F934F93AF
:1034D0005F936F937F938F939F93AF93BF93EF937C
:1034E000FF93CF93DF93CDB7DEB76C97DEBFCDBF31
:1034F0001092E9008091E80083FF25C068E0CE01CA
:1035000045960E94EA0382EF8093E8008D8987FF49
:1035100039C09091E80090FFFCCF982F907609F089
:1035200034C19E894F89588D2F89F88C911131C0F3
:10353000803861F5809173038093F1001092F1005F
:103540008EEF8093E8006C960FB6F894DEBF0FBE46
:10355000CDBFDF91CF91FF91EF91BF91AF919F913F
:103560008F917F916F915F914F913F912F911F911B
:103570000F91FF90EF90DF90CF900F900FBE0F90C4
:103580001F9018959EEF9093E800C7CF1092F1001E
:10359000D5CF913059F48111D3CF4130510581F607
:1035A000809173038D7F80937303CACF933049F466
:1035B0008111C6CF4130510519F6809173038260A5
:1035C000F2CF953041F48091E80080FFFCCF206875
:1035D0002093E300B5CF963009F0A9C00B8D1C8D68
:1035E00022E01092E9001092710310927003F2121F
:1035F0002EC010926F0310926E030E9438041F8237
:1036000099E09983FA8291E09E8390EA98879AEFF5
:1036100099872091700330917103275F3F4F3C835E
:103620002B838D831092E900109271031092700326
:1036300010936F0300936E0349E050E0BE016F5F8B
:103640007F4F80E00E94B3030E94380479CF10932B
:103650006F0300936E030E942404DC0112960D9107
:103660001C910115110509F451C1D801ED91FC918E
:103670000480F581E02DBE016B5E7F4FC801099586
:10368000009709F03EC1F80100851185EACFF3E00B
:10369000FF120EC08F89882309F440C0823061F484
:1036A00040E862E180E695E00E94D61C811148CF97
:1036B00081E28093EB0047CF813029F440E868E055
:1036C00087E595E0F1CF833099F70E942404DC016F
:1036D0001296ED90FC908E010F5F1F4F6801E11470
:1036E000F10479F0D701ED91FC910680F781E02D8E
:1036F000B801C7010995080F111DF701E084F18495
:10370000EECFD8011C92F60101900020E9F7319725
:10371000BF016C197D0940E0C601C6CF61E475E0C8
:10372000FB01449150E080E80E94B30309CF973039
:1037300009F4BECF983021F481E08093F10000CFEE
:10374000993009F0FDCE837009F0B2CFE1E1F1E0EC
:1037500081E031E096E32191222371F08093E9002A
:103760003093EB00DF0111972C912093EC009093A4
:10377000ED008F5F873079F78EE78093EA00109233
:10378000EA008F8980937703DBCE8B8D9C8D10921E
:10379000E900109271031092700390936F0380936D
:1037A0006E03898D811192C08E899D89913A49F469
:1037B000813209F07DCF47E050E068E071E080E0C1
:1037C000B3CF913209F074CF833269F48F89988D29
:1037D000B0E0A0E08093040190930501A09306015E
:1037E000B0930701ADCE803269F48091E80082FF8A
:1037F000FCCF67E088E091E00E94EA038BEF8093C2
:10380000E8009ECE823209F09BCE8F8980930F0113
:10381000EEEFFFE7859194918B3F9C4D51F1E0E0F5
:10382000F8E08091080190910901A0910A01B091FE
:103830000B01803B9440A105B105F1F480910F018B
:1038400080FD1AC0EE3F8AE0F80789F587E797E721
:1038500091838083809160008093720388E19BE074
:103860000FB6F894A895809360000FBE9093600007
:1038700067CEEEEFFAE0D5CF808191818737974709
:1038800009F05ECEA8958091600088618093600009
:103890008091720380936000EE3F2AE0F20789F086
:1038A0008091FE0A9091FF0A9183808349CE8081A6
:1038B00091818737980751F29093FF0A8093FE0A0F
:1038C000C5CF1092FF0A1092FE0A3ACE0E9424043D
:1038D000DC0112960D911C910115110509F4E8CE39
:1038E000D801ED91FC910190F081E02DBE016B5E5D
:1038F0007F4FC8010995811123CEF80100851185FC
:10390000EBCF181619060CF41BCED2CEF1E0FF1245
:10391000BECE65E475E004CF1F920F920FB60F92F2
:1039200011242F933F938F939F93AF93BF938091D5
:103930005A0390915B03A0915C03B0915D033091B9
:10394000590323E0230F2D3758F50196A11DB11D12
:103950002093590380935A0390935B03A0935C03D5
:10396000B0935D0380915E0390915F03A09160032B
:10397000B09161030196A11DB11D80935E039093E8
:103980005F03A0936003B0936103BF91AF919F91D8
:103990008F913F912F910F900FBE0F901F90189510
:1039A00026E8230F0296A11DB11DD2CFEF92FF9200
:1039B0000F931F93CF93DF93F82E192FE62E042F2A
:1039C00081E0860F880F0E94850383E00E948503B3
:1039D000CF2DD12FEC0EFD2EF11CCE15DF05B9F049
:1039E00007FF13C0FE0184910E948503182F80E019
:1039F0000E948503812321968111EFCFDF91CF9122
:103A00001F910F91FF90EF9008958881EDCF81E095
:103A1000F5CFCF9310927D0510927C0588EE93E050
:103A2000A0E0B0E080937E0590937F05A093800591
:103A3000B09381058FE492E090937B0580937A05A3
:103A40008FEF9FEF909387058093860580E58093A5
:103A5000CA051092CB051092D1051092D205109292
:103A6000D5051092D70582E090E0A0E0B0E0809309
:103A7000D8059093D905A093DA05B093DB05109291
:103A8000EF051092F9051092F80581E692E0909307
:103A9000F7058093F6051092FB0589E792E0909375
:103AA0003D0680933C0680913406811113C010922C
:103AB0002F0610922E0683E795E0909331068093AF
:103AC000300689E190E0909333068093320681E0DE
:103AD000809334068091260681112AC0C1E0C093EC
:103AE0001906C0931A068FE196E090931C06809306
:103AF0001B0610921E0610921D068DE692E0909312
:103B00001606809315061092210610922006109238
:103B1000230610922206C0932406C093250681EC4A
:103B200080931F060E9424040E941503C09326065A
:103B3000E0912006F0912106309709F0EAC08EE26C
:103B400096E0909321068093200680912206909122
:103B500023062091320630913306820F931F9093F3
:103B600023068093220680E580934606109247063E
:103B700083E090E0909349068093480686E0E7E171
:103B8000F1E0AAE4B6E001900D928A95E1F7109277
:103B900055061092540629E832E0309353062093DC
:103BA000520682E180936D069AE090936E068FEF45
:103BB00080935606109291061092900630938F06CD
:103BC00020938E0643E14093A9069093AA06809322
:103BD00092061092CD061092CC063093CB0620931D
:103BE000CA0624E12093E5069093E6068093CE066C
:103BF00082EF92E0909307078093060785EF92E0AB
:103C0000909309078093080784EF91E090930E0743
:103C100080930D0780E590E09093100780930F0745
:103C200082E090E09093120780931107909314071D
:103C30008093130785E992E09093230780932207EE
:103C400080911D0190911E01A0911F018093320768
:103C500090933307A093340788E0809335078091D1
:103C6000200190912101A091220180933607909329
:103C70003707A093380710923B0710923F07109226
:103C80003E07109240078FE792E090933A078093A7
:103C90003907E5E5F7E01082148213821582369623
:103CA00087E0E139F807B9F785E397E090939C073F
:103CB00080939B0786E397E090939E0780939D07F0
:103CC00081E080939F0783E08093A00782E397E0E1
:103CD00090939A07809399078AE090E09093A207C7
:103CE0008093A10784EF91E09093A4078093A307AA
:103CF0001092A7071092A6071092950710929607A8
:103D000010929707109298071092A507CF910895E7
:103D1000FC01808191810097D9F78EE296E0918332
:103D2000808313CFCF93DF93CDB7DEB728970FB63D
:103D3000F894DEBF0FBECDBF789484B5826084BD99
:103D400084B5816084BD85B5826085BD85B581609F
:103D500085BD80916E00816080936E00109281001D
:103D600080918100826080938100809181008160D8
:103D70008093810080918000816080938000809199
:103D80009100826080939100809191008160809386
:103D90009100809190008160809390008091C1009B
:103DA00084608093C1008091C10082608093C100D3
:103DB0008091C10081608093C1008091C3008160C7
:103DC0008093C3008091C00082608093C000809186
:103DD000C20081608093C20080917A0084608093E9
:103DE0007A0080917A00826080937A0080917A00D4
:103DF000816080937A0080917A00806880937A0055
:103E00001092770310927303109274038091D7007D
:103E100081608093D70080EA8093D80089B5806163
:103E200089BD89B5826089BD09B400FEFDCF61E01E
:103E300070E080E090E00E94FA058091D8008F7CCD
:103E400080618093D8008091E000807F8093E000C3
:103E50008091E1008E7E8093E1008DE08093E2000E
:103E6000559A209A8FEF9FEF909387058093860550
:103E700068EE73E080E090E00E94FA0522E536E00B
:103E800038872F836901912C812CFF24F3946624B9
:103E90006A94762C212C312C74EB472E73E4572E28
:103EA0004091480650914906841695060CF065C26B
:103EB0003CE3389DF001399DF00D1124E85BF94F8A
:103EC000108ED601D5961C92D597D7961C92D7976F
:103ED000178A9D961C929D97148A138A168A158AB2
:103EE0009896FC9298979796FC92979799961C9221
:103EF00099979A961C929A9792961C9292979B9653
:103F0000FC929B9720E15D962C935D97808D806459
:103F1000808F808D8460808FD9961C921E92D89756
:103F2000DB967C926E92DA9796967C926E9295973B
:103F300094967C926E9293979F962D923D924D927D
:103F40005C92D297E6EAFFEFD496FC93EE93D39778
:103F5000F0E5F0934606F092470661E05C968C919E
:103F60000E94950561E0D6015B968C910E949505B3
:103F7000F601238D30E0F901E052FB4FE491F0E0CF
:103F8000EE0FFF1FEE52FB4F85919491D601549690
:103F90009C938E9353975C968C915C9790E0FC0178
:103FA000E052FB4FE491F0E0EE0FFF1FEE52FB4FAB
:103FB00045915491F601568B458BF901ED54FB4F19
:103FC000E4915996EC935997FC01ED54FB4FE49121
:103FD0005A96EC930E94BB08D6015396ED91FC9142
:103FE0005497808159969C915997892B8083559637
:103FF000ED91FC91569780815A969C915A97892B06
:10400000808314968C918F3F29F161E00E94950581
:1040100061E0F60184810E9463056AE070E080E05F
:1040200090E00E94FA0560E0D60114968C910E94FF
:1040300063056AE070E080E090E00E94FA0561E0CC
:10404000F60184810E9463056AE070E080E090E000
:104050000E94FA056EE170E080E090E00E94FA05AF
:1040600080914606909147060E946C0BD6015396AC
:10407000ED91FC915497908159968C91809589236C
:104080008083BCE3B89DF001B99DF00D1124E85B7D
:10409000F94F808D8062808F42E16DEFC6010E94F2
:1040A000520B41EB6DEFC6010E94520B6EEAC60146
:1040B0000E945B0941EF63EBC6010E94520B4FE780
:1040C0006AECC6010E94520B40E061EAC6010E9400
:1040D000520B40E062EAC6010E94520B40E065EBE1
:1040E000C6010E94520B41E06BEAC6010E94520BCE
:1040F00064EBC6010E945B0960EAC6010E944C099C
:1041000065EBC6010E944C0965E5C6010E944C0999
:1041100061ECC6010E945B0968ECC6010E944C0973
:1041200060E8C6010E944C0968ECC6010E944C0977
:104130004FE067ECC6010E94520B62EBC6010E9481
:104140005B0964EAC6010E944C0960E0C6010E9456
:104150004C0960E0C6010E944C0969EBC6010E944F
:104160005B0942E361EBC6010E94520B41E066EB42
:10417000C6010E94520B45E06EEBC6010E94520B35
:1041800066EAC6010E945B09D6015596ED91FC9145
:10419000569790815A968C91809589238083BFEAA7
:1041A000BEBD0DB407FEFDCFD6015396ED91FC9137
:1041B0005497808159969C91892B80836CE370E0A1
:1041C00080E090E00E94FA05F60116AA17AAFCE327
:1041D000F89DC001F99D900D11249C01285B394F79
:1041E0005901D90158968C915897847E58968C9392
:1041F0005897E0E8F0E05096FC93EE931F975296A4
:10420000FC93EE93519758968C91589780615896ED
:104210008C93589754961C921E92539756961C92C4
:104220001E92559780914606909147060E946C0B0E
:10423000D6015396ED91FC915497908159968C91AB
:10424000809589238083F50107851089218932892A
:104250000150110921503109E12C50E040E070E09B
:1042600060E0C6010E946B0960EAC6010E945B091A
:10427000D50158969C91D6015596ED91FC91569793
:1042800080815A962C91822B80839EBD0DB407FEAF
:10429000FDCFD6015396ED91FC91549780815996AC
:1042A0009C915997892B8083D8966D917C91C601FA
:1042B0000E944E1323E432E0F60131A320A314A69A
:1042C00060E2C6010E94BE0997FDF4CFFC01EE0F2B
:1042D000FF1FE80FF91FED5DFE4F0180F281E02D19
:1042E0003296E491F0E0D6015F96FC93EE935E97F0
:1042F00061E070E080E090E00E94FA05F60185A997
:104300008823A1F180914606909147060E946C0B8C
:10431000D6015396ED91FC915497908159968C91CA
:104320005997809589238083D5968C91863021F486
:104330006FEAC6010E945B09F60185A9893029F45C
:1043400042E16DEFC6010E94520B66EAC6010E946F
:104350005B09D601D5961C92D5975396ED91FC91A9
:104360005497808159969C91892B8083BFEF8B1A3B
:104370009B0AECE3CE0ED11C93CD82E596E09093A0
:10438000510680935006E8E4F6E090E080E022E0F9
:10439000841795072CF422AB21AB0196FC96F8CF3D
:1043A000EEE3F6E088E0DF011D928A95E9F748E048
:1043B00050E0BF018CE396E00E9431080E94DC06C9
:1043C0006093190770931A0780931B0790931C073B
:1043D00081E080931F0710922007109221074DE083
:1043E00057E062E576E082E297E00E94981382E26D
:1043F00097E00E9450161E821D82F5E1EF2EA2E585
:10440000DA2EB0E5CB2E13E0F12E412C02E0502E37
:10441000612C712C86E0382E8091FB05882341F0B9
:1044200061E086EF95E00E94361181111092FB0544
:104430001092D7051092D5051092D2051092D10591
:10444000E092D0050E94DC068B0161E08091D005EE
:104450000E94950561E08091D0050E9463050E944D
:10446000BB08D092CA051092CB058091CA059091E5
:10447000CB050E946C0BEAE0BE2E8FEF0E9448072E
:10448000BA94B110FACF8CEC95E00E946F0B20E04B
:1044900030E0A90160E08CEC95E00E94850BB82E1D
:1044A0008093D605B1E08B1779F00E94DC06601B83
:1044B000710B613D774058F381E08093D1058CEC1E
:1044C00095E00E94610B75C02AEA31E040E050E0BF
:1044D00068E08CEC95E00E94850B82FF2AC0B092C8
:1044E000D7058091D705812C912CA12C60E4B62EA4
:1044F000823019F0812C912C540120E030E0A90188
:1045000067E38CEC95E00E94850BA501940169E2BC
:104510008CEC95E00E94850B8093D6058823D1F022
:104520000E94DC06601B710B613D774030F388E030
:10453000C4CF74E0B72E0E944F078093D605BA947B
:10454000B110F9CF8A3A11F082E0B7CF82E08093C0
:10455000D705C7CF8091D7058230D1F420E030E075
:10456000A9016AE38CEC95E00E94850B882319F081
:104570003092D105A4CF0E944F07807C803C11F47B
:10458000F092D7050E944F070E944F070E944F07E5
:104590008CEC95E00E94610BC092CA051092CB058D
:1045A00081E00E94560D8823F9F08091FB05882355
:1045B00009F16AE073E08AE795E00E94D9146D8101
:1045C0007E816F5F7F4F8AE795E00E94E8148D81BE
:1045D0009E8109970CF402C16DE173E08AE795E0D2
:1045E0000E947B1580E055C080E00E94560D882314
:1045F00001F3DBCF8091EF05803109F095C082E0B7
:104600008093FB0510920D0610920E0610920F0675
:10461000109210068091F0059091F105B0E0A0E0B5
:1046200055E0880F991FAA1FBB1F5A95D1F7809399
:10463000090690930A06A0930B06B0930C0688ED2A
:1046400095E0909312068093110681E08093FA051D
:104650001092FC051092FD051092FE051092FF05C8
:1046600010920006109201061092020610920306A4
:104670001092040610920506109206061092070684
:10468000109208066AEF72E08AE795E00E947B15B7
:1046900081E08093A8076FE273E08AE795E00E94CB
:1046A0007B1510E000E080914806909149060817BC
:1046B00019070CF499C0412C512C3201439440E06D
:1046C000842E40E0942E51E05093A5070E94DC0612
:1046D00000919507109196072091970730919807C0
:1046E000AB01BC01401B510B620B730B8091A10706
:1046F0009091A207B0E0A0E084179507A607B7073E
:1047000008F08AC110E080919F07181708F079C05F
:10471000E0919B07F0919C07E10FF11D62E0808121
:104720000E9495051F5FEFCF803209F042CFF092D3
:10473000FB058091F2059091F305A091F405B091ED
:10474000F50580930D0690930E06A0930F06B09387
:10475000100689839A83AB83BC83812C912C5401EE
:1047600049815A816B817C819E012F5F3F4F88ED8B
:1047700095E00E94210F882309F41BCF8091E50565
:10478000A301920104C0220F331F441F551F8A95B5
:10479000D2F7DA01C901880E991EAA1EBB1E4981F3
:1047A0005A816B817C818091EF05803191F488EF93
:1047B0009FEFA0E0B0E0481759076A077B0780F237
:1047C0008092090690920A06A0920B06B0920C06FF
:1047D00036CF88EF9FEFAFEFBFE0EDCF8D819E81A9
:1047E00001969E838D8318CE8F8198850E948613B3
:1047F0000F5F1F4F4F815885445C5F4F58874F8331
:1048000052CF312C8091A007381608F061C0E32CFC
:10481000F12CE0919D07F0919E07EE0DFF1D61E0E8
:1048200080810E949505E0919D07F0919E07EE0D15
:10483000FF1D60E080810E946305D301C201032C4B
:1048400004C0880F991FAA1FBB1F0A94D2F75C01EE
:104850006C01C094D094212C80919F07281608F5F4
:10486000022D10E0E0919B07F0919C07E00FF11FF3
:1048700080810E9437050C5F1F4F000F111FF80148
:10488000E75CF84F892B41F4808191818A299B292B
:10489000918380832394E0CF808191818C219D211D
:1048A000F7CFE0919D07F0919E07EE0DFF1D61E0AF
:1048B00080810E94630580919D0790919E07E80E7C
:1048C000F91E60E0D7018C910E94950533949ACF30
:1048D000E5E5F7E083819481892B31F410822FEF95
:1048E0003FEF328321831582369637E0E139F307B3
:1048F00089F7F12C80919F07F81608F05AC0E12C37
:104900000F2D10E0000F111F0F5B184F2091A00713
:10491000E21608F04CC0D8016D917C910E2C02C0BB
:10492000769567950A94E2F7F29E900111242E0D78
:10493000311DE6E5F7E080E040815181241735071D
:1049400009F4E2C08F5F36968A30B1F760FF2DC060
:10495000E5E5F7E090E080E04081411121C0E09181
:104960009907F0919A07E20FF31F6081B6E0B89FB4
:10497000A001B99F500D1124FA01E75CF84F648F34
:10498000485B594FFA01E25FFE4F31832083405F5D
:104990005E4FFA011182108261E00E94E80605C0B4
:1049A000019636968A309105B9F6E394AFCFF39429
:1049B000A1CFEAE5F7E010E080818111182F36964B
:1049C00026E937E02E173F07B9F70E94DC0660930F
:1049D00095077093960780939707909398071123F4
:1049E000D9F080915A078823B9F0809158079091A7
:1049F0005907019789F48091550780931507811114
:104A000010C082E297E00E9432168114910409F4EA
:104A10005ACE0E94000057CE1092A507109215079B
:104A2000F0CF90911607981356C0109217078093F5
:104A30001607813381F582EE90E00E949E0882EE97
:104A400090E00E948808E0912607F091270794895A
:104A50008289992309F443C0148A8823B1F0809194
:104A60002407909125070E9486136EE972E08091D9
:104A70002407909125070E947B156EE373E08091D7
:104A80002407909125070E947B156AE473E08AE76A
:104A900095E00E947B1580911507823359F461E0FF
:104AA00082E297E00E948F156CE473E08AE795E05C
:104AB0000E947B1580911507833309F0A2CF60E037
:104AC00082E297E00E948F156EE473E08AE795E03A
:104AD0000E947B1596CF31E030931707A8CF41E0B5
:104AE000448B882391F280912407909125070E949E
:104AF00086136EE972E080912407909125070E9449
:104B00007B1564E473E0BBCF617047CFFB01DC0130
:104B100002C005900D9241505040D8F708950E9470
:104B2000BC25A59F900DB49F900DA49F800D911D55
:104B300011240895A1E21A2EAA1BBB1BFD010DC072
:104B4000AA1FBB1FEE1FFF1FA217B307E407F5073D
:104B500020F0A21BB30BE40BF50B661F771F881F19
:104B6000991F1A9469F760957095809590959B01AF
:104B7000AC01BD01CF010895A29FB001B39FC00158
:104B8000A39F700D811D1124911DB29F700D811D79
:104B90001124911D08955058BB27AA270E94E32590
:104BA0000C942D270E941F2738F00E94262720F002
:104BB00039F49F3F19F426F40C941C270EF4E09569
:104BC000E7FB0C941627E92F0E943E2758F3BA17EB
:104BD000620773078407950720F079F4A6F50C9413
:104BE00060270EF4E0950B2EBA2FA02D0B01B90112
:104BF00090010C01CA01A0011124FF27591B99F053
:104C0000593F50F4503E68F11A16F040A22F232F5E
:104C1000342F4427585FF3CF469537952795A795AE
:104C2000F0405395C9F77EF41F16BA0B620B730B55
:104C3000840BBAF09150A1F0FF0FBB1F661F771FC6
:104C4000881FC2F70EC0BA0F621F731F841F48F47B
:104C5000879577956795B795F7959E3F08F0B0CF04
:104C60009395880F08F09927EE0F979587950895EB
:104C70000E944C260C942D270E94262758F00E9453
:104C80001F2740F029F45F3F29F00C94162751119B
:104C90000C9461270C941C270E943E2768F39923EB
:104CA000B1F3552391F3951B550BBB27AA27621728
:104CB0007307840738F09F5F5F4F220F331F441F35
:104CC000AA1FA9F335D00E2E3AF0E0E832D0915069
:104CD0005040E695001CCAF72BD0FE2F29D0660F56
:104CE000771F881FBB1F261737074807AB07B0E899
:104CF00009F0BB0B802DBF01FF2793585F4F3AF09F
:104D00009E3F510578F00C9416270C9461275F3F65
:104D1000E4F3983ED4F3869577956795B795F79524
:104D20009F5FC9F7880F911D9695879597F908950C
:104D3000E1E0660F771F881FBB1F621773078407A8
:104D4000BA0720F0621B730B840BBA0BEE1F88F7B7
:104D5000E09508950E94462788F09F5798F0B92F54
:104D60009927B751B0F0E1F0660F771F881F991FA0
:104D70001AF0BA95C9F714C0B13091F00E946027BB
:104D8000B1E008950C946027672F782F8827B85FCB
:104D900039F0B93FCCF3869577956795B395D9F7F8
:104DA0003EF490958095709561957F4F8F4F9F4F02
:104DB0000895E89409C097FB3EF49095809570950E
:104DC00061957F4F8F4F9F4F9923A9F0F92F96E957
:104DD000BB279395F695879577956795B795F111CC
:104DE000F8CFFAF4BB0F11F460FF1BC06F5F7F4F69
:104DF0008F4F9F4F16C0882311F096E911C077237B
:104E000021F09EE8872F762F05C0662371F096E883
:104E1000862F70E060E02AF09A95660F771F881F52
:104E2000DAF7880F9695879597F9089597F99F6710
:104E300080E870E060E008959FEF80EC0895002422
:104E40000A941616170618060906089500240A94EF
:104E500012161306140605060895092E0394000C75
:104E600011F4882352F0BB0F40F4BF2B11F460FF04
:104E700004C06F5F7F4F8F4F9F4F089557FD90582D
:104E8000440F551F59F05F3F71F04795880F97FB0E
:104E9000991F61F09F3F79F08795089512161306C8
:104EA0001406551FF2CF4695F1DF08C016161706F7
:104EB0001806991FF1CF869571056105089408952C
:104EC000E894BB2766277727CB0197F908950E94BE
:104ED0007A270C942D270E941F2738F00E9426273E
:104EE00020F0952311F00C9416270C941C27112404
:104EF0000C9461270E943E2770F3959FC1F3950F94
:104F000050E0551F629FF001729FBB27F00DB11D4D
:104F1000639FAA27F00DB11DAA1F649F6627B00DDD
:104F2000A11D661F829F2227B00DA11D621F739FC6
:104F3000B00DA11D621F839FA00D611D221F749FD4
:104F40003327A00D611D231F849F600D211D822F1B
:104F5000762F6A2F11249F5750409AF0F1F0882342
:104F60004AF0EE0FFF1FBB1F661F771F881F91506F
:104F70005040A9F79E3F510580F00C9416270C94E1
:104F800061275F3FE4F3983ED4F386957795679564
:104F9000B795F795E7959F5FC1F7FE2B880F911D99
:104FA0009695879597F90895EE0FFF1F0590F49158
:084FB000E02D0994F894FFCFF5
:104FB800FFFFFFFFFFFFFFFF00E100000000000010
:104FC80000C1808100000012001300140031323348
:104FD800030405207404216F04226A042365042451
:104FE8006004255B04265604275104284C042947ED
:104FF800042A42042B3D042C38042D33042E2E049D
:105008002F2904302404311F04321A0433150434C0
:105018001004350B0436060437010438FC0339F74D
:10502800033AF2033BED033CE8033DE3033EDE03B2
:105038003FD90340D40341CF0342CA0343C50344C5
:10504800C00345BB0346B60347B10348AC0349A7B1
:10505800034AA2034B9D034C98034D93034E8E03C2
:105068004F8903508403517F03527A0353750354C5
:105078007003556B03566603576103585C03595711
:10508800035A52035B4D035C48035D43035E3E03D2
:105098005F3903603403612F03622A0363250364C5
:1050A8002003651B03661603671103680C03690771
:1050B800036A02036BFD026CF8026DF3026EEE02E6
:1050C8006FE90270E40271DF0272DA0273D50274CA
:1050D800D00275CB0276C60277C10278BC0279B7D6
:1050E800027AB2027BAD027CA8027DA3027E9E02F8
:1050F800B099026023010008010000000000006967
:1051080004C6068A047F04D1048F04AD040000009D
:1051180000D911F70378119413000000006D07E619
:1051280007AB07900700000000310800000000D11D
:10513800059105600500000000D819CF1995139452
:1051480013000000005016981332160D0A00537908
:105158007374656D00566F6C756D65205570210010
:10516800566F6C756D6520446F776E2100566F6CB5
:10517800756D650043616C6962726174696E670080
:10518800417564696F00766F6C756D652073657421
:1051980020746F00766F6C756D652073657475701B
:1051A80021002E63002E74787400534420436172EA
:1051B80064204D6F756E746564005344204D6F759F
:1051C8006E7420417474656D70743A200043617286
:1051D80064204D6F756E74204661696C6564004685
:1051E800696E697368656420736574757000536FC0
:1051F800756E64004D7574656400310032003300CB
:00000001FF
