:100000000C94C8020C94F0020C94F0020C94F002D0
:100010000C94F0020C94F0020C94F0020C94F00298
:100020000C94F0020C94F0020C94F7170C946618E0
:100030000C94F0020C94F0020C94F0020C94F00278
:100040000C94F0020C94F0020C94F0020C94F00268
:100050000C94F0020C94F0020C94F0020C94981A98
:100060000C94F0020C94F0020C94F0020C94F00248
:100070000C94F0020C94F0020C94F0020C94F00238
:100080000C94F0020C94F0020C94F0020C94F00228
:100090000C94F0020C94F0020C94F0020C94F00218
:1000A0000C94F0020C94F0020C94F002EAE00000D0
:1000B00000003AB80000C44244C049249064484457
:1000C00060000F84210F80000894514210000894B2
:1000D000214880000092AAAAAA4400000894514234
:1000E0000000252949C044E44460001D060B80033C
:1000F0004920001D29384200392972100019294968
:10010000800039294A400000FC9292929200AAA8ED
:1001100084254E52404124948AA88439294A4000BB
:100120001D29384C24E4444000192F41C0109D295A
:1001300049C000192849808439294B80001C274B6D
:10014000C088000000000003E02295100000C924D0
:10015000B088444220D24930F82108420F808A25D5
:10016000082082008A250852288088CA554AA5524C
:10017000A888008A28A25142008A28A28A2700F86B
:10018000820820820072281C0A2700F228BC9228CC
:1001900080790A1428531B00F228BC820800790ACF
:1001A0001428509E008B2CAA9A688082C6C6AAAAE0
:1001B000AA9200820820820F808A2928D2288010E3
:1001C00084214980AAA88A28BE8A2880309204E81F
:1001D000490C00F421C84200FA083E820F80E24830
:1001E000A28A4E00722820822700F228BE8A2F00A1
:1001F0007228A2FA28803E1049AA9AA5268819F8E2
:1002000072208C2002000418264000000F80F800A5
:10021000000099060800080A08087228A27827003A
:1002200072289C8A2700F82108210400720F228A74
:100230002700790F220A270010C524F841007220F8
:100240008C0A2700722084210F8026A22220722887
:10025000A28A270022444880000800003E000000D7
:10026000000A00823E208000A4A00000421112403B
:1002700024888420A8003090C309515D0044A4A8BC
:10028000541A2A440021CA3E2AA708514F94F9451E
:1002900000AAA00000AA880000AC00040400B0007E
:1002A000060600B600040400BA00030300BD000403
:1002B0000400C100060600C700060600CD000606C1
:1002C00000D300080800DB00060600E10005050079
:1002D000E600040400EA00050500EF00030300F255
:1002E00000050500F700050500FC000505000101FB
:1002F00005050006010808000E01020200100105B4
:100300000500150103030018010202001A0105058A
:10031000001F010505002401040400280105050053
:100320002D01050500320105050037010505003CDA
:1003300001050500410103030044010505004901D1
:100340000505004E0103030051010404005501039B
:10035000030058010606005E010606006401060659
:10036000006A01090900730106060079010606000A
:100370007F0106060085010606008B010606009136
:100380000107070098010606009E01070700A50166
:10039000060600AB01080800B301060600B9010615
:1003A0000600BF01050500C401020200C6010606E1
:1003B00000CC01070700D301050500D8010606009F
:1003C000DE01060600E401060600EA01060600F06A
:1003D00001060600F6010A0A0000020606000602EF
:1003E0000505000B020606001102050500160202B3
:1003F000020018020202001A020606002002060687
:100400000026020606002C0206060032020606003E
:1004100038020606003E0206060044020606004AAE
:10042000020404004E0206060054020404005802AE
:100430000202005A02060600600202020062020680
:10044000060068020404006C020404007002040444
:1004500000740202020076020707007D020808000D
:1004600085020606008B0206060091020404009530
:100470000202020097020202000000000023002690
:100480000029002C002F000000000200090F0000CE
:10049000030401000C000000000000000000000048
:1004A00000000000000000000000240027002A00D7
:1004B0002D003000040802011040804010204080D0
:1004C00040800802040180402010020110801020AA
:1004D00040402000000000250028002B002E0031A5
:1004E00000040404040403040502020202040302DB
:1004F00002020206060606060604040202020404BC
:10050000080B0002020200000904000001020200C0
:100510000005240010010524010101042402060540
:1005200024060001070581031000400904010002B0
:100530000A00000007050202400000070583024090
:1005400000000403090412010002EF0201404123EC
:10055000368000010102030141726475696E6F20EB
:100560004C4C430041726475696E6F204C656F6E30
:100570006172646F00050C0901A101850415002654
:10058000FF0319002AFF03950475108100C0151B95
:1005900011241FBECFEFDAE0DEBFCDBF13E0A0E035
:1005A000B1E0E4EEF6E402C005900D92A630B1078A
:1005B000D9F727E0A6E0B3E001C01D92A438B20746
:1005C000E1F712E0C8ECD2E004C02197FE010E94DE
:1005D0006A23C73CD107C9F70E949D1C0C94702365
:1005E0000C94000096E0899FD0011124AC5EB84FB6
:1005F00090967C936E935F9791E091969C939197E0
:10060000E0918107F091820790918007992339F05A
:10061000309751F0811108C08091300709943097CC
:1006200019F05C968C91FACF0895CF93DF93FC017B
:1006300081819091CD05482F490F5527551F48308E
:1006400051059CF5A281B381109709F529EC35E09D
:100650003383228320812093CB058093CC05809126
:10066000CE05820F80832091CF05A22FB091D005B7
:100670008A2F821B8917E8F481813D91C82FD0E031
:10068000C05FDE4F38838F5F8183F2CFD901189628
:100690002D913C91199721153105C1F729EC35E0D1
:1006A00019963C932E931897D5CF80E0DF91CF9188
:1006B000089581E0FBCFFC0180912D05882311F185
:1006C0003FB7F89482E08093E9002091F200822FF6
:1006D00090E01816190614F481E090E0882339F0B0
:1006E000289844E640932C054091F1004083222352
:1006F00039F02091F200211103C02BE62093E8008D
:100700003FBF08958FEF9FEF0895409126055091C8
:100710002705209124053091250542175307B4F48D
:100720009091E8009570E1F39091E80092FD19C076
:100730008093F100809126059091270501968F7393
:100740009927892B19F48EEF8093E8008091260574
:10075000909127050196909327058093260581E0C7
:10076000089580E00895DF92EF92FF920F931F9318
:10077000CF93DF93D82E8A01EB017B01E40EF51EA7
:10078000CE15DF0559F0D7FE12C0FE0184910E94FC
:10079000850321968111F4CF0FEF1FEFC801DF9180
:1007A000CF911F910F91FF90EF90DF900895888176
:1007B000EECF2FB7F89487708093E9009091E8000E
:1007C000892F807295FF04C09091F20080E4891B0C
:1007D0002FBF0895615030F02091F100FC0120837B
:1007E0000196F8CF289884E680932C050895AF925F
:1007F000BF92CF92DF92EF92FF920F931F93CF930E
:10080000DF936C017B018B01040F151FEB015E016F
:10081000AE18BF08C017D10759F06991D601ED9104
:10082000FC910190F081E02DC6010995892B79F7A3
:10083000C501DF91CF911F910F91FF90EF90DF9055
:10084000CF90BF90AF90089580911C0581110DC08D
:1008500082E08093180584E08093190510921B05AF
:1008600010921A0581E080931C0588E195E00895B7
:100870000F931F93CF93DF931F92CDB7DEB782E024
:10088000898342E450E060E075E080E80E94B303B1
:100890000E942404DC0112960D911C910115110592
:1008A00089F0D801ED91FC910280F381E02DBE0129
:1008B0006F5F7F4FC801099597FD04C0F80100855F
:1008C0001185ECCF89810F90DF91CF911F910F910E
:1008D0000895CF93DF931F92CDB7DEB76983DC0114
:1008E000ED91FC910280F381E02D41E050E0BE01EA
:1008F0006F5F7F4F09950F90DF91CF91089583E04F
:100900008093E9008091F200882319F08AE38093B4
:10091000E800089583E00E94D90390E00895CF9302
:10092000DF931F92CDB7DEB7FC018485958597FDD7
:1009300008C02FEF3FEF358724870F90DF91CF91CD
:100940000895CE0101960E945B03019719F48981F5
:1009500090E0F3CF8FEF9FEFF0CF0F931F93CF93E4
:10096000DF931F92CDB7DEB78C01FC01848595859E
:1009700097FF0BC0CE0101960E945B03019771F4B3
:10098000898190E0F80195878487F80184859585B1
:100990000F90DF91CF911F910F9108958FEF9FEFEF
:1009A000F1CFFC018485958597FD0BC09FB7F89426
:1009B00082E08093E9008091F2009FBF90E0019671
:1009C00008959FB7F89482E08093E9008091F20047
:1009D0009FBF90E0089581508F3008F047C0E82F06
:1009E000F0E0EB50FB4F0C946A231205160504054A
:1009F0000A050E0536053605360519051F052305BA
:100A000027052D0536053105809180008F7780936D
:100A100080000895809180008F7DF9CF80918000C3
:100A2000877FF5CF84B58F7784BD089584B58F7D9A
:100A3000FBCF809190008F778093900008958091F4
:100A400090008F7DF9CF80919000877FF5CF8091C6
:100A5000C0008F778093C00008958091C0008F7D83
:100A6000F9CF8091C200877F8093C2000895CF9311
:100A7000DF93282F30E0F901E957FB4F8491F9010A
:100A8000EC54FB4FD491F901EF51FB4FC491CC23AF
:100A9000A1F081110E94EB04EC2FF0E0EE0FFF1F9C
:100AA000E758FB4FA591B491EC91ED2381E090E0E4
:100AB00009F480E0DF91CF91089580E090E0FACFD3
:100AC000862F0C9437051F93CF93DF93282F30E0A8
:100AD000F901E957FB4F8491F901EC54FB4FD49194
:100AE000F901EF51FB4FC491CC23A9F0162F8111CE
:100AF0000E94EB04EC2FF0E0EE0FFF1FED52FB4FD6
:100B0000A591B4918FB7F894EC91111108C0D095CC
:100B1000DE23DC938FBFDF91CF911F910895DE2BF1
:100B2000F8CF862F642F0C946305CF93DF9390E06A
:100B3000FC01EC54FB4F24918F519B4FFC0184919D
:100B40008823C9F090E0880F991FFC01EA55FB4FFC
:100B5000A591B491FC01ED52FB4FC591D491611167
:100B60000DC09FB7F8948C91209582238C93888137
:100B7000282328839FBFDF91CF910895623051F4DD
:100B80009FB7F8943C91822F809583238C93E881C2
:100B90002E2BEFCF8FB7F894EC912E2B2C938FBF89
:100BA000EACF862F642F0C9495053FB7F894809177
:100BB000130590911405A0911505B091160526B561
:100BC000A89B05C02F3F19F00196A11DB11D3FBF85
:100BD000BA2FA92F982F8827BC01CD01620F711D54
:100BE000811D911D42E0660F771F881F991F4A954E
:100BF000D1F708958F929F92AF92BF92CF92DF92DA
:100C0000EF92FF924B015C010E94D5056B017C01C4
:100C10000E94D5056C197D098E099F09683E7340B5
:100C200081059105A8F321E0821A9108A108B10875
:100C300088EEC80E83E0D81EE11CF11C81149104DB
:100C4000A104B10429F7FF90EF90DF90CF90BF90FF
:100C5000AF909F908F9008957F928F929F92AF92C6
:100C6000BF92CF92DF92EF92FF920F931F93CF9399
:100C7000DF93C82E8B017A0180912D05811110C060
:100C80008FEF9FEFDF91CF911F910F91FF90EF902A
:100C9000DF90CF90BF90AF909F908F907F900895FE
:100CA00080912A0580FF05C08091E00082608093DA
:100CB000E000CE2DDF2DD12C8AEFB82E8C2D877041
:100CC000982E8C2D8072882E8C2D8074782E9AE32D
:100CD000A92E209719F4DD2009F452C08C2D0E9412
:100CE000D90381110AC0BA94BB2051F261E070E0CF
:100CF00080E090E00E94FA05ECCF8C171D0611F001
:100D00000CF08C2F9FB7F8949092E9002091E800A6
:100D100025FD02C09FBFDDCF282F30E0C21BD30BC3
:100D2000882029F08150A0F01092F100FBCFF8014B
:100D3000C7FC0AC0815050F041914093F100FACFB6
:100D400044914093F10031968150D0F7020F131F68
:100D5000DD2021F0A092E800D12CDCCF8091E800CA
:100D600085FD07C0A092E800DD24D394209791F27E
:100D7000F3CF209779F6772069F2A092E800CACFE6
:100D80005D9884E680932B05C7017CCFCF93DF93DA
:100D9000EC0180910F01882331F083E00E942C0642
:100DA0001816190634F081E090E09B838A8380E076
:100DB00090E0DF91CF9108952FB7F89460910F05DF
:100DC0007091100580911105909112052FBF089523
:100DD0000F931F93CF93DF93C82FD62F86E0C89F22
:100DE000F0011124EC5EF84F11A2878D90A18130A3
:100DF0009105F1F058F082309105F1F1039709F473
:100E000040C0DF91CF911F910F9108956623C9F3E0
:100E100061E070E08C2F0E94F2020E94DC06609379
:100E20006C0770936D0780936E0790936F07E9CFFF
:100E30000E94DC0600916C0710916D0720916E07EF
:100E400030916F07AB01BC01401B510B620B730B60
:100E500080917E0790917F07B0E0A0E0841795070E
:100E6000A607B70748F462E070E08C2FDF91CF91BE
:100E70001F910F910C94F20263E070E0D111C1CF89
:100E8000F4CF70E060E0F1CF8EBD00000DB407FE3E
:100E9000FDCF8EB508958FEF0C9444070F931F93E9
:100EA000CF93DF93EC010E94DC068B010E944B077D
:100EB0008F3F69F00E94DC06601B710B6C177D0789
:100EC000A8F380E0DF91CF911F910F91089581E009
:100ED000F9CFDC01FB0112962C9112978481958148
:100EE0002817190641F491818081813A31F49D7F60
:100EF00081E0913009F080E008958132E1F79B3084
:100F000029F482811F968C9381E008959A3099F795
:100F1000828150968C93F8CFDC01FB0188E48083BA
:100F200089E4818384E482831D969C911D979F7040
:100F30009F5B93831D968D919C9124E09695879558
:100F40002A95E1F78F708F5B848385E00895EF9297
:100F5000FF920F931F93CF93DF93FB0120812138E2
:100F600071F52381223259F5DC0112964C912481CE
:100F700035814217130619F5EC010B851C85F12C00
:100F8000E12C0115110589F0F80144815581628138
:100F9000738180E80E94B3038F3F980749F0E80E01
:100FA000F91ED8010D911C91ECCF81E08F87C7010C
:100FB000DF91CF911F910F91FF90EF90089590E0F6
:100FC00080E0F6CFCF93DF93CDB7DEB769970FB64A
:100FD000F894DEBF0FBECDBFFC01DB018C918F5FAB
:100FE0008C939E012D5F3F4F8DE0D9011D928A9514
:100FF000E9F729E0298384E08A8391E09D8383E0F7
:101000008E832A8721E22B879C879D879F8722E2F8
:10101000288B27E02B8B25E02C8B8E8B20E430E077
:10102000388F2F8B998F82818B8395858685998BBD
:101030008A8B838180688D8B49E150E0BE016F5FB0
:101040007F4F80E00E94B30369960FB6F894DEBF2D
:101050000FBECDBFDF91CF910895CF92DF92EF9277
:10106000FF921F93CF93DF931F92CDB7DEB77B0123
:101070006A018091DA0581112AC011E01093CD0533
:101080001093CE0583ED95E09093D0058093CF0526
:101090001092D2051092D1058DE692E09093CA0588
:1010A0008093C9051092D5051092D4051092D705EA
:1010B0001092D6051093D8051093D90581EC809332
:1010C000D3050E9424040E9415031093DA0584E0DE
:1010D000898341E050E0BE016F5F7F4F8091CC0576
:1010E0000E942C0697FD07C08091CC05A601B70190
:1010F00080640E942C060F90DF91CF911F91FF908A
:10110000EF90DF90CF900895E0EFF5E022813381FA
:101110002817390711F413821282329625E0E83F2E
:10112000F207A1F748E050E062EF75E080EF95E04C
:101130000C942D08E2EFF5E030E020E04191519170
:101140002F5F3F4F452B79F4220F331FF901E051F8
:10115000FA4F9183808348E050E062EF75E080EFC2
:1011600095E00C942D082430310541F7F4CFCF934E
:10117000DF93EC01CD2FDD27C695C695C695AFE070
:10118000B2E0CA9FF001CB9FF00DDA9FF00D112461
:101190007796C6E0F695E795CA95E1F7EB01E88307
:1011A000FC01D5E0F695E795DA95E1F7EF73FF27B7
:1011B000C3E0D1E0EC9FB001ED9F700DFC9F700D7E
:1011C00011246F5D7F4FE6E076956795EA95E1F72C
:1011D000FA016083AC014F7155274A9FC0014B9FB4
:1011E000900D5A9F900D11244796F6E0969587959D
:1011F000FA95E1F7E9018883DF91CF910895DC0149
:101200005596ED91FC91569790815A968C91892B29
:1012100080837EBD0DB407FEFDCF6EBD0DB407FE0D
:10122000FDCF0895DC015596ED91FC915697908184
:101230005A968C91892B80836EBD0DB407FEFDCF2D
:101240000895DC015596ED91FC91569790815A9640
:101250008C918095892380836EBD0DB407FEFDCFF0
:101260000895DF92EF92FF920F931F93CF93DF9336
:10127000EC01D62E142FF22EEE2039F08FA9882300
:1012800021F0F02E022FD42E162F65E1CE010E9400
:1012900021096D2DCE010E9412096F2DCE010E94F1
:1012A000120965E7CE010E942109612FCE010E943B
:1012B0001209602FCE010E9412096CE5CE01DF9168
:1012C000CF911F910F91FF90EF90DF900C94210927
:1012D000DC015596ED91FC91569790815A968C9130
:1012E000892B8083215031094109510948F00DB4FF
:1012F00007FEFDCF7EBD0DB407FEFDCF6EBDF2CF64
:101300000DB407FEFDCF0895FC0124A52130F9F4AA
:101310002FE9260F2A3108F46052FC01A0A1B1A1E7
:101320002C9130E090E080E082179307C4F4AC0188
:10133000440F551F480F591F1196ED91FC911297BC
:10134000E40FF51F4081461761F00196EDCF223082
:1013500021F72FEB260F2A3100F7605EDECF8FEFEB
:101360009FEF08952F923F924F925F926F927F92DC
:101370008F929F92AF92BF92CF92DF92EF92FF92A5
:101380000F931F93CF93DF93CDB7DEB762970FB65E
:10139000F894DEBF0FBECDBF5C01390148012701C3
:1013A000223031050CF02DC10230110544F58A01BF
:1013B0000F5F1F4F9B012F5F3F4FEE24E394C5014A
:1013C0000E943109B201C5010E94FF0862960FB662
:1013D000F894DEBF0FBECDBFDF91CF911F910F916B
:1013E000FF90EF90DF90CF90BF90AF909F908F9045
:1013F0007F906F905F904F903F902F900895040FD3
:10140000151F01501109EE24E3949B01C5010E94B0
:101410003109B201C5010E94FF08B1E08B1A9108A1
:10142000C1F7D4CF8401040F151F015011092150B9
:101430003109EE24E394C5010E9431094C145D0486
:1014400009F4CFC09E012E5F3F4FAE014C5F5F4F4E
:10145000BE016A5F7F4FC2010E94B7089E012F5FE5
:101460003F4FAE014D5F5F4FBE016B5F7F4FC601C7
:101470000E94B708312C212CC401B0E0A0E08B877A
:101480009C87AD87BE87C301770CAA0BBB0B8F87E8
:10149000988BA98BBA8BB10190E080E00E946F22FB
:1014A0006B017C016B857C858D859E850E946F22FA
:1014B0009B01AC01C701B6010E94CE216B017C01EA
:1014C000AC019B0160E070E080E89FE30E94612135
:1014D0002B013C016E8170E090E080E00E9471225F
:1014E000A30192010E94FD226F83788789879A87E2
:1014F0006D8170E090E080E00E947122A70196016A
:101500000E94FD229B01AC016F81788589859A85B7
:101510000E9462210E944022062F10E0102F002717
:101520000027187F6C8170E090E080E00E947122BB
:10153000A30192010E94FD226F83788789879A8791
:101540006B8170E090E080E00E947122A70196011B
:101550000E94FD229B01AC016F81788589859A8567
:101560000E9462210E94402298E0699FB0011124EC
:10157000607E7770062B172B6A8170E090E080E028
:101580000E947122A30192010E94FD222B013C01C5
:10159000698170E090E080E00E947122A7019601CD
:1015A0000E94FD229B01AC01C301B2010E94622195
:1015B0000E94402270E093E0759567959A95E1F757
:1015C000602B712B2F85388949895A89C5010E9462
:1015D0006809AFEF2A1A3A0A8214930409F05BCF24
:1015E000F5CE689C9001699C300D789C300D1124DB
:1015F000032E000C440B550BB201C5010E94680973
:10160000E5CE260F371F023011050CF00BCF21500D
:101610003109EE24E3948A01C5010E943109B20127
:10162000C5010E94FF08A1E06A1A7108C1F7CECE79
:101630001F93CF93DF93EC01142F0E942109612F98
:10164000CE01DF91CF911F910C941209089561E0B2
:10165000FC0184810E94630580910803811110922E
:10166000080308958CBD9DBD0895CF93DF93EC01D1
:1016700080910803811109C081E080930803809163
:101680007E0590917F050E94320B60E08C81DF9196
:10169000CF910C946305CF92DF92EF92FF920F935C
:1016A0001F93CF93DF93EC01162F69017A018E818E
:1016B000882389F08F8198859C012F5F3F4F388761
:1016C0002F838230924018F40E944B07F3CFCE0153
:1016D0000E94270B1E82CE010E94350B8CE291E006
:1016E0000E944E07812F80640E94440708E110E0A9
:1016F000D701C601002E04C0B695A795979587958A
:101700000A94D2F70E94440708501109083F8FEF4E
:10171000180771F78FEF0E94440710E00E944B07F3
:101720008A8787FF04C01F3F11F01F5FF7CFDF914B
:10173000CF911F910F91FF90EF90DF90CF90089580
:10174000CF92DF92EF92FF920F93CF93DF93EC0152
:10175000690182E1411551056105710599F08B859B
:10176000833039F089E0440F551F661F771F8A9533
:10177000D1F79A01AB0168E1CE010E944B0B88239F
:1017800019F084E08D832DC08EEF0E94440776010E
:101790008EEFD81AF70181917F010E944407EC1463
:1017A000FD04C1F78FEF0E9444078FEF0E944407AA
:1017B0000E944B078A878F71853071F4011116C022
:1017C000CE010E94270B81E0DF91CF910F91FF9016
:1017D000EF90DF90CF90089581E18D83CE010E943C
:1017E000270BCE010E94270B80E0EECF88E592E028
:1017F0000E944E07811102C085E1C4CF20E030E095
:10180000A9016DE0CE010E944B0B882311F084E109
:10181000B9CF0E944B078111FACFD2CF0F934091DD
:101820000A0350910B0360910C0370910D03411555
:1018300051056105710589F0082F2EE033E090E035
:1018400080E00E94A00B882349F010920A031092B6
:101850000B0310920C0310920D0381E00F91089579
:101860000F93CF93C82F80910903811105C0C1E068
:101870008C2FCF910F91089540910001509101015B
:1018800060910201709103010C2F2EE033E090E093
:1018900080E00E94A00B811102C0C0E0E9CFCC2300
:1018A00031F381E00E940E0C8823B9F310920903F2
:1018B000DFCFAF92BF92CF92DF92EF92FF921F9352
:1018C000CF93DF936B017C01142F809100019091E5
:1018D0000101A0910201B09103018C159D05AE0597
:1018E000BF0509F4ADC081E00E94300C8823E1F10E
:1018F000809106008823A1F0809100009091010062
:10190000A0910200B0910300C816D906EA06FB06B2
:1019100039F48091070090910800892B09F44FC099
:10192000C0920000D0920100E0920200F092030009
:1019300080910B00A7019601833039F099E0220FC6
:10194000331F441F551F9A95D1F761E190E080E065
:101950000E944B0B882391F083E08093050090E078
:1019600080E00E94270B80E0DF91CF911F91FF90D4
:10197000EF90DF90CF90BF90AF9008950E94DC066B
:10198000EB010E944B0780930A008F3F79F40E947D
:10199000DC066C1B7D0B6D32714098F38FE08093F9
:1019A000050090E080E00E94270BD9CF8E3FC1F563
:1019B000109208001092070081E080930600CEE0AC
:1019C000D3E08EE0A82E85E0B82E0E944B078993C5
:1019D000AC16BD06D1F780910700909108009E5F7C
:1019E000909308008093070020910900222319F0AA
:1019F00081159240E8F0809106008823C9F080911B
:101A00000700909108009C012F5F3F4F3093080022
:101A1000209307008230924028F40E944B07EFCFBA
:101A20008DE0BDCF90E080E00E94270B1092060071
:101A3000C0920001D0920101E0920201F0920301F4
:101A400040910903412B4093090381E08DCF4F92D0
:101A50005F926F927F928F929F92AF92BF92CF923E
:101A6000DF92EF92FF920F931F93CF93DF93EC01DE
:101A7000423051056105710590F480E0DF91CF910E
:101A80001F910F91FF90EF90DF90CF90BF90AF909C
:101A90009F908F907F906F905F904F900895898571
:101AA0009A85AB85BC850196A11DB11D841795074C
:101AB000A607B70710F3CB88DC88ED88FE888F89EE
:101AC000803109F042C0BB27A72F962F852F4801F0
:101AD00059012A013B01C80ED91EEA1EFB1E809146
:101AE000000190910101A0910201B0910301C8167B
:101AF000D906EA06FB0699F58F898031C1F5B30155
:101B0000A201552766277727440F551F425F5C4F78
:101B1000FA01918280828091090381608093090398
:101B20008A89823080F08D819E81AF81B8858C0D4D
:101B30009D1DAE1DBF1D80930A0390930B03A093C0
:101B40000C03B0930D0381E099CFDB01CA01E7E0FC
:101B5000B695A79597958795EA95D1F7B8CF40E0C8
:101B6000C701B6010E94590C8111C6CF86CFB301BF
:101B7000A2014F77552766277727440F551F440F3B
:101B8000551F425F5C4FFA0180829182A282B3822C
:101B9000C2CF8F929F92AF92BF92CF92DF92EF927D
:101BA000FF920F931F93CF93DF93FC018185928562
:101BB000A385B4850196A11DB11D84179507A607BD
:101BC000B70770F480E0DF91CF911F910F91FF90E4
:101BD000EF90DF90CF90BF90AF909F908F9008953F
:101BE00083889488A588B6888789803189F5BB2742
:101BF000A72F962F852FE9016A017B018F01BC0178
:101C0000CD01680D791D8A1D9B1D8090000190906B
:101C10000101A0900201B090030186169706A80664
:101C2000B90601F5F8018789803111F5DD24EE242C
:101C3000FF24F601EE0FFF1FE25FFC4F80819181D0
:101C4000B0E0A0E088839983AA83BB8381E0BBCF07
:101C5000DB01CA01C7E0B695A79597958795CA9508
:101C6000D1F7C9CF40E00E94590C8111DBCFAACF38
:101C7000E894C7F8DD24EE24FF24F601EE0FFF1FE1
:101C8000EE0FFF1FE25FFC4F80819181A281B38143
:101C9000BF70D8CF8F929F92AF92BF92CF92DF92B8
:101CA000EF92FF920F931F93CF93DF93EC018D81FF
:101CB00081110EC080E0DF91CF911F910F91FF90B5
:101CC000EF90DF90CF90BF90AF909F908F9008954E
:101CD0000B891C892D893E890417150726073707AC
:101CE00048F34A015B01823031F48A869B86AC86D8
:101CF000BD8681E0E0CF81149104A104B10449F4D0
:101D00001E821F82188619861A861B861C861D86CF
:101D1000F0CF0A851B852C853D85EB8DFC8D858557
:101D200090E00996B901A801415051096109710972
:101D3000082E04C076956795579547950A94D2F773
:101D400075016401E1E0CE1AD108E108F10804C090
:101D5000F694E794D794C7948A95D2F7C416D5061B
:101D6000E606F70620F0012B022B032B11F58F89D5
:101D7000988DA98DBA8D8E839F83A887B9878E0190
:101D80000A5F1F4FC114D104E104F10409F4ADCF7F
:101D90004E815F816885798598018B8D9C8D0E942D
:101DA000C90D91E0C91AD108E108F1088111EACF03
:101DB00081CFC41AD50AE60AF70AE1CF3F924F92C3
:101DC0005F926F927F928F929F92AF92BF92CF92CB
:101DD000DF92EF92FF920F931F93CF93DF93CDB7D4
:101DE000DEB72C970FB6F894DEBF0FBECDBF5C01F7
:101DF000DC015B968D909C905C9716964D905D9063
:101E00006D907C901997411451046104710409F498
:101E100068C0BFEF4B1A5B0A6B0A7B0A312CF401D6
:101E200081859285A385B4859C01AD012F5F3F4FCD
:101E30004F4F5F4F29873A874B875C877301620159
:101E40001D821E821F821886F40181859285A385DA
:101E5000B4852D813E814F815885281739074A075F
:101E60005B0708F056C089859A85AB85BC858C15C3
:101E70009D05AE05BF0550F482E0C82ED12CE12CA3
:101E8000F12C92E0492E512C612C712C9E012F5F78
:101E90003F4FB701A601C4010E94C90D8823C9F1B3
:101EA00089819A81AB81BC81892B8A2B8B2B09F18B
:101EB000260137019FEF491A590A690A790A2D81CB
:101EC0003E814F8158852F5F3F4F4F4F5F4F2D838E
:101ED0003E834F8358873FEFC31AD30AE30AF30ABE
:101EE000B3CFF401408051806280738033243394F7
:101EF00096CFC414D504E604F70409F70FEF1FEFDB
:101F00002FEF3FE0B701A601C4010E94270D811108
:101F100019C080E02C960FB6F894DEBF0FBECDBF7F
:101F2000DF91CF911F910F91FF90EF90DF90CF90B5
:101F3000BF90AF909F908F907F906F905F904F90E9
:101F40003F900895D50116964D915D916D917C91CC
:101F50001997411551056105710539F09701860101
:101F6000C4010E94270D8823A1F2D5011696CD92B7
:101F7000DD92ED92FC921997332051F0D701C60102
:101F80000196A11DB11DF40180839183A283B383C7
:101F9000F5018789908DA18DB28D892B8A2B8B2B92
:101FA00039F48481C78AD08EE18EF28E8068848372
:101FB000F50184818062848381E0ACCF1F93CF934D
:101FC000DF93EC01162F8C8187FF2AC06E857F85F9
:101FD0008889998941E00E94590C882361F1EA8936
:101FE00080E2E89FF0011124E25FFC4F309719F185
:101FF0008D81823040F48B899C89AD89BE89848F24
:10200000958FA68FB78F8F89988D938F828F8F89A9
:10201000988DA98DBA8DB58BA48B8C818F778C838D
:10202000111103C08C818F7E8C83812FDF91CF9122
:102030001F910C94300C80E0DF91CF911F91089597
:102040001F93CF93DF93EC018D81813031F090E0CD
:1020500080E0DF91CF911F9108958C8181FFF7CFB0
:1020600082FD1BC090E080E00E94350B0E944B0770
:10207000182F90E080E00E94270B1F3F41F78C81D2
:1020800085FF1EC08D81882321F060E0CE010E9473
:10209000DE0F8C818F7D8C83DACF4B895C896D89D3
:1020A0007E898A859B85AC85BD8584179507A607A3
:1020B000B707C1F2CE010E944A0E8111D3CFC7CF1C
:1020C00040910A0350910B0360910C0370910D0332
:1020D000452B462B472B21F080E00E940E0CB7CFFA
:1020E00080618C832A853B85317080E092E0821B81
:1020F000930BAFCF9F92AF92BF92CF92DF92EF92AE
:10210000FF920F931F93CF93DF9300D000D01F92C5
:10211000CDB7DEB78C016D83DC0115968C911597D8
:10212000813009F0B9C014968C9181FFB5C082FD51
:102130009FC0D8015B96ED91FC915C971A96AD908B
:10214000BD90CD90DC901D9794809A94B601A50126
:1021500089E076956795579547958A95D1F79422AA
:10216000B1E0BB22992009F49FC0D8015B96ED91A4
:10217000FC915C971696CD90DD90ED90FC901997B0
:10218000B2E0CB1AD108E108F108858504C0CC0C77
:10219000DD1CEE1CFF1C8A95D2F7468557856089A9
:1021A0007189C40ED51EE61EF71EC90CD11CE11C98
:1021B000F11CA114B10409F00AC1F801428553854C
:1021C0006485758583899489A589B68948175907D7
:1021D0006A077B0708F4FBC081E00E94300C88236B
:1021E00009F45AC0C0920001D0920101E0920201AC
:1021F000F092030180910903816080930903F50146
:10220000E25FFC4F8D818083F80182859385A485F0
:10221000B5850196A11DB11D82879387A487B587D7
:102220004389548965897689481759076A077B0766
:1022300038F42481838B948BA58BB68B2068248300
:10224000D80114968C9183FD9FC081E090E00F909F
:102250000F900F900F900F90DF91CF911F910F91E2
:10226000FF90EF90DF90CF90BF90AF909F90089538
:10227000F801438954896589768982859385A48587
:10228000B585481759076A077B0709F452CFC8017B
:102290000E944A0E81114DCF81E090E0D801139643
:1022A0009C938E93129749C0D80116964D915D91DB
:1022B0006D917C911997A114B10409F071C0411579
:1022C00051056105710589F557968D919D910D9088
:1022D000BC91A02D0097A105B10509F04FC0C80120
:1022E0000E94DE0E8823C1F2D8015B96ED91FC912D
:1022F0005C971696CD90DD90ED90FC901997B2E02A
:10230000CB1AD108E108F108858504C0CC0CDD1C8E
:10231000EE1CFF1C8A95D2F7468557856089718926
:10232000C40ED51EE61EF71E48CF9E012F5F3F4FFD
:10233000CF010E94C90D811103C090E080E087CFDA
:1023400089819A81AB81BC81F801238D348DF9019B
:10235000278948EF5FEF60E070E0203121F048EF1F
:102360005FEF6FEF7FE084179507A607B70730F0A0
:10237000C8010E94DE0E8111F8CE8ECFF80186834F
:102380009783A087B187F1CEF8018581882309F46E
:1023900083CF61E0C8010E94DE0F811156CF7CCF50
:1023A0006A017B01B2E0CB1AD108E108F10885850A
:1023B00004C0CC0CDD1CEE1CFF1C8A95D2F74685B0
:1023C000578560897189C40ED51EE61EF71E41E04F
:1023D000C701B6010E94590C811111CF5DCFCF9278
:1023E000DF92EF920F931F93CF93DF93EC016B017A
:1023F0008091FA059091FB050E94320BEB89FC89D4
:102400009081898D809589238083E12C0FE710E0EE
:102410002FE730E050E040E070E060E0CE010E9445
:10242000310920E030E440E050E0B601CE010E94E6
:102430006809EB89FC898081998D892B8083DF91E4
:10244000CF911F910F91EF90DF90CF900895CF9390
:10245000DF93EC0168AD79AD0E94EF111C861B86FD
:102460001A861986DF91CF910895CF92DF92EF926D
:102470000F931F93CF93DF9300D000D0CDB7DEB77B
:102480006C016370DC01D6966C93D697D7961C923C
:10249000D7971E968C911E97847E1E968C931E97BE
:1024A00080E890E016969C938E93159718969C93CF
:1024B0008E931797611107C01E968C911E978061AD
:1024C0001E968C9314C0613009F068C0F6018685B1
:1024D00083618687858196819A83898387819085A8
:1024E0009683858389819A819087878367ABD6019C
:1024F0001A961C921E9219971C961C921E921B975C
:102500008091FA059091FB050E94320BD6015396FB
:10251000ED91FC915497908159968C9159978095A3
:102520008923808315960D911C91169717962D91EE
:102530003C910150110921503109E12C50E040E05B
:1025400070E060E0C6010E94310960EAC6010E94A5
:102550002109F60196850588F689E02D8081D6014E
:102560005A962C91822B80839EBD0DB407FEFDCF21
:10257000D6015396ED91FC915497808159969C9188
:10258000892B80830F900F900F900F90DF91CF9148
:102590001F910F91EF90DF90CF900895623029F452
:1025A0001E968C911E9782608BCFF6018685816086
:1025B0008687858196819C838B838781908596838E
:1025C00085838B819C819087878381E087AB8FCFC8
:1025D000089590E080E0089550E04E5F5F4F440F13
:1025E000551F840F951FFC017183608381E008955E
:1025F000FC01738362837583648377836683718749
:1026000060875387428781E0848708952F923F92A5
:102610004F925F926F927F928F929F92AF92BF92F2
:10262000CF92DF92EF92FF920F931F93CF93DF939E
:10263000CDB7DEB76B970FB6F894DEBF0FBECDBF38
:102640009E838D833B014A875B8738872F831801E0
:10265000C9862DB73EB7398F288FC80101966DB74F
:102660007EB7681B790B0FB6F8947EBF0FBE6DBFA7
:102670008DB79EB701969D878C87E9A9FAA92BA9EA
:102680003CA9E217F307C9F0AE9C8001AF9C100D86
:10269000112488A9820D932D911DC89E9001C99E79
:1026A000300D1124CBA8DCA876014F8158856A85AE
:1026B0007B858D819E810E94B2092301B301680D43
:1026C000791D798B688B50E040E0B12C20E08A2D99
:1026D00090E09F878E873985329DF001339DF00D04
:1026E0001124FB8FEA8F688979896415750509F4CF
:1026F00093C0F201849167E070E07C836B83E82FE4
:10270000F0E0FF8BEE8BEC85FD85E20FF11D8E89ED
:102710009F890B8002C0959587950A94E2F7382F20
:10272000317030832F5F81709927480F591F221510
:102730001304E9F441155105B1F02416350621F5CD
:102740004F81AB9C400D112450E0CBA8DCA8E9A838
:10275000FAA80E851F852A8D3B8D6A857B858D8124
:102760009E810E94B209B39450E040E020E06B816A
:102770007C81615071097C836B836F3F7F4F19F6B9
:102780009FEF491A590AAFCF2F813885AB9C200D96
:10279000311D11243B8B2A8B3A8539834B854A8323
:1027A000712C612C812CAC85BD85A60DB71D6214E2
:1027B0007304CCF62C91FD01C30128163906BCF335
:1027C0003191231306C02816390619F08394019617
:1027D000F4CF682D70E07D8B6C8B7985789D4001FE
:1027E0001124222371F0C9A8DAA876010E851F856D
:1027F00094014A895B8969817A818D819E810E94D9
:10280000B2098C899D89680E791EE981FA81E80DEB
:10281000F91DFA83E983C6CFE88DF98D0FB6F894D8
:10282000FEBF0FBEEDBF6B960FB6F894DEBF0FBEB6
:10283000CDBFDF91CF911F910F91FF90EF90DF906F
:10284000CF90BF90AF909F908F907F906F905F9050
:102850004F903F902F900895FB0101900020E9F7E1
:102860003197AF01461B570BDC01ED91FC910280C3
:10287000F381E02D09940F931F93CF93DF93EC0125
:102880000E942C148C016BE972E0CE010E942C1482
:10289000800F911FDF91CF911F910F910895CF93DA
:1028A000DF93EC01662341F189EE90E00E949A08E3
:1028B00089EE90E00E948408EA85FB8585859685EF
:1028C00024813581820F931F96878587878588238A
:1028D00081F08E819F810E9427126EE972E08E81C5
:1028E0009F810E943B1465EA72E08E819F810E9465
:1028F0003B14DF91CF9108958AEE90E00E949A08F0
:102900008AEE90E00E948408EA85FB85858596859D
:1029100024813581821B930B968785878785882341
:1029200041F3888599850E9427126EE972E08885B7
:1029300099850E943B1460EB72E088859985D7CF1A
:10294000EF92FF920F931F93CF93DF93EC016DEB08
:1029500072E08EE295E00E943B1460E0CE010E949E
:102960004F14EA85FB85178604E610E060E0CE018F
:102970000E944F146AE070E080E090E00E94FA0547
:102980000150110999F7EA85FB8581E08787168652
:102990001586E280F38011E0EA85FB8585859685C2
:1029A0008E159F058CF46AE070E080E090E00E9454
:1029B000FA0561E0CE010E944F14112369F3EA8504
:1029C000FB85178610E0E8CFEA85FB85858596852F
:1029D000E816F9068CF46AE070E080E090E00E946E
:1029E000FA0560E0CE010E944F14112369F3EA85D5
:1029F000FB85178610E0E8CF81E0878766ED72E0FF
:102A00008A819B81DF91CF911F910F91FF90EF9071
:102A10000C943B142F923F924F925F926F927F9251
:102A20008F929F92AF92CF92DF92EF92FF920F938D
:102A30001F93CF93DF93EC013B011A01452B51F417
:102A4000FB0101900020E9F731971F01261A370A90
:102A500009F469C219A5112309F491C0C8A0D9A02D
:102A6000D60113968C917301512C412C882309F4C3
:102A700059C08E8D9F8D289E2001299E500C389E16
:102A8000500C11242FA1249DC001259D900D1124CF
:102A900097FD019695958795F60124813581231B35
:102AA000330B68A5629FA001639F500D112457FF4F
:102AB00002C04F5F5F4F559547952FA9143008F01E
:102AC000B8C0222309F496C0113009F03CC02D8112
:102AD0003E8137FF02C02F5F3F4F35952795281B5A
:102AE00031093C872B873EC06D30E1F06A30D1F070
:102AF000CE010E94840997FD15C0FC01EE0FFF1F57
:102B00008E0F9F1FD6011196ED91FC91E80FF91FD2
:102B10000180F281E02D3296E4914E0E511CEAA123
:102B20004E0E511CC70186199709821593050CF0AA
:102B3000A9CFF70161917F016032B1F68E8D9F8D33
:102B4000480E591EEFCF2F81388537FF02C02F5F07
:102B50003F4F35952795241B31093A872987123035
:102B600009F0B5CF89859A8597FF02C01A86198624
:102B70008B859C8597FF02C01C861B8619A68091B9
:102B8000FA059091FB050E94320BEB89FC8990813C
:102B9000898D809589238083260C371C2614370461
:102BA00009F4BBC1D3016D913D016D30B9F36A30B9
:102BB00009F072C0E8A1F9A184819AA5890F98A5AE
:102BC000899F802D112490E02FA9211152C02B85BF
:102BD0003C854F815885280F391F421753070CF445
:102BE0009CC11A8619862B853C85820F931F9C8772
:102BF0008B87D4CF113069F42D813E8137FF02C01D
:102C00002F5F3F4F35952795281B31093A87298734
:102C1000A9CF2F81388537FF02C02F5F3F4F3595F1
:102C20002795241B31093C872B87123009F49ACF52
:102C3000E3CF222379F0143019F42B853C854FCF54
:102C400029853A85241B31093A872987153009F4EB
:102C500089CFF3CF143019F429853A85D5CF2B8548
:102C60003C85241B31093C872B87153009F47ACF2A
:102C7000F3CF29853A854D815E81280F391F421790
:102C800053070CF44AC129853A85820F931F9A870E
:102C900089871C861B8682CF603209F06BC0FAA13F
:102CA0008E8D9F8D8F0F911D2BA13CA1EDA0FEA0BD
:102CB0004FA9411133C0EFA1E89F502C1124E21617
:102CC000F30629F189859A852D813E81850D911D17
:102CD0008217930734F08D819E8129853A85582E7D
:102CE000521A4B855C8569857A85A8A1B9A114968D
:102CF0008C9108A5809F80011124252D30E0FE9F36
:102D0000200D311D11246701CE010E94B209898571
:102D10009A85850D911D9A87898740CF98A4989EA2
:102D2000902C1124E216F30601F18B859C852F81EE
:102D30003885890D911D8217930734F08F8198850E
:102D40002B853C85982E921A49855A856B857C8502
:102D5000E8A1F9A104818FA1089F80011124292DE8
:102D600030E06701CE010E94B2098B859C85890DF8
:102D7000911D3DCFCE010E94840997FD0FCFA8A1E0
:102D8000B9A18C01000F111F080F191F1196ED91A9
:102D9000FC911297E00FF11F61817281FB01329665
:102DA000D4904D2C512C8FA94AA19BA5992309F4AD
:102DB000A1C0811179C089859A855FA12D813E814D
:102DC000D59E800D911D1124549F800D911D1124BD
:102DD00082179307A4F01A8619862B853C851496D2
:102DE0004C918AA5480F5527551FE8A5E49FC001BF
:102DF000E59F900D1124820F931F9C878B8742E0E3
:102E000050E086E093E00E945821609106037091A3
:102E10000703A8A1B9A111968D919C911297080F53
:102E2000191FF80181819281FC013396859094905D
:102E30009FA914968C9191118CC04B855C85E82ECE
:102E4000F12CA8A42F8138858A9D400D511D112495
:102E5000241735070CF461C02B853C8549855A85BC
:102E60008EA18F938DA18F938CA18F938BA18F9324
:102E70008AA18F93CFA08201CE010E9406132985DB
:102E80003A859AA1490E511C4FA1449DC001459D10
:102E9000900D1124820F931F9A8789870F900F90AE
:102EA0000F900F900F907ACE8B859C8558A52D8121
:102EB0003E81D59E800D911D1124549F800D911D42
:102EC0001124821793070CF49ACF49855A851496DA
:102ED0002C918AA5280F3327331FEFA1E29FC00151
:102EE000E39F900D1124840F951F9A8789871C8674
:102EF0001B8685CF882349F18B859C8558A52D811C
:102F00003E81D59E800D911D1124549F800D911DF1
:102F10001124821793070CF472CFEB89FC8980810E
:102F2000998D892B8083DF91CF911F910F91FF9015
:102F3000EF90DF90CF90AF909F908F907F906F90A9
:102F40005F904F903F902F90089589859A855FA15B
:102F5000D6CF49855A85E82EF12CCFA02D813E8110
:102F60008C9D400D511D112424173507B4F229857D
:102F70003A854B855C858EA18F938DA18F938CA113
:102F80008F938BA18F938AA18F93A8A48201CE01E6
:102F90000E9406138B859C853AA128A5EFA1DE9E91
:102FA000F0011124329FE00DF11D1124E80FF91FEB
:102FB000FC87EB8773CFCF93DF93EA010E940A155A
:102FC000CE01DF91CF910895CF93DF931F92CDB7BC
:102FD000DEB7698341E050E0BE016F5F7F4F0E9422
:102FE0000A1581E090E00F90DF91CF9108951F9234
:102FF0000F920FB60F9211248F939F938091E1004F
:103000009091E100937F9093E10083FF0FC01092B5
:10301000E90091E09093EB001092EC0092E3909322
:10302000ED0010922D0598E09093F00082FF22C0F1
:1030300093E09093E9009091F200992319F09AE3BC
:103040009093E80090912B05992341F090912B05E6
:10305000915090932B05911101C05D9A90912C0590
:10306000992341F090912C05915090932C0591114A
:1030700001C0289A84FF18C08091E2008E7E816092
:103080008093E2008091E1008F7E8093E100809147
:103090002A058E7E806180932A059F918F910F90E3
:1030A0000FBE0F901F90189580FFF7CF8091E20020
:1030B0008E7E80618093E2008091E1008E7E80931D
:1030C000E10080912A058E7E8160E5CF1F920F92EC
:1030D0000FB60F921124CF92DF92EF92FF920F93CF
:1030E0001F932F933F934F935F936F937F938F9390
:1030F0009F93AF93BF93EF93FF93CF93DF93CDB79E
:10310000DEB76C97DEBFCDBF1092E9008091E8007A
:1031100083FF25C068E0CE0145960E94EA0382EF56
:103120008093E8008D8987FF39C09091E80090FF77
:10313000FCCF982F907609F034C19E894F89588D25
:103140002F89F88C911131C0803861F58091290563
:103150008093F1001092F1008EEF8093E8006C965E
:103160000FB6F894DEBF0FBECDBFDF91CF91FF91B8
:10317000EF91BF91AF919F918F917F916F915F91EF
:103180004F913F912F911F910F91FF90EF90DF9002
:10319000CF900F900FBE0F901F9018959EEF9093B9
:1031A000E800C7CF1092F100D5CF913059F48111CA
:1031B000D3CF4130510581F6809129058D7F8093D1
:1031C0002905CACF933049F48111C6CF413051054A
:1031D00019F6809129058260F2CF953041F48091F3
:1031E000E80080FFFCCF20682093E300B5CF963045
:1031F00009F0A9C00B8D1C8D22E01092E9001092FD
:10320000270510922605F2122EC010922505109265
:1032100024050E9438041F8299E09983FA8291E084
:103220009E8390EA98879AEF99872091260530919E
:103230002705275F3F4F3C832B838D831092E90046
:10324000109227051092260510932505009324055A
:1032500049E050E0BE016F5F7F4F80E00E94B30302
:103260000E94380479CF10932505009324050E940D
:103270002404DC0112960D911C910115110509F42D
:1032800051C1D801ED91FC910480F581E02DBE0182
:103290006B5E7F4FC8010995009709F03EC1F801A8
:1032A00000851185EACFF3E0FF120EC08F898823D5
:1032B00009F440C0823061F440E860E184E695E0C2
:1032C0000E94E21A811148CF81E28093EB0047CF40
:1032D000813029F440E86BE088E595E0F1CF833058
:1032E00099F70E942404DC011296ED90FC908E0167
:1032F0000F5F1F4F6801E114F10479F0D701ED91E0
:10330000FC910680F781E02DB801C7010995080FEF
:10331000111DF701E084F184EECFD8011C92F60173
:1033200001900020E9F73197BF016C197D0940E059
:10333000C601C6CF62E475E0FB01449150E080E82D
:103340000E94B30309CF973009F4BECF983021F41F
:1033500081E08093F10000CF993009F0FDCE8370B9
:1033600009F0B2CFE1E1F1E081E031E096E32191B3
:10337000222371F08093E9003093EB00DF01119775
:103380002C912093EC009093ED008F5F873079F7BC
:103390008EE78093EA001092EA008F8980932D05D2
:1033A000DBCE8B8D9C8D1092E90010922705109238
:1033B00026059093250580932405898D811192C05F
:1033C0008E899D89913A49F4813209F07DCF47E099
:1033D00050E068E071E080E0B3CF913209F074CF43
:1033E000833269F48F89988DB0E0A0E08093040166
:1033F00090930501A0930601B0930701ADCE8032F2
:1034000069F48091E80082FFFCCF67E088E091E0FA
:103410000E94EA038BEF8093E8009ECE823209F08F
:103420009BCE8F8980930F01EEEFFFE785919491FA
:103430008B3F9C4D51F1E0E0F8E0809108019091C4
:103440000901A0910A01B0910B01803B9440A105B4
:10345000B105F1F480910F0180FD1AC0EE3F8AE0C2
:10346000F80789F587E797E791838083809160006B
:103470008093280588E19BE00FB6F894A895809387
:1034800060000FBE9093600067CEEEEFFAE0D5CFFC
:10349000808191818737974709F05ECEA89580910A
:1034A00060008861809360008091280580936000AF
:1034B000EE3F2AE0F20789F08091FE0A9091FF0A20
:1034C0009183808349CE808191818737980751F21B
:1034D0009093FF0A8093FE0AC5CF1092FF0A1092C4
:1034E000FE0A3ACE0E942404DC0112960D911C9132
:1034F0000115110509F4E8CED801ED91FC91019078
:10350000F081E02DBE016B5E7F4FC80109958111EE
:1035100023CEF80100851185EBCF181619060CF49F
:103520001BCED2CEF1E0FF12BECE66E475E004CF32
:103530001F920F920FB60F9211242F933F938F93E8
:103540009F93AF93BF9380910F0590911005A09129
:103550001105B091120530910E0523E0230F2D3790
:1035600058F50196A11DB11D20930E0580930F05FE
:1035700090931005A0931105B09312058091130547
:1035800090911405A0911505B09116050196A11D05
:10359000B11D8093130590931405A0931505B09366
:1035A0001605BF91AF919F918F913F912F910F90F1
:1035B0000FBE0F901F90189526E8230F0296A11DAD
:1035C000B11DD2CFEF92FF920F931F93CF93DF9352
:1035D000F82E192FE62E042F81E0860F880F0E9407
:1035E000850383E00E948503CF2DD12FEC0EFD2EA5
:1035F000F11CCE15DF05B9F007FF13C0FE01849161
:103600000E948503182F80E00E9485038123219664
:103610008111EFCFDF91CF911F910F91FF90EF902C
:1036200008958881EDCF81E0F5CFCF9310923105D9
:103630001092300588EE93E0A0E0B0E08093320570
:1036400090933305A0933405B09335058FE492E051
:1036500090932F0580932E058FEF9FEF90933B055E
:1036600080933A0580E580937E0510927F05109245
:103670008505109286051092890510928B0582E0CF
:1036800090E0A0E0B0E080938C0590938D05A0932E
:103690008E05B0938F051092A3051092AD05109280
:1036A000AC0581E692E09093AB058093AA05109259
:1036B000AF0589E792E09093F1058093F005809142
:1036C000E805811113C01092E3051092E20585E729
:1036D00095E09093E5058093E40589E190E090936F
:1036E000E7058093E60581E08093E8058091DA059F
:1036F00081112AC0C1E0C093CD05C093CE0583EDF2
:1037000095E09093D0058093CF051092D20510924A
:10371000D1058DE692E09093CA058093C905109279
:10372000D5051092D4051092D7051092D605C093F6
:10373000D805C093D90581EC8093D3050E94240459
:103740000E941503C093DA05E091D405F091D505E8
:10375000309709F0E9C082EE95E09093D50580930B
:10376000D4058091D6059091D7052091E60530913A
:10377000E705820F931F9093D7058093D60580E5C8
:103780008093FA051092FB0583E090E09093FD058D
:103790008093FC0586E0E7E1F1E0AEEFB5E0019053
:1037A0000D928A95E1F7109209061092080629E811
:1037B00032E0309307062093060682E180932106CB
:1037C0009AE0909322068FEF80930A0610924506A6
:1037D00010924406309343062093420643E14093FF
:1037E0005D0690935E0680934606109281061092C5
:1037F000800630937F0620937E0624E1209399066D
:1038000090939A06809382068BEE92E09093E8065E
:103810008093E7068EEE92E09093EA068093E906A5
:1038200084EF91E09093EE068093ED0684E690E0BD
:103830009093F0068093EF0682E090E09093F2067A
:103840008093F10685E992E0909300078093FF064C
:1038500084E780930C0780911D0190911E01A09137
:103860001F0180930D0790930E07A0930F0788E028
:10387000809310078091200190912101A091220155
:103880008093110790931207A093130710921607C5
:1038900010921A071092190710921B078FE792E0F7
:1038A0009093150780931407E0E3F7E010821482E9
:1038B00013821582369687E0EC36F807B9F780E177
:1038C00097E0909377078093760781E197E0909354
:1038D00079078093780781E080937A0783E080936B
:1038E0007B078DE097E090937507809374078AE0DB
:1038F00090E090937D0780937C0784EF91E0909314
:103900007F0780937E0710928207109281071092A2
:10391000700710927107109272071092730710923D
:103920008007CF910895FC01808191810097D9F79C
:1039300082EE95E09183808314CF789484B5826081
:1039400084BD84B5816084BD85B5826085BD85B543
:10395000816085BD80916E00816080936E001092C1
:10396000810080918100826080938100809181003C
:1039700081608093810080918000816080938000CD
:10398000809191008260809391008091910081608C
:10399000809391008091900081608093900080914D
:1039A000C10084608093C1008091C10082608093D7
:1039B000C1008091C10081608093C1008091C300EB
:1039C00081608093C3008091C00082608093C000BA
:1039D0008091C20081608093C20080917A008460EF
:1039E00080937A0080917A00826080937A0080913F
:1039F0007A00816080937A0080917A008068809359
:103A00007A0010922D051092290510922A058091B6
:103A1000D70081608093D70080EA8093D80089B571
:103A2000806189BD89B5826089BD09B400FEFDCF82
:103A300061E070E080E090E00E94FA058091D8009B
:103A40008F7C80618093D8008091E000807F80939C
:103A5000E0008091E1008E7E8093E1008DE0809314
:103A6000E200559A209A8FEF9FEF90933B05809349
:103A70003A0568EE73E080E090E00E94FA05C6E047
:103A80004C2EC6E05C2EE20110E000E08CE3E82E54
:103A9000FF24F394CC24CA94DC2C812C912C24EBAD
:103AA000A22E23E4B22E36EA232E33243A944FEA90
:103AB000642E8091FC059091FD05081719070CF004
:103AC000CAC1E09EF001E19EF00D1124E450FA4FCE
:103AD000108E1DAA1FAA178A1DA6148A138A168A79
:103AE000158AF8A6FFA219A61AA61AA2FBA640E1FB
:103AF0004D8F808D8064808F808D8460808F19AE23
:103B000018AEDBAECAAEDEA2CDA2DCA2CBA28FA6DF
:103B100098AAA9AABAAA3CAA2BAA50E55093FA05DA
:103B2000F092FB0561E08C8D0E94950561E08B8D24
:103B30000E949505EB8D4E2F50E0FA01EF51FB4F9F
:103B4000E491F0E0EE0FFF1FED52FB4F8591949151
:103B50009C8B8B8BEC8D2E2F30E0F901EF51FB4FBE
:103B6000E491F0E0EE0FFF1FED52FB4F8591949131
:103B70009E8B8D8BFA01EC54FB4FE491E98FF90198
:103B8000EC54FB4FE491EA8F7FB6F89480911705CF
:103B9000811127C0E2EFF4E09491E5ECF4E0849128
:103BA000E92FF0E0EE0FFF1FEA55FB4FA591B4910E
:103BB0009C91892321F461E081E10E94630561E029
:103BC00081E10E9495058CB580618CBD8CB58064C7
:103BD0008CBD61E08FE00E94950561E080E10E946C
:103BE0009505809117058F5F809317057FBEEB8940
:103BF000FC898081998D892B8083ED89FE89808164
:103C00009A8D892B80838C818F3F09F161E00E941E
:103C1000950561E08C810E9463056AE070E080E0B8
:103C200090E00E94FA0560E08C810E9463056AE0E2
:103C300070E080E090E00E94FA0561E08C810E94D3
:103C400063056AE070E080E090E00E94FA056EE1B2
:103C500070E080E090E00E94FA058091FA05909172
:103C6000FB050E94320BEB89FC899081898D809540
:103C700089238083E09EF001E19EF00D1124E45041
:103C8000FA4F808D8062808F42E16DEFCE010E94FD
:103C9000180B41EB6DEFCE010E94180B6EEACE01BE
:103CA0000E94210941EF63EBCE010E94180B4FE700
:103CB0006AECCE010E94180B40E061EACE010E943E
:103CC000180B40E062EACE010E94180B40E065EB61
:103CD000CE010E94180B41E06BEACE010E94180B46
:103CE00064EBCE010E94210960EACE010E94120914
:103CF00065EBCE010E94120965E5CE010E94120912
:103D000061ECCE010E94210968ECCE010E941209EB
:103D100060E8CE010E94120968ECCE010E941209EF
:103D20004FE067ECCE010E94180B62EBCE010E94BF
:103D3000210964EACE010E94120960E0CE010E94CE
:103D4000120960E0CE010E94120969EBCE010E94C7
:103D5000210942E361EBCE010E94180B41E066EBC2
:103D6000CE010E94180B45E06EEBCE010E94180BAD
:103D700066EACE010E942109ED89FE8990818A8D33
:103D80008095892380836EBC0DB407FEFDCFEB893F
:103D9000FC898081998D892B80836CE370E080E0C1
:103DA00090E00E94FA0560E0CE010E94351268ADF5
:103DB00079ADCE010E94EF1143E452E059A348A32C
:103DC0001CA660E2CE010E94840997FDF5CF9C01FC
:103DD000220F331F820F931FFC01ED5DFE4F018008
:103DE000F281E02D3296E491F0E0FF8FEE8F61E0FA
:103DF00070E080E090E00E94FA058DA9882339F1F7
:103E00008091FA059091FB050E94320BEB89FC89A9
:103E10009081898D8095892380838DA9863021F4B6
:103E20006FEACE010E9421098DA9893029F442E16F
:103E30006DEFCE010E94180B66EACE010E942109A7
:103E40001DAAEB89FC898081998D892B80830F5F66
:103E50001F4FEC962ECE26E036E0309305062093D9
:103E60000406ECEFF5E030E020E042E028173907E7
:103E700034F442AB41AB2F5F3F4FFC96F7CFE2EFFC
:103E8000F5E088E0DF011D928A95E9F748E050E00F
:103E9000BF0180EF95E00E942D080E94DC06609330
:103EA000F6067093F7068093F8069093F90681E082
:103EB0008093FC061092FD061092FE064DEE56E031
:103EC00062E476E08FEF96E00E94F81286E096E0DA
:103ED000909304078093030763EF72E00E943B1402
:103EE00082E496E0909306078093050763EF72E003
:103EF0000E943B148EE796E0909308078093070793
:103F000063EF72E00E943B148FEF96E00E94A014D2
:103F1000C6E0D6E010E000E08091FC059091FD0540
:103F2000081719073CF4CE010E9427120F5F1F4F9C
:103F3000EC96F2CFD0E0C0E08091FC059091FD05B9
:103F4000C817D907ECF0812C912C5401839441E7D8
:103F5000642E47E0742E50E0E52E50E0F52E2091BF
:103F6000FC053091FD05ECEFF5E090E080E0821774
:103F700093077CF442E042AB41AB0196FC96F7CF4D
:103F800062E0C2010E9435122196BCE34B0E511C27
:103F9000D3CF51E0509380070E94DC060091700758
:103FA000109171072091720730917307AB01BC012A
:103FB000401B510B620B730B80917C0790917D0726
:103FC000B0E0A0E084179507A607B70708F009C17D
:103FD000C0E080917A07C81760F4E0917607F0910D
:103FE0007707EC0FF11D62E080810E949505CF5F9D
:103FF000F0CF312C80917B07381608F05EC0C32DBE
:10400000D0E0E0917807F0917907EC0FFD1F61E0B7
:1040100080810E949505E0917807F0917907EC0F77
:10402000FD1F60E080810E94630595018401032CDF
:1040300004C0000F111F221F331F0A94D2F768011A
:1040400000951095212C80917A07281600F5422CB6
:10405000512CE0917607F0917707E40DF51D8081F2
:104060000E943705F2013496EE0FFF1FEC5EF84F09
:10407000892B41F4808191818C299D2991838083B2
:104080002394E1CF8081918180239123F7CFE09128
:104090007807F0917907EC0FFD1F61E080810E94A5
:1040A00063058091780790917907C80FD91F60E068
:1040B00088810E94950533949DCFE0E3F7E08381EA
:1040C0009481892B31F410828FEF9FEF928381834B
:1040D00015823696ACE6B7E0AE17BF0781F7C0E0B1
:1040E00080917A07C81708F051C0D0E00C2F10E07B
:1040F000000F111F045E184F20917B07D21708F0A4
:1041000043C0F801608171810D2E02C076956795DC
:104110000A94E2F7C29F900111242D0F311DE1E3B3
:10412000F7E080E0408151812417350709F4BEC0D3
:104130008F5F36968A30B1F760FF24C0E0E3F7E086
:1041400090E080E04081411118C0E0917407F09147
:104150007507E20FF31F408156E0589FF001599F09
:10416000F00D1124EC5EF84F448F368F258F10A28E
:10417000178E61E00E94E80605C0019636968A30E7
:10418000910501F7DF5FB8CFCF5FAACFE5E3F7E096
:10419000C0E080818111C82F36966E167F06C9F760
:1041A0000E94DC066093700770937107809372071A
:1041B00090937307CC23A9F080913507882389F069
:1041C0008091330790913407019759F4809130071B
:1041D00081110AC0E114F10409F4C1CE0E9400006B
:1041E000BECE10928007F6CF8093F3069091F4062E
:1041F000981343C01092F5068093F406813349F575
:1042000082EE90E00E949A0882EE90E00E9484087C
:10421000E0910907F0910A0791898785992389F12F
:10422000118A8823B1F080910307909104070E94BE
:1042300027126EE972E080910307909104070E94B3
:104240003B146AEF72E080910307909104070E948B
:104250003B148091F306823329F461E08FEF96E0FE
:104260000E944F148091F306833309F0B3CF60E0CE
:104270008FEF96E00E944F14ADCF91E09093F5063A
:10428000BBCFA1E0A18B882321F3809103079091FC
:1042900004070E9427126EE972E080910307909153
:1042A00004070E943B1460E073E0CDCF617062CFE1
:1042B000FB01DC0102C005900D9241505040D8F73F
:1042C00008955058BB27AA270E9479210C94C32235
:1042D0000E94B52238F00E94BC2220F039F49F3FA2
:1042E00019F426F40C94B2220EF4E095E7FB0C943A
:1042F000AC22E92F0E94D42258F3BA176207730741
:104300008407950720F079F4A6F50C94F6220EF4B4
:10431000E0950B2EBA2FA02D0B01B90190010C01D5
:10432000CA01A0011124FF27591B99F0593F50F4ED
:10433000503E68F11A16F040A22F232F342F442745
:10434000585FF3CF469537952795A795F04053953D
:10435000C9F77EF41F16BA0B620B730B840BBAF00D
:104360009150A1F0FF0FBB1F661F771F881FC2F778
:104370000EC0BA0F621F731F841F48F4879577958C
:104380006795B795F7959E3F08F0B0CF9395880F46
:1043900008F09927EE0F9795879508950E94E221DE
:1043A0000C94C3220E94BC2258F00E94B52240F017
:1043B00029F45F3F29F00C94AC2251110C94F722A0
:1043C0000C94B2220E94D42268F39923B1F35523AE
:1043D00091F3951B550BBB27AA2762177307840718
:1043E00038F09F5F5F4F220F331F441FAA1FA9F3AE
:1043F00035D00E2E3AF0E0E832D091505040E6959C
:10440000001CCAF72BD0FE2F29D0660F771F881FFC
:10441000BB1F261737074807AB07B0E809F0BB0BEF
:10442000802DBF01FF2793585F4F3AF09E3F510503
:1044300078F00C94AC220C94F7225F3FE4F3983EA2
:10444000D4F3869577956795B795F7959F5FC9F7EC
:10445000880F911D9695879597F90895E1E0660F6D
:10446000771F881FBB1F621773078407BA0720F0E6
:10447000621B730B840BBA0BEE1F88F7E09508954F
:104480000E94DC2288F09F5798F0B92F9927B751E6
:10449000B0F0E1F0660F771F881F991F1AF0BA95E8
:1044A000C9F714C0B13091F00E94F622B1E008952E
:1044B0000C94F622672F782F8827B85F39F0B93F20
:1044C000CCF3869577956795B395D9F73EF490959B
:1044D0008095709561957F4F8F4F9F4F0895E89419
:1044E00009C097FB3EF490958095709561957F4F3C
:1044F0008F4F9F4F9923A9F0F92F96E9BB279395EA
:10450000F695879577956795B795F111F8CFFAF4F9
:10451000BB0F11F460FF1BC06F5F7F4F8F4F9F4F2A
:1045200016C0882311F096E911C0772321F09EE888
:10453000872F762F05C0662371F096E8862F70E0EE
:1045400060E02AF09A95660F771F881FDAF7880FC8
:104550009695879597F9089597F99F6780E870E099
:1045600060E008959FEF80EC089500240A941616E9
:10457000170618060906089500240A941216130651
:10458000140605060895092E0394000C11F48823DF
:1045900052F0BB0F40F4BF2B11F460FF04C06F5FFB
:1045A0007F4F8F4F9F4F089557FD9058440F551FD1
:1045B00059F05F3F71F04795880F97FB991F61F0A5
:1045C0009F3F79F087950895121613061406551F1C
:1045D000F2CF4695F1DF08C0161617061806991F88
:1045E000F1CF86957105610508940895E894BB277D
:1045F00066277727CB0197F908950E9410230C9422
:10460000C3220E94B52238F00E94BC2220F09523DC
:1046100011F00C94AC220C94B22211240C94F722C9
:104620000E94D42270F3959FC1F3950F50E0551F5F
:10463000629FF001729FBB27F00DB11D639FAA27F7
:10464000F00DB11DAA1F649F6627B00DA11D661F46
:10465000829F2227B00DA11D621F739FB00DA11D67
:10466000621F839FA00D611D221F749F3327A00D21
:10467000611D231F849F600D211D822F762F6A2FBD
:1046800011249F5750409AF0F1F088234AF0EE0F22
:10469000FF1FBB1F661F771F881F91505040A9F74F
:1046A0009E3F510580F00C94AC220C94F7225F3FA2
:1046B000E4F3983ED4F3869577956795B795F7958B
:1046C000E7959F5FC1F7FE2B880F911D9695879503
:1046D00097F90895EE0FFF1F0590F491E02D0994CE
:0446E000F894FFCF7C
:1046E400FFFFFFFFFFFFFFFF00E1000000000000ED
:1046F40000C1808100000012001300140031323325
:10470400050403207404216F04226A04236504242D
:104714006004255B04265604275104284C042947C9
:10472400042A42042B3D042C38042D33042E2E0479
:104734002F2904302404311F04321A04331504349D
:104744001004350B0436060437010438FC0339F72A
:10475400033AF2033BED033CE8033DE3033EDE038F
:104764003FD90340D40341CF0342CA0343C50344A2
:10477400C00345BB0346B60347B10348AC0349A78E
:10478400034AA2034B9D034C98034D93034E8E039F
:104794004F8903508403517F03527A0353750354A2
:1047A4007003556B03566603576103585C035957EE
:1047B400035A52035B4D035C48035D43035E3E03AF
:1047C4005F3903603403612F03622A0363250364A2
:1047D4002003651B03661603671103680C0369074E
:1047E400036A02036BFD026CF8026DF3026EEE02C3
:1047F4006FE90270E40271DF0272DA0273D50274A7
:10480400D00275CB0276C60277C10278BC0279B7B2
:10481400027AB2027BAD027CA8027DA3027E9E02D4
:10482400B099026023010008010000000000006943
:1048340004C6068A047F04D1048F04AD040000007A
:10484400007A10F7032010E812000000006907E264
:1048540007A7078C07000000002D0800000000D106
:10486400059105600500000000E417DB17E912E874
:104874001200000000A014F812EC120D0A00537983
:104884007374656D00566F6C756D652055702100ED
:10489400566F6C756D6520446F776E21005468699E
:1048A40073206973206120766F6C756D652070725A
:1048B4006F6772616D0053797374656D20766F6CE8
:1048C400756D6520736574757021002E63002E74F8
:1048D400787400566F6C756D6500536F756E640067
:0648E4004D7574656400CF
:00000001FF
