:100000000C94C8020C94F0020C94F0020C94F002D0
:100010000C94F0020C94F0020C94F0020C94F00298
:100020000C94F0020C94F0020C9452190C94C11927
:100030000C94F0020C94F0020C94F0020C94F00278
:100040000C94F0020C94F0020C94F0020C94F00268
:100050000C94F0020C94F0020C94F0020C94F31B3C
:100060000C94F0020C94F0020C94F0020C94F00248
:100070000C94F0020C94F0020C94F0020C94F00238
:100080000C94F0020C94F0020C94F0020C94F00228
:100090000C94F0020C94F0020C94F0020C94F00218
:1000A0000C94F0020C94F0020C94F002EAE00000D0
:1000B00000003AB80000C44244C049249064484457
:1000C00060000F84210F80000894514210000894B2
:1000D000214880000092AAAAAA4400000894514234
:1000E0000000252949C044E44460001D060B80033C
:1000F0004920001D29384200392972100019294968
:10010000800039294A400000FC9292929200AAA8ED
:1001100084254E52404124948AA88439294A4000BB
:100120001D29384C24E4444000192F41C0109D295A
:1001300049C000192849808439294B80001C274B6D
:10014000C088000000000003E02295100000C924D0
:10015000B088444220D24930F82108420F808A25D5
:10016000082082008A250852288088CA554AA5524C
:10017000A888008A28A25142008A28A28A2700F86B
:10018000820820820072281C0A2700F228BC9228CC
:1001900080790A1428531B00F228BC820800790ACF
:1001A0001428509E008B2CAA9A688082C6C6AAAAE0
:1001B000AA9200820820820F808A2928D2288010E3
:1001C00084214980AAA88A28BE8A2880309204E81F
:1001D000490C00F421C84200FA083E820F80E24830
:1001E000A28A4E00722820822700F228BE8A2F00A1
:1001F0007228A2FA28803E1049AA9AA5268819F8E2
:1002000072208C2002000418264000000F80F800A5
:10021000000099060800080A08087228A27827003A
:1002200072289C8A2700F82108210400720F228A74
:100230002700790F220A270010C524F841007220F8
:100240008C0A2700722084210F8026A22220722887
:10025000A28A270022444880000800003E000000D7
:10026000000A00823E208000A4A00000421112403B
:1002700024888420A8003090C309515D0044A4A8BC
:10028000541A2A440021CA3E2AA708514F94F9451E
:1002900000AAA00000AA880000AC00040400B0007E
:1002A000060600B600040400BA00030300BD000403
:1002B0000400C100060600C700060600CD000606C1
:1002C00000D300080800DB00060600E10005050079
:1002D000E600040400EA00050500EF00030300F255
:1002E00000050500F700050500FC000505000101FB
:1002F00005050006010808000E01020200100105B4
:100300000500150103030018010202001A0105058A
:10031000001F010505002401040400280105050053
:100320002D01050500320105050037010505003CDA
:1003300001050500410103030044010505004901D1
:100340000505004E0103030051010404005501039B
:10035000030058010606005E010606006401060659
:10036000006A01090900730106060079010606000A
:100370007F0106060085010606008B010606009136
:100380000107070098010606009E01070700A50166
:10039000060600AB01080800B301060600B9010615
:1003A0000600BF01050500C401020200C6010606E1
:1003B00000CC01070700D301050500D8010606009F
:1003C000DE01060600E401060600EA01060600F06A
:1003D00001060600F6010A0A0000020606000602EF
:1003E0000505000B020606001102050500160202B3
:1003F000020018020202001A020606002002060687
:100400000026020606002C0206060032020606003E
:1004100038020606003E0206060044020606004AAE
:10042000020404004E0206060054020404005802AE
:100430000202005A02060600600202020062020680
:10044000060068020404006C020404007002040444
:1004500000740202020076020707007D020808000D
:1004600085020606008B0206060091020404009530
:10047000020202009702020200000000002400278E
:10048000002A002D00300000000000230026002973
:10049000002C002F000000000200090F00000304E0
:1004A00001000C000000000000000000000000003F
:1004B000000000000408020110408040102040802D
:1004C00040800802040180402010020110801020AA
:1004D00040402000000000250028002B002E0031A5
:1004E00000040404040403040502020202040302DB
:1004F00002020206060606060604040202020404BC
:10050000080B0002020200000904000001020200C0
:100510000005240010010524010101042402060540
:1005200024060001070581031000400904010002B0
:100530000A00000007050202400000070583024090
:1005400000000403090412010002EF0201404123EC
:10055000368000010102030141726475696E6F20EB
:100560004C4C430041726475696E6F204C656F6E30
:100570006172646F00050C0901A101850415002654
:10058000FF0319002AFF03950475108100C0701C39
:1005900011241FBECFEFDAE0DEBFCDBF13E0A0E035
:1005A000B1E0EEE6FEE402C005900D92AC33B10777
:1005B000D9F727E0ACE3B3E001C01D92AC3BB20732
:1005C000E1F712E0C8ECD2E004C02197FE010E94DE
:1005D0002F27C73CD107C9F70E94F81D0C94352777
:1005E0000C94000096E0899FD0011124A45BB84FC1
:1005F00090967C936E935F9791E091969C939197E0
:10060000E091B907F091BA079091B807992339F0B2
:10061000309751F0811108C0809168070994309794
:1006200019F05C968C91FACF0895CF93DF93FC017B
:10063000818190910506482F490F5527551F483055
:1006400051059CF5A281B381109709F521E036E0B0
:1006500033832283208120930306809304068091B4
:100660000606820F808320910706A22FB09108060C
:100670008A2F821B8917E8F481813D91C82FD0E031
:10068000C05FDE4F38838F5F8183F2CFD901189628
:100690002D913C91199721153105C1F721E036E0E4
:1006A00019963C932E931897D5CF80E0DF91CF9188
:1006B000089581E0FBCFFC0180916303882311F151
:1006C0003FB7F89482E08093E9002091F200822FF6
:1006D00090E01816190614F481E090E0882339F0B0
:1006E000289844E6409362034091F100408322231E
:1006F00039F02091F200211103C02BE62093E8008D
:100700003FBF08958FEF9FEF089540915C03509194
:100710005D0320915A0330915B0342175307B4F4F1
:100720009091E8009570E1F39091E80092FD19C076
:100730008093F10080915C0390915D0301968F732B
:100740009927892B19F48EEF8093E80080915C0340
:1007500090915D03019690935D0380935C0381E02B
:10076000089580E00895DF92EF92FF920F931F9318
:10077000CF93DF93D82E8A01EB017B01E40EF51EA7
:10078000CE15DF0559F0D7FE12C0FE0184910E94FC
:10079000850321968111F4CF0FEF1FEFC801DF9180
:1007A000CF911F910F91FF90EF90DF900895888176
:1007B000EECF2FB7F89487708093E9009091E8000E
:1007C000892F807295FF04C09091F20080E4891B0C
:1007D0002FBF0895615030F02091F100FC0120837B
:1007E0000196F8CF289884E6809362030895AF922B
:1007F000BF92CF92DF92EF92FF920F931F93CF930E
:10080000DF936C017B018B01040F151FEB015E016F
:10081000AE18BF08C017D10759F06991D601ED9104
:10082000FC910190F081E02DC6010995892B79F7A3
:10083000C501DF91CF911F910F91FF90EF90DF9055
:10084000CF90BF90AF9008958091520381110DC059
:1008500082E080934E0384E080934F031092510313
:100860001092500381E0809352038EE493E0089548
:100870000F931F93CF93DF931F92CDB7DEB782E024
:10088000898342E450E060E075E080E80E94B303B1
:100890000E942404DC0112960D911C910115110592
:1008A00089F0D801ED91FC910280F381E02DBE0129
:1008B0006F5F7F4FC801099597FD04C0F80100855F
:1008C0001185ECCF89810F90DF91CF911F910F910E
:1008D0000895CF93DF931F92CDB7DEB76983DC0114
:1008E000ED91FC910280F381E02D41E050E0BE01EA
:1008F0006F5F7F4F09950F90DF91CF91089583E04F
:100900008093E9008091F200882319F08AE38093B4
:10091000E800089583E00E94D90390E00895CF9302
:10092000DF931F92CDB7DEB7FC018485958597FDD7
:1009300008C02FEF3FEF358724870F90DF91CF91CD
:100940000895CE0101960E945B03019719F48981F5
:1009500090E0F3CF8FEF9FEFF0CF0F931F93CF93E4
:10096000DF931F92CDB7DEB78C01FC01848595859E
:1009700097FF0BC0CE0101960E945B03019771F4B3
:10098000898190E0F80195878487F80184859585B1
:100990000F90DF91CF911F910F9108958FEF9FEFEF
:1009A000F1CFFC018485958597FD0BC09FB7F89426
:1009B00082E08093E9008091F2009FBF90E0019671
:1009C00008959FB7F89482E08093E9008091F20047
:1009D0009FBF90E0089581508F3008F047C0E82F06
:1009E000F0E0EB50FB4F0C942F2712051605040581
:1009F0000A050E0536053605360519051F052305BA
:100A000027052D0536053105809180008F7780936D
:100A100080000895809180008F7DF9CF80918000C3
:100A2000877FF5CF84B58F7784BD089584B58F7D9A
:100A3000FBCF809190008F778093900008958091F4
:100A400090008F7DF9CF80919000877FF5CF8091C6
:100A5000C0008F778093C00008958091C0008F7D83
:100A6000F9CF8091C200877F8093C2000895CF9311
:100A7000DF93282F30E0F901EB56FB4F8491F90109
:100A8000EC54FB4FD491F901EF51FB4FC491CC23AF
:100A9000A1F081110E94EB04EC2FF0E0EE0FFF1F9C
:100AA000E957FB4FA591B491EC91ED2381E090E0E3
:100AB00009F480E0DF91CF91089580E090E0FACFD3
:100AC000862F0C9437051F93CF93DF93282F30E0A8
:100AD000F901EB56FB4F8491F901EC54FB4FD49193
:100AE000F901EF51FB4FC491CC23A9F0162F8111CE
:100AF0000E94EB04EC2FF0E0EE0FFF1FED52FB4FD6
:100B0000A591B4918FB7F894EC91111108C0D095CC
:100B1000DE23DC938FBFDF91CF911F910895DE2BF1
:100B2000F8CF862F642F0C946305CF93DF9390E06A
:100B3000FC01EC54FB4F24918F519B4FFC0184919D
:100B40008823C9F090E0880F991FFC01E758FB4FFC
:100B5000A591B491FC01ED52FB4FC591D491611167
:100B60000DC09FB7F8948C91209582238C93888137
:100B7000282328839FBFDF91CF910895623051F4DD
:100B80009FB7F8943C91822F809583238C93E881C2
:100B90002E2BEFCF8FB7F894EC912E2B2C938FBF89
:100BA000EACF862F642F0C9495053FB7F894809177
:100BB0004A0390914B03A0914C03B0914D0326B58D
:100BC000A89B05C02F3F19F00196A11DB11D3FBF85
:100BD000BA2FA92F982F8827BC01CD01620F711D54
:100BE000811D911D42E0660F771F881F991F4A954E
:100BF000D1F708958F929F92AF92BF92CF92DF92DA
:100C0000EF92FF924B015C010E94D5056B017C01C4
:100C10000E94D5056C197D098E099F09683E7340B5
:100C200081059105A8F321E0821A9108A108B10875
:100C300088EEC80E83E0D81EE11CF11C81149104DB
:100C4000A104B10429F7FF90EF90DF90CF90BF90FF
:100C5000AF909F908F9008957F928F929F92AF92C6
:100C6000BF92CF92DF92EF92FF920F931F93CF9399
:100C7000DF93C82E8B017A0180916303811110C02C
:100C80008FEF9FEFDF91CF911F910F91FF90EF902A
:100C9000DF90CF90BF90AF909F908F907F900895FE
:100CA0008091600380FF05C08091E00082608093A6
:100CB000E000CE2DDF2DD12C8AEFB82E8C2D877041
:100CC000982E8C2D8072882E8C2D8074782E9AE32D
:100CD000A92E209719F4DD2009F452C08C2D0E9412
:100CE000D90381110AC0BA94BB2051F261E070E0CF
:100CF00080E090E00E94FA05ECCF8C171D0611F001
:100D00000CF08C2F9FB7F8949092E9002091E800A6
:100D100025FD02C09FBFDDCF282F30E0C21BD30BC3
:100D2000882029F08150A0F01092F100FBCFF8014B
:100D3000C7FC0AC0815050F041914093F100FACFB6
:100D400044914093F10031968150D0F7020F131F68
:100D5000DD2021F0A092E800D12CDCCF8091E800CA
:100D600085FD07C0A092E800DD24D394209791F27E
:100D7000F3CF209779F6772069F2A092E800CACFE6
:100D80005D9884E680936103C7017CCFCF93DF93A6
:100D9000EC0180910F01882331F083E00E942C0642
:100DA0001816190634F081E090E09B838A8380E076
:100DB00090E0DF91CF9108952FB7F89460914603AA
:100DC0007091470380914803909149032FBF089584
:100DD0000F931F93CF93DF93C82FD62F86E0C89F22
:100DE000F0011124E45BF84F11A2878D90A18130AE
:100DF0009105F1F058F082309105F1F1039709F473
:100E000040C0DF91CF911F910F9108956623C9F3E0
:100E100061E070E08C2F0E94F2020E94DC06609379
:100E2000A4077093A5078093A6079093A707E9CF1F
:100E30000E94DC060091A4071091A5072091A60747
:100E40003091A707AB01BC01401B510B620B730B28
:100E50008091B6079091B707B0E0A0E0841795079E
:100E6000A607B70748F462E070E08C2FDF91CF91BE
:100E70001F910F910C94F20263E070E0D111C1CF89
:100E8000F4CF70E060E0F1CF8EBD00000DB407FE3E
:100E9000FDCF8EB508958FEF0C9444070F931F93E9
:100EA000CF93DF93EC010E94DC068B010E944B077D
:100EB0008F3F69F00E94DC06601B710B6C177D0789
:100EC000A8F380E0DF91CF911F910F91089581E009
:100ED000F9CFDC01FB0112962C9112978481958148
:100EE0002817190641F491818081813A31F49D7F60
:100EF00081E0913009F080E008958132E1F79B3084
:100F000029F482811F968C9381E008959A3099F795
:100F1000828150968C93F8CFDC01FB0188E48083BA
:100F200089E4818384E482831D969C911D979F7040
:100F30009F5B93831D968D919C9124E09695879558
:100F40002A95E1F78F708F5B848385E00895EF9297
:100F5000FF920F931F93CF93DF93FB0120812138E2
:100F600071F52381223259F5DC0112964C912481CE
:100F700035814217130619F5EC010B851C85F12C00
:100F8000E12C0115110589F0F80144815581628138
:100F9000738180E80E94B3038F3F980749F0E80E01
:100FA000F91ED8010D911C91ECCF81E08F87C7010C
:100FB000DF91CF911F910F91FF90EF90089590E0F6
:100FC00080E0F6CFCF93DF93CDB7DEB769970FB64A
:100FD000F894DEBF0FBECDBFFC01DB018C918F5FAB
:100FE0008C939E012D5F3F4F8DE0D9011D928A9514
:100FF000E9F729E0298384E08A8391E09D8383E0F7
:101000008E832A8721E22B879C879D879F8722E2F8
:10101000288B27E02B8B25E02C8B8E8B20E430E077
:10102000388F2F8B998F82818B8395858685998BBD
:101030008A8B838180688D8B49E150E0BE016F5FB0
:101040007F4F80E00E94B30369960FB6F894DEBF2D
:101050000FBECDBFDF91CF910895CF92DF92EF9277
:10106000FF921F93CF93DF931F92CDB7DEB77B0123
:101070006A018091120681112AC011E010930506C1
:10108000109306068BE096E090930806809307067F
:1010900010920A06109209068DE692E090930206DD
:1010A0008093010610920D0610920C0610920F0606
:1010B00010920E06109310061093110681EC809387
:1010C0000B060E9424040E9415031093120684E06C
:1010D000898341E050E0BE016F5F7F4F809104063D
:1010E0000E942C0697FD07C080910406A601B70157
:1010F00080640E942C060F90DF91CF911F91FF908A
:10110000EF90DF90CF900895E8E2F6E022813381FE
:101110002817390711F413821282329626E0E03341
:10112000F207A1F748E050E06AE276E088E296E054
:101130000C942D08EAE2F6E030E020E04191519174
:101140002F5F3F4F452B79F4220F331FF901E85DE4
:10115000F94F9183808348E050E06AE276E088E2CC
:1011600096E00C942D082430310541F7F4CFCF934D
:10117000CFB7F89480913E03811127C0E2EFF4E0ED
:101180008491E5ECF4E09491E82FF0E0EE0FFF1F7E
:10119000E758FB4FA591B491EC91E92321F461E06C
:1011A00081E10E94630561E081E10E9495058CB5B3
:1011B00080618CBD8CB580648CBD61E08FE00E9445
:1011C000950561E080E10E94950580913E038F5F67
:1011D00080933E03CFBFCF910895CF93DF93EC016F
:1011E000CD2FDD27C695C695C695AFE0B2E0CA9F64
:1011F000F001CB9FF00DDA9FF00D11247796C6E039
:10120000F695E795CA95E1F7EB01E883FC01D5E097
:10121000F695E795DA95E1F7EF73FF27C3E0D1E0A4
:10122000EC9FB001ED9F700DFC9F700D11246F5D60
:101230007F4FE6E076956795EA95E1F7FA016083DE
:10124000AC014F7155274A9FC0014B9F900D5A9F8B
:10125000900D11244796F6E096958795FA95E1F75B
:10126000E9018883DF91CF910895DC015596ED91D6
:10127000FC91569790815A968C91892B80837EBDE4
:101280000DB407FEFDCF6EBD0DB407FEFDCF089572
:10129000DC015596ED91FC91569790815A968C9170
:1012A000892B80836EBD0DB407FEFDCF0895DC0150
:1012B0005596ED91FC91569790815A968C91809518
:1012C000892380836EBD0DB407FEFDCF0895DF92A4
:1012D000EF92FF920F931F93CF93DF93EC01D62EE3
:1012E000142FF22EEE2039F08FA9882321F0F02E52
:1012F000022FD42E162F65E1CE010E9457096D2DC5
:10130000CE010E9448096F2DCE010E94480965E771
:10131000CE010E945709612FCE010E944809602F1B
:10132000CE010E9448096CE5CE01DF91CF911F915B
:101330000F91FF90EF90DF900C945709DC015596C8
:10134000ED91FC91569790815A968C91892B8083D0
:10135000215031094109510948F00DB407FEFDCF74
:101360007EBD0DB407FEFDCF6EBDF2CF0DB407FEFE
:10137000FDCF0895FC0124A52130F9F42FE9260FB3
:101380002A3108F46052FC01A0A1B1A12C9130E0F7
:1013900090E080E082179307C4F4AC01440F551F1E
:1013A000480F591F1196ED91FC911297E40FF51F0C
:1013B0004081461761F00196EDCF223021F72FEBE7
:1013C000260F2A3100F7605EDECF8FEF9FEF089582
:1013D0002F923F924F925F926F927F928F929F9245
:1013E000AF92BF92CF92DF92EF92FF920F931F9333
:1013F000CF93DF93CDB7DEB762970FB6F894DEBF19
:101400000FBECDBF5C0139014801270122303105F3
:101410000CF02DC10230110544F58A010F5F1F4FFA
:101420009B012F5F3F4FEE24E394C5010E946709A3
:10143000B201C5010E94350962960FB6F894DEBF6D
:101440000FBECDBFDF91CF911F910F91FF90EF9015
:10145000DF90CF90BF90AF909F908F907F906F90D4
:101460005F904F903F902F900895040F151F0150EB
:101470001109EE24E3949B01C5010E946709B201A2
:10148000C5010E943509B1E08B1A9108C1F7D4CF8C
:101490008401040F151F0150110921503109EE2458
:1014A000E394C5010E9467094C145D0409F4CFC0A0
:1014B0009E012E5F3F4FAE014C5F5F4FBE016A5FE2
:1014C0007F4FC2010E94ED089E012F5F3F4FAE018A
:1014D0004D5F5F4FBE016B5F7F4FC6010E94ED08FD
:1014E000312C212CC401B0E0A0E08B879C87AD8714
:1014F000BE87C301770CAA0BBB0B8F87988BA98B78
:10150000BA8BB10190E080E00E9434266B017C012F
:101510006B857C858D859E850E9434269B01AC0160
:10152000C701B6010E9493256B017C01AC019B01B0
:1015300060E070E080E89FE30E9426252B013C01DB
:101540006E8170E090E080E00E943626A301920157
:101550000E94C2266F83788789879A876D8170E0A1
:1015600090E080E00E943626A70196010E94C226E4
:101570009B01AC016F81788589859A850E9427251A
:101580000E940526062F10E0102F00270027187F45
:101590006C8170E090E080E00E943626A301920109
:1015A0000E94C2266F83788789879A876B8170E053
:1015B00090E080E00E943626A70196010E94C22694
:1015C0009B01AC016F81788589859A850E942725CA
:1015D0000E94052698E0699FB0011124607E777013
:1015E000062B172B6A8170E090E080E00E9436267F
:1015F000A30192010E94C2262B013C01698170E087
:1016000090E080E00E943626A70196010E94C22643
:101610009B01AC01C301B2010E9427250E9405264F
:1016200070E093E0759567959A95E1F7602B712BC3
:101630002F85388949895A89C5010E949E09AFEFD3
:101640002A1A3A0A8214930409F05BCFF5CE689CFB
:101650009001699C300D789C300D1124032E000CF4
:10166000440B550BB201C5010E949E09E5CE260F21
:10167000371F023011050CF00BCF21503109EE2439
:10168000E3948A01C5010E946709B201C5010E9465
:101690003509A1E06A1A7108C1F7CECE1F93CF9326
:1016A000DF93EC01142F0E945709612FCE01DF91C7
:1016B000CF911F910C944809089561E0FC01848149
:1016C0000E94630580913F03811110923F030895AA
:1016D0008CBD9DBD0895CF93DF93EC0180913F03B6
:1016E000811109C081E080933F038091B6059091FC
:1016F000B7050E94680B60E08C81DF91CF910C945C
:1017000063058F929F92AF92BF92FF920F931F93A8
:10171000CF93DF93EC01F62E49015A018E81882385
:1017200089F08F8198859C012F5F3F4F38872F83E9
:101730008230924018F40E944B07F3CFCE010E94F2
:101740005D0B1E82CE010E946B0B8CE291E00E9429
:101750004E078F2D80640E94440708E110E0D501F8
:10176000C401002E04C0B695A795979587950A9455
:10177000D2F70E94440708501109083F8FEF18075D
:1017800071F785E9FF2021F028E087E8F2128FEF5A
:101790000E94440710E00E944B078A8787FF04C01D
:1017A0001F3F11F01F5FF7CFDF91CF911F910F9176
:1017B000FF90BF90AF909F908F900895CF92DF924F
:1017C000EF92FF920F93CF93DF93EC01690182E1D7
:1017D000411551056105710599F08B85833039F00C
:1017E00089E0440F551F661F771F8A95D1F79A012C
:1017F000AB0168E1CE010E94810B882319F084E0DF
:101800008D832DC08EEF0E94440776018EEFD81A8B
:10181000F70181917F010E944407EC14FD04C1F798
:101820008FEF0E9444078FEF0E9444070E944B07EE
:101830008A878F71853071F4011116C0CE010E9424
:101840005D0B81E0DF91CF910F91FF90EF90DF90E2
:10185000CF90089581E18D83CE010E945D0BCE0172
:101860000E945D0B80E0EECF88E592E00E944E077B
:10187000811102C085E1C4CF20E030E0A9016DE014
:10188000CE010E94810B882311F084E1B9CF0E9420
:101890004B078111FACFD2CF0F9340914103509162
:1018A0004203609143037091440341155105610562
:1018B000710599F0082F24E633E08091640590913A
:1018C00065050E94DE0B882349F0109241031092B7
:1018D0004203109243031092440381E00F91089554
:1018E0000F93CF93C82F80914003811105C0C1E0B1
:1018F0008C2FCF910F9108954091000150910101DB
:1019000060910201709103010C2F24E633E0809175
:101910006405909165050E94DE0B811102C0C0E054
:10192000E7CFCC2321F381E00E944C0C8823B9F34C
:1019300010924003DDCF9F92AF92BF92CF92DF9281
:10194000EF92FF920F931F93CF93DF936B017C0174
:10195000942E8091000190910101A0910201B0911B
:1019600003018C159D05AE05BF0509F494C081E007
:101970000E94700C882389F1C0916405D09165059F
:101980008E81882371F088819981AA81BB81C816D4
:10199000D906EA06FB0629F48F819885892B09F47C
:1019A00043C0C882D982EA82FB828B85A701960157
:1019B000833039F099E0220F331F441F551F9A9549
:1019C000D1F761E1CE010E94810B882391F083E081
:1019D0008D83CE010E945D0B80E0DF91CF911F913E
:1019E0000F91FF90EF90DF90CF90BF90AF909F90BE
:1019F00008950E94DC068B010E944B078A878F3F67
:101A000069F40E94DC06601B710B6D327140A0F31B
:101A10008FE08D83CE010E945D0BDBCF8E3F69F599
:101A200018861F8281E08E8304E613E084E6A82EE8
:101A300085E0B82E0E944B07F80181938F01AE1606
:101A4000BF06C1F78F8198859E5F98878F83298510
:101A5000222319F081159240B0F08E81882399F0ED
:101A60008F8198859C012F5F3F4F38872F8382306D
:101A7000924028F40E944B07F3CF8DE0CACFCE01ED
:101A80000E945D0B1E82C0920001D0920101E09283
:101A90000201F09203014091400349294093400321
:101AA00081E09BCF8F929F92AF92BF92CF92DF92B5
:101AB000EF92FF92CF9328EB35E0309365052093AA
:101AC0006405882309F46DC040E060E070E0CB015C
:101AD0000E949B0C81110BC080E0CF91FF90EF9092
:101AE000DF90CF90BF90AF909F908F90089580919E
:101AF00022058F7789F780912E0590912F05A0916F
:101B00003005B091310584369105A105B10520F36A
:101B1000C0902A05D0902B05E0902C05F0902D0563
:101B2000C114D104E104F104B9F240E0C701B601E7
:101B30000E949B0C882381F280916F039091700327
:101B40008115924049F6A0917403AA2329F260916D
:101B50007203709173036115710509F4BDCF209173
:101B60007103222309F4B8CFA093D6052093C805AA
:101B700090E080E030E0E1E0F0E0C82FAF01082E17
:101B800002C0440F551F0A94E2F72417350769F085
:101B900041E0480F01968930910579F74093D105CE
:101BA0009BCFC12CD12C7601C0CF8093D105209141
:101BB0007A0330917B0350E040E02115310541F478
:101BC000209188033091890340918A0350918B03BF
:101BD0002093C9053093CA054093CB055093CC059B
:101BE00046015701860E971EA11CB11C8092D70595
:101BF0009092D805A092D905B092DA05E0917503CC
:101C0000F0917603F093DD05E093DC05B0E00E94EF
:101C1000EA24DC01CB01880D991DAA1DBB1D809310
:101C2000DE059093DF05A093E005B093E10525E084
:101C3000EE0FFF1F2A95E1F7E150FE4FEF2FFF2730
:101C4000E6958E0F9F1FA11DB11D8093D205909325
:101C5000D305A093D405B093D505809077039090D9
:101C60007803B12CA12C8114910441F48090840359
:101C700090908503A0908603B0908703C81AD90A74
:101C8000EA0AFB0AC80CD91CEA1CFB1C04C0F69427
:101C9000E794D794C794CA95D2F7C092CD05D09255
:101CA000CE05E092CF05F092D00585EFC8168FE003
:101CB000D806E104F10428F48CE08093DB0581E090
:101CC0000CCF80E125EFC2162FEFD206E104F1041C
:101CD000A0F38091900390919103A0919203B09111
:101CE00093038093DE059093DF05A093E005B09306
:101CF000E10580E2E2CF4F925F926F927F928F92E6
:101D00009F92AF92BF92CF92DF92EF92FF920F938A
:101D10001F93CF93DF93EC014230510561057105AC
:101D200090F480E0DF91CF911F910F91FF90EF90A1
:101D3000DF90CF90BF90AF909F908F907F906F90EB
:101D40005F904F90089589859A85AB85BC850196F3
:101D5000A11DB11D84179507A607B70710F3CB88FF
:101D6000DC88ED88FE888F89803109F042C0BB276E
:101D7000A72F962F852F480159012A013B01C80E34
:101D8000D91EEA1EFB1E8091000190910101A091D5
:101D90000201B0910301C816D906EA06FB0699F5BF
:101DA0008F898031C1F5B301A201552766277727B6
:101DB000440F551F4C595C4FFA01918280828091EB
:101DC00040038160809340038A89823080F08D8156
:101DD0009E81AF81B8858C0D9D1DAE1DBF1D80936A
:101DE000410390934203A0934303B093440381E0E3
:101DF00099CFDB01CA01E7E0B695A795979587953E
:101E0000EA95D1F7B8CF40E0C701B6010E949B0C1C
:101E10008111C6CF86CFB301A2014F775527662720
:101E20007727440F551F440F551F4C595C4FFA013B
:101E300080829182A282B382C2CF8F929F92AF9210
:101E4000BF92CF92DF92EF92FF920F931F93CF93A7
:101E5000DF93FC0181859285A385B4850196A11D40
:101E6000B11D84179507A607B70770F480E0DF91CE
:101E7000CF911F910F91FF90EF90DF90CF90BF9087
:101E8000AF909F908F90089583889488A588B68896
:101E90008789803189F5BB27A72F962F852FE901E8
:101EA0006A017B018F01BC01CD01680D791D8A1D7E
:101EB0009B1D8090000190900101A0900201B090C4
:101EC000030186169706A806B90601F5F801878969
:101ED000803111F5DD24EE24FF24F601EE0FFF1F03
:101EE000EC59FC4F80819181B0E0A0E08883998318
:101EF000AA83BB8381E0BBCFDB01CA01C7E0B695F3
:101F0000A79597958795CA95D1F7C9CF40E00E94CC
:101F10009B0C8111DBCFAACFE894C7F8DD24EE2417
:101F2000FF24F601EE0FFF1FEE0FFF1FEC59FC4FD1
:101F300080819181A281B381BF70D8CF8F929F920F
:101F4000AF92BF92CF92DF92EF92FF920F931F93C7
:101F5000CF93DF93EC018D8181110EC080E0DF9182
:101F6000CF911F910F91FF90EF90DF90CF90BF9096
:101F7000AF909F908F9008950B891C892D893E8981
:101F8000041715072607370748F34A015B0182301B
:101F900031F48A869B86AC86BD8681E0E0CF8114D1
:101FA0009104A104B10449F41E821F821886198687
:101FB0001A861B861C861D86F0CF0A851B852C85FC
:101FC0003D85EB8DFC8D858590E00996B901A801D2
:101FD0004150510961097109082E04C07695679531
:101FE000579547950A94D2F775016401E1E0CE1A3E
:101FF000D108E108F10804C0F694E794D794C79497
:102000008A95D2F7C416D506E606F70620F0012B0E
:10201000022B032B11F58F89988DA98DBA8D8E8394
:102020009F83A887B9878E010A5F1F4FC114D1040F
:10203000E104F10409F4ADCF4E815F8168857985B3
:1020400098018B8D9C8D0E941D0F91E0C91AD108BB
:10205000E108F1088111EACF81CFC41AD50AE60A56
:10206000F70AE1CF3F924F925F926F927F928F92E9
:102070009F92AF92BF92CF92DF92EF92FF920F9317
:102080001F93CF93DF93CDB7DEB72C970FB6F8949D
:10209000DEBF0FBECDBF5C01DC015B968D909C90D6
:1020A0005C9716964D905D906D907C9019974114B9
:1020B00051046104710409F468C0BFEF4B1A5B0A54
:1020C0006B0A7B0A312CF40181859285A385B48546
:1020D0009C01AD012F5F3F4F4F4F5F4F29873A87DC
:1020E0004B875C87730162011D821E821F821886E6
:1020F000F40181859285A385B4852D813E814F8130
:102100005885281739074A075B0708F056C08985A4
:102110009A85AB85BC858C159D05AE05BF0550F431
:1021200082E0C82ED12CE12CF12C92E0492E512CCA
:10213000612C712C9E012F5F3F4FB701A601C40196
:102140000E941D0F8823C9F189819A81AB81BC81CE
:10215000892B8A2B8B2B09F1260137019FEF491A16
:10216000590A690A790A2D813E814F8158852F5F6E
:102170003F4F4F4F5F4F2D833E834F8358873FEF35
:10218000C31AD30AE30AF30AB3CFF40140805180A3
:10219000628073803324339496CFC414D504E6044C
:1021A000F70409F70FEF1FEF2FEF3FE0B701A6018C
:1021B000C4010E947B0E811119C080E02C960FB6DD
:1021C000F894DEBF0FBECDBFDF91CF911F910F916D
:1021D000FF90EF90DF90CF90BF90AF909F908F9047
:1021E0007F906F905F904F903F900895D501169625
:1021F0004D915D916D917C91199741155105610546
:10220000710539F097018601C4010E947B0E882375
:10221000A1F2D5011696CD92DD92ED92FC9219971E
:10222000332051F0D701C6010196A11DB11DF40163
:1022300080839183A283B383F5018789908DA18DDB
:10224000B28D892B8A2B8B2B39F48481C78AD08E4F
:10225000E18EF28E80688483F501848180628483BC
:1022600081E0ACCF1F93CF93DF93EC01162F8C81CD
:1022700087FF2AC06E857F858889998941E00E9401
:102280009B0C882361F1EA8980E2E89FF001112428
:10229000EC59FC4F309719F18D81823040F48B89D5
:1022A0009C89AD89BE89848F958FA68FB78F8F89C2
:1022B000988D938F828F8F89988DA98DBA8DB58BCC
:1022C000A48B8C818F778C83111103C08C818F7EBE
:1022D0008C83812FDF91CF911F910C94700C80E043
:1022E000DF91CF911F910895FF920F931F93CF938A
:1022F000DF93EC018D81813041F090E080E0DF914F
:10230000CF911F910F91FF9008958C8181FFF5CFA0
:1023100082FD1EC00091640510916505C8010E94F0
:102320006B0B0E944B07F82EC8010E945D0B8FEFCC
:10233000F812E3CF8C8185FF1EC08D81882321F0A8
:1023400060E0CE010E9432118C818F7D8C83D5CFCD
:102350004B895C896D897E898A859B85AC85BD8525
:1023600084179507A607B707A9F2CE010E949E0F12
:102370008111D0CFC2CF409141035091420360916F
:10238000430370914403452B462B472B21F080E0FB
:102390000E944C0CB2CF80618C832A853B853170C2
:1023A00080E092E0821B930BAACF9F92AF92BF92E4
:1023B000CF92DF92EF92FF920F931F93CF93DF9311
:1023C00000D000D01F92CDB7DEB78C016D83DC0149
:1023D00015968C911597813009F0B9C014968C919F
:1023E00081FFB5C082FD9FC0D8015B96ED91FC9145
:1023F0005C971A96AD90BD90CD90DC901D9794801F
:102400009A94B601A50189E0769567955795479509
:102410008A95D1F79422B1E0BB22992009F49FC09C
:10242000D8015B96ED91FC915C971696CD90DD906E
:10243000ED90FC901997B2E0CB1AD108E108F108B1
:10244000858504C0CC0CDD1CEE1CFF1C8A95D2F7E0
:102450004685578560897189C40ED51EE61EF71E14
:10246000C90CD11CE11CF11CA114B10409F00AC172
:10247000F801428553856485758583899489A5898A
:10248000B689481759076A077B0708F4FBC081E043
:102490000E94700C882309F45AC0C0920001D092A7
:1024A0000101E0920201F0920301809140038160FA
:1024B00080934003F501EC59FC4F8D818083F80136
:1024C00082859385A485B5850196A11DB11D82875E
:1024D0009387A487B5874389548965897689481786
:1024E00059076A077B0738F42481838B948BA58B6B
:1024F000B68B20682483D80114968C9183FD9FC0ED
:1025000081E090E00F900F900F900F900F90DF916F
:10251000CF911F910F91FF90EF90DF90CF90BF90E0
:10252000AF909F900895F801438954896589768911
:1025300082859385A485B585481759076A077B0767
:1025400009F452CFC8010E949E0F81114DCF81E046
:1025500090E0D80113969C938E93129749C0D801AE
:1025600016964D915D916D917C911997A114B104CE
:1025700009F071C0411551056105710589F557963E
:102580008D919D910D90BC91A02D0097A105B10555
:1025900009F04FC0C8010E9432108823C1F2D8014F
:1025A0005B96ED91FC915C971696CD90DD90ED9049
:1025B000FC901997B2E0CB1AD108E108F1088585A3
:1025C00004C0CC0CDD1CEE1CFF1C8A95D2F746859E
:1025D000578560897189C40ED51EE61EF71E48CF47
:1025E0009E012F5F3F4FCF010E941D0F811103C03D
:1025F00090E080E087CF89819A81AB81BC81F8012E
:10260000238D348DF901278948EF5FEF60E070E09A
:10261000203121F048EF5FEF6FEF7FE084179507DF
:10262000A607B70730F0C8010E9432108111F8CE1A
:102630008ECFF80186839783A087B187F1CEF8010A
:102640008581882309F483CF61E0C8010E9432119B
:10265000811156CF7CCF6A017B01B2E0CB1AD10841
:10266000E108F108858504C0CC0CDD1CEE1CFF1CC4
:102670008A95D2F74685578560897189C40ED51E23
:10268000E61EF71E41E0C701B6010E949B0C8111B6
:1026900011CF5DCFCF92DF92EF920F931F93CF9325
:1026A000DF93EC016B0180913206909133060E941A
:1026B000680BEB89FC899081898D809589238083C3
:1026C000E12C0FE710E02FE730E050E040E070E051
:1026D00060E0CE010E94670920E030E440E050E075
:1026E000B601CE010E949E09EB89FC898081998DFB
:1026F000892B8083DF91CF911F910F91EF90DF9015
:10270000CF900895CF93DF93EC0168AD79AD0E942F
:102710004A131C861B861A861986DF91CF9108956D
:10272000CF92DF92EF920F931F93CF93DF9300D05E
:1027300000D0CDB7DEB76C016370DC01D6966C9328
:10274000D697D7961C92D7971E968C911E97847E0B
:102750001E968C931E9780E890E016969C938E931D
:10276000159718969C938E931797611107C01E9624
:102770008C911E9780611E968C9314C0613009F075
:1027800068C0F601868583618687858196819A83F4
:102790008983878190859683858389819A819087B3
:1027A000878367ABD6011A961C921E9219971C96C6
:1027B0001C921E921B9780913206909133060E94C4
:1027C000680BD6015396ED91FC91549790815996E0
:1027D0008C91599780958923808315960D911C9132
:1027E000169717962D913C910150110921503109EE
:1027F000E12C50E040E070E060E0C6010E94670913
:1028000060EAC6010E945709F60196850588F68997
:10281000E02D8081D6015A962C91822B80839EBD1B
:102820000DB407FEFDCFD6015396ED91FC91549760
:10283000808159969C91892B80830F900F900F90E7
:102840000F90DF91CF911F910F91EF90DF90CF907C
:102850000895623029F41E968C911E9782608BCF6A
:10286000F601868581608687858196819C838B832E
:1028700087819085968385838B819C8190878783D0
:1028800081E087AB8FCF089590E080E0089550E01D
:102890004E5F5F4F440F551F840F951FFC017183DE
:1028A000608381E00895FC01738362837583648390
:1028B00077836683718760875387428781E0848747
:1028C00008952F923F924F925F926F927F928F92D4
:1028D0009F92AF92BF92CF92DF92EF92FF920F93AF
:1028E0001F93CF93DF93CDB7DEB76B970FB6F894F6
:1028F000DEBF0FBECDBF9E838D833B014A875B87C2
:1029000038872F831801C9862DB73EB7398F288F96
:10291000C80101966DB77EB7681B790B0FB6F894A6
:102920007EBF0FBE6DBF8DB79EB701969D878C870A
:10293000E9A9FAA92BA93CA9E217F307C9F0AE9CB3
:102940008001AF9C100D112488A9820D932D911D3B
:10295000C89E9001C99E300D1124CBA8DCA8760139
:102960004F8158856A857B858D819E810E94E8090B
:102970002301B301680D791D798B688B50E040E02D
:10298000B12C20E08A2D90E09F878E873985329D7B
:10299000F001339DF00D1124FB8FEA8F688979894E
:1029A0006415750509F493C0F201849167E070E045
:1029B0007C836B83E82FF0E0FF8BEE8BEC85FD854D
:1029C000E20FF11D8E899F890B8002C09595879536
:1029D0000A94E2F7382F317030832F5F8170992786
:1029E000480F591F22151304E9F441155105B1F0A0
:1029F0002416350621F54F81AB9C400D112450E083
:102A0000CBA8DCA8E9A8FAA80E851F852A8D3B8DE6
:102A10006A857B858D819E810E94E809B39450E090
:102A200040E020E06B817C81615071097C836B8385
:102A30006F3F7F4F19F69FEF491A590AAFCF2F8189
:102A40003885AB9C200D311D11243B8B2A8B3A8598
:102A500039834B854A83712C612C812CAC85BD85D3
:102A6000A60DB71D62147304CCF62C91FD01C301B1
:102A700028163906BCF33191231306C028163906EF
:102A800019F083940196F4CF682D70E07D8B6C8BE8
:102A90007985789D40011124222371F0C9A8DAA814
:102AA00076010E851F8594014A895B8969817A8147
:102AB0008D819E810E94E8098C899D89680E791E0E
:102AC000E981FA81E80DF91DFA83E983C6CFE88D23
:102AD000F98D0FB6F894FEBF0FBEEDBF6B960FB623
:102AE000F894DEBF0FBECDBFDF91CF911F910F9144
:102AF000FF90EF90DF90CF90BF90AF909F908F901E
:102B00007F906F905F904F903F902F900895FB01C2
:102B100001900020E9F73197AF01461B570BDC010C
:102B2000ED91FC910280F381E02D09940F931F93A6
:102B3000CF93DF93EC010E9487158C016BE972E063
:102B4000CE010E948715800F911FDF91CF911F91B9
:102B50000F910895CF93DF93EC01662341F189EE45
:102B600090E00E949A0889EE90E00E948408EA852D
:102B7000FB858585968524813581820F931F9687F5
:102B800085878785882381F08E819F810E948213AB
:102B90006EE972E08E819F810E94961565EA72E06F
:102BA0008E819F810E949615DF91CF9108958AEEC4
:102BB00090E00E949A088AEE90E00E948408EA85DC
:102BC000FB858585968524813581821B930B9687AD
:102BD00085878785882341F3888599850E9482139C
:102BE0006EE972E0888599850E94961560EB72E027
:102BF00088859985D7CFEF92FF920F931F93CF933C
:102C0000DF93EC016DEB72E086E695E00E9496158D
:102C100060E0CE010E94AA15EA85FB85178604E6CE
:102C200010E060E0CE010E94AA156AE070E080E04A
:102C300090E00E94FA050150110999F7EA85FB8599
:102C400081E0878716861586E280F38011E0EA85A9
:102C5000FB85858596858E159F058CF46AE070E06E
:102C600080E090E00E94FA0561E0CE010E94AA1582
:102C7000112369F3EA85FB85178610E0E8CFEA8522
:102C8000FB8585859685E816F9068CF46AE070E088
:102C900080E090E00E94FA0560E0CE010E94AA1553
:102CA000112369F3EA85FB85178610E0E8CF81E000
:102CB000878766ED72E08A819B81DF91CF911F91BA
:102CC0000F91FF90EF900C9496152F923F924F9298
:102CD0005F926F927F928F929F92AF92CF92DF928C
:102CE000EF92FF920F931F93CF93DF93EC013B0181
:102CF0001A01452B51F4FB0101900020E9F73197AF
:102D00001F01261A370A09F469C219A5112309F40B
:102D100091C0C8A0D9A0D60113968C917301512CF3
:102D2000412C882309F459C08E8D9F8D289E200147
:102D3000299E500C389E500C11242FA1249DC001B7
:102D4000259D900D112497FD019695958795F60187
:102D500024813581231B330B68A5629FA001639FEB
:102D6000500D112457FF02C04F5F5F4F5595479597
:102D70002FA9143008F0B8C0222309F496C01130EE
:102D800009F03CC02D813E8137FF02C02F5F3F4FCD
:102D900035952795281B31093C872B873EC06D3020
:102DA000E1F06A30D1F0CE010E94BA0997FD15C05A
:102DB000FC01EE0FFF1F8E0F9F1FD6011196ED91A4
:102DC000FC91E80FF91F0180F281E02D3296E49129
:102DD0004E0E511CEAA14E0E511CC70186199709CF
:102DE000821593050CF0A9CFF70161917F01603244
:102DF000B1F68E8D9F8D480E591EEFCF2F813885ED
:102E000037FF02C02F5F3F4F35952795241B3109AF
:102E10003A872987123009F0B5CF89859A8597FFBF
:102E200002C01A8619868B859C8597FF02C01C8676
:102E30001B8619A680913206909133060E94680B7A
:102E4000EB89FC899081898D809589238083260C6C
:102E5000371C2614370409F4BBC1D3016D913D0121
:102E60006D30B9F36A3009F072C0E8A1F9A184812C
:102E70009AA5890F98A5899F802D112490E02FA9EC
:102E8000211152C02B853C854F815885280F391F51
:102E9000421753070CF49CC11A8619862B853C8572
:102EA000820F931F9C878B87D4CF113069F42D81BB
:102EB0003E8137FF02C02F5F3F4F35952795281B76
:102EC00031093A872987A9CF2F81388537FF02C07A
:102ED0002F5F3F4F35952795241B31093C872B8762
:102EE000123009F49ACFE3CF222379F0143019F489
:102EF0002B853C854FCF29853A85241B31093A879C
:102F00002987153009F489CFF3CF143019F42985B6
:102F10003A85D5CF2B853C85241B31093C872B87EF
:102F2000153009F47ACFF3CF29853A854D815E813A
:102F3000280F391F421753070CF44AC129853A85D7
:102F4000820F931F9A8789871C861B8682CF6032E7
:102F500009F06BC0FAA18E8D9F8D8F0F911D2BA153
:102F60003CA1EDA0FEA04FA9411133C0EFA1E89F05
:102F7000502C1124E216F30629F189859A852D81BA
:102F80003E81850D911D8217930734F08D819E81BE
:102F900029853A85582E521A4B855C8569857A8534
:102FA000A8A1B9A114968C9108A5809F8001112435
:102FB000252D30E0FE9F200D311D11246701CE012B
:102FC0000E94E80989859A85850D911D9A878987D0
:102FD00040CF98A4989E902C1124E216F30601F19C
:102FE0008B859C852F813885890D911D82179307CC
:102FF00034F08F8198852B853C85982E921A4985CF
:103000005A856B857C85E8A1F9A104818FA1089F71
:1030100080011124292D30E06701CE010E94E809CA
:103020008B859C85890D911D3DCFCE010E94BA09EB
:1030300097FD0FCFA8A1B9A18C01000F111F080F98
:10304000191F1196ED91FC911297E00FF11F61810C
:103050007281FB013296D4904D2C512C8FA94AA13C
:103060009BA5992309F4A1C0811179C089859A850E
:103070005FA12D813E81D59E800D911D1124549F0D
:10308000800D911D112482179307A4F01A861986CA
:103090002B853C8514964C918AA5480F5527551FC2
:1030A000E8A5E49FC001E59F900D1124820F931FB6
:1030B0009C878B8742E050E08CE393E00E94E12400
:1030C00060913C0370913D03A8A1B9A111968D9127
:1030D0009C911297080F191FF80181819281FC01C0
:1030E0003396859094909FA914968C9191118CC0E1
:1030F0004B855C85E82EF12CA8A42F8138858A9D0C
:10310000400D511D1124241735070CF461C02B8587
:103110003C8549855A858EA18F938DA18F938CA173
:103120008F938BA18F938AA18F93CFA08201CE0121
:103130000E94611429853A859AA1490E511C4FA11C
:10314000449DC001459D900D1124820F931F9A87C5
:1031500089870F900F900F900F900F907ACE8B85EC
:103160009C8558A52D813E81D59E800D911D1124F1
:10317000549F800D911D1124821793070CF49ACF50
:1031800049855A8514962C918AA5280F3327331F19
:10319000EFA1E29FC001E39F900D1124840F951FC2
:1031A0009A8789871C861B8685CF882349F18B8562
:1031B0009C8558A52D813E81D59E800D911D1124A1
:1031C000549F800D911D1124821793070CF472CF28
:1031D000EB89FC898081998D892B8083DF91CF9148
:1031E0001F910F91FF90EF90DF90CF90AF909F9045
:1031F0008F907F906F905F904F903F902F900895A9
:1032000089859A855FA1D6CF49855A85E82EF12C0C
:10321000CFA02D813E818C9D400D511D112424177E
:103220003507B4F229853A854B855C858EA18F934D
:103230008DA18F938CA18F938BA18F938AA18F9354
:10324000A8A48201CE010E9461148B859C853AA1BD
:1032500028A5EFA1DE9EF0011124329FE00DF11DA3
:103260001124E80FF91FFC87EB8773CFCF93DF930F
:10327000EA010E946516CE01DF91CF910895CF93A8
:10328000DF931F92CDB7DEB7698341E050E0BE0106
:103290006F5F7F4F0E94651681E090E00F90DF9195
:1032A000CF9108951F920F920FB60F9211248F9312
:1032B0009F938091E1009091E100937F9093E100D2
:1032C00083FF0FC01092E90091E09093EB00109201
:1032D000EC0092E39093ED001092630398E09093DA
:1032E000F00082FF22C093E09093E9009091F200F9
:1032F000992319F09AE39093E80090916103992340
:1033000041F090916103915090936103911101C03C
:103310005D9A90916203992341F0909162039150DC
:1033200090936203911101C0289A84FF18C0809184
:10333000E2008E7E81608093E2008091E1008F7ECA
:103340008093E100809160038E7E806180936003B2
:103350009F918F910F900FBE0F901F90189580FF37
:10336000F7CF8091E2008E7E80618093E2008091B1
:10337000E1008E7E8093E100809160038E7E81600B
:10338000E5CF1F920F920FB60F921124CF92DF92CA
:10339000EF92FF920F931F932F933F934F935F935F
:1033A0006F937F938F939F93AF93BF93EF93FF930D
:1033B000CF93DF93CDB7DEB76C97DEBFCDBF109252
:1033C000E9008091E80083FF25C068E0CE014596C2
:1033D0000E94EA0382EF8093E8008D8987FF39C05D
:1033E0009091E80090FFFCCF982F907609F034C1BF
:1033F0009E894F89588D2F89F88C911131C0803862
:1034000061F580915F038093F1001092F1008EEFDF
:103410008093E8006C960FB6F894DEBF0FBECDBF68
:10342000DF91CF91FF91EF91BF91AF919F918F91DC
:103430007F916F915F914F913F912F911F910F91CC
:10344000FF90EF90DF90CF900F900FBE0F901F90E6
:1034500018959EEF9093E800C7CF1092F100D5CF5A
:10346000913059F48111D3CF4130510581F68091CB
:103470005F038D7F80935F03CACF933049F481113E
:10348000C6CF4130510519F680915F038260F2CFBB
:10349000953041F48091E80080FFFCCF20682093B4
:1034A000E300B5CF963009F0A9C00B8D1C8D22E04A
:1034B0001092E90010925D0310925C03F2122EC08C
:1034C00010925B0310925A030E9438041F8299E005
:1034D0009983FA8291E09E8390EA98879AEF998780
:1034E00020915C0330915D03275F3F4F3C832B832A
:1034F0008D831092E90010925D0310925C0310938B
:103500005B0300935A0349E050E0BE016F5F7F4FB9
:1035100080E00E94B3030E94380479CF10935B03CC
:1035200000935A030E942404DC0112960D911C9111
:103530000115110509F451C1D801ED91FC910480E8
:10354000F581E02DBE016B5E7F4FC80109950097A4
:1035500009F03EC1F80100851185EACFF3E0FF12C2
:103560000EC08F89882309F440C0823061F440E89E
:1035700060E184E695E00E943D1C811148CF81E224
:103580008093EB0047CF813029F440E86BE088E579
:1035900095E0F1CF833099F70E942404DC01129664
:1035A000ED90FC908E010F5F1F4F6801E114F10454
:1035B00079F0D701ED91FC910680F781E02DB801FB
:1035C000C7010995080F111DF701E084F184EECFC2
:1035D000D8011C92F60101900020E9F73197BF0154
:1035E0006C197D0940E0C601C6CF62E475E0FB01BD
:1035F000449150E080E80E94B30309CF973009F46A
:10360000BECF983021F481E08093F10000CF993053
:1036100009F0FDCE837009F0B2CFE1E1F1E081E085
:1036200031E096E32191222371F08093E9003093F9
:10363000EB00DF0111972C912093EC009093ED00AB
:103640008F5F873079F78EE78093EA001092EA0067
:103650008F8980936303DBCE8B8D9C8D1092E90064
:1036600010925D0310925C0390935B0380935A0366
:10367000898D811192C08E899D89913A49F4813258
:1036800009F07DCF47E050E068E071E080E0B3CF23
:10369000913209F074CF833269F48F89988DB0E04C
:1036A000A0E08093040190930501A0930601B093DC
:1036B0000701ADCE803269F48091E80082FFFCCF33
:1036C00067E088E091E00E94EA038BEF8093E800D6
:1036D0009ECE823209F09BCE8F8980930F01EEEF50
:1036E000FFE7859194918B3F9C4D51F1E0E0F8E02C
:1036F0008091080190910901A0910A01B0910B01FC
:10370000803B9440A105B105F1F480910F0180FD4B
:103710001AC0EE3F8AE0F80789F587E797E79183BB
:1037200080838091600080935E0388E19BE00FB608
:10373000F894A895809360000FBE9093600067CEC8
:10374000EEEFFAE0D5CF808191818737974709F076
:103750005ECEA89580916000886180936000809122
:103760005E0380936000EE3F2AE0F20789F08091CB
:10377000FE0A9091FF0A9183808349CE80819181D6
:103780008737980751F29093FF0A8093FE0AC5CFBE
:103790001092FF0A1092FE0A3ACE0E942404DC0125
:1037A00012960D911C910115110509F4E8CED8016E
:1037B000ED91FC910190F081E02DBE016B5E7F4F99
:1037C000C8010995811123CEF80100851185EBCF41
:1037D000181619060CF41BCED2CEF1E0FF12BECEA5
:1037E00066E475E004CF1F920F920FB60F9211247A
:1037F0002F933F938F939F93AF93BF9380914603F3
:1038000090914703A0914803B0914903309145033B
:1038100023E0230F2D3758F50196A11DB11D2093EC
:1038200045038093460390934703A0934803B093C6
:10383000490380914A0390914B03A0914C03B091AE
:103840004D030196A11DB11D80934A0390934B0334
:10385000A0934C03B0934D03BF91AF919F918F9173
:103860003F912F910F900FBE0F901F90189526E853
:10387000230F0296A11DB11DD2CFEF92FF920F939D
:103880001F93CF93DF93F82E192FE62E042F81E09C
:10389000860F880F0E94850383E00E948503CF2D49
:1038A000D12FEC0EFD2EF11CCE15DF05B9F007FF70
:1038B00013C0FE0184910E948503182F80E00E94AE
:1038C0008503812321968111EFCFDF91CF911F9145
:1038D0000F91FF90EF9008958881EDCF81E0F5CFB3
:1038E000CF93109269051092680588EE93E0A0E0EE
:1038F000B0E080936A0590936B05A0936C05B0933C
:103900006D058FE492E090936705809366058FEFD5
:103910009FEF909373058093720580E58093B605C1
:103920001092B7051092BD051092BE051092C10508
:103930001092C30582E090E0A0E0B0E08093C4055F
:103940009093C505A093C605B093C7051092DB05FB
:103950001092E5051092E40581E692E09093E3056C
:103960008093E2051092E70589E792E0909329069B
:103970008093280680912006811113C010921B06A7
:1039800010921A0685E795E090931D0680931C0619
:1039900089E190E090931F0680931E0681E080935A
:1039A00020068091120681112AC0C1E0C09305064D
:1039B000C09306068BE096E0909308068093070676
:1039C00010920A06109209068DE692E09093020684
:1039D0008093010610920D0610920C0610920F06AD
:1039E00010920E06C0931006C093110681EC8093CE
:1039F0000B060E9424040E941503C0931206E09156
:103A00000C06F0910D06309709F0E9C08AE196E0C6
:103A100090930D0680930C0680910E0690910F06F0
:103A200020911E0630911F06820F931F90930F0660
:103A300080930E0680E5809332061092330683E071
:103A400090E0909335068093340686E0E7E1F1E05C
:103A5000A6E3B6E001900D928A95E1F71092410637
:103A60001092400629E832E030933F0620933E064C
:103A700082E1809359069AE090935A068FEF8093E3
:103A8000420610927D0610927C0630937B062093AE
:103A90007A0643E1409395069093960680937E06BE
:103AA0001092B9061092B8063093B7062093B60666
:103AB00024E12093D1069093D2068093BA068BEE30
:103AC00092E09093200780931F078EEE92E09093F0
:103AD00022078093210784EF91E09093260780933B
:103AE000250784E690E0909328078093270782E0DB
:103AF00090E090932A078093290785E992E09093BC
:103B000038078093370784E78093440780911D012D
:103B100090911E01A0911F01809345079093460745
:103B2000A093470788E080934807809120019091F7
:103B30002101A09122018093490790934A07A09305
:103B40004B0710924E071092520710925107109295
:103B500053078FE792E090934D0780934C07E8E678
:103B6000F7E01082148213821582369687E0E43AD9
:103B7000F807B9F788E497E09093AF078093AE0712
:103B800089E497E09093B1078093B00781E0809338
:103B9000B20783E08093B30785E497E09093AD0785
:103BA0008093AC078AE090E09093B5078093B407C8
:103BB00084EF91E09093B7078093B6071092BA070D
:103BC0001092B9071092A8071092A9071092AA079D
:103BD0001092AB071092B807CF910895FC01808135
:103BE00091810097D9F78AE196E09183808314CF81
:103BF000CF93DF93CDB7DEB7A7970FB6F894DEBFAC
:103C00000FBECDBF789484B5826084BD84B58160D9
:103C100084BD85B5826085BD85B5816085BD809197
:103C20006E00816080936E0010928100809181000F
:103C30008260809381008091810081608093810007
:103C400080918000816080938000809191008260EB
:103C50008093910080919100816080939100809188
:103C600090008160809390008091C1008460809377
:103C7000C1008091C10082608093C1008091C10029
:103C800081608093C1008091C30081608093C300F4
:103C90008091C00082608093C0008091C2008160EA
:103CA0008093C20080917A00846080937A00809132
:103CB0007A00826080937A0080917A00816080939C
:103CC0007A0080917A00806880937A001092630372
:103CD00010925F03109260038091D70081608093FF
:103CE000D70080EA8093D80089B5806189BD89B505
:103CF000826089BD09B400FEFDCF61E070E080E024
:103D000090E00E94FA058091D8008F7C80618093BA
:103D1000D8008091E000807F8093E0008091E100F6
:103D20008E7E8093E1008DE08093E200559A209A88
:103D30008FEF9FEF909373058093720568EE73E0A9
:103D400080E090E00E94FA056EE3E62E66E0F62E33
:103D50008701B12CA12C7CE3C72EDD24D3948824C9
:103D60008A94982C212C312CF4EB4F2EF3E45F2E07
:103D7000A3E46A2EA2E07A2E4091340650913506D3
:103D8000A416B5060CF0F7C1CA9CF001CB9CF00D4F
:103D90001124EC5CF94F108ED801D5961C92D59762
:103DA000D7961C92D797178A9D961C929D97148A36
:103DB000138A168A158A9896DC9298979796DC92C1
:103DC000979799961C9299979A961C929A97929681
:103DD0001C9292979B96DC929B9720E15D962C9388
:103DE0005D97808D8064808F808D8460808FD99670
:103DF0001C921E92D897DB969C928E92DA9796969A
:103E00009C928E92959794969C928E9293979F9661
:103E10002D923D924D925C92D297E6EAFFEFD496B6
:103E2000FC93EE93D397F0E5F0933206D0923306ED
:103E300061E05C968C910E94950561E0D8015B96EB
:103E40008C910E949505F801238D30E0F901EF5126
:103E5000FB4FE491F0E0EE0FFF1FED52FB4F859119
:103E60009491D80154969C938E9353975C968C9121
:103E70005C9790E0FC01EF51FB4FE491F0E0EE0F16
:103E8000FF1FED52FB4F45915491F801568B458B26
:103E9000F901EC54FB4FE4915996EC935997FC01CE
:103EA000EC54FB4FE4915A96EC930E94B708D8016A
:103EB0005396ED91FC915497808159969C91599716
:103EC000892B80835596ED91FC91569780815A9667
:103ED0009C915A97892B808314968C918F3F29F15E
:103EE00061E00E94950561E0F80184810E9463050C
:103EF0006AE070E080E090E00E94FA0560E0D8019E
:103F000014968C910E9463056AE070E080E090E076
:103F10000E94FA0561E0F80184810E9463056AE06D
:103F200070E080E090E00E94FA056EE170E080E0D1
:103F300090E00E94FA0580913206909133060E942B
:103F4000680BD8015396ED91FC9154979081599646
:103F50008C91809589238083CA9CF001CB9CF00DC5
:103F60001124EC5CF94F808D8062808F42E16DEF0F
:103F7000C8010E944E0B41EB6DEFC8010E944E0B31
:103F80006EEAC8010E94570941EF63EBC8010E9425
:103F90004E0B4FE76AECC8010E944E0B40E061EA0D
:103FA000C8010E944E0B40E062EAC8010E944E0B1D
:103FB00040E065EBC8010E944E0B41E06BEAC8018E
:103FC0000E944E0B64EBC8010E94570960EAC801C9
:103FD0000E94480965EBC8010E94480965E5C801CF
:103FE0000E94480961ECC8010E94570968ECC801A9
:103FF0000E94480960E8C8010E94480968ECC801AD
:104000000E9448094FE067ECC8010E944E0B62EB2A
:10401000C8010E94570964EAC8010E94480960E08B
:10402000C8010E94480960E0C8010E94480969EB84
:10403000C8010E94570942E361EBC8010E944E0B80
:1040400041E066EBC8010E944E0B45E06EEBC801F3
:104050000E944E0B66EAC8010E945709D801559686
:10406000ED91FC91569790815A968C918095892379
:104070008083BFEABEBD0DB407FEFDCFD8015396C5
:10408000ED91FC915497808159969C91892B808366
:104090006CE370E080E090E00E94FA0560E0C80107
:1040A0000E949013F80160AD71ADC8010E944A13DF
:1040B000D80191967C926E9290979C961C9260E2A9
:1040C000C8010E94BA0997FDF3CFFC01EE0FFF1F54
:1040D000E80FF91FED5DFE4F0180F281E02D329671
:1040E000E491F0E0D8015F96FC93EE935E9761E077
:1040F00070E080E090E00E94FA05F80185A988232D
:10410000A1F180913206909133060E94680BD8018C
:104110005396ED91FC915497908159968C915997B3
:10412000809589238083D5968C91863021F46FEA1F
:10413000C8010E945709F80185A9893029F442E194
:104140006DEFC8010E944E0B66EAC8010E94570934
:10415000D801D5961C92D5975396ED91FC91549722
:10416000808159969C91892B8083BFEFAB1ABB0A43
:10417000045C1F4F01CE8EE396E090933D06809342
:104180003C06E4E3F6E090E080E022E08417950747
:104190002CF422AB21AB0196FC96F8CFEAE2F6E0D4
:1041A00088E0DF011D928A95E9F748E050E0BF0101
:1041B00088E296E00E942D080E94DC0660932E079C
:1041C00070932F07809330079093310781E080939D
:1041D0003407109235071092360745E257E06AE738
:1041E00076E087E397E00E9453148EE396E0909385
:1041F0003C0780933B0763EF72E00E9496158AE7C5
:1042000096E090933E0780933D0763EF72E00E9433
:10421000961586EB96E09093400780933F0763EFF7
:1042200072E00E94961587E397E00E94FB151FA29B
:104230001EA2F5E13F2EA2E5CA2EB0E5DB2E1AE064
:10424000812E912CA12CB12C8091E705882341F07F
:1042500061E082EE95E00E94321181111092E70533
:104260001092C3051092C1051092BE051092BD05B3
:104270003092BC050E94DC068B0161E08091BC0598
:104280000E94950561E08091BC050E9463050E9433
:10429000B708C092B6051092B7058091B605909107
:1042A000B7050E94680BEAE02E2E8FEF0E944407AC
:1042B0002A942110FACF88EB95E00E946B0B20E046
:1042C00030E0A90160E088EB95E00E94810B282E88
:1042D0008093C205B1E08B1709F458C00E94DC0638
:1042E000601B710B613D774050F381E08093BD0509
:1042F00088EB95E00E945D0B6AE073E086E695E04E
:104300000E9487152EA13FA12F5F3F4F2901330F38
:104310006608770877FE7AC16DE286E695E00E942E
:10432000690422273327A9012419350946095709A9
:1043300019A28E010F5D1F4FCA01B901A501940199
:104340000E94F524605DD8016E938D012115310521
:104350004105510589F70115110529F0B80186E6D7
:1043600095E00E9487156BE972E086E695E00E9471
:1043700087158EA19FA109970CF45EC16DE173E0D2
:1043800086E695E00E94961580E0C5C02AEA31E0F5
:1043900040E050E068E088EB95E00E94810B82FFEE
:1043A0002AC02092C3058091C305412C512C612C59
:1043B00060E4762E823019F0412C512C320120E03D
:1043C00030E0A90167E388EB95E00E94810BA3012F
:1043D000920169E288EB95E00E94810B8093C2050F
:1043E0008823D1F00E94DC06601B710B613D774091
:1043F00030F388E07BCF74E0272E0E944B07809338
:10440000C2052A942110F9CF8A3A11F082E06ECFCA
:1044100082E08093C305C7CF8091C3058230D1F479
:1044200020E030E0A9016AE388EB95E00E94810B6F
:10443000882311F086E05ACF0E944B07807C803C95
:1044400019F483E08093C3050E944B070E944B0739
:104450000E944B0788EB95E00E945D0BD092B60559
:104460001092B70581E00E94520D882309F46AC0BA
:104470008091E705811140CF8091DB05803109F003
:1044800068C082E08093E7051092F9051092FA0562
:104490001092FB051092FC058091DC059091DD05E2
:1044A000B0E0A0E055E0880F991FAA1FBB1F5A95E6
:1044B000D1F78093F5059093F605A093F705B09397
:1044C000F80584EC95E09093FE058093FD0581E06E
:1044D0008093E6051092E8051092E9051092EA052E
:1044E0001092EB051092EC051092ED051092EE057E
:1044F0001092EF051092F0051092F1051092F2055E
:104500001092F3051092F4056AEF72E086E695E0EA
:104510000E94961581E08093BB070EE316E0D12C34
:10452000C12C8091340690913506C816D9060CF03E
:1045300089C0C8010E948213FFEFCF1ADF0A045C12
:104540001F4FEFCF80E00E94520D882309F4D4CE94
:104550008FCF803209F0D0CE83E08093E705809141
:10456000DE059091DF05A091E005B091E105809313
:10457000F9059093FA05A093FB05B093FC058AA377
:104580009BA3ACA3BDA3412C512C32014AA15BA13A
:104590006CA17DA19E012E5D3F4F84EC95E00E94B1
:1045A0001D0F882309F4A8CE8091D10520E032E0C8
:1045B00040E050E004C0220F331F441F551F8A956E
:1045C000D2F7DA01C901480E591E6A1E7B1E4AA1A4
:1045D0005BA16CA17DA18091DB05803191F488EF16
:1045E0009FEFA0E0B0E0481759076A077B0770F219
:1045F0004092F5055092F6056092F7057092F80525
:1046000060CF88EF9FEFAFEFBFE0EDCFA301920146
:1046100019A28E010F5D1F4FCA01B901A5019401B6
:104620000E94F524605DF80162938F012115310528
:104630004105510589F78FCE8EA19FA101969FA3B9
:104640008EA302CE10E000E08091340690913506F2
:1046500008171907CCF0412C512C3201439440E04B
:10466000242E40E0342E2091340630913506E4E3C8
:10467000F6E090E080E08217930784F442E042ABDA
:1046800041AB0196FC96F7CF62E0C7010E94901300
:104690000F5F1F4F2CE3E20EF11CD6CF51E0509379
:1046A000B8070E94DC060091A8071091A907209185
:1046B000AA073091AB07AB01BC01401B510B620B49
:1046C000730B8091B4079091B507B0E0A0E0841718
:1046D0009507A607B70708F00DC110E08091B20753
:1046E000181760F4E091AE07F091AF07E10FF11DEC
:1046F00062E080810E9495051F5FF0CFD12C8091F0
:10470000B307D81608F061C0ED2CF12CE091B0078A
:10471000F091B107EE0DFF1D61E080810E949505CB
:10472000E091B007F091B107EE0DFF1D60E08081D0
:104730000E946305D301C2010D2C04C0880F991F8C
:10474000AA1FBB1F0A94D2F74C015C01A094B0943D
:10475000C12C8091B207C81608F50C2D10E0E0912D
:10476000AE07F091AF07E00FF11F80810E9437057F
:104770000C5F1F4F000F111FF801E45BF84F892BEE
:1047800041F4808191818829992991838083C39400
:10479000E0CF808191818A219B21F7CFE091B00702
:1047A000F091B107EE0DFF1D61E080810E9463056D
:1047B0008091B0079091B107E80EF91E60E0D70133
:1047C0008C910E949505D3949ACFE8E6F7E0838117
:1047D0009481892B31F410822FEF3FEF32832183B4
:1047E0001582369637E0E43AF30789F7F12C809189
:1047F000B207F81608F051C0E12C0F2D10E0000FA1
:10480000111F0C5A184F2091B307E21608F043C04D
:10481000D8016D917C910E2C02C0769567950A9413
:10482000E2F7F29E900111242E0D311DE9E6F7E02A
:1048300080E0408151812417350709F4C0C08F5FA3
:1048400036968A30B1F760FF24C0E8E6F7E090E0E2
:1048500080E04081411118C0E091AC07F091AD07B4
:10486000E20FF31F4081B6E0B89FF001B99FF00D51
:104870001124E45BF84F448F368F258F10A2178EDA
:1048800061E00E94E80605C0019636968A309105DF
:1048900001F7E394B8CFF394AACFEDE6F7E010E088
:1048A00080818111182F369629EA37E02E173F07AD
:1048B000B9F70E94DC066093A8077093A90780935C
:1048C000AA079093AB071123A9F080916D07882365
:1048D00089F080916B0790916C07019759F4809152
:1048E000680781110AC02114310409F4BCCE0E946A
:1048F0000000B9CE1092B807F6CF80932B079091A5
:104900002C07981343C010922D0780932C078133F6
:1049100049F582EE90E00E949A0882EE90E00E94B3
:104920008408E0914107F091420791898785992396
:1049300089F1118A8823B1F080913B0790913C075F
:104940000E9482136EE972E080913B0790913C07D0
:104950000E9496156FE273E080913B0790913C07AF
:104960000E94961580912B07823329F461E087E33A
:1049700097E00E94AA1580912B07833309F0B3CFEB
:1049800060E087E397E00E94AA15ADCF31E0309355
:104990002D07BBCF41E0418B882321F380913B075A
:1049A00090913C070E9482136EE972E080913B0770
:1049B00090913C070E94961565E373E0CDCF61703E
:1049C00060CFFB01DC0102C005900D9241505040C8
:1049D000D8F708950E941725A59F900DB49F900DBC
:1049E000A49F800D911D11240895A1E21A2EAA1BE7
:1049F000BB1BFD010DC0AA1FBB1FEE1FFF1FA2178F
:104A0000B307E407F50720F0A21BB30BE40BF50B8B
:104A1000661F771F881F991F1A9469F76095709514
:104A2000809590959B01AC01BD01CF010895A29F97
:104A3000B001B39FC001A39F700D811D1124911D72
:104A4000B29F700D811D1124911D08955058BB27F0
:104A5000AA270E943E250C9488260E947A2638F0C8
:104A60000E94812620F039F49F3F19F426F40C941B
:104A700077260EF4E095E7FB0C947126E92F0E944F
:104A8000992658F3BA17620773078407950720F031
:104A900079F4A6F50C94BB260EF4E0950B2EBA2FF4
:104AA000A02D0B01B90190010C01CA01A001112434
:104AB000FF27591B99F0593F50F4503E68F11A16E0
:104AC000F040A22F232F342F4427585FF3CF469571
:104AD00037952795A795F0405395C9F77EF41F1693
:104AE000BA0B620B730B840BBAF09150A1F0FF0F5D
:104AF000BB1F661F771F881FC2F70EC0BA0F621F49
:104B0000731F841F48F4879577956795B795F79538
:104B10009E3F08F0B0CF9395880F08F09927EE0FCD
:104B20009795879508950E94A7250C9488260E9442
:104B3000812658F00E947A2640F029F45F3F29F040
:104B40000C94712651110C94BC260C9477260E946B
:104B5000992668F39923B1F3552391F3951B550BCF
:104B6000BB27AA2762177307840738F09F5F5F4F40
:104B7000220F331F441FAA1FA9F335D00E2E3AF07F
:104B8000E0E832D091505040E695001CCAF72BD097
:104B9000FE2F29D0660F771F881FBB1F26173707E8
:104BA0004807AB07B0E809F0BB0B802DBF01FF271A
:104BB00093585F4F3AF09E3F510578F00C94712660
:104BC0000C94BC265F3FE4F3983ED4F3869577952A
:104BD0006795B795F7959F5FC9F7880F911D9695D3
:104BE000879597F90895E1E0660F771F881FBB1F2F
:104BF000621773078407BA0720F0621B730B840BDC
:104C0000BA0BEE1F88F7E09508950E94A12688F060
:104C10009F5798F0B92F9927B751B0F0E1F0660F80
:104C2000771F881F991F1AF0BA95C9F714C0B130C1
:104C300091F00E94BB26B1E008950C94BB26672F2B
:104C4000782F8827B85F39F0B93FCCF386957795F0
:104C50006795B395D9F73EF49095809570956195D9
:104C60007F4F8F4F9F4F0895E89409C097FB3EF404
:104C700090958095709561957F4F8F4F9F4F9923A9
:104C8000A9F0F92F96E9BB279395F6958795779527
:104C90006795B795F111F8CFFAF4BB0F11F460FFE7
:104CA0001BC06F5F7F4F8F4F9F4F16C0882311F03F
:104CB00096E911C0772321F09EE8872F762F05C053
:104CC000662371F096E8862F70E060E02AF09A95EE
:104CD000660F771F881FDAF7880F9695879597F9E3
:104CE000089597F99F6780E870E060E008959FEF6E
:104CF00080EC089500240A94161617061806090673
:104D0000089500240A941216130614060506089541
:104D1000092E0394000C11F4882352F0BB0F40F4C9
:104D2000BF2B11F460FF04C06F5F7F4F8F4F9F4F09
:104D3000089557FD9058440F551F59F05F3F71F08B
:104D40004795880F97FB991F61F09F3F79F08795F2
:104D50000895121613061406551FF2CF4695F1DF7B
:104D600008C0161617061806991FF1CF869571050B
:104D7000610508940895E894BB2766277727CB013F
:104D800097F908950E94D5260C9488260E947A26C9
:104D900038F00E94812620F0952311F00C947126A2
:104DA0000C94772611240C94BC260E94992670F34B
:104DB000959FC1F3950F50E0551F629FF001729FC0
:104DC000BB27F00DB11D639FAA27F00DB11DAA1FCF
:104DD000649F6627B00DA11D661F829F2227B00D1C
:104DE000A11D621F739FB00DA11D621F839FA00DA7
:104DF000611D221F749F3327A00D611D231F849FF7
:104E0000600D211D822F762F6A2F11249F5750404D
:104E10009AF0F1F088234AF0EE0FFF1FBB1F661FC8
:104E2000771F881F91505040A9F79E3F510580F091
:104E30000C9471260C94BC265F3FE4F3983ED4F3A7
:104E4000869577956795B795F795E7959F5FC1F735
:104E5000FE2B880F911D9695879597F90895EE0F73
:0E4E6000FF1F0590F491E02D0994F894FFCF08
:104E6E00FFFFFFFFFFFFFFFF00E10000000000005B
:104E7E0000C1808100000012001300140031323393
:104E8E00050403207404216F04226A04236504249C
:104E9E006004255B04265604275104284C04294738
:104EAE00042A42042B3D042C38042D33042E2E04E8
:104EBE002F2904302404311F04321A04331504340C
:104ECE001004350B0436060437010438FC0339F799
:104EDE00033AF2033BED033CE8033DE3033EDE03FE
:104EEE003FD90340D40341CF0342CA0343C5034411
:104EFE00C00345BB0346B60347B10348AC0349A7FD
:104F0E00034AA2034B9D034C98034D93034E8E030D
:104F1E004F8903508403517F03527A035375035410
:104F2E007003556B03566603576103585C0359575C
:104F3E00035A52035B4D035C48035D43035E3E031D
:104F4E005F3903603403612F03622A036325036410
:104F5E002003651B03661603671103680C036907BC
:104F6E00036A02036BFD026CF8026DF3026EEE0231
:104F7E006FE90270E40271DF0272DA0273D5027415
:104F8E00D00275CB0276C60277C10278BC0279B721
:104F9E00027AB2027BAD027CA8027DA3027E9E0243
:104FAE00B0990260230100080100000000000069B2
:104FBE0004C6068A047F04D1048F04AD04000000E9
:104FCE0000D511F70374114314000000006907E2C5
:104FDE0007A7078C07000000002D0800000000D175
:104FEE000591056005000000003F19361944144371
:104FFE001400000000FB15531447140D0A005379DA
:10500E007374656D00566F6C756D6520557021005B
:10501E00566F6C756D6520446F776E21005468690C
:10502E0073206973206120766F6C756D65207072C8
:10503E006F6772616D0053797374656D20766F6C56
:10504E00756D6520736574757021002E63002E7466
:10505E00787400566F6C756D650053442043617211
:10506E0064204D6F756E746564005344204D6F75EA
:10507E006E7420417474656D70743A2000436172D1
:10508E0064204D6F756E74204661696C65640053C3
:0C509E006F756E64004D75746564000051
:00000001FF
