:100000000C94C7020C94EF020C94EF020C94EF02D4
:100010000C94EF020C94EF020C94EF020C94EF029C
:100020000C94EF020C94EF020C94461A0C94B51A3F
:100030000C94EF020C94EF020C94EF020C94EF027C
:100040000C94EF020C94EF020C94EF020C94EF026C
:100050000C94EF020C94EF020C94EF020C94E71C4A
:100060000C94EF020C94EF020C94EF020C94EF024C
:100070000C94EF020C94EF020C94EF020C94EF023C
:100080000C94EF020C94EF020C94EF020C94EF022C
:100090000C94EF020C94EF020C94EF020C94EF021C
:1000A0000C94EF020C94EF020C94EF02EAE00000D3
:1000B00000003AB80000C44244C049249064484457
:1000C00060000F84210F80000894514210000894B2
:1000D000214880000092AAAAAA4400000894514234
:1000E0000000252949C044E44460001D060B80033C
:1000F0004920001D29384200392972100019294968
:10010000800039294A400000FC9292929200AAA8ED
:1001100084254E52404124948AA88439294A4000BB
:100120001D29384C24E4444000192F41C0109D295A
:1001300049C000192849808439294B80001C274B6D
:10014000C088000000000003E02295100000C924D0
:10015000B088444220D24930F82108420F808A25D5
:10016000082082008A250852288088CA554AA5524C
:10017000A888008A28A25142008A28A28A2700F86B
:10018000820820820072281C0A2700F228BC9228CC
:1001900080790A1428531B00F228BC820800790ACF
:1001A0001428509E008B2CAA9A688082C6C6AAAAE0
:1001B000AA9200820820820F808A2928D2288010E3
:1001C00084214980AAA88A28BE8A2880309204E81F
:1001D000490C00F421C84200FA083E820F80E24830
:1001E000A28A4E00722820822700F228BE8A2F00A1
:1001F0007228A2FA28803E1049AA9AA5268819F8E2
:1002000072208C2002000418264000000F80F800A5
:10021000000099060800080A08087228A27827003A
:1002200072289C8A2700F82108210400720F228A74
:100230002700790F220A270010C524F841007220F8
:100240008C0A2700722084210F8026A22220722887
:10025000A28A270022444880000800003E000000D7
:10026000000A00823E208000A4A00000421112403B
:1002700024888420A8003090C309515D0044A4A8BC
:10028000541A2A440021CA3E2AA708514F94F9451E
:1002900000AAA00000AA880000AC00040400B0007E
:1002A000060600B600040400BA00030300BD000403
:1002B0000400C100060600C700060600CD000606C1
:1002C00000D300080800DB00060600E10005050079
:1002D000E600040400EA00050500EF00030300F255
:1002E00000050500F700050500FC000505000101FB
:1002F00005050006010808000E01020200100105B4
:100300000500150103030018010202001A0105058A
:10031000001F010505002401040400280105050053
:100320002D01050500320105050037010505003CDA
:1003300001050500410103030044010505004901D1
:100340000505004E0103030051010404005501039B
:10035000030058010606005E010606006401060659
:10036000006A01090900730106060079010606000A
:100370007F0106060085010606008B010606009136
:100380000107070098010606009E01070700A50166
:10039000060600AB01080800B301060600B9010615
:1003A0000600BF01050500C401020200C6010606E1
:1003B00000CC01070700D301050500D8010606009F
:1003C000DE01060600E401060600EA01060600F06A
:1003D00001060600F6010A0A0000020606000602EF
:1003E0000505000B020606001102050500160202B3
:1003F000020018020202001A020606002002060687
:100400000026020606002C0206060032020606003E
:1004100038020606003E0206060044020606004AAE
:10042000020404004E0206060054020404005802AE
:100430000202005A02060600600202020062020680
:10044000060068020404006C020404007002040444
:1004500000740202020076020707007D020808000D
:1004600085020606008B0206060091020404009530
:10047000020202009702020200000000002400278E
:10048000002A002D00300000000000230026002973
:10049000002C002F000000000200090F00000304E0
:1004A00001000C000000000000000000000000003F
:1004B00000000004080201104080401020408040ED
:1004C00080080204018040201002011080102040AA
:1004D000402000000000250028002B002E003100E5
:1004E00004040404040304050202020204030202D9
:1004F00002020606060606060404020202040408B6
:100500000B000202020000090400000102020000C8
:10051000052400100105240101010424020605241C
:100520000600010705810310004009040100020ACA
:10053000000000070502024000000705830240009A
:10054000000403090412010002EF0201404F1B06E0
:1005500092000101020301537061726B46756E00D7
:10056000537061726B46756E2050726F204D6963D7
:10057000726F00050C0901A1018504150026FF0317
:1005800019002AFF03950475108100C0641D112411
:100590001FBECFEFDAE0DEBFCDBF13E0A0E0B1E0D9
:1005A000E2E1F0E502C005900D92AE33B107D9F754
:1005B00027E0AEE3B3E001C01D92A43AB207E1F731
:1005C00012E0C7ECD2E004C02197FE010E9401288E
:1005D000C63CD107C9F70E94F91E0C9407280C9459
:1005E000000096E0899FD0011124AC5CB84F909632
:1005F0007C936E935F9791E091969C939197E09195
:10060000A107F091A2079091A007992339F03097A4
:1006100051F0811108C0809150070994309719F06A
:100620005C968C91FACF0895CF93DF93FC01818182
:1006300090910706482F490F5527551F48305105FF
:100640009CF5A281B381109709F523E036E033834E
:100650002283208120930506809306068091080658
:10066000820F808320910906A22FB0910A068A2F5B
:10067000821B8917E8F481813D91C82FD0E0C05FCB
:10068000DE4F38838F5F8183F2CFD90118962D9189
:100690003C91199721153105C1F723E036E01996F1
:1006A0003C932E931897D5CF80E0DF91CF9108959A
:1006B00081E0FBCFFC0180916503882311F13FB7F6
:1006C000F89482E08093E9002091F200822F90E07C
:1006D0001816190614F481E090E0882339F0289860
:1006E00044E6409364034091F1004083222339F0B3
:1006F0002091F200211103C02BE62093E8003FBFB8
:1007000008958FEF9FEF089540915E0350915F032E
:1007100020915C0330915D0342175307B4F490912C
:10072000E8009570E1F39091E80092FD19C0809384
:10073000F10080915E0390915F0301968F7399277A
:10074000892B19F48EEF8093E80080915E039091DD
:100750005F03019690935F0380935E0381E00895A9
:1007600080E00895DF92EF92FF920F931F93CF9353
:10077000DF93D82E8A01EB017B01E40EF51ECE1526
:10078000DF0559F0D7FE12C0FE0184910E94840358
:1007900021968111F4CF0FEF1FEFC801DF91CF91A8
:1007A0001F910F91FF90EF90DF9008958881EECF19
:1007B0002FB7F89487708093E9009091E800892F13
:1007C000807295FF04C09091F20080E4891B2FBFD6
:1007D0000895615030F02091F100FC0120830196D2
:1007E000F8CF289884E6809364030895AF92BF926F
:1007F000CF92DF92EF92FF920F931F93CF93DF93ED
:100800006C017B018B01040F151FEB015E01AE181B
:10081000BF08C017D10759F06991D601ED91FC913D
:100820000190F081E02DC6010995892B79F7C5016A
:10083000DF91CF911F910F91FF90EF90DF90CF90BC
:10084000BF90AF9008958091540381110DC082E054
:100850008093500384E080935103109253031092CD
:10086000520381E08093540380E593E008950F9351
:100870001F93CF93DF931F92CDB7DEB782E08983BA
:1008800042E450E06FEF74E080E80E94B2030E94FF
:100890002304DC0112960D911C910115110589F0BC
:1008A000D801ED91FC910280F381E02DBE016F5FD4
:1008B0007F4FC801099597FD04C0F8010085118597
:1008C000ECCF89810F90DF91CF911F910F91089507
:1008D000CF93DF931F92CDB7DEB76983DC01ED9133
:1008E000FC910280F381E02D41E050E0BE016F5F9A
:1008F0007F4F09950F90DF91CF91089583E080930A
:10090000E9008091F200882319F08AE38093E800DF
:10091000089583E00E94D80390E00895CF93DF9379
:100920001F92CDB7DEB7FC018485958597FD08C081
:100930002FEF3FEF358724870F90DF91CF910895F8
:10094000CE0101960E945A03019719F4898190E023
:10095000F3CF8FEF9FEFF0CF0F931F93CF93DF93E2
:100960001F92CDB7DEB78C01FC018485958597FF7A
:100970000BC0CE0101960E945A03019771F4898140
:1009800090E0F80195878487F801848595850F901C
:10099000DF91CF911F910F9108958FEF9FEFF1CFCE
:1009A000FC018485958597FD0BC09FB7F89482E084
:1009B0008093E9008091F2009FBF90E00196089536
:1009C0009FB7F89482E08093E9008091F2009FBF86
:1009D00090E0089581508F3008F047C0E82FF0E094
:1009E000EC50FB4F0C940128110515050305090572
:1009F0000D0535053505350518051E0522052605A5
:100A00002C0535053005809180008F77809380001C
:100A10000895809180008F7DF9CF80918000877F3D
:100A2000F5CF84B58F7784BD089584B58F7DFBCFD6
:100A3000809190008F77809390000895809190002E
:100A40008F7DF9CF80919000877FF5CF8091C00096
:100A50008F778093C00008958091C0008F7DF9CF7B
:100A60008091C200877F8093C2000895CF93DF9367
:100A7000282F30E0F901EB56FB4F8491F901ED543A
:100A8000FB4FD491F901E052FB4FC491CC23A1F06C
:100A900081110E94EA04EC2FF0E0EE0FFF1FE957EE
:100AA000FB4FA591B491EC91ED2381E090E009F426
:100AB00080E0DF91CF91089580E090E0FACF862F1B
:100AC0000C9436051F93CF93DF93282F30E0F90164
:100AD000EB56FB4F8491F901ED54FB4FD491F90192
:100AE000E052FB4FC491CC23A9F0162F81110E9434
:100AF000EA04EC2FF0E0EE0FFF1FEE52FB4FA59142
:100B0000B4918FB7F894EC91111108C0D095DE2301
:100B1000DC938FBFDF91CF911F910895DE2BF8CF2B
:100B2000862F642F0C946205CF93DF9390E0FC0135
:100B3000ED54FB4F249180529B4FFC0184918823FC
:100B4000C9F090E0880F991FFC01E758FB4FA59171
:100B5000B491FC01EE52FB4FC591D49161110DC0CF
:100B60009FB7F8948C91209582238C9388812823B9
:100B700028839FBFDF91CF910895623051F49FB7D2
:100B8000F8943C91822F809583238C93E8812E2BBF
:100B9000EFCF8FB7F894EC912E2B2C938FBFEACF29
:100BA000862F642F0C9494053FB7F89480914C03E2
:100BB00090914D03A0914E03B0914F0326B5A89B91
:100BC00005C02F3F19F00196A11DB11D3FBFBA2FDF
:100BD000A92F982F8827BC01CD01620F711D811D9F
:100BE000911D42E0660F771F881F991F4A95D1F724
:100BF00008958F929F92AF92BF92CF92DF92EF9221
:100C0000FF924B015C010E94D4056B017C010E94A4
:100C1000D4056C197D098E099F09683E73408105D2
:100C20009105A8F321E0821A9108A108B10888EE85
:100C3000C80E83E0D81EE11CF11C81149104A104AC
:100C4000B10429F7FF90EF90DF90CF90BF90AF9065
:100C50009F908F9008957F928F929F92AF92BF92B4
:100C6000CF92DF92EF92FF920F931F93CF93DF9378
:100C7000C82E8B017A0180916503811110C08FEF1E
:100C80009FEFDF91CF911F910F91FF90EF90DF9039
:100C9000CF90BF90AF909F908F907F90089580915C
:100CA000620380FF05C08091E00082608093E000D5
:100CB000CE2DDF2DD12C8AEFB82E8C2D8770982E5B
:100CC0008C2D8072882E8C2D8074782E9AE3A92E1C
:100CD000209719F4DD2009F452C08C2D0E94D8030E
:100CE00081110AC0BA94BB2051F261E070E080E04B
:100CF00090E00E94F905ECCF8C171D0611F00CF066
:100D00008C2F9FB7F8949092E9002091E80025FD80
:100D100002C09FBFDDCF282F30E0C21BD30B88203D
:100D200029F08150A0F01092F100FBCFF801C7FC30
:100D30000AC0815050F041914093F100FACF4491A4
:100D40004093F10031968150D0F7020F131FDD2040
:100D500021F0A092E800D12CDCCF8091E80085FD45
:100D600007C0A092E800DD24D394209791F2F3CF3E
:100D7000209779F6772069F2A092E800CACF5D98B3
:100D800084E680936303C7017CCFCF93DF93EC01AC
:100D900080910F01882331F083E00E942B06181602
:100DA000190634F081E090E09B838A8380E090E034
:100DB000DF91CF9108952FB7F89460914803709117
:100DC000490380914A0390914B032FBF08950F93DD
:100DD0001F93CF93DF93C82FD62F86E0C89FF001D3
:100DE0001124EC5CF84F11A2878D90A18130910500
:100DF000F1F058F082309105F1F1039709F440C009
:100E0000DF91CF911F910F9108956623C9F361E09F
:100E100070E08C2F0E94F1020E94DB0660938C0729
:100E200070938D0780938E0790938F07E9CF0E9470
:100E3000DB0600918C0710918D0720918E07309171
:100E40008F07AB01BC01401B510B620B730B8091F0
:100E50009E0790919F07B0E0A0E084179507A60732
:100E6000B70748F462E070E08C2FDF91CF911F91BB
:100E70000F910C94F10263E070E0D111C1CFF4CF77
:100E800070E060E0F1CF8EBD00000DB407FEFDCF35
:100E90008EB508958FEF0C9443070F931F93CF9354
:100EA000DF93EC010E94DB068B010E944A078F3F13
:100EB00069F00E94DB06601B710B6C177D07A8F3BD
:100EC00080E0DF91CF911F910F91089581E0F9CFDC
:100ED000DC01FB0112962C911297848195812817D1
:100EE000190641F491818081813A31F49D7F81E03E
:100EF000913009F080E008958132E1F79B3029F4C8
:100F000082811F968C9381E008959A3099F78281AF
:100F100050968C93F8CFDC01FB0188E4808389E450
:100F2000818384E482831D969C911D979F709F5BB3
:100F300093831D968D919C9124E0969587952A9593
:100F4000E1F78F708F5B848385E00895EF92FF92C5
:100F50000F931F93CF93DF93FB012081213871F50D
:100F60002381223259F5DC0112964C91248135817E
:100F70004217130619F5EC010B851C85F12CE12CA9
:100F80000115110589F0F801448155816281738151
:100F900080E80E94B2038F3F980749F0E80EF91EDF
:100FA000D8010D911C91ECCF81E08F87C701DF91B3
:100FB000CF911F910F91FF90EF90089590E080E006
:100FC000F6CFCF93DF93CDB7DEB769970FB6F8941E
:100FD000DEBF0FBECDBFFC01DB018C918F5F8C9318
:100FE0009E012D5F3F4F8DE0D9011D928A95E9F753
:100FF00029E0298384E08A8391E09D8383E08E83C6
:101000002A8721E22B879C879D879F8722E2288B56
:1010100027E02B8B25E02C8B8E8B20E430E0388F63
:101020002F8B998F82818B8395858685998B8A8B6F
:10103000838180688D8B49E150E0BE016F5F7F4FF7
:1010400080E00E94B20369960FB6F894DEBF0FBE2F
:10105000CDBFDF91CF910895CF92DF92EF92FF92B3
:101060001F93CF93DF931F92CDB7DEB77B016A0149
:101070008091140681112AC011E010930706109385
:1010800008068DE096E090930A0680930906109278
:101090000C0610920B0680E792E090930406809372
:1010A000030610920F0610920E061092110610926F
:1010B0001006109312061093130681EC80930D0610
:1010C0000E9423040E9414031093140684E0898371
:1010D00041E050E0BE016F5F7F4F809106060E94A5
:1010E0002B0697FD07C080910606A601B701806414
:1010F0000E942B060F90DF91CF911F91FF90EF90F0
:10110000DF90CF900895EAE2F6E02281338128173C
:10111000390711F413821282329626E0E233F20785
:10112000A1F748E050E06CE276E08AE296E00C94A9
:101130002C08ECE2F6E030E020E0419151912F5F85
:101140003F4F452B79F4220F331FF901E65DF94F2C
:101150009183808348E050E06CE276E08AE296E09A
:101160000C942C082430310541F7F4CFCF93CFB73E
:10117000F89480914003811127C0E1EFF4E084915D
:10118000E4ECF4E09491E82FF0E0EE0FFF1FE75855
:10119000FB4FA591B491EC91E92321F461E081E149
:1011A0000E94620561E081E10E9494058CB5806136
:1011B0008CBD8CB580648CBD61E08FE00E9494058D
:1011C00061E080E10E949405809140038F5F8093ED
:1011D0004003CFBFCF910895CF93DF93EC01CD2F84
:1011E000DD27C695C695C695AFE0B2E0CA9FF0016F
:1011F000CB9FF00DDA9FF00D11247796C6E0F6959F
:10120000E795CA95E1F7EB01E883FC01D5E0F69597
:10121000E795DA95E1F7EF73FF27C3E0D1E0EC9FA4
:10122000B001ED9F700DFC9F700D11246F5D7F4F1D
:10123000E6E076956795EA95E1F7FA016083AC01FF
:101240004F7155274A9FC0014B9F900D5A9F900D9B
:1012500011244796F6E096958795FA95E1F7E9010E
:101260008883DF91CF910895DC015596ED91FC9133
:10127000569790815A968C91892B80837EBD0DB4B0
:1012800007FEFDCF6EBD0DB407FEFDCF0895DC0156
:101290005596ED91FC91569790815A968C91892B99
:1012A00080836EBD0DB407FEFDCF0895DC01559619
:1012B000ED91FC91569790815A968C918095892357
:1012C00080836EBD0DB407FEFDCF0895DF92EF92CF
:1012D000FF920F931F93CF93DF93EC01D62E142F21
:1012E000F22EEE2039F08FA9882321F0F02E022F64
:1012F000D42E162F65E1CE010E9456096D2DCE0128
:101300000E9447096F2DCE010E94470965E7CE0173
:101310000E945609612FCE010E944709602FCE011D
:101320000E9447096CE5CE01DF91CF911F910F918B
:10133000FF90EF90DF900C945609DC015596ED91EB
:10134000FC91569790815A968C91892B80832150DD
:1013500031094109510948F00DB407FEFDCF7EBDAA
:101360000DB407FEFDCF6EBDF2CF0DB407FEFDCF6D
:101370000895FC0124A52130F9F42FE9260F2A3124
:1013800008F46052FC01A0A1B1A12C9130E090E0E2
:1013900080E082179307C4F4AC01440F551F480F37
:1013A000591F1196ED91FC911297E40FF51F4081A2
:1013B000461761F00196EDCF223021F72FEB260F73
:1013C0002A3100F7605EDECF8FEF9FEF08952F92F6
:1013D0003F924F925F926F927F928F929F92AF92C5
:1013E000BF92CF92DF92EF92FF920F931F93CF9312
:1013F000DF93CDB7DEB762970FB6F894DEBF0FBEAE
:10140000CDBF5C01390148012701223031050CF0C4
:101410002DC10230110544F58A010F5F1F4F9B015A
:101420002F5F3F4FEE24E394C5010E946609B2018D
:10143000C5010E94340962960FB6F894DEBF0FBE54
:10144000CDBFDF91CF911F910F91FF90EF90DF9073
:10145000CF90BF90AF909F908F907F906F905F9054
:101460004F903F902F900895040F151F01501109C0
:10147000EE24E3949B01C5010E946609B201C501F7
:101480000E943409B1E08B1A9108C1F7D4CF8401CE
:10149000040F151F0150110921503109EE24E39466
:1014A000C5010E9466094C145D0409F4CFC09E0179
:1014B0002E5F3F4FAE014C5F5F4FBE016A5F7F4FB3
:1014C000C2010E94EC089E012F5F3F4FAE014D5FAD
:1014D0005F4FBE016B5F7F4FC6010E94EC08312C4D
:1014E000212CC401B0E0A0E08B879C87AD87BE872C
:1014F000C301770CAA0BBB0B8F87988BA98BBA8B78
:10150000B10190E080E00E9406276B017C016B85B1
:101510007C858D859E850E9406279B01AC01C701B5
:10152000B6010E9465266B017C01AC019B0160E065
:1015300070E080E89FE30E94F8252B013C016E815A
:1015400070E090E080E00E940827A30192010E94D1
:1015500094276F83788789879A876D8170E090E000
:1015600080E00E940827A70196010E9494279B0112
:10157000AC016F81788589859A850E94F9250E9442
:10158000D726062F10E0102F00270027187F6C8128
:1015900070E090E080E00E940827A30192010E9481
:1015A00094276F83788789879A876B8170E090E0B2
:1015B00080E00E940827A70196010E9494279B01C2
:1015C000AC016F81788589859A850E94F9250E94F2
:1015D000D72698E0699FB0011124607E7770062BB2
:1015E000172B6A8170E090E080E00E940827A30139
:1015F00092010E9494272B013C01698170E090E0E8
:1016000080E00E940827A70196010E9494279B0171
:10161000AC01C301B2010E94F9250E94D72670E0F7
:1016200093E0759567959A95E1F7602B712B2F855F
:10163000388949895A89C5010E949D09AFEF2A1A44
:101640003A0A8214930409F05BCFF5CE689C9001AE
:10165000699C300D789C300D1124032E000C440B36
:10166000550BB201C5010E949D09E5CE260F371F1B
:10167000023011050CF00BCF21503109EE24E39418
:101680008A01C5010E946609B201C5010E943409A0
:10169000A1E06A1A7108C1F7CECE1F93CF93DF93F2
:1016A000EC01142F0E945609612FCE01DF91CF91DA
:1016B0001F910C944709089561E0FC0184810E9408
:1016C00062058091410381111092410308958CBD00
:1016D0009DBD0895CF93DF93EC018091410381116B
:1016E00009C081E0809341038091B8059091B905CC
:1016F0000E94670B60E08C81DF91CF910C946205B2
:101700008F929F92AF92BF92FF920F931F93CF93AE
:10171000DF93EC01F62E49015A018E81882389F06E
:101720008F8198859C012F5F3F4F38872F838230B0
:10173000924018F40E944A07F3CFCE010E945C0B3E
:101740001E82CE010E946A0B8CE291E00E944D073E
:101750008F2D80640E94430708E110E0D501C40189
:10176000002E04C0B695A795979587950A94D2F751
:101770000E94430708501109083F8FEF180771F7BF
:1017800085E9FF2021F028E087E8F2128FEF0E9420
:10179000430710E00E944A078A8787FF04C01F3F63
:1017A00011F01F5FF7CFDF91CF911F910F91FF9045
:1017B000BF90AF909F908F900895CF92DF92EF925D
:1017C000FF920F93CF93DF93EC01690182E1411502
:1017D00051056105710599F08B85833039F089E0F9
:1017E000440F551F661F771F8A95D1F79A01AB01E9
:1017F00068E1CE010E94800B882319F084E08D837C
:101800002DC08EEF0E94430776018EEFD81AF701A4
:1018100081917F010E944307EC14FD04C1F78FEF13
:101820000E9443078FEF0E9443070E944A078A875E
:101830008F71853071F4011116C0CE010E945C0BCE
:1018400081E0DF91CF910F91FF90EF90DF90CF90EB
:10185000089581E18D83CE010E945C0BCE010E9430
:101860005C0B80E0EECF88E592E00E944D0781118D
:1018700002C085E1C4CF20E030E0A9016DE0CE01D7
:101880000E94800B882311F084E1B9CF0E944A079F
:101890008111FACFD2CF0F9340914303509144036B
:1018A000609145037091460341155105610571052D
:1018B00099F0082F26E633E0809166059091670540
:1018C0000E94DD0B882349F01092430310924403D9
:1018D000109245031092460381E00F9108950F93F3
:1018E000CF93C82F80914203811105C0C1E08C2F96
:1018F000CF910F91089540910001509101016091A5
:101900000201709103010C2F26E633E080916605F9
:10191000909167050E94DD0B811102C0C0E0E7CF06
:10192000CC2321F381E00E944B0C8823B9F3109261
:101930004203DDCF9F92AF92BF92CF92DF92EF92A0
:10194000FF920F931F93CF93DF936B017C01942E33
:101950008091000190910101A0910201B0910301D9
:101960008C159D05AE05BF0509F494C081E00E9469
:101970006F0C882389F1C0916605D09167058E812F
:10198000882371F088819981AA81BB81C816D90604
:10199000EA06FB0629F48F819885892B09F443C058
:1019A000C882D982EA82FB828B85A70196018330A7
:1019B00039F099E0220F331F441F551F9A95D1F734
:1019C00061E1CE010E94800B882391F083E08D833A
:1019D000CE010E945C0B80E0DF91CF911F910F91AF
:1019E000FF90EF90DF90CF90BF90AF909F900895C1
:1019F0000E94DB068B010E944A078A878F3F69F4A9
:101A00000E94DB06601B710B6D327140A0F38FE00A
:101A10008D83CE010E945C0BDBCF8E3F69F518866B
:101A20001F8281E08E8306E613E086E6A82E85E01D
:101A3000B82E0E944A07F80181938F01AE16BF06A7
:101A4000C1F78F8198859E5F98878F832985222390
:101A500019F081159240B0F08E81882399F08F8122
:101A600098859C012F5F3F4F38872F8382309240AB
:101A700028F40E944A07F3CF8DE0CACFCE010E941E
:101A80005C0B1E82C0920001D0920101E092020123
:101A9000F09203014091420349294093420381E0BF
:101AA0009BCF8F929F92AF92BF92CF92DF92EF9295
:101AB000FF92CF932AEB35E03093670520936605BC
:101AC000882309F46DC040E060E070E0CB010E9423
:101AD0009A0C81110BC080E0CF91FF90EF90DF90C6
:101AE000CF90BF90AF909F908F90089580912405E4
:101AF0008F7789F78091300590913105A09132055B
:101B0000B091330584369105A105B10520F3C0904D
:101B10002C05D0902D05E0902E05F0902F05C114D6
:101B2000D104E104F104B9F240E0C701B6010E941A
:101B30009A0C882381F28091710390917203811530
:101B4000924049F6A0917603AA2329F2609174038A
:101B5000709175036115710509F4BDCF2091730370
:101B6000222309F4B8CFA093D8052093CA0590E0AA
:101B700080E030E0E1E0F0E0C82FAF01082E02C0C5
:101B8000440F551F0A94E2F72417350769F041E026
:101B9000480F01968930910579F74093D3059BCF83
:101BA000C12CD12C7601C0CF8093D30520917C032A
:101BB00030917D0350E040E02115310541F4209142
:101BC0008A0330918B0340918C0350918D032093B5
:101BD000CB053093CC054093CD055093CE054601FF
:101BE0005701860E971EA11CB11C8092D9059092B8
:101BF000DA05A092DB05B092DC05E0917703F09165
:101C00007803F093DF05E093DE05B0E00E94BC2589
:101C1000DC01CB01880D991DAA1DBB1D8093E00539
:101C20009093E105A093E205B093E30525E0EE0F64
:101C3000FF1F2A95E1F7E150FE4FEF2FFF27E695B2
:101C40008E0F9F1FA11DB11D8093D4059093D505C4
:101C5000A093D605B093D7058090790390907A032E
:101C6000B12CA12C8114910441F4809086039090B2
:101C70008703A0908803B0908903C81AD90AEA0A9A
:101C8000FB0AC80CD91CEA1CFB1C04C0F694E794A0
:101C9000D794C794CA95D2F7C092CF05D092D005F9
:101CA000E092D105F092D20585EFC8168FE0D806F4
:101CB000E104F10428F48CE08093DD0581E00CCF91
:101CC00080E125EFC2162FEFD206E104F104A0F364
:101CD0008091920390919303A0919403B091950306
:101CE0008093E0059093E105A093E205B093E305AE
:101CF00080E2E2CF4F925F926F927F928F929F929B
:101D0000AF92BF92CF92DF92EF92FF920F931F9309
:101D1000CF93DF93EC01423051056105710590F4DA
:101D200080E0DF91CF911F910F91FF90EF90DF90B6
:101D3000CF90BF90AF909F908F907F906F905F906B
:101D40004F90089589859A85AB85BC850196A11D24
:101D5000B11D84179507A607B70710F3CB88DC8859
:101D6000ED88FE888F89803109F042C0BB27A72FFC
:101D7000962F852F480159012A013B01C80ED91E13
:101D8000EA1EFB1E8091000190910101A0910201C9
:101D9000B0910301C816D906EA06FB0699F58F89AA
:101DA0008031C1F5B301A201552766277727440F7B
:101DB000551F4A595C4FFA019182808280914203FB
:101DC0008160809342038A89823080F08D819E8178
:101DD000AF81B8858C0D9D1DAE1DBF1D8093430343
:101DE00090934403A0934503B093460381E099CFB9
:101DF000DB01CA01E7E0B695A79597958795EA9527
:101E0000D1F7B8CF40E0C701B6010E949A0C81110A
:101E1000C6CF86CFB301A2014F7755276627772714
:101E2000440F551F440F551F4A595C4FFA018082D9
:101E30009182A282B382C2CF8F929F92AF92BF92C1
:101E4000CF92DF92EF92FF920F931F93CF93DF9386
:101E5000FC0181859285A385B4850196A11DB11DE4
:101E600084179507A607B70770F480E0DF91CF913C
:101E70001F910F91FF90EF90DF90CF90BF90AF90A8
:101E80009F908F90089583889488A588B6888789C5
:101E9000803189F5BB27A72F962F852FE9016A018D
:101EA0007B018F01BC01CD01680D791D8A1D9B1D31
:101EB0008090000190900101A0900201B090030178
:101EC00086169706A806B90601F5F80187898031BC
:101ED00011F5DD24EE24FF24F601EE0FFF1FEA5971
:101EE000FC4F80819181B0E0A0E088839983AA8330
:101EF000BB8381E0BBCFDB01CA01C7E0B695A795E4
:101F000097958795CA95D1F7C9CF40E00E949A0C62
:101F10008111DBCFAACFE894C7F8DD24EE24FF249B
:101F2000F601EE0FFF1FEE0FFF1FEA59FC4F8081F5
:101F30009181A281B381BF70D8CF8F929F92AF92CF
:101F4000BF92CF92DF92EF92FF920F931F93CF93A6
:101F5000DF93EC018D8181110EC080E0DF91CF9184
:101F60001F910F91FF90EF90DF90CF90BF90AF90B7
:101F70009F908F9008950B891C892D893E890417A5
:101F800015072607370748F34A015B01823031F411
:101F90008A869B86AC86BD8681E0E0CF8114910461
:101FA000A104B10449F41E821F82188619861A867C
:101FB0001B861C861D86F0CF0A851B852C853D85DA
:101FC000EB8DFC8D858590E00996B901A801415003
:101FD000510961097109082E04C0769567955795D6
:101FE00047950A94D2F775016401E1E0CE1AD10851
:101FF000E108F10804C0F694E794D794C7948A9551
:10200000D2F7C416D506E606F70620F0012B022B00
:10201000032B11F58F89988DA98DBA8D8E839F839F
:10202000A887B9878E010A5F1F4FC114D104E1044C
:10203000F10409F4ADCF4E815F81688579859801FF
:102040008B8D9C8D0E941C0F91E0C91AD108E1086C
:10205000F1088111EACF81CFC41AD50AE60AF70A3E
:10206000E1CF3F924F925F926F927F928F929F92B9
:10207000AF92BF92CF92DF92EF92FF920F931F9396
:10208000CF93DF93CDB7DEB72C970FB6F894DEBFB2
:102090000FBECDBF5C01DC015B968D909C905C9780
:1020A00016964D905D906D907C9019974114510457
:1020B0006104710409F468C0BFEF4B1A5B0A6B0A34
:1020C0007B0A312CF40181859285A385B4859C011E
:1020D000AD012F5F3F4F4F4F5F4F29873A874B87A7
:1020E0005C87730162011D821E821F821886F401C3
:1020F00081859285A385B4852D813E814F81588548
:10210000281739074A075B0708F056C089859A8562
:10211000AB85BC858C159D05AE05BF0550F482E0EE
:10212000C82ED12CE12CF12C92E0492E512C612C9F
:10213000712C9E012F5F3F4FB701A601C4010E9481
:102140001C0F8823C9F189819A81AB81BC81892BBD
:102150008A2B8B2B09F1260137019FEF491A590A67
:10216000690A790A2D813E814F8158852F5F3F4F43
:102170004F4F5F4F2D833E834F8358873FEFC31AE6
:10218000D30AE30AF30AB3CFF4014080518062809E
:1021900073803324339496CFC414D504E604F70433
:1021A00009F70FEF1FEF2FEF3FE0B701A601C401C2
:1021B0000E947A0E811119C080E02C960FB6F89417
:1021C000DEBF0FBECDBFDF91CF911F910F91FF906A
:1021D000EF90DF90CF90BF90AF909F908F907F90C7
:1021E0006F905F904F903F900895D50116964D9156
:1021F0005D916D917C9119974115510561057105AE
:1022000039F097018601C4010E947A0E8823A1F259
:10221000D5011696CD92DD92ED92FC92199733205E
:1022200051F0D701C6010196A11DB11DF4018083B3
:102230009183A283B383F5018789908DA18DB28D9F
:10224000892B8A2B8B2B39F48481C78AD08EE18E1F
:10225000F28E80688483F50184818062848381E0CA
:10226000ACCF1F93CF93DF93EC01162F8C8187FFA8
:102270002AC06E857F858889998941E00E949A0CE1
:10228000882361F1EA8980E2E89FF0011124EA598C
:10229000FC4F309719F18D81823040F48B899C89F5
:1022A000AD89BE89848F958FA68FB78F8F89988DC2
:1022B000938F828F8F89988DA98DBA8DB58BA48BC2
:1022C0008C818F778C83111103C08C818F7E8C83DE
:1022D000812FDF91CF911F910C946F0C80E0DF91E3
:1022E000CF911F910895FF920F931F93CF93DF9388
:1022F000EC018D81813041F090E080E0DF91CF9161
:102300001F910F91FF9008958C8181FFF5CF82FD81
:102310001EC00091660510916705C8010E946A0BF6
:102320000E944A07F82EC8010E945C0B8FEFF8123A
:10233000E3CF8C8185FF1EC08D81882321F060E072
:10234000CE010E9431118C818F7D8C83D5CF4B893A
:102350005C896D897E898A859B85AC85BD8584175E
:102360009507A607B707A9F2CE010E949D0F81111C
:10237000D0CFC2CF409143035091440360914503B5
:1023800070914603452B462B472B21F080E00E949D
:102390004B0CB2CF80618C832A853B85317080E005
:1023A00092E0821B930BAACF9F92AF92BF92CF92E3
:1023B000DF92EF92FF920F931F93CF93DF9300D0A2
:1023C00000D01F92CDB7DEB78C016D83DC0115966E
:1023D0008C911597813009F0B9C014968C9181FFCA
:1023E000B5C082FD9FC0D8015B96ED91FC915C97D2
:1023F0001A96AD90BD90CD90DC901D9794809A94E4
:10240000B601A50189E076956795579547958A9518
:10241000D1F79422B1E0BB22992009F49FC0D801E2
:102420005B96ED91FC915C971696CD90DD90ED90CA
:10243000FC901997B2E0CB1AD108E108F108858524
:1024400004C0CC0CDD1CEE1CFF1C8A95D2F746851F
:10245000578560897189C40ED51EE61EF71EC90C0A
:10246000D11CE11CF11CA114B10409F00AC1F8014E
:10247000428553856485758583899489A589B68944
:10248000481759076A077B0708F4FBC081E00E94E0
:102490006F0C882309F45AC0C0920001D092010148
:1024A000E0920201F09203018091420381608093E7
:1024B0004203F501EA59FC4F8D818083F801828542
:1024C0009385A485B5850196A11DB11D828793874B
:1024D000A487B58743895489658976894817590740
:1024E0006A077B0738F42481838B948BA58BB68B8A
:1024F00020682483D80114968C9183FD9FC081E0CD
:1025000090E00F900F900F900F900F90DF91CF9170
:102510001F910F91FF90EF90DF90CF90BF90AF9001
:102520009F900895F8014389548965897689828549
:102530009385A485B585481759076A077B0709F471
:1025400052CFC8010E949D0F81114DCF81E090E0D4
:10255000D80113969C938E93129749C0D801169672
:102560004D915D916D917C911997A114B10409F081
:1025700071C0411551056105710589F557968D9119
:102580009D910D90BC91A02D0097A105B10509F07A
:102590004FC0C8010E9431108823C1F2D8015B9658
:1025A000ED91FC915C971696CD90DD90ED90FC90AE
:1025B0001997B2E0CB1AD108E108F108858504C06B
:1025C000CC0CDD1CEE1CFF1C8A95D2F74685578586
:1025D00060897189C40ED51EE61EF71E48CF9E0184
:1025E0002F5F3F4FCF010E941C0F811103C090E06D
:1025F00080E087CF89819A81AB81BC81F801238DEE
:10260000348DF901278948EF5FEF60E070E02031F9
:1026100021F048EF5FEF6FEF7FE084179507A60783
:10262000B70730F0C8010E9431108111F8CE8ECF6B
:10263000F80186839783A087B187F1CEF801858161
:10264000882309F483CF61E0C8010E943111811110
:1026500056CF7CCF6A017B01B2E0CB1AD108E108EA
:10266000F108858504C0CC0CDD1CEE1CFF1C8A958E
:10267000D2F74685578560897189C40ED51EE61E3E
:10268000F71E41E0C701B6010E949A0C811111CFDB
:102690005DCFCF92DF92EF920F931F93CF93DF9393
:1026A000EC016B0180913406909135060E94670B16
:1026B000EB89FC899081898D809589238083E12C29
:1026C0000FE710E02FE730E050E040E070E060E01E
:1026D000CE010E94660920E030E440E050E0B601FF
:1026E000CE010E949D09EB89FC898081998D892BFF
:1026F0008083DF91CF911F910F91EF90DF90CF906A
:102700000895CF93DF93EC0168AD79AD0E94491332
:102710001C861B861A861986DF91CF91089508952D
:1027200090E080E00895FC017383628355834483C5
:1027300082E090E091878087DB0198968C93989750
:1027400097968C9381E08683DA011C961C92738B9A
:10275000628B758B648B778B668B08952F923F927B
:102760004F925F926F927F928F929F92AF92BF92A1
:10277000CF92DF92EF92FF920F931F93CF93DF934D
:10278000CDB7DEB76B970FB6F894DEBF0FBECDBFE7
:102790009E838D833B014A875B8738872F8318018F
:1027A000C9862DB73EB7398F288FC80101966DB7FE
:1027B0007EB7681B790B0FB6F8947EBF0FBE6DBF56
:1027C0008DB79EB701969D878C87E9A9FAA92BA999
:1027D0003CA9E217F307C9F0AE9C8001AF9C100D35
:1027E000112488A9820D932D911DC89E9001C99E28
:1027F000300D1124CBA8DCA876014F8158856A855D
:102800007B858D819E810E94E7092301B301680DBC
:10281000791D798B688B50E040E0B12C20E08A2D47
:1028200090E09F878E873985329DF001339DF00DB2
:102830001124FB8FEA8F688979896415750509F47D
:1028400093C0F201849167E070E07C836B83E82F92
:10285000F0E0FF8BEE8BEC85FD85E20FF11D8E899C
:102860009F890B8002C0959587950A94E2F7382FCF
:10287000317030832F5F81709927480F591F2215BF
:102880001304E9F441155105B1F02416350621F57C
:102890004F81AB9C400D112450E0CBA8DCA8E9A8E7
:1028A000FAA80E851F852A8D3B8D6A857B858D81D3
:1028B0009E810E94E709B39450E040E020E06B81E4
:1028C0007C81615071097C836B836F3F7F4F19F668
:1028D0009FEF491A590AAFCF2F813885AB9C200D45
:1028E000311D11243B8B2A8B3A8539834B854A83D2
:1028F000712C612C812CAC85BD85A60DB71D621491
:102900007304CCF62C91FD01C30128163906BCF3E3
:102910003191231306C02816390619F083940196C5
:10292000F4CF682D70E07D8B6C8B7985789D4001AC
:102930001124222371F0C9A8DAA876010E851F851B
:1029400094014A895B8969817A818D819E810E9487
:10295000E7098C899D89680E791EE981FA81E80D65
:10296000F91DFA83E983C6CFE88DF98D0FB6F89487
:10297000FEBF0FBEEDBF6B960FB6F894DEBF0FBE65
:10298000CDBFDF91CF911F910F91FF90EF90DF901E
:10299000CF90BF90AF909F908F907F906F905F90FF
:1029A0004F903F902F900895FB0101900020E9F790
:1029B0003197AF01461B570BDC01ED91FC91028072
:1029C000F381E02D09944F925F926F927F928F92E4
:1029D0009F92AF92BF92CF92DF92EF92FF920F93AE
:1029E0001F93CF93DF93CDB7DEB7A1970FB6F894BF
:1029F000DEBF0FBECDBF8C016B01770FEE08FF0865
:102A0000F7FE50C0DC01ED91FC910190F081E02DCA
:102A10006DE209955C0122273327A9012C193D0994
:102A20004E095F0919A2FE01B1967F019AE0492E75
:102A3000512C612C712CCA01B901A30192010E9491
:102A4000C725605DD7016E937D01211531054105D4
:102A5000510589F790E080E0109721F0BD01C80191
:102A60000E94D414A80EB91E6EE972E0C8010E943B
:102A7000D4148A0D9B1DA1960FB6F894DEBF0FBE2D
:102A8000CDBFDF91CF911F910F91FF90EF90DF901D
:102A9000CF90BF90AF909F908F907F906F905F90FE
:102AA0004F900895A701960119A2FE01B1967F01EA
:102AB0008AE0882E912CA12CB12CCA01B901A50164
:102AC00094010E94C725605DD7016E937D01211599
:102AD00031054105510589F7B12CA12C109721F240
:102AE000BD01C8010E94D4145C01BECF0F931F9397
:102AF000CF93DF93EC010E94D4148C016EE972E055
:102B0000CE010E94D414800F911FDF91CF911F91AD
:102B10000F91089582EE90E00E94990882EE90E075
:102B20000E948308E0911507F09116079589838923
:102B30009923D1F0158A8823B1F0809113079091E1
:102B400014070E94811361EA72E08091130790914B
:102B500014070E94761568EA72E08091130790913D
:102B600014070E947615089591E0958B8823D9F378
:102B700080911307909114070E94811361EA72E01B
:102B800080911307909114070E9476156EEA72E007
:102B9000E4CF0F931F93CF93DF93EC0110E000E09D
:102BA000662309F457C0EC81FD8126813781021725
:102BB00013075CF489EE90E00E94990889EE90E09A
:102BC0000E9483080F5F1F4FEECF44815581249FE1
:102BD000C001259F900D349F900D112421893289C9
:102BE000820F931F8536910594F5928B818B858991
:102BF0008111158A8389882321F18A899B890E9402
:102C0000811361EA72E08A899B890E94761564EBE0
:102C100072E08A899B890E9476158A899B8924E0C3
:102C2000FC0120A727A3EC81FD81618972890E94A4
:102C3000E314EA89FB898885811101C081E080A7BE
:102C400087A381E0DF91CF911F910F91089584E6D2
:102C500090E0CBCFEC81FD81868197810817190721
:102C60005CF48AEE90E00E9499088AEE90E00E945F
:102C700083080F5F1F4FEECF44815581849F9001E1
:102C8000859F300D949F300D112481899289821B7C
:102C9000930B1816190624F5928B818B8389882350
:102CA00081F28C899D890E94811361EA72E08C898E
:102CB0009D890E9476156FEB72E08C899D890E9438
:102CC00076158C899D8924E0FC0120A727A3EC813F
:102CD000FD81618972890E94E314EC89FD89ABCF83
:102CE000128A118A81E0858BD9CFCF93DF93FC01C3
:102CF0002781211114C0EC01828193810E948113EC
:102D00008A819B812FEF3FEFFC0136A325A334A3DB
:102D100023A36CEC72E00E94761581E08F8381E042
:102D2000DF91CF910895EF92FF920F931F93CF936E
:102D3000DF93EC018A819B810E94811363ED72E035
:102D40008A819B810E94761561EA72E08A819B816B
:102D50000E9476156FED72E08A819B810E94761544
:102D6000EC81FD81138A00E510E060E0CE010E9455
:102D7000C9156AE070E080E090E00E94F90501501A
:102D8000110999F7EC81FD81128A118AE280F380A2
:102D900011E0EC81FD81818992898E159F058CF46B
:102DA0006AE070E080E090E00E94F90561E0CE0109
:102DB0000E94C915112369F3EC81FD81138A10E08B
:102DC000E8CFEC81FD8181899289E816F9068CF4BF
:102DD0006AE070E080E090E00E94F90560E0CE01DA
:102DE0000E94C915112369F3EC81FD81138A10E05B
:102DF000E8CF81E0838B8A819B810E94811361EA05
:102E000072E08A819B810E94761565EE72E08A816C
:102E10009B810E9476158A819B8124E0FC0120A77A
:102E200027A3EC81FD81618972890E94E314EA8104
:102E3000FB818885811101C081E080A787A30E9462
:102E4000DB066E877F87888B998B0E94DB060E8559
:102E50001F8528893989601B710B820B930B0A85AA
:102E60001B852C853D85601771078207930728F421
:102E7000EC81FD818285882341F38A819B810E94B8
:102E8000811361EA72E08A819B810E94761563EF6B
:102E900072E08A819B810E94761560ED77E080E088
:102EA00090E0DF91CF911F910F91FF90EF900C94E4
:102EB000F9052F923F924F925F926F927F928F927D
:102EC0009F92AF92CF92DF92EF92FF920F931F9358
:102ED000CF93DF93EC013B011A01452B51F4FB0129
:102EE00001900020E9F731971F01261A370A09F4EB
:102EF00069C219A5112309F491C0C8A0D9A0D601AF
:102F000013968C917301512C412C882309F459C0DC
:102F10008E8D9F8D289E2001299E500C389E500C2E
:102F200011242FA1249DC001259D900D112497FDF2
:102F3000019695958795F60124813581231B330BE6
:102F400068A5629FA001639F500D112457FF02C026
:102F50004F5F5F4F559547952FA9143008F0B8C0C3
:102F6000222309F496C0113009F03CC02D813E8126
:102F700037FF02C02F5F3F4F35952795281B31093A
:102F80003C872B873EC06D30E1F06A30D1F0CE0136
:102F90000E94B90997FD15C0FC01EE0FFF1F8E0FAF
:102FA0009F1FD6011196ED91FC91E80FF91F01804A
:102FB000F281E02D3296E4914E0E511CEAA14E0EA4
:102FC000511CC70186199709821593050CF0A9CFEA
:102FD000F70161917F016032B1F68E8D9F8D480EB1
:102FE000591EEFCF2F81388537FF02C02F5F3F4F2B
:102FF00035952795241B31093A872987123009F026
:10300000B5CF89859A8597FF02C01A8619868B8568
:103010009C8597FF02C01C861B8619A680913406EA
:10302000909135060E94670BEB89FC899081898D10
:10303000809589238083260C371C2614370409F4D5
:10304000BBC1D3016D913D016D30B9F36A3009F018
:1030500072C0E8A1F9A184819AA5890F98A5899FDA
:10306000802D112490E02FA9211152C02B853C8581
:103070004F815885280F391F421753070CF49CC104
:103080001A8619862B853C85820F931F9C878B8718
:10309000D4CF113069F42D813E8137FF02C02F5FFC
:1030A0003F4F35952795281B31093A872987A9CFA6
:1030B0002F81388537FF02C02F5F3F4F3595279509
:1030C000241B31093C872B87123009F49ACFE3CFB8
:1030D000222379F0143019F42B853C854FCF2985B4
:1030E0003A85241B31093A872987153009F489CF9D
:1030F000F3CF143019F429853A85D5CF2B853C853B
:10310000241B31093C872B87153009F47ACFF3CF84
:1031100029853A854D815E81280F391F4217530753
:103120000CF44AC129853A85820F931F9A878987B3
:103130001C861B8682CF603209F06BC0FAA18E8D8F
:103140009F8D8F0F911D2BA13CA1EDA0FEA04FA93B
:10315000411133C0EFA1E89F502C1124E216F30671
:1031600029F189859A852D813E81850D911D8217D2
:10317000930734F08D819E8129853A85582E521A05
:103180004B855C8569857A85A8A1B9A114968C9137
:1031900008A5809F80011124252D30E0FE9F200D81
:1031A000311D11246701CE010E94E70989859A85A6
:1031B000850D911D9A87898740CF98A4989E902C61
:1031C0001124E216F30601F18B859C852F81388549
:1031D000890D911D8217930734F08F8198852B8577
:1031E0003C85982E921A49855A856B857C85E8A185
:1031F000F9A104818FA1089F80011124292D30E0BD
:103200006701CE010E94E7098B859C85890D911D80
:103210003DCFCE010E94B90997FD0FCFA8A1B9A15A
:103220008C01000F111F080F191F1196ED91FC91D1
:103230001297E00FF11F61817281FB013296D490E9
:103240004D2C512C8FA94AA19BA5992309F4A1C00B
:10325000811179C089859A855FA12D813E81D59E96
:10326000800D911D1124549F800D911D11248217F2
:103270009307A4F01A8619862B853C8514964C91E9
:103280008AA5480F5527551FE8A5E49FC001E59F73
:10329000900D1124820F931F9C878B8742E050E092
:1032A0008EE393E00E94B32560913E0370913F034B
:1032B000A8A1B9A111968D919C911297080F191F81
:1032C000F80181819281FC013396859094909FA9A9
:1032D00014968C9191118CC04B855C85E82EF12C55
:1032E000A8A42F8138858A9D400D511D11242417D3
:1032F00035070CF461C02B853C8549855A858EA124
:103300008F938DA18F938CA18F938BA18F938AA183
:103310008F93CFA08201CE010E94AE1329853A85FA
:103320009AA1490E511C4FA1449DC001459D900D8D
:103330001124820F931F9A8789870F900F900F9007
:103340000F900F907ACE8B859C8558A52D813E815C
:10335000D59E800D911D1124549F800D911D112427
:10336000821793070CF49ACF49855A8514962C91AD
:103370008AA5280F3327331FEFA1E29FC001E39FE7
:10338000900D1124840F951F9A8789871C861B86B0
:1033900085CF882349F18B859C8558A52D813E8159
:1033A000D59E800D911D1124549F800D911D1124D7
:1033B000821793070CF472CFEB89FC898081998D79
:1033C000892B8083DF91CF911F910F91FF90EF9018
:1033D000DF90CF90AF909F908F907F906F905F9095
:1033E0004F903F902F90089589859A855FA1D6CF01
:1033F00049855A85E82EF12CCFA02D813E818C9DE8
:10340000400D511D112424173507B4F229853A8542
:103410004B855C858EA18F938DA18F938CA18F930B
:103420008BA18F938AA18F93A8A48201CE010E94C1
:10343000AE138B859C853AA128A5EFA1DE9EF001F5
:103440001124329FE00DF11D1124E80FF91FFC87B4
:10345000EB8773CFCF93DF93EA010E945917CE0118
:10346000DF91CF910895CF93DF931F92CDB7DEB751
:10347000698341E050E0BE016F5F7F4F0E945917A2
:1034800081E090E00F90DF91CF9108951F920F920D
:103490000FB60F9211248F939F938091E10090912A
:1034A000E100937F9093E10083FF0FC01092E90049
:1034B00091E09093EB001092EC0092E39093ED007A
:1034C0001092650398E09093F00082FF22C093E091
:1034D0009093E9009091F200992319F09AE3909368
:1034E000E80090916303992341F090916303915018
:1034F00090936303911101C05D9A909164039923A5
:1035000041F090916403915090936403911101C034
:10351000289A84FF18C08091E2008E7E816080939B
:10352000E2008091E1008F7E8093E1008091620350
:103530008E7E8061809362039F918F910F900FBE6A
:103540000F901F90189580FFF7CF8091E2008E7E3C
:1035500080618093E2008091E1008E7E8093E100A3
:10356000809162038E7E8160E5CF1F920F920FB62D
:103570000F921124CF92DF92EF92FF920F931F933D
:103580002F933F934F935F936F937F938F939F936B
:10359000AF93BF93EF93FF93CF93DF93CDB7DEB796
:1035A0006C97DEBFCDBF1092E9008091E80083FFE9
:1035B00025C068E0CE0145960E94E90382EF809322
:1035C000E8008D8987FF39C09091E80090FFFCCF1B
:1035D000982F907609F034C19E894F89588D2F8994
:1035E000F88C911131C0803861F58091610380932E
:1035F000F1001092F1008EEF8093E8006C960FB608
:10360000F894DEBF0FBECDBFDF91CF91FF91EF9158
:10361000BF91AF919F918F917F916F915F914F91EA
:103620003F912F911F910F91FF90EF90DF90CF90DE
:103630000F900FBE0F901F9018959EEF9093E8008B
:10364000C7CF1092F100D5CF913059F48111D3CF6B
:103650004130510581F6809161038D7F8093610334
:10366000CACF933049F48111C6CF4130510519F6C4
:10367000809161038260F2CF953041F48091E8003F
:1036800080FFFCCF20682093E300B5CF963009F08F
:10369000A9C00B8D1C8D22E01092E90010925F03EF
:1036A00010925E03F2122EC010925D0310925C0322
:1036B0000E9437041F8299E09983FA8291E09E83E9
:1036C00090EA98879AEF998720915E0330915F0383
:1036D000275F3F4F3C832B838D831092E90010922C
:1036E0005F0310925E0310935D0300935C0349E057
:1036F00050E0BE016F5F7F4F80E00E94B2030E94E6
:10370000370479CF10935D0300935C030E94230478
:10371000DC0112960D911C910115110509F451C19E
:10372000D801ED91FC910480F581E02DBE016B5E26
:103730007F4FC8010995009709F03EC1F801008547
:103740001185EACFF3E0FF120EC08F89882309F4B8
:1037500040C0823061F440E862E180E695E00E947A
:10376000311D811148CF81E28093EB0047CF81303A
:1037700029F440E868E087E595E0F1CF833099F7D8
:103780000E942304DC011296ED90FC908E010F5FE5
:103790001F4F6801E114F10479F0D701ED91FC911C
:1037A0000680F781E02DB801C7010995080F111DAA
:1037B000F701E084F184EECFD8011C92F60101906C
:1037C0000020E9F73197BF016C197D0940E0C6017F
:1037D000C6CF61E475E0FB01449150E080E80E94AF
:1037E000B20309CF973009F4BECF983021F481E0BD
:1037F0008093F10000CF993009F0FDCE837009F07D
:10380000B2CFE1E1F1E081E031E096E321912223C2
:1038100071F08093E9003093EB00DF0111972C9158
:103820002093EC009093ED008F5F873079F78EE75F
:103830008093EA001092EA008F8980936503DBCEC3
:103840008B8D9C8D1092E90010925F0310925E03A5
:1038500090935D0380935C03898D811192C08E8962
:103860009D89913A49F4813209F07DCF47E050E0DB
:1038700068E071E080E0B3CF913209F074CF833219
:1038800069F48F89988DB0E0A0E080930401909353
:103890000501A0930601B0930701ADCE803269F413
:1038A0008091E80082FFFCCF67E088E091E00E9411
:1038B000E9038BEF8093E8009ECE823209F09BCE25
:1038C0008F8980930F01EEEFFFE7859194918B3FF5
:1038D0009C4D51F1E0E0F8E08091080190910901E0
:1038E000A0910A01B0910B01803B9440A105B10564
:1038F000F1F480910F0180FD1AC0EE3F8AE0F807D5
:1039000089F587E797E791838083809160008093B2
:10391000600388E19BE00FB6F894A895809360005F
:103920000FBE9093600067CEEEEFFAE0D5CF8081B6
:1039300091818737974709F05ECEA8958091600006
:103940008861809360008091600380936000EE3F07
:103950002AE0F20789F08091FE0A9091FF0A918394
:10396000808349CE808191818737980751F2909367
:10397000FF0A8093FE0AC5CF1092FF0A1092FE0A3A
:103980003ACE0E942304DC0112960D911C91011580
:10399000110509F4E8CED801ED91FC910190F08178
:1039A000E02DBE016B5E7F4FC8010995811123CECA
:1039B000F80100851185EBCF181619060CF41BCE03
:1039C000D2CEF1E0FF12BECE65E475E004CF1F92C7
:1039D0000F920FB60F9211242F933F938F939F93C3
:1039E000AF93BF938091480390914903A0914A03FC
:1039F000B0914B033091470323E0230F2D3758F547
:103A00000196A11DB11D2093470380934803909315
:103A10004903A0934A03B0934B0380914C039091C8
:103A20004D03A0914E03B0914F030196A11DB11D0E
:103A300080934C0390934D03A0934E03B0934F0398
:103A4000BF91AF919F918F913F912F910F900FBE9A
:103A50000F901F90189526E8230F0296A11DB11D07
:103A6000D2CFEF92FF920F931F93CF93DF93F82E55
:103A7000192FE62E042F81E0860F880F0E94840301
:103A800083E00E948403CF2DD12FEC0EFD2EF11C7C
:103A9000CE15DF05B9F007FF13C0FE0184910E9427
:103AA0008403182F80E00E948403812321968111D2
:103AB000EFCFDF91CF911F910F91FF90EF9008957D
:103AC0008881EDCF81E0F5CFCF9310926B051092F6
:103AD0006A0588EE93E0A0E0B0E080936C059093D7
:103AE0006D05A0936E05B0936F0582E592E090930B
:103AF0006905809368058FEF9FEF9093750580931C
:103B0000740580E58093B8051092B9051092BF0541
:103B10001092C0051092C3051092C50582E090E096
:103B2000A0E0B0E08093C6059093C705A093C805B8
:103B3000B093C9051092DD051092E7051092E605D5
:103B400084E692E09093E5058093E4051092E90500
:103B50008CE792E090932B0680932A0680912206B0
:103B6000811113C010921D0610921C0683E795E088
:103B700090931F0680931E0689E190E090932106A2
:103B80008093200681E080932206809114068111A3
:103B90002AC0C1E0C0930706C09308068DE096E0F6
:103BA00090930A068093090610920C0610920B0659
:103BB00080E792E0909304068093030610920F062C
:103BC00010920E061092110610921006C093120663
:103BD000C093130681EC80930D060E9423040E947B
:103BE0001403C0931406E0910E06F0910F0630976F
:103BF00009F0F6C08CE196E090930F0680930E06D4
:103C00008091100690911106209120063091210696
:103C1000820F931F909311068093100680E5809386
:103C200034061092350683E090E090933706809337
:103C3000360686E0E7E1F1E0A8E3B6E001900D92F8
:103C40008A95E1F710924306109242062CE832E082
:103C5000309341062093400684E180935B069AE00E
:103C600090935C068FEF8093440610927F0610922B
:103C70007E0630937D0620937C0643E140939706B1
:103C800090939806809380061092BB061092BA0615
:103C90003093B9062093B80622E12093D30690937F
:103CA000D4068093BC0681E093E09093F506809360
:103CB000F40684E093E09093F7068093F60684EF91
:103CC00091E09093FC068093FB0680E590E0909352
:103CD000FE068093FD0682E090E0909300078093BB
:103CE000FF06909302078093010788E992E0909382
:103CF00012078093110784EC99E0A0E0B0E0809374
:103D00001B0790931C07A0931D07B0931E0786E026
:103D1000EDE1F1E0A9E2B7E001900D928A95E1F7BB
:103D200088E080932F0787E08093300780912301FC
:103D300090912401A091250180933107909332073F
:103D4000A09333071092360710923A071092390762
:103D500010923B0782E892E09093350780933407F6
:103D6000E0E5F7E01082148213821582369687E030
:103D7000EC38F807B9F78FE297E0909397078093B4
:103D8000960781E397E0909399078093980782E0E4
:103D900080939A0783E080939B0789E297E0909352
:103DA0009507809394078AE090E090939D07809315
:103DB0009C0784EF91E090939F0780939E07109259
:103DC000A2071092A10710929007109291071092EB
:103DD0009207109293071092A007CF910895FC01CB
:103DE000808191810097D9F78CE196E0918380835F
:103DF00007CFCF93DF93CDB7DEB728970FB6F894F0
:103E0000DEBF0FBECDBF789484B5826084BD84B51B
:103E1000816084BD85B5826085BD85B5816085BDC5
:103E200080916E00816080936E001092810080917D
:103E30008100826080938100809181008160809305
:103E4000810080918000816080938000809191004A
:103E500082608093910080919100816080939100B5
:103E6000809190008160809390008091C100846077
:103E70008093C1008091C10082608093C1008091D5
:103E8000C10081608093C1008091C30081608093F4
:103E9000C3008091C00082608093C0008091C20006
:103EA00081608093C20080917A00846080937A0060
:103EB00080917A00826080937A0080917A0081609C
:103EC00080937A0080917A00806880937A001092C3
:103ED000650310926103109262038091D7008160A4
:103EE0008093D70080EA8093D80089B5806189BD2E
:103EF00089B5826089BD09B400FEFDCF61E070E044
:103F000080E090E00E94F9058091D8008F7C80616C
:103F10008093D8008091E000807F8093E0008091C2
:103F2000E1008E7E8093E1008DE08093E200559A5F
:103F3000209A8FEF9FEF909375058093740568EE3C
:103F400073E080E090E00E94F90520E436E03887D5
:103F50002F836901912C812CFF24F39466246A94A9
:103F6000762C212C312C74EB472E73E4572E409184
:103F7000360650913706841695060CF065C23CE370
:103F8000389DF001399DF00D1124EA5CF94F108E37
:103F9000D601D5961C92D597D7961C92D797178A9B
:103FA0009D961C929D97148A138A168A158A989654
:103FB000FC9298979796FC92979799961C9299974E
:103FC0009A961C929A9792961C9292979B96FC9224
:103FD0009B9720E15D962C935D97808D8064808F08
:103FE000808D8460808FD9961C921E92D897DB9624
:103FF0007C926E92DA9796967C926E9295979496B2
:104000007C926E9293979F962D923D924D925C92E8
:10401000D297E6EAFFEFD496FC93EE93D397F0E5C0
:10402000F0933406F092350661E05C968C910E9424
:10403000940561E0D6015B968C910E949405F6018F
:10404000238D30E0F901E052FB4FE491F0E0EE0FF8
:10405000FF1FEE52FB4F85919491D60154969C938D
:104060008E9353975C968C915C9790E0FC01E052A4
:10407000FB4FE491F0E0EE0FFF1FEE52FB4F459136
:104080005491F601568B458BF901ED54FB4FE491A9
:104090005996EC935997FC01ED54FB4FE4915A96D5
:1040A000EC930E94B608D6015396ED91FC9154977B
:1040B000808159969C915997892B80835596ED91D3
:1040C000FC91569780815A969C915A97892B8083B0
:1040D00014968C918F3F29F161E00E94940561E074
:1040E000F60184810E9462056AE070E080E090E061
:1040F0000E94F90560E0D60114968C910E94620539
:104100006AE070E080E090E00E94F90561E0F6016D
:1041100084810E9462056AE070E080E090E00E9485
:10412000F9056EE170E080E090E00E94F905809171
:104130003406909135060E94670BD6015396ED9197
:10414000FC915497908159968C9180958923808316
:10415000BCE3B89DF001B99DF00D1124EA5CF94F64
:10416000808D8062808F42E16DEFC6010E944D0B11
:1041700041EB6DEFC6010E944D0B6EEAC6010E9435
:10418000560941EF63EBC6010E944D0B4FE76AEC05
:10419000C6010E944D0B40E061EAC6010E944D0B32
:1041A00040E062EAC6010E944D0B40E065EBC601AB
:1041B0000E944D0B41E06BEAC6010E944D0B64EB7F
:1041C000C6010E94560960EAC6010E94470965EBD4
:1041D000C6010E94470965E5C6010E94470961ECD6
:1041E000C6010E94560968ECC6010E94470960E8B2
:1041F000C6010E94470968ECC6010E9447094FE0CA
:1042000067ECC6010E944D0B62EBC6010E94560985
:1042100064EAC6010E94470960E0C6010E9447099E
:1042200060E0C6010E94470969EBC6010E94560979
:1042300042E361EBC6010E944D0B41E066EBC60113
:104240000E944D0B45E06EEBC6010E944D0B66EAE5
:10425000C6010E945609D6015596ED91FC915697DC
:1042600090815A968C91809589238083BFEABEBD48
:104270000DB407FEFDCFD6015396ED91FC915497F6
:10428000808159969C91892B80836CE370E080E05B
:1042900090E00E94F905F60116AA17AAFCE3F89D22
:1042A000C001F99D900D11249C012A5C394F5901E0
:1042B000D90158968C915897847E58968C9358972C
:1042C000E0E8F0E05096FC93EE931F975296FC9333
:1042D000EE93519758968C915897806158968C938D
:1042E000589754961C921E92539756961C921E9263
:1042F000559780913406909135060E94670BD60140
:104300005396ED91FC915497908159968C9180959C
:1043100089238083F501078510892189328901501D
:10432000110921503109E12C50E040E070E060E0DB
:10433000C6010E94660960EAC6010E945609D501BD
:1043400058969C91D6015596ED91FC915697808197
:104350005A962C91822B80839EBD0DB407FEFDCF13
:10436000D6015396ED91FC915497808159969C917A
:104370005997892B8083D8966D917C91C6010E94B4
:10438000491326E432E0F60131A320A314A660E22B
:10439000C6010E94B90997FDF4CFFC01EE0FFF1F83
:1043A000E80FF91FEA5DFE4F0180F281E02D3296A1
:1043B000E491F0E0D6015F96FC93EE935E9761E0A6
:1043C00070E080E090E00E94F905F60185A988235D
:1043D000A1F180913406909135060E94670BD601B9
:1043E0005396ED91FC915497908159968C915997E1
:1043F000809589238083D5968C91863021F46FEA4D
:10440000C6010E945609F60185A9893029F442E1C6
:104410006DEFC6010E944D0B66EAC6010E94560967
:10442000D601D5961C92D5975396ED91FC91549751
:10443000808159969C91892B8083BFEF8B1A9B0AB0
:10444000ECE3CE0ED11C93CD80E496E090933F0632
:1044500080933E06E6E3F6E090E080E022E08417F9
:1044600095072CF422AB21AB0196FC96F8CFECE239
:10447000F6E088E0DF011D928A95E9F748E050E018
:10448000BF018AE296E00E942C080E94DB0660933E
:1044900008077093090780930A0790930B0781E040
:1044A00080930E0710920F07109210074BEF56E003
:1044B00060E476E081E197E00E94931380E496E067
:1044C00090932807809327078CE796E09093240722
:1044D00080932307909326078093250781E197E037
:1044E0000E9493161E821D82F5E1EF2EA2E5DA2EC0
:1044F000B0E5CB2E13E0F12E412C02E0502E612CC2
:10450000712C86E0382E8091E905882341F061E026
:1045100084EE95E00E94311181111092E90510920C
:10452000C5051092C3051092C0051092BF05E09218
:10453000BE050E94DB068B0161E08091BE050E94F2
:10454000940561E08091BE050E9462050E94B60854
:10455000D092B8051092B9058091B8059091B9052F
:104560000E94670BEAE0BE2E8FEF0E944307BA94C9
:10457000B110FACF8AEB95E00E946A0B20E030E0A0
:10458000A90160E08AEB95E00E94800BB82E809331
:10459000C405B1E08B1779F00E94DB06601B710B3C
:1045A000613D774058F381E08093BF058AEB95E049
:1045B0000E945C0B75C02AEA31E040E050E068E000
:1045C0008AEB95E00E94800B82FF2AC0B092C5055D
:1045D0008091C505812C912CA12C60E4B62E8230EF
:1045E00019F0812C912C540120E030E0A90167E3FF
:1045F0008AEB95E00E94800BA501940169E28AEBA9
:1046000095E00E94800B8093C4058823D1F00E941E
:10461000DB06601B710B613D774030F388E0C4CF4F
:1046200074E0B72E0E944A078093C405BA94B11073
:10463000F9CF8A3A11F082E0B7CF82E08093C505C6
:10464000C7CF8091C5058230D1F420E030E0A901C8
:104650006AE38AEB95E00E94800B882319F0309280
:10466000BF05A4CF0E944A07807C803C11F4F092E1
:10467000C5050E944A070E944A070E944A078AEB22
:1046800095E00E945C0BC092B8051092B90581E0DC
:104690000E94510D8823F9F08091E905882309F1E2
:1046A00069E173E088E695E00E94D4146D817E8113
:1046B0006F5F7F4F88E695E00E94E3148D819E81B5
:1046C00009970CF4FFC06CE273E088E695E00E9465
:1046D000761580E055C080E00E94510D882301F3DB
:1046E000DBCF8091DD05803109F092C082E08093BC
:1046F000E9051092FB051092FC051092FD05109241
:10470000FE058091DE059091DF05B0E0A0E055E068
:10471000880F991FAA1FBB1F5A95D1F78093F705E1
:104720009093F805A093F905B093FA0586EC95E00F
:10473000909300068093FF0581E08093E805109236
:10474000EA051092EB051092EC051092ED0510921F
:10475000EE051092EF051092F0051092F1051092FF
:10476000F2051092F3051092F4051092F5051092DF
:10477000F60569E073E088E695E00E94761581E031
:104780008093A30781E08093060710E000E080910A
:10479000360690913706081719070CF499C0412C7A
:1047A000512C3201439440E0842E40E0942E51E09D
:1047B0005093A0070E94DB0600919007109191078B
:1047C0002091920730919307AB01BC01401B510B24
:1047D000620B730B80919C0790919D07B0E0A0E065
:1047E00084179507A607B70708F07BC110E08091F2
:1047F0009A07181708F079C0E0919607F09197078B
:10480000E10FF11D62E080810E9494051F5FEFCFF0
:10481000803209F045CFF092E9058091E005909152
:10482000E105A091E205B091E3058093FB0590932B
:10483000FC05A093FD05B093FE0589839A83AB83A5
:10484000BC83812C912C540149815A816B817C81DC
:104850009E012F5F3F4F86EC95E00E941C0F88233E
:1048600009F41ECF8091D305A301920104C0220F49
:10487000331F441F551F8A95D2F7DA01C901880EEC
:10488000991EAA1EBB1E49815A816B817C81809131
:10489000DD05803191F488EF9FEFA0E0B0E048178C
:1048A00059076A077B0780F28092F7059092F80516
:1048B000A092F905B092FA0539CF88EF9FEFAFEFDC
:1048C000BFE0EDCF8D819E8101969E838D831BCEAF
:1048D0008F8198850E9481130F5F1F4F4F815885EC
:1048E000445C5F4F58874F8352CF312C80919B0798
:1048F000381608F061C0E32CF12CE0919807F09194
:104900009907EE0DFF1D61E080810E949405E09102
:104910009807F0919907EE0DFF1D60E080810E94DD
:104920006205D301C201032C04C0880F991FAA1F7E
:10493000BB1F0A94D2F75C016C01C094D094212C67
:1049400080919A07281608F5022D10E0E09196074D
:10495000F0919707E00FF11F80810E9436050C5FF0
:104960001F4F000F111FF801EC5CF84F892B41F429
:10497000808191818A299B29918380832394E0CF30
:10498000808191818C219D21F7CFE0919807F09152
:104990009907EE0DFF1D61E080810E946205809104
:1049A000980790919907E80EF91E60E0D7018C9165
:1049B0000E94940533949ACFE0E5F7E083819481D7
:1049C000892B31F410822FEF3FEF32832183158240
:1049D000369637E0EC38F30789F7F12C80919A0787
:1049E000F81608F051C0E12C0F2D10E0000F111F38
:1049F000045C184F20919B07E21608F043C0D801D1
:104A00006D917C910E2C02C0769567950A94E2F721
:104A1000F29E900111242E0D311DE1E5F7E080E0BA
:104A2000408151812417350709F49BC08F5F36966A
:104A30008A30B1F760FF24C0E0E5F7E090E080E065
:104A40004081411118C0E0919407F0919507E20F61
:104A5000F31F4081B6E0B89FF001B99FF00D11241B
:104A6000EC5CF84F448F368F258F10A2178E61E0D3
:104A70000E94E70605C0019636968A30910501F737
:104A8000E394B8CFF394AACFE5E5F7E010E0808196
:104A90008111182F369621E937E02E173F07B9F715
:104AA0000E94DB06609390077093910780939207B2
:104AB000909393071123A9F080915507882389F0DB
:104AC0008091530790915407019759F480915007B2
:104AD00081110AC08114910409F469CE0E9400007A
:104AE00066CE1092A007F6CF90910307909304072B
:104AF00080930307981331C010920507813311F496
:104B00000E948A1580910307823329F461E081E1D4
:104B100097E00E94C91580910307833329F460E070
:104B200081E197E00E94C91580910307843311F455
:104B30000E948A1580910307853329F461E081E1A1
:104B400097E00E94C91580910307863319F660E04B
:104B500081E197E00E94C915BDCF31E03093050790
:104B6000CDCF617085CFFB01DC0102C005900D92B5
:104B700041505040D8F708950E94E925A59F900D17
:104B8000B49F900DA49F800D911D11240895A1E262
:104B90001A2EAA1BBB1BFD010DC0AA1FBB1FEE1FB7
:104BA000FF1FA217B307E407F50720F0A21BB30B02
:104BB000E40BF50B661F771F881F991F1A9469F77E
:104BC00060957095809590959B01AC01BD01CF01DA
:104BD0000895A29FB001B39FC001A39F700D811DD6
:104BE0001124911DB29F700D811D1124911D0895F6
:104BF0005058BB27AA270E9410260C945A270E94BF
:104C00004C2738F00E94532720F039F49F3F19F4C5
:104C100026F40C9449270EF4E095E7FB0C94432707
:104C2000E92F0E946B2758F3BA17620773078407AE
:104C3000950720F079F4A6F50C948D270EF4E095F5
:104C40000B2EBA2FA02D0B01B90190010C01CA0146
:104C5000A0011124FF27591B99F0593F50F4503EF1
:104C600068F11A16F040A22F232F342F4427585FE3
:104C7000F3CF469537952795A795F0405395C9F7FB
:104C80007EF41F16BA0B620B730B840BBAF09150B3
:104C9000A1F0FF0FBB1F661F771F881FC2F70EC052
:104CA000BA0F621F731F841F48F487957795679525
:104CB000B795F7959E3F08F0B0CF9395880F08F011
:104CC0009927EE0F9795879508950E9479260C9461
:104CD0005A270E94532758F00E944C2740F029F48D
:104CE0005F3F29F00C94432751110C948E270C94AC
:104CF00049270E946B2768F39923B1F3552391F359
:104D0000951B550BBB27AA2762177307840738F03A
:104D10009F5F5F4F220F331F441FAA1FA9F335D097
:104D20000E2E3AF0E0E832D091505040E695001C4B
:104D3000CAF72BD0FE2F29D0660F771F881FBB1F05
:104D4000261737074807AB07B0E809F0BB0B802DE3
:104D5000BF01FF2793585F4F3AF09E3F510578F00F
:104D60000C9443270C948E275F3FE4F3983ED4F3D2
:104D7000869577956795B795F7959F5FC9F7880FE3
:104D8000911D9695879597F90895E1E0660F771F35
:104D9000881FBB1F621773078407BA0720F0621BC6
:104DA000730B840BBA0BEE1F88F7E09508950E94F1
:104DB000732788F09F5798F0B92F9927B751B0F013
:104DC000E1F0660F771F881F991F1AF0BA95C9F78F
:104DD00014C0B13091F00E948D27B1E008950C9479
:104DE0008D27672F782F8827B85F39F0B93FCCF32C
:104DF000869577956795B395D9F73EF4909580950C
:104E0000709561957F4F8F4F9F4F0895E89409C02B
:104E100097FB3EF490958095709561957F4F8F4FED
:104E20009F4F9923A9F0F92F96E9BB279395F69503
:104E3000879577956795B795F111F8CFFAF4BB0F81
:104E400011F460FF1BC06F5F7F4F8F4F9F4F16C0E5
:104E5000882311F096E911C0772321F09EE8872F6F
:104E6000762F05C0662371F096E8862F70E060E02B
:104E70002AF09A95660F771F881FDAF7880F9695A4
:104E8000879597F9089597F99F6780E870E060E04B
:104E900008959FEF80EC089500240A9416161706D3
:104EA00018060906089500240A941216130614061B
:104EB00005060895092E0394000C11F4882352F07E
:104EC000BB0F40F4BF2B11F460FF04C06F5F7F4F36
:104ED0008F4F9F4F089557FD9058440F551F59F01D
:104EE0005F3F71F04795880F97FB991F61F09F3FD7
:104EF00079F087950895121613061406551FF2CF00
:104F00004695F1DF08C0161617061806991FF1CF4F
:104F100086957105610508940895E894BB27662776
:104F20007727CB0197F908950E94A7270C945A2759
:104F30000E944C2738F00E94532720F0952311F04F
:104F40000C9443270C94492711240C948E270E941B
:104F50006B2770F3959FC1F3950F50E0551F629F2B
:104F6000F001729FBB27F00DB11D639FAA27F00DC2
:104F7000B11DAA1F649F6627B00DA11D661F829FE9
:104F80002227B00DA11D621F739FB00DA11D621FCE
:104F9000839FA00D611D221F749F3327A00D611DEB
:104FA000231F849F600D211D822F762F6A2F1124CD
:104FB0009F5750409AF0F1F088234AF0EE0FFF1F00
:104FC000BB1F661F771F881F91505040A9F79E3F57
:104FD000510580F00C9443270C948E275F3FE4F337
:104FE000983ED4F3869577956795B795F795E795AD
:104FF0009F5FC1F7FE2B880F911D9695879597F9B6
:105000000895EE0FFF1F0590F491E02D0994F89498
:02501000FFCFD0
:10501200FFFFFFFFFFFFFFFF00E1000000000000B5
:1050220000C18081000000140013001200313233ED
:10503200343536060504207404216F04226A0423E1
:105042006504246004255B04265604275104284C79
:10505200042947042A42042B3D042C38042D33042E
:105062002E2E042F2904302404311F04321A043353
:105072001504341004350B0436060437010438FCD9
:105082000339F7033AF2033BED033CE8033DE30344
:105092003EDE033FD90340D40341CF0342CA034358
:1050A200C50344C00345BB0346B60347B10348AC3E
:1050B2000349A7034AA2034B9D034C98034D930354
:1050C2004E8E034F8903508403517F03527A035358
:1050D2007503547003556B03566603576103585C9E
:1050E200035957035A52035B4D035C48035D430364
:1050F2005E3E035F3903603403612F03622A036358
:105102002503642003651B03661603671103680CFD
:10511200036907036A02036BFD026CF8026DF30276
:105122006EEE026FE90270E40271DF0272DA02735C
:10513200D50274D00275CB0276C60277C10278BC62
:105142000279B7027AB2027BAD027CA8027DA30289
:105152007E9E02B099026026010008010000000054
:1051620000006804C50689047E04D0048E04AC04E1
:1051720000000000D411F60373118F130000000029
:105182006807E107A6078B07000000002C08000053
:105192000000D00590055F0500000000331A2A1AAE
:1051A20090138F13000000009316931375160D0AC7
:1051B2000053797374656D00536F756E64004D759D
:1051C20074656400566F6C756D65205570210056CC
:1051D2006F6C756D6520446F776E2100566F6C752C
:1051E2006D650043616C6962726174696E6700414A
:1051F2007564696F00766F6C756D652073657420D8
:10520200746F00766F6C756D6520736574757021AF
:10521200002E63002E74787400534420436172643C
:10522200204D6F756E746564005344204D6F756E2A
:105232007420417474656D70743A20004361726425
:0E524200204D6F756E74204661696C656400C6
:1070000055C000006EC000006CC000006AC00000E7
:1070100068C0000066C0000064C0000062C00000DC
:1070200060C000005EC00000FCC400005AC0000048
:1070300058C0000056C0000054C0000052C00000FC
:1070400050C000005DC000004CC000004AC00000FD
:1070500048C0000046C0000044C0000042C000001C
:1070600040C000003EC000003CC000003AC000002C
:1070700038C0000036C0000034C0000032C000003C
:1070800030C000002EC000002CC000002AC000004C
:1070900028C0000026C0000024C0000022C000005C
:1070A00020C000001EC000001CC0000011241FBE34
:1070B000CFEFDAE0DEBFCDBF11E0A0E0B1E0E6E463
:1070C000FFE702C005900D92A43BB107D9F711E08C
:1070D000A4EBB1E001C01D92AD3CB107E1F74FD385
:1070E00030C78ECFF89410926F001092810081E02B
:1070F00085BF15BE47985D9A289A0C9400000895A4
:107100001F920F920FB60F9211242F938F939F937C
:10711000EF93FF9310928500109284008091B40148
:107120009091B501009741F001979093B50180933C
:10713000B401892B09F45D9A8091B6019091B70151
:10714000009741F001979093B7018093B601892B86
:1071500009F4289A8091BA019091BB01019690930D
:10716000BB018093BA01E0E0F0E0859194918F5FDC
:107170009F4F49F08091B8019091B9010196909389
:10718000B9018093B801FF91EF919F918F912F9159
:107190000F900FBE0F901F90189584E08093E90028
:1071A0000DC08091E8008B778093E80003C08EB318
:1071B000882351F08091E80082FFF9CF8091E800A8
:1071C00085FFEFCF8091F1000895982F83E08093A1
:1071D000E9008091E80085FD0DC08091E8008E7780
:1071E0008093E80003C08EB3882369F08091E800A3
:1071F00080FFF9CF9093F1005D9884E690E0909342
:10720000B5018093B40108954F925F926F927F927F
:107210008F929F92AF92BF92CF92DF92EF92FF92A6
:107220000F931F93CF93DF9384E08093E9008091C5
:10723000E80082FF57C2289884E690E09093B70157
:107240008093B601AADF182F853481F48CE49DE188
:107250009093B9018093B80107B600FCFDCFF9996E
:10726000FECF81E180935700E89503C0843519F47F
:1072700094DF8DE00DC28C34E1F38035D1F3843797
:1072800021F484E4A2DF80E003C2813611F489E5B1
:10729000FFC18134B1F481DF182F7FDF90E0880FC8
:1072A000991FAA2797FDA095BA2F312F330F20E001
:1072B000442737FD4095542F822B932BA42BB52BBD
:1072C000B8C1803711F483E5E3C1833549F4C0E0E8
:1072D000D1E089917ADF21E0C730D207D1F7D9C157
:1072E000863521F481E371DF80E3D2C1833731F445
:1072F00087E86BDF85E969DF8EE1CAC18536B9F4BD
:10730000E0E0F0E093E085E090935700E89507B661
:1073100000FCFDCF80935700E89507B600FCFDCF39
:10732000E058FF4FA0E7E030FA0771F7A2CF8237AD
:1073300039F4E1E0F0E089E0809357008491A8C13E
:10734000863439F4E0E0F0E089E0809357008491DE
:107350009FC18E3439F4E3E0F0E089E08093570078
:10736000849196C1813539F4E2E0F0E089E08093C0
:10737000570084918DC1823631F489E526DF80E0A3
:1073800024DF80E885C1823419F0873609F0E5C032
:107390001092B9011092B80100DF082FFEDEF82E1E
:1073A000FCDE682E8554823008F071C1902F80E099
:1073B000CF2DD0E0C82BD92B10926F00173609F0D3
:1073C0004BC081E180935700E895DD24CC24C39421
:1073D0003FC0E090BD01F090BE010091BF0110914F
:1073E000C001B6E46B16D9F4ED2DF0E0EE29FF29CB
:1073F000E4918E2FEADEDD2081F082E090E0A0E0D3
:10740000B0E0E80EF91E0A1F1B1FE092BD01F092CA
:10741000BE010093BF011093C001DC2418C0D80145
:10742000C701B695A7959795879575D5CEDE82E06D
:1074300090E0A0E0B0E0E80EF91E0A1F1B1FE092EA
:10744000BD01F092BE010093BF011093C0012197CE
:10745000209709F0BECF7DC08090BD019090BE0105
:10746000A090BF01B090C00196E4691609F05DC01C
:1074700083E0F40180935700E89507B600FCFDCF48
:1074800054C0F6E46F1661F5772031F1E090BD014C
:10749000F090BE010091BF011091C0017EDED82E98
:1074A000CC24852D90E08C299D29F7010C01409278
:1074B0005700E895112482E090E0A0E0B0E0E80EEB
:1074C000F91E0A1F1B1FE092BD01F092BE0100933E
:1074D000BF011093C00102C060DE582E742423C087
:1074E000E090BD01F090BE010091BF011091C0017C
:1074F00016950795F794E79450DE682FC70113D5CA
:107500008091BD019091BE01A091BF01B091C001D9
:107510000296A11DB11D8093BD019093BE01A09361
:10752000BF01B093C001219704C05524772444249F
:107530004394209709F0A5CF96E4691641F485E0BD
:10754000F40180935700E89507B600FCFDCF8DE06D
:107550003CDE82E080936F009CC0833471F4009124
:10756000BD011091BE0119DE90E021E0F8010C018F
:1075700020935700E89511247CCE833619F5E090CE
:10758000BD01F090BE010091BF011091C00105DE68
:10759000F701E16090E021E00C0120935700E895AD
:1075A000112482E090E0A0E0B0E0E80EF91E0A1F8E
:1075B0001B1FE092BD01F092BE010093BF0110932A
:1075C000C00157CE8D3661F4E091BD01F091BE014E
:1075D00085E080935700E89507B600FCFDCF49CEC3
:1075E000823551F4E091BD01F091BE0105911491F5
:1075F000812FEBDD802F4CC0843421F5E090BD015C
:10760000F090BE010091BF011091C0011695079541
:10761000F794E794C2DD682FC70185D48091BD013E
:107620009091BE01A091BF01B091C0010296A11D31
:10763000B11D8093BD019093BE01A093BF01B09393
:10764000C00117CE843609F5E090BD01F090BE016F
:107650000091BF011091C001D801C701B695A7954F
:107660009795879558D4B1DD82E090E0A0E0B0E036
:10767000E80EF91E0A1F1B1FE092BD01F092BE0129
:107680000093BF011093C00104C08B3111F08FE350
:107690009CDD83E08093E9009091E8008091E80010
:1076A0008E778093E80095FF04C010C08EB38823C6
:1076B000C9F08091E80080FFF9CF8091E8008E77D3
:1076C0008093E80003C08EB3882361F08091E800C6
:1076D00080FFF9CF84E08093E9008091E8008B7708
:1076E0008093E800DF91CF911F910F91FF90EF9071
:1076F000DF90CF90BF90AF909F908F907F906F90D2
:107700005F904F9008959091C501892F8F778132B6
:1077100049F58091C6018032A1F0813219F5913A84
:1077200009F58091E800877F8093E8008CE091E084
:1077300067E070E027D28091E8008B778093E800C3
:107740000895913279F48091E800877F8093E80072
:107750008CE091E067E070E079D28091E8008E776C
:107760008093E800089582E061EC42E0D1D083E0AC
:1077700061E842E1CDD084E060E842E1C9C01F93F6
:10778000209100081092000844B714BE88E10FB69B
:10779000F89480936000109260000FBE80E8E0E0F3
:1077A000F0E00FB6F89480936100E09361000FBEA3
:1077B00031E035BF92E095BF3F9A209A559A809369
:1077C00061001092610047985D9A289A1092890092
:1077D0008AEF8093880090936F0083E0809381000C
:1077E000859194918F5F9F4F11F03093BC01942F3E
:1077F00041FF19C0809109012817A9F08093000862
:10780000789480911301882339F08091BA01909186
:10781000BB018F5E9240C8F3F8941092000881E09B
:10782000809313010CC090FF04C08091BC01882399
:1078300051F493FF09C080910901281729F0809124
:10784000BC01882309F04EDCD4D078941092B901A1
:107850001092B8011EEF20C0D7DC4BD38091B80145
:107860009091B90181549F4110F0109213018091C1
:10787000C1019091C20101969093C2018093C10110
:10788000292F97FF03C0512F591B252F220F28178F
